:020000040800F2
:1000000000000220C5670208715602087F560208E8
:10001000855602088B56020891560208000000001F
:10002000000000000000000000000000514E010828
:10003000975602080000000061500108C9500108ED
:100040001568020815680208156802081568020894
:100050001568020815680208156802081568020884
:100060001568020815680208156802081568020874
:100070001568020815680208156802081568020864
:100080001568020815680208156802081568020854
:100090001568020815680208156802081568020844
:1000A00015680208A55602081568020815680208B6
:1000B0001568020815680208156802081568020824
:1000C0001568020815680208156802081568020814
:1000D00015680208B9560208156802081568020872
:1000E00015680208156802081568020815680208F4
:1000F000CD5602081568020815680208E156020884
:1001000015680208156802081568020815680208D3
:1001100015680208F5560208156802080957020812
:1001200015680208156802081568020815680208B3
:10013000156802081D5702081568020815680208AC
:100140001568020815680208156802081568020893
:100150001568020815680208315702081568020878
:100160001568020815680208156802081568020873
:1001700015680208156802081568020800000000EA
:08018000156802081568020869
:020000040801F1
:1000000010B5054C237833B9044B13B10448AFF352
:1000100000800123237010BD20020020000000009A
:10002000506A020808B5034B1BB103490348AFF3FC
:10003000008008BD0000000024020020506A020871
:1000400010F8012B11F8013B012A28BF9A42F7D082
:10005000D01A7047034613F8012B002AFBD1181A57
:100060000138704753B94AB9002908BF00281CBF9E
:100070004FF0FF314FF0FF3000F07AB9ADF1080CCE
:100080006DE904CE00F006F8DDF804E0DDE90223B6
:1000900004B070472DE9F0478C460D460446089E93
:1000A000002B51D18A4217466DD9B2FA82FEBEF1B9
:1000B000000F0BD0CEF1200C01FA0EF520FA0CFC4B
:1000C00002FA0EF74CEA050C00FA0EF44FEA174A52
:1000D000250CBCFBFAF81FFA87F90AFB18CC45EA95
:1000E0000C4508FB09F3AB420AD9ED1908F1FF32C0
:1000F00080F02381AB4240F22081A8F102083D4408
:10010000ED1AA4B2B5FBFAF00AFB105544EA054417
:1001100000FB09F9A14509D9E41900F1FF3380F08A
:100120000A81A14540F2078102383C44A4EB09044E
:1001300040EA08400021002E61D024FA0EF400238A
:1001400034607360BDE8F0878B4207D9002E54D02D
:10015000002186E821000846BDE8F087B3FA83F164
:10016000002940F08E80AB4202D3824200F2FA8036
:10017000841A65EB03050120AC46002E3FD086E8CB
:100180001010BDE8F08712B90127B7FBF2F7B7FAF4
:1001900087FEBEF1000F34D1EB1B3A0C1FFA87FC2F
:1001A0000121B3FBF2F8250C02FB183345EA0345A5
:1001B0000CFB08F3AB4207D9ED1908F1FF3002D26E
:1001C000AB4200F2D1808046ED1AA3B2B5FBF2F04B
:1001D00002FB105543EA05440CFB00FCA44507D97B
:1001E000E41900F1FF3302D2A44500F2B8801846AA
:1001F000A4EB0C0440EA08409DE731463046BDE8D8
:10020000F087CEF1200405FA0EF307FA0EF720FA74
:1002100004F83A0C25FA04F448EA0308B4FBF2F1B6
:100220004FEA184502FB11441FFA87FC45EA0445D2
:1002300001FB0CF3AB4200FA0EF409D9ED1901F100
:10024000FF3080F08A80AB4240F2878002393D4423
:10025000EB1A1FFA88F5B3FBF2F002FB103345EA04
:10026000034500FB0CF3AB4207D9ED1900F1FF3851
:100270006FD2AB426DD902383D44EB1A40EA0141DE
:100280008FE7C1F1200722FA07F88B4005FA01F445
:1002900048EA030320FA07FE4FEA134CFD404EEAFA
:1002A000040EB5FBFCF94FEA1E440CFB19551FFA6E
:1002B00083F844EA054509FB08F4AC4202FA01F26E
:1002C00000FA01FA08D9ED1809F1FF3043D2AC4227
:1002D00041D9A9F102091D442D1B1FFA8EFEB5FB61
:1002E000FCF00CFB10554EEA054400FB08F8A04555
:1002F00007D9E41800F1FF3529D2A04527D90238E3
:100300001C4440EA0940A4EB0804A0FB02894C45C8
:10031000C6464D4615D312D056B1BAEB0E0364EB68
:10032000050404FA07F7CB401F43CC4037607460E4
:100330000021BDE8F0871846F8E69046E0E6C245A1
:10034000EAD2B8EB020E69EB03050138E4E7284670
:10035000D7E7404691E78146BEE7014678E7023895
:100360003C4445E7084608E7A8F102083D442BE76E
:10037000704700BF80B500AF0E4A0E4B1B6843F4B8
:10038000007313600B4A0B4B1B6843F480631360CC
:10039000084A084B1B6843F480731360032000F085
:1003A0000EF9002015F00AF915F0DCF800231846C4
:1003B00080BD00BF003C024080B400AF064B1B78FC
:1003C0001A46064B1B681344044A136000BFBD461F
:1003D0005DF8047B704700BF00000020B4A100203E
:1003E00080B400AF034B1B681846BD465DF8047B24
:1003F000704700BFB4A1002080B584B000AF786022
:10040000FFF7EEFFB8607B68FB60FB68B3F1FF3F6E
:1004100005D0094B1B781A46FB681344FB6000BFEC
:10042000FFF7DEFF0246BB68D21AFB689A42F7D399
:1004300000BF1037BD4680BD0000002080B485B0ED
:1004400000AF78607B6803F00703FB600C4BDB6850
:10045000BB60BA684FF6FF031340BB60FB681A022B
:10046000BB68134343F0BF6343F40033BB60044AEB
:10047000BB68D36000BF1437BD465DF8047B70478E
:1004800000ED00E080B400AF044BDB681B0A03F012
:1004900007031846BD465DF8047B704700ED00E099
:1004A00080B483B000AF0346FB71094997F9073068
:1004B0005B09FA7902F01F02012000FA02F241F80A
:1004C000232000BF0C37BD465DF8047B704700BF9A
:1004D00000E100E080B483B000AF0346FB7109493E
:1004E00097F907305B09FA7902F01F02012000FA40
:1004F00002F2203341F8232000BF0C37BD465DF8DF
:10050000047B704700E100E080B483B000AF034695
:100510003960FB7197F90730002B0BDA0D49FB7935
:1005200003F00F03043B3A68D2B21201D2B20B447B
:100530001A7609E0084997F907303A68D2B21201F1
:10054000D2B20B4483F8002300BF0C37BD465DF8E0
:10055000047B704700ED00E000E100E080B489B06A
:1005600000AFF860B9607A60FB6803F00703FB61D5
:10057000FB69C3F10703042B28BF0423BB61FB699C
:100580000433062B02D9FB69033B00E000237B61A7
:100590000122BB6902FA03F35A1EBB681A407B6949
:1005A0009A4001217B6901FA03F3591E7B680B40D5
:1005B000134318462437BD465DF8047B704780B569
:1005C00082B000AF78607868FFF738FF00BF083767
:1005D000BD4680BD80B586B000AF0346B9607A6085
:1005E000FB7300237B61FFF74DFF78617A68B96880
:1005F0007869FFF7B3FF024697F90F3011461846A6
:10060000FFF782FF00BF1837BD4680BD80B582B0BE
:1006100000AF0346FB7197F907301846FFF740FF1C
:1006200000BF0837BD4680BD80B582B000AF03462D
:10063000FB7197F907301846FFF74CFF00BF0837EA
:10064000BD4680BD80B586B000AF786000237B6179
:10065000FFF7C6FE38617B68002B01D1012399E0CA
:100660007B68002283F834207B68022283F83520DF
:100670007B681B687A681268126822F001021A60AF
:100680000FE0FFF7ADFE02463B69D31A052B08D9F0
:100690007B6820225A657B68032283F83520032378
:1006A00078E07B681B681B6803F00103002BE8D12E
:1006B0007B681B681B687B617A69384B13407B61E0
:1006C0007B685A687B689B681A437B68DB681A43BF
:1006D0007B681B691A437B685B691A437B689B696B
:1006E0001A437B68DB691A437B681B6A13437A6988
:1006F00013437B617B685B6A042B07D17B68DA6AF2
:100700007B681B6B13437A6913437B617B681B68AF
:100710007A691A607B681B685B697B617B6923F07F
:1007200007037B617B685B6A7A6913437B617B6843
:100730005B6A042B17D17B689B6A7A6913437B61E0
:100740007B68DB6A002B0ED0786800F0E5FA034680
:10075000002B08D07B6840225A657B68012283F811
:100760003520012316E07B681B687A695A61786836
:1007700000F09CFA0346FB607B68DB6D3F229A40E9
:10078000FB689A607B6800225A657B68012283F8C7
:100790003520002318461837BD4680BD3F8010F035
:1007A00080B584B000AF78607B68002B01D1012355
:1007B0003EE07B6893F83530DBB2022B01D1022397
:1007C00036E07B681B687A681268126822F00102C2
:1007D0001A607B681B6800221A607B681B68002215
:1007E0005A607B681B6800229A607B681B68002245
:1007F000DA607B681B6800221A617B681B68212213
:100800005A61786800F052FA0346FB607B68DB6D42
:100810003F229A40FB689A607B6800225A657B6899
:10082000002283F835207B68002283F834200023DF
:1008300018461037BD4680BD80B586B000AFF86061
:10084000B9607A603B600023FB75FB689B6D3B6180
:10085000FB6893F83430012B01D1022348E0FB6898
:10086000012283F83420FB6893F83530DBB2012B8A
:1008700037D1FB68022283F83520FB6800225A65D5
:100880003B687A68B968F86800F0E2F9FB68DB6DEC
:100890003F229A403B699A60FB681B68FA681268BD
:1008A000126842F016021A60FB681B68FA68126848
:1008B000526942F080025A61FB681B6C002B07D022
:1008C000FB681B68FA681268126842F008021A6036
:1008D000FB681B68FA681268126842F001021A602D
:1008E00005E0FB68002283F834200223FB75FB7DC2
:1008F00018461837BD4680BD80B483B000AF78601D
:100900007B6893F83530DBB2022B04D07B68802201
:100910005A6501230CE07B68052283F835207B684B
:100920001B687A681268126822F001021A600023BC
:1009300018460C37BD465DF8047B704780B586B01D
:1009400000AF78600023BB60924B1B68924AA2FB09
:1009500003239B0A7B617B689B6D3B613B691B6842
:10096000FB607B68DB6D08229A40FB681340002B1C
:100970001AD07B681B681B6803F00403002B13D09C
:100980007B681B687A681268126822F004021A6099
:100990007B68DB6D08229A403B699A607B685B6DDF
:1009A00043F001027B685A657B68DB6D01229A4047
:1009B000FB681340002B12D07B681B685B6903F057
:1009C0008003002B0BD07B68DB6D01229A403B69D2
:1009D0009A607B685B6D43F002027B685A657B68B6
:1009E000DB6D04229A40FB681340002B12D07B6819
:1009F0001B681B6803F00203002B0BD07B68DB6DC8
:100A000004229A403B699A607B685B6D43F0040264
:100A10007B685A657B68DB6D10229A40FB68134047
:100A2000002B43D07B681B681B6803F00803002B76
:100A30003CD07B68DB6D10229A403B699A607B68F2
:100A40001B681B6803F48023002B18D07B681B688D
:100A50001B6803F40023002B08D17B681B6C002B60
:100A600024D07B681B6C786898471FE07B689B6C80
:100A7000002B1BD07B689B6C7868984716E07B68DE
:100A80001B681B6803F48073002B07D17B681B680D
:100A90007A681268126822F008021A607B681B6C80
:100AA000002B03D07B681B6C786898477B68DB6DF4
:100AB00020229A40FB681340002B00F08E807B6858
:100AC0001B681B6803F01003002B00F086807B6816
:100AD000DB6D20229A403B699A607B6893F8353041
:100AE000DBB2052B36D17B681B687A681268126806
:100AF00022F016021A607B681B687A6812685269D5
:100B000022F080025A617B681B6C002B03D17B684A
:100B10009B6C002B07D07B681B687A681268126890
:100B200022F008021A607B68DB6D3F229A403B6925
:100B30009A607B68002283F834207B68012283F866
:100B400035207B681B6D002B7DD07B681B6D786822
:100B5000984778E07B681B681B6803F48023002BB0
:100B60001CD07B681B681B6803F40023002B08D192
:100B70007B685B6C002B30D07B685B6C7868984737
:100B80002BE07B68DB6B002B27D07B68DB6B786806
:100B9000984722E04C000020B5814E1B7B681B6803
:100BA0001B6803F48073002B0FD17B681B687A6885
:100BB0001268126822F010021A607B68002283F823
:100BC00034207B68012283F835207B68DB6B002BA7
:100BD00003D07B68DB6B786898477B685B6D002B84
:100BE00032D07B685B6D03F00103002B22D07B6861
:100BF000052283F835207B681B687A6812681268C2
:100C000022F001021A60BB680133BB607A6993422B
:100C100007D87B681B681B6803F00103002BF2D127
:100C200000E000BF7B68002283F834207B6801224B
:100C300083F835207B68DB6C002B05D07B68DB6C90
:100C40007868984700E000BF1837BD4680BD00BFF8
:100C500080B485B000AFF860B9607A603B60FB6833
:100C60001B68FA681268126822F480221A60FB6816
:100C70001B683A685A60FB689B68402B08D1FB6888
:100C80001B687A689A60FB681B68BA68DA6007E0DC
:100C9000FB681B68BA689A60FB681B687A68DA6050
:100CA00000BF1437BD465DF8047B704780B485B043
:100CB00000AF78607B681B68DBB2103B144AA2FB74
:100CC00003231B09FB60134AFB6813441B781A4675
:100CD0007B68DA65FB68032B09D97B681B6823F402
:100CE0007F7323F003031A1D7B689A6507E07B6816
:100CF0001B6823F47F7323F003037A6893657B6892
:100D00009B6D18461437BD465DF8047B704700BFE5
:100D1000ABAAAAAA2493020880B485B000AF786079
:100D20000023FB737B689B6ABB607B689B69002B1D
:100D30001FD1BB68032B55D801A252F823F000BF86
:100D4000510D0108630D0108510D0108E50D010861
:100D50007B68DB6A03F08073002B45D00123FB73B3
:100D600042E07B68DB6AB3F1C07F3FD10123FB73B4
:100D70003CE07B689B69B3F5005F21D1BB68032B26
:100D800036D801A252F823F0990D01089F0D0108F1
:100D9000990D0108B10D01080123FB732FE07B6859
:100DA000DB6A03F08073002B24D00123FB7321E066
:100DB0007B68DB6AB3F1C07F1ED10123FB731BE0AC
:100DC000BB68022B02D9032B03D018E00123FB736D
:100DD00015E07B68DB6A03F08073002B0ED00123E3
:100DE000FB730BE000BF0AE000BF08E000BF06E0B5
:100DF00000BF04E000BF02E000BF00E000BFFB7BDB
:100E000018461437BD465DF8047B704780B588B03E
:100E100000AF78600023FB610023FB60AA4BBB613D
:100E200000237B6100233B617B68002B01D1012300
:100E300085E17B6893F84430DBB2002B06D17B68F8
:100E4000002283F84520786812F0F8FD0023BB608B
:100E50009E4A9E4B5B6C43F4804353649B4B5B6C9C
:100E600003F48043BB60BB68994A994B5B6823F4E9
:100E7000000353609649964B5A687B681B6A13437C
:100E80004B607B681B687A68126802F580521268B2
:100E900042F0010203F580531A60FFF7A1FA78616E
:100EA00011E0FFF79DFA02467B69D31AB3F5FA7F8A
:100EB00009D97B68032283F844207B68002283F8E9
:100EC000452003233BE17B681B6803F580531B68C7
:100ED00003F00103002BE4D17B681B681B69FB61F5
:100EE000FB6923F01C03FB6102F0FEF8B861BB69EB
:100EF000784A934208D9BB69774A934204D8FB6980
:100F000043F00803FB6127E0BB69734A934208D9A9
:100F1000BB69724A934204D8FB6943F00C03FB613E
:100F20001AE0BB696D4A934203D9BB696C4A93428C
:100F300011D9BB696A4A934208D9BB69694A93428D
:100F400004D8FB6943F00403FB6105E0FB6943F04F
:100F50001003FB6100E000BF7B681B68FA691A613F
:100F60004FF400420021786800F019FC0346002B82
:100F70000BD001233B613969786800F0A5FC7B68E0
:100F8000012283F844200123D9E0FF20FFF734FA3F
:100F90007B685B68002B00F0A780FFF721FA78617F
:100FA00007F10C031A460121786800F090FBFFF767
:100FB00017FA02467B69D31A41F2883293420FD95D
:100FC00001233B613969786800F07EFC7B6801226F
:100FD00083F844207B68002283F845200323AEE099
:100FE000FB6803F00403002BDAD04FF48052002199
:100FF000786800F0D4FB0346002B0BD001233B6143
:101000003969786800F060FC7B68012283F844202D
:10101000012394E0FFF7E4F9786107F10C031A4625
:101020000121786800F053FBFFF7DAF902467B698B
:10103000D31A41F2883293420FD901233B613969B7
:10104000786800F041FC7B68012283F844207B68CB
:10105000002283F84520032371E0FB6803F020039E
:10106000002BDAD007F10C031A461021786800F043
:101070002EFB0346002B0BD001233B6139697868B6
:1010800000F022FC7B68012283F84420012356E013
:10109000FB6803F00403002B04D07B684FF400626C
:1010A000DA6002E07B680022DA60FB6803F002038A
:1010B000002B03D07B6800229A6037E07B684FF4F6
:1010C00080429A6032E000BF0087930300380240FC
:1010D00000380140FF2C3101BF0E1602FF8693033A
:1010E000FFE0F5057FD1F0087B68DB68DB089AB28A
:1010F0007B689B685B089BB213439BB21A46002136
:10110000786800F04CFB0346002B0BD001233B61B9
:101110003969786800F0D8FB7B68012283F84420A5
:1011200001230CE040F6FF70FFF766F93969786833
:1011300000F0CAFB7B68012283F844200023184694
:101140002037BD4680BD00BF80B487B000AFF860D7
:10115000B9607A603B6000237B61FB6893F845309F
:10116000012B01D1022352E0FB68012283F84520C4
:10117000FB68022283F84420FB68BA68DA62002325
:101180007B6130E07B695B01BA6813443B613B697A
:101190004FF480121A607B6940F2F45202FB03F3B1
:1011A0007A6813441A463B699A60FB68DB69002B36
:1011B00005D13B691B6843F440023B691A603B68F8
:1011C0005A1E7B699A4208D97B6901335B01BA6870
:1011D00013441A463B69DA6002E0BA683B69DA6098
:1011E0007B6901337B617A693B689A42CAD3FB68A9
:1011F0001B68BA6803F5805310331A60FB6801223C
:1012000083F84420FB68002283F845200023184619
:101210001C37BD465DF8047B704780B487B000AFD3
:10122000F860B9607A603B6000237B61FB6893F8EB
:101230004530012B01D1022356E0FB68012283F8DF
:101240004520FB68022283F84420FB68BA689A6252
:1012500000237B6134E07B695B01BA6813443B6126
:101260003B694FF000421A603B6944F2F4525A6005
:101270007B6940F2F45202FB03F37A6813441A4686
:101280003B699A60FB689B69012B05D13B695B68F0
:1012900023F000423B695A603B685A1E7B699A42C0
:1012A00008D97B6901335B01BA6813441A463B696C
:1012B000DA6002E0BA683B69DA607B6901337B611E
:1012C0007A693B689A42C6D3FB681B68BA6803F523
:1012D00080530C331A60FB68012283F84420FB68BA
:1012E000002283F84520002318461C37BD465DF8D0
:1012F000047B704780B487B000AF7860396000230A
:101300007B610023FB6000233B617B6893F84530E1
:10131000012B01D10223CDE07B68012283F8452017
:101320007B68022283F844203B68002B09D17B684C
:10133000012283F844207B68002283F845200123A2
:10134000B8E07B68DB6A1B68002B09DA7B68122235
:1013500083F844207B68002283F845200123A9E01C
:101360003B6840F2F452934215D93B68544AA2FBC1
:1013700003239B0A7B613A68514BA3FB02139B0A30
:1013800040F2F45101FB03F3D31A002B05D07B6923
:1013900001337B6101E001237B617B69012B1CD15F
:1013A0007B68DB6A7A68D26A126842F040521A603F
:1013B0007B68DB6A3A68C2F30C025A607B68DB6ABE
:1013C0007A68D26A126842F000421A607B68DB6A6F
:1013D000DB681A467B68DA624BE000233B6144E03D
:1013E0007B68DB6A7A68D26A126822F040521A601F
:1013F0003B69002B07D17B68DB6A7A68D26A126886
:1014000042F080521A607B68DB6A40F2F4525A6004
:101410007B695A1E3B699A4216D17B68DB6A7A68FF
:10142000D26A126842F000521A607B69254A02FBB8
:1014300003F23B68134403F2F453FB607B68DB6AFE
:10144000FA68C2F30C025A607B68DB6A7A68D26A77
:10145000126842F000421A607B68DB6ADB681A4659
:101460007B68DA623B6901333B613A697B699A4286
:10147000B6D37B681B6803F5805314331B6803F0F5
:101480000403002B0DD07B681B6803F580531433D5
:1014900004221A607B681B6803F580530433002222
:1014A0001A607B68012283F844207B68002283F85D
:1014B0004520002318461C37BD465DF8047B704765
:1014C0000BB002AC0CFAFFFF80B485B000AF7860BF
:1014D0000023FB607B6893F84530012B01D1022388
:1014E00074E07B68012283F845207B68022283F840
:1014F00044205AE0FB680133FB607B689B6A1B68F1
:1015000003F44073B3F5007F0DD17B689A6A7B6862
:101510001A637B6801229A637B689B6ADB681A46C0
:101520007B689A6241E07B689B6A1B6803F44073A6
:10153000002B0BD17B689B6B5A1C7B689A637B6882
:101540009B6ADB681A467B689A622EE07B689A6A1F
:101550007B685A637B689B6B5A1C7B689A637B68C9
:101560009B6B012B03D17B689A6A7B681A637B684B
:101570009B6A1B681B0CC3F30D031A1F7B68DA639D
:101580007B681B6B9A687B681A647B689B6ADB6864
:101590001A467B689A627B68012283F844207B6844
:1015A000002283F84520002310E07B689B6A1B68BB
:1015B000002B02DBFB68032B9CD97B68012283F89C
:1015C00044207B68002283F8452001231846143705
:1015D000BD465DF8047B704780B582B000AF78608F
:1015E0007B681B6803F5805314331B6803F04003CA
:1015F000402B12D1786812F09BFA7B681B6803F5C8
:101600008053143340221A607B68012283F84420FF
:101610007B68002283F845201BE07B681B6803F58C
:10162000805314331B6803F00103012B11D1786838
:1016300000F039F87B681B6803F5805314330122EE
:101640001A607B68012283F844207B68002283F8BB
:1016500045207B681B6803F5805314334FF48032B8
:101660001A607B681B6803F5805314331B6803F40E
:101670000043B3F5004F12D1786800F01EF87B6884
:101680001B6803F5805314334FF400421A607B68E3
:10169000012283F844207B68002283F8452000BFA4
:1016A0000837BD4680BD80B483B000AF786000BF0E
:1016B0000C37BD465DF8047B704780B483B000AF43
:1016C000786000BF0C37BD465DF8047B704780B57D
:1016D00086B000AFF8600B467A607B8100237B61A7
:1016E00000233B61FB6893F84430DBB2822B01D1CD
:1016F000022350E0FB68822283F84420FB681B68C9
:101700001B697B617B6903F01C037B61FB681B8A9F
:10171000DB029BB27A6913437B617B899B0103F4F3
:10172000F8637A6913437B617B6923F002037B6171
:101730007B6943F001037B61FB681B687A691A616E
:10174000FEF74EFE386115E0FEF74AFE02463B69A1
:10175000D31AB3F5803F09D3FB68012283F84420F4
:10176000FB68002283F84520032314E0FB681B6814
:101770001B697B617B6903F00103002BE4D1FB68EB
:101780001B685B699BB21A467B681A60FB68012282
:1017900083F84420002318461837BD4680BD80B525
:1017A00086B000AFF8600B467A607B8100237B61D6
:1017B00000233B61FB6893F84430DBB2422B01D13C
:1017C00002234EE0FB68422283F84420FB681B683A
:1017D0001B697B617B6903F01C037B61FB681B8ACF
:1017E000DB029BB27A6913437B617B899B0103F423
:1017F000F8637A6913437B617B6943F002037B6181
:101800007B6943F001037B61FB681B687A6892B2D5
:101810005A61FB681B687A691A61FEF7E1FD38615D
:1018200015E0FEF7DDFD02463B69D31AB3F5803FB4
:1018300009D3FB68012283F84420FB68002283F867
:10184000452003230DE0FB681B681B697B617B69F6
:1018500003F00103002BE4D1FB68012283F844204C
:10186000002318461837BD4680BD80B582B000AF52
:1018700078607B6893F84530012B01D102231FE08B
:101880007B68012283F845207B68022283F844208C
:10189000786800F019FA786800F033FA786800F098
:1018A0007DFA786800F04AFA786800F05FFA7B68A1
:1018B000012283F844207B68002283F8452000231E
:1018C00018460837BD4680BD80B5B0B000AF78601F
:1018D00039600023C7F8BC303B68002B07D07B6819
:1018E0004FF40062DA607B684FF480429A60002314
:1018F000BB640023FB6400233B6500237B6500235E
:10190000BB650023FB657B68DB69002B03D14FF4CB
:1019100080633B6601E000233B664FF400737B6607
:101920000023BB660023FB6600233B6700237B6725
:101930000023BB674023FB670023C7F880300023E8
:10194000C7F884300023C7F888300023C7F88C30EC
:101950000023C7F890300023C7F894300023C7F85D
:1019600098300023C7F89C308023C7F8A0300023AC
:10197000C7F8A4300023C7F8A8300023C7F8AC305C
:101980000023C7F8B0300023C7F8B4300023C7F8ED
:10199000B8307B681B681B68C7F8BC30D7F8BC2020
:1019A000AB4B1340C7F8BC30BA6CFB6C1A433B6DB1
:1019B0001A437B6D1A437B689B681A43BB6D1A43BD
:1019C000FB6D1A437B68DB681A433B6E1A437B6EE0
:1019D0001A43BB6E1A43FB6E1A433B6F1343D7F88F
:1019E000BC201343C7F8BC307B681B68D7F8BC2009
:1019F0001A607B681B681B68C7F8BC300120FEF7C3
:101A0000FBFC7B681B68D7F8BC201A607B681B68EE
:101A1000796FBA6F1143FA6F1143D7F880201143E1
:101A2000D7F884201143D7F888201143D7F88C20A9
:101A30001143D7F890200A435A607B681B685B68A3
:101A4000C7F8BC300120FEF7D7FC7B681B68D7F8CD
:101A5000BC205A607B681B68D7F894209A607B682A
:101A60001B68D7F89820DA607B681B689B69C7F809
:101A7000BC30D7F8BC204FF641731340C7F8BC30D8
:101A8000D7F89C301A04D7F8A0301A43D7F8A430FE
:101A90001A43D7F8A8301A43D7F8AC301A43D7F80E
:101AA000B0301343D7F8BC201343C7F8BC307B6871
:101AB0001B68D7F8BC209A617B681B689B69C7F8D4
:101AC000BC300120FEF798FC7B681B68D7F8BC206F
:101AD0009A617B681B68D7F8B410D7F8B8200A431E
:101AE000DA617B681B68DB69C7F8BC300120FEF750
:101AF00083FC7B681B68D7F8BC20DA610023BB60DD
:101B00004FF00073FB6000233B614FF400137B61D7
:101B10000023BB610023FB6100233B6200237B6247
:101B20000423BB624FF00073FB624FF480333B63CE
:101B30004FF480037B634FF40053BB638023FB634C
:101B400000233B6400237B647B681B6803F58053A0
:101B500018331B68C7F8BC30D7F8BC203D4B134086
:101B6000C7F8BC30BA68FB681A433B691A437B6903
:101B70001A43BB691A43FB691A433B6A1A437B6ADF
:101B80001A43BB6A1343D7F8BC201343C7F8BC30D1
:101B90007B681B6803F580531833D7F8BC201A60A4
:101BA0007B681B6803F5805318331B68C7F8BC308B
:101BB0000120FEF721FC7B681B6803F58053183376
:101BC000D7F8BC201A607B681B68F96A3A6B11432E
:101BD0007A6B1143BA6B1143FA6B11433A6C920062
:101BE00011437A6C0A4342F4000203F580531A60F1
:101BF0007B681B6803F580531B68C7F8BC30012065
:101C0000FEF7FAFB7B681B6803F58053D7F8BC200E
:101C10001A607B689B69012B0FD17B6819687B6810
:101C20001B6803F580531C331B6843F4803242F079
:101C3000400201F580531C331A607B685B691A46C9
:101C40000021786800F008F800BFC037BD4680BDAD
:101C50000F8120FF233FDEF880B487B000AFF8602B
:101C6000B9607A607B6805331B781B027A6804329E
:101C7000127813437B61BA68114B13441A467B698F
:101C800013607B6803331B781A067B6802331B786A
:101C90001B041A437B6801331B781B0213437A68C9
:101CA000127813437B61BA68064B13441A467B696A
:101CB000136000BF1C37BD465DF8047B704700BF52
:101CC000408002404480024080B584B000AF78601C
:101CD0000023FB607B681B687A681268126842F018
:101CE00008021A607B681B681B68FB60012000F01B
:101CF0007FF87B681B68FA681A6000BF1037BD4622
:101D000080BD80B584B000AF78600023FB607B6845
:101D10001B687A681268126842F004021A607B68D5
:101D20001B681B68FB60012000F062F87B681B6881
:101D3000FA681A6000BF1037BD4680BD80B483B01A
:101D400000AF78607B6819687B681B6803F5805377
:101D500018331B6843F4005201F5805318331A609E
:101D600000BF0C37BD465DF8047B704780B483B07C
:101D700000AF78607B6819687B681B6803F5805347
:101D800018331B6843F0020201F5805318331A60C0
:101D900000BF0C37BD465DF8047B704780B584B04A
:101DA00000AF78600023FB607B6819687B681B6864
:101DB00003F5805318331B6843F4801201F58053F8
:101DC00018331A607B681B6803F5805318331B684F
:101DD000FB60012000F00CF87B681B68FA6803F5D3
:101DE000805318331A6000BF1037BD4680BD000015
:101DF00080B485B000AF78600A4B1B680A4AA2FB2A
:101E000003235B0A7A6802FB03F3FB6000BFFB68F5
:101E10005A1EFA60002BF9D100BF1437BD465DF899
:101E2000047B70474C000020D34D621080B586B013
:101E300000AFF860B960C7E900230123FB75234BAD
:101E40001B7E012B01D102233BE0204B01221A769D
:101E50004CF2503000F060F80346FB75FB7D002B20
:101E60002BD1FB68002B05D13B781946B86800F0F0
:101E700005F916E0FB68012B05D13B881946B868C7
:101E800000F0D8F80DE0FB68022B05D13B6819463D
:101E9000B86800F0ADF804E0D7E90023B86800F0B6
:101EA0007BF84CF2503000F037F80346FB75084AD7
:101EB000074B1B6923F001031361044B00221A76C0
:101EC000FB7D18461837BD4680BD00BFB8A1002075
:101ED000003C024080B483B000AF0023FB710B4B89
:101EE0001B69002B0BDA094B094A5A60074B094A58
:101EF0005A60064B1B69002B01DA0123FB71FB7949
:101F000018460C37BD465DF8047B7047003C024024
:101F100023016745AB89EFCD80B584B000AF786011
:101F20000023FB601A4B0022DA61FEF759FAF860D1
:101F300010E07B68B3F1FF3F0CD07B68002B07D02B
:101F4000FEF74EFA0246FB68D21A7B689A4201D924
:101F5000032319E00F4BDB6803F48033002BE8D137
:101F60000C4BDB6803F00103002B02D0094B01226C
:101F7000DA60084BDB6803F0F203002B03D000F0BB
:101F80009FF8012300E0002318461037BD4680BDAE
:101F9000B8A10020003C0240F0B484B000AFF8606B
:101FA000C7E90023114A114B1B6923F440731361E5
:101FB0000E4A0E4B1B6943F4407313610B4A0B4BE3
:101FC0001B6943F001031361FB683A681A60FB6800
:101FD00004331A4697E81800250000262B461360A4
:101FE00000BF1037BD46F0BC704700BF003C024048
:101FF00080B483B000AF786039600D4A0C4B1B6928
:1020000023F4407313610A4A094B1B6943F40073BC
:102010001361074A064B1B6943F0010313617B6898
:102020003A681A6000BF0C37BD465DF8047B704704
:10203000003C024080B483B000AF78600B467B80E8
:102040000D4A0D4B1B6923F4407313610A4A0A4B76
:102050001B6943F480731361074A074B1B6943F004
:10206000010313617B687A881A8000BF0C37BD4674
:102070005DF8047B704700BF003C024080B483B031
:1020800000AF78600B46FB700C4A0C4B1B6923F4C5
:1020900040731361094A094B1B691361074A074BD7
:1020A0001B6943F0010313617B68FA781A7000BF63
:1020B0000C37BD465DF8047B704700BF003C024012
:1020C00080B400AF274BDB6803F01003002B08D06F
:1020D000254BDB6943F01003234AD361214B1022C7
:1020E000DA60204BDB6803F02003002B08D01E4B86
:1020F000DB6943F008031C4AD3611A4B2022DA60E3
:10210000184BDB6803F04003002B08D0164BDB694B
:1021100043F00403144AD361124B4022DA60114B9E
:10212000DB6803F08003002B08D00F4BDB6943F022
:1021300002030D4AD3610B4B8022DA60094BDB6846
:1021400003F00203002B08D0074BDB6943F02003A8
:10215000054AD361034B0222DA6000BFBD465DF839
:10216000047B7047003C0240B8A1002080B584B0D9
:1021700000AF786039600123FB730023BB60314BF3
:102180001B7E012B01D1022358E02E4B01221A762F
:102190004CF25030FFF7C0FE0346FB73FB7B002B75
:1021A00048D13B684FF0FF321A607B681B68012BF7
:1021B00015D17B681B69DAB27B685B6819461046EB
:1021C00000F044F84CF25030FFF7A6FE0346FB73D4
:1021D0001D4A1D4B1B6923F00403136128E07B6833
:1021E0009B68BB601CE07B681B69DBB21946B86862
:1021F00000F050F84CF25030FFF78EFE0346FB73B0
:10220000114A114B1B6923F0FA031361FB7B002B6E
:1022100003D03B68BA681A600AE0BB680133BB6050
:102220007B68DA687B689B681A44BB689A42DAD894
:1022300000F078F8034B00221A76FB7B1846103723
:10224000BD4680BDB8A10020003C024080B483B0F0
:1022500000AF03463960FB710D4A0D4B1B6923F437
:10226000407313610A4A0A4B1B6943F0040313616C
:102270000749074B1A69FB791B02134343F4803368
:102280000B6100BF0C37BD465DF8047B704700BF93
:10229000003C024080B485B000AF78600B46FB7014
:1022A0000023FB60FB78002B02D10023FB6010E0D1
:1022B000FB78012B03D14FF48073FB6009E0FB78BE
:1022C000022B03D14FF40073FB6002E04FF4407324
:1022D000FB60134A124B1B6923F4407313611049CE
:1022E0000F4B1A69FB6813430B610D4A0C4B1B69BA
:1022F00023F0F80313610A49094B1A697B68DB0074
:10230000134343F002030B61054A054B1B6943F479
:102310008033136100BF1437BD465DF8047B7047FE
:10232000003C024080B400AF204B1B6803F40073F4
:10233000002B17D01D4A1D4B1B6823F4007313603C
:102340001A4A1A4B1B6843F400631360174A174B71
:102350001B6823F400631360144A144B1B6843F496
:1023600000731360114B1B6803F48063002B17D0BC
:102370000E4A0E4B1B6823F4806313600B4A0B4B11
:102380001B6843F480531360084A084B1B6823F40E
:1023900080531360054A054B1B6843F48063136048
:1023A00000BFBD465DF8047B704700BF003C0240A3
:1023B00080B489B000AF7860396000237B6100236E
:1023C0003B610023BB610023FB616BE10122FB69E0
:1023D00002FA03F37B613B681A687B6913403B6137
:1023E0003A697B699A4240F05A813B685B68022BEC
:1023F00003D03B685B68122B23D1FB69DA087B684A
:10240000083253F82230BB61FB6903F007039B00DD
:102410000F2202FA03F3DB43BA691340BB613B6846
:102420001A69FB6903F007039B0002FA03F3BA6918
:102430001343BB61FB69DA087B680832B96943F86A
:1024400022107B681B68BB61FB695B00032202FAF8
:1024500003F3DB43BA691340BB613B685B6803F07D
:102460000302FB695B0002FA03F3BA691343BB6121
:102470007B68BA691A603B685B68012B0BD03B68CC
:102480005B68022B07D03B685B68112B03D03B686D
:102490005B68122B30D17B689B68BB61FB695B007A
:1024A000032202FA03F3DB43BA691340BB613B68C2
:1024B000DA68FB695B0002FA03F3BA691343BB6194
:1024C0007B68BA699A607B685B68BB610122FB69C3
:1024D00002FA03F3DB43BA691340BB613B685B68F4
:1024E0001B0903F00102FB6902FA03F3BA69134303
:1024F000BB617B68BA695A607B68DB68BB61FB695A
:102500005B00032202FA03F3DB43BA691340BB61A9
:102510003B689A68FB695B0002FA03F3BA691343EC
:10252000BB617B68BA69DA603B685B6803F0805323
:10253000002B00F0B4800023FB605F4A5E4B5B6CB5
:1025400043F4804353645C4B5B6C03F48043FB6057
:10255000FB685A4AFB699B08023352F82330BB617F
:10256000FB6903F003039B000F2202FA03F3DB4332
:10257000BA691340BB617B68514A93422BD07B6898
:10258000504A934225D07B684F4A93421FD07B68C4
:102590004E4A934219D07B684D4A934213D07B68D0
:1025A0004C4A93420DD07B684B4A934207D07B68DC
:1025B0004A4A934201D107230EE008230CE0062388
:1025C0000AE0052308E0042306E0032304E00223D5
:1025D00002E0012300E00023FA6902F00302920006
:1025E0009340BA691343BB613449FB699B080233CA
:1025F000BA6941F823203A4B1B68BB613B69DB4356
:10260000BA691340BB613B685B6803F48033002BFD
:1026100003D0BA693B691343BB61314ABB6913609C
:102620002F4B5B68BB613B69DB43BA691340BB61FD
:102630003B685B6803F40033002B03D0BA693B6945
:102640001343BB61264ABB695360254B9B68BB6142
:102650003B69DB43BA691340BB613B685B6803F4C9
:102660008013002B03D0BA693B691343BB611C4A3A
:10267000BB6993601A4BDB68BB613B69DB43BA699A
:102680001340BB613B685B6803F40013002B03D06D
:10269000BA693B691343BB61114ABB69D360FB69EB
:1026A0000133FB61FB690F2B7FF690AE00BF24372F
:1026B000BD465DF8047B7047003802400038014099
:1026C000000002400004024000080240000C0240EA
:1026D000001002400014024000180240001C02409A
:1026E000003C014080B487B000AF786039600023BF
:1026F0003B610023FB600023BB6000237B61CEE0D5
:1027000001227B6902FA03F33B613A683B6913409B
:10271000FB60FA683B699A4240F0BE807B681A68A9
:102720007B695B00032101FA03F3DB431A407B68FA
:102730001A607B69DA087B69D9087B68083153F82D
:1027400021107B6903F007039B000F2000FA03F3BD
:10275000DB4319407B68083243F822107B689A6893
:102760007B695B00032101FA03F3DB431A407B68BA
:102770009A607B685A6801217B6901FA03F3DB43A5
:102780001A407B685A607B68DA687B695B000321CA
:1027900001FA03F3DB431A407B68DA60454A7B6940
:1027A0009B08023352F82330BB607B6903F00303BC
:1027B0009B000F2202FA03F3BA681340BB607B68E8
:1027C0003D4A93422BD07B683C4A934225D07B689C
:1027D0003B4A93421FD07B683A4A934219D07B68A8
:1027E000394A934213D07B68384A93420DD07B68B4
:1027F000374A934207D07B68364A934201D1072378
:102800000EE008230CE006230AE0052308E0042379
:1028100006E0032304E0022302E0012300E000239A
:102820007A6902F00302920003FA02F2BB689A424C
:1028300032D17B6903F003039B000F2202FA03F3FA
:10284000BB601C487B699B081A497A69920802326E
:1028500051F82210BA68D2430A40023340F82320CC
:102860001D491D4B1A68FB68DB4313400B601A4976
:10287000194B5A68FB68DB4313404B601649164BF3
:102880009A68FB68DB4313408B601349124BDA688C
:10289000FB68DB431340CB607B6901337B617B6961
:1028A0000F2B7FF62DAF00BF1C37BD465DF8047BB4
:1028B000704700BF003801400000024000040240A1
:1028C00000080240000C02400010024000140240C8
:1028D00000180240001C0240003C014080B483B05C
:1028E00000AF78600B467B8013467B707B78002BB3
:1028F00003D07A887B689A6103E07B881A047B683E
:102900009A6100BF0C37BD465DF8047B704780B408
:1029100083B000AF78600B467B807B685A697B8808
:102920005A407B685A6100BF0C37BD465DF8047B96
:102930007047000080B586B000AF78607B68002BE0
:1029400001D101232DE27B681B6803F00103002BFA
:1029500075D0A34B9B6803F00C03042B0CD0A04B49
:102960009B6803F00C03082B12D19D4B5B6803F4AA
:102970008003B3F5800F0BD1994B1B6803F4003330
:10298000002B5BD07B685B68002B57D1012308E2EA
:102990007B685B68B3F5803F06D1914A904B1B681A
:1029A00043F4803313601DE07B685B68B3F5A02FB0
:1029B0000CD18B4A8A4B1B6843F480231360884AEE
:1029C000874B1B6843F4803313600BE0844A844BCD
:1029D0001B6823F480331360814A814B1B6823F406
:1029E000802313607B685B68002B13D0FDF7F8FC35
:1029F000386108E0FDF7F4FC02463B69D31A642B0A
:102A000001D90323CDE1764B1B6803F40033002B7F
:102A1000F0D014E0FDF7E4FC386108E0FDF7E0FCDD
:102A200002463B69D31A642B01D90323B9E16C4BED
:102A30001B6803F40033002BF0D100E000BF7B687B
:102A40001B6803F00203002B63D0654B9B6803F007
:102A50000C03002B0BD0624B9B6803F00C03082B7C
:102A60001CD15F4B5B6803F48003002B16D15C4BD9
:102A70001B6803F00203002B05D07B68DB68012B89
:102A800001D001238DE15649554B1B6823F0F80214
:102A90007B681B69DB0013430B603AE07B68DB68F3
:102AA000002B20D04F4B01221A60FDF799FC3861B2
:102AB00008E0FDF795FC02463B69D31A022B01D9C9
:102AC00003236EE1464B1B6803F00203002BF0D09A
:102AD0004349434B1B6823F0F8027B681B69DB000A
:102AE00013430B6015E03F4B00221A60FDF778FCA2
:102AF000386108E0FDF774FC02463B69D31A022BEB
:102B000001D903234DE1364B1B6803F00203002B70
:102B1000F0D17B681B6803F00803002B30D07B6882
:102B20005B69002B16D0304B01221A60FDF758FC70
:102B3000386108E0FDF754FC02463B69D31A022BCA
:102B400001D903232DE1264B5B6F03F00203002B19
:102B5000F0D015E0244B00221A60FDF741FC3861EB
:102B600008E0FDF73DFC02463B69D31A022B01D970
:102B7000032316E11A4B5B6F03F00203002BF0D125
:102B80007B681B6803F00403002B00F0A080002387
:102B9000FB75134B1B6C03F08053002B0FD10023EC
:102BA000FB600F4A0E4B1B6C43F0805313640C4BBD
:102BB0001B6C03F08053FB60FB680123FB750B4B20
:102BC0001B6803F48073002B21D1084A074B1B6854
:102BD00043F480731360FDF703FC386111E000BF1C
:102BE0000038024000004742800E4742007000401B
:102BF000FDF7F6FB02463B69D31A022B01D90323EA
:102C0000CFE06A4B1B6803F48073002BF0D07B6825
:102C10009B68012B06D1664A654B1B6F43F001038D
:102C200013671CE07B689B68052B0CD1604A604BE6
:102C30001B6F43F0040313675D4A5D4B1B6F43F04A
:102C4000010313670BE05A4A594B1B6F23F0010332
:102C50001367574A564B1B6F23F0040313677B68B7
:102C60009B68002B15D0FDF7BBFB38610AE0FDF730
:102C7000B7FB02463B69D31A41F28832934201D92D
:102C800003238EE04A4B1B6F03F00203002BEED0B0
:102C900014E0FDF7A5FB38610AE0FDF7A1FB024651
:102CA0003B69D31A41F28832934201D9032378E079
:102CB0003F4B1B6F03F00203002BEED1FB7D012B7A
:102CC00005D13B4A3A4B1B6C23F0805313647B685D
:102CD0009B69002B64D0364B9B6803F00C03082BD8
:102CE0005CD07B689B69022B41D1324B00221A6079
:102CF000FDF776FB386108E0FDF772FB02463B69A1
:102D0000D31A022B01D903234BE0294B1B6803F094
:102D10000073002BF0D126497B68DA697B681B6A57
:102D20001A437B685B6A9B011A437B689B6A5B085A
:102D3000013B1B041A437B68DB6A1B0613434B6091
:102D40001C4B01221A60FDF74BFB386108E0FDF7D0
:102D500047FB02463B69D31A022B01D9032320E02B
:102D6000134B1B6803F00073002BF0D018E0114BDD
:102D700000221A60FDF734FB386108E0FDF730FBF4
:102D800002463B69D31A022B01D9032309E0084B01
:102D90001B6803F00073002BF0D101E0012300E079
:102DA000002318461837BD4680BD00BF00700040A4
:102DB000003802406000474280B584B000AF7860C0
:102DC00039607B68002B01D10123CAE0674B1B6887
:102DD00003F00F023B689A420CD2644B3A68D2B2BD
:102DE0001A70624B1B6803F00F023B689A4201D0D5
:102DF0000123B6E07B681B6803F00203002B20D0A0
:102E00007B681B6803F00403002B05D0584A584B1D
:102E10009B6843F4E05393607B681B6803F00803EE
:102E2000002B05D0524A524B9B6843F46043936099
:102E30004F494F4B9B6823F0F0027B689B6813431C
:102E40008B607B681B6803F00103002B44D07B6818
:102E50005B68012B07D1464B1B6803F40033002B42
:102E600019D101237DE07B685B68022B03D07B686E
:102E70005B68032B07D13E4B1B6803F00073002BEC
:102E800009D101236DE03A4B1B6803F00203002BCC
:102E900001D1012365E03649354B9B6823F00302DD
:102EA0007B685B6813438B60FDF79AFAF8600AE071
:102EB000FDF796FA0246FB68D31A41F28832934234
:102EC00001D903234DE02A4B9B6803F00C027B6879
:102ED0005B689B009A42EBD1244B1B6803F00F0206
:102EE0003B689A420CD9214B3A68D2B21A701F4BF8
:102EF0001B6803F00F023B689A4201D0012330E0C7
:102F00007B681B6803F00403002B08D01849184B9A
:102F10009B6823F4E0527B68DB6813438B607B681B
:102F20001B6803F00803002B09D01149104B9B6864
:102F300023F460427B681B69DB0013438B6000F065
:102F40001DF801460A4B9B681B0903F00F03094A51
:102F5000D35C21FA03F3084A1360002012F02EFB21
:102F6000002318461037BD4680BD00BF003C02401C
:102F70000038024004B702084C0000202DE9F04F51
:102F800087B000AF0022FA6000227A610022BA60A6
:102F900000223A61514A926802F00C02042A07D0DA
:102FA000082A08D0002A40F090804D4B3B618FE00A
:102FB0004C4B3B618CE0494A526802F03F02FA6098
:102FC000464A526802F48002002A23D0434B5B68D1
:102FD0009B094FF0000440F2FF114FF0000203EA9A
:102FE000010304EA02043F4A02FB04F1002202FB4F
:102FF00003F20A443B49A3FB010153181946FB683D
:103000004FF000041A462346FDF72CF803460C4601
:103010007B614CE0314A5268920911464FF0000240
:1030200040F2FF154FF0000605EA010506EA020628
:10303000294632464FEA421B4BEAD16B4FEA411A0E
:1030400051465A46AA46B34655465E464D1B62EB6C
:10305000060629463246940144EA91648B015B1AC4
:1030600064EB02044FEAC40949EA53794FEAC30802
:1030700043464C4655465E46ED1846EB04062B4645
:103080003446A2027A607A6842EA93527A609B02DE
:103090003B6097E8180018462146FB684FF0000493
:1030A0001A462346FCF7DEFF03460C467B610B4BBA
:1030B0005B681B0C03F0030301335B00BB607A69A0
:1030C000BB68B2FBF3F33B6102E0054B3B6100BF21
:1030D0003B6918461C37BD46BDE8F08F00380240FA
:1030E0000024F40040787D0180B400AF034B1B68DE
:1030F0001846BD465DF8047B704700BF4C000020B9
:1031000080B500AFFFF7F0FF0146054B9B689B0AB7
:1031100003F00703034AD35C21FA03F3184680BD8A
:103120000038024014B7020880B500AFFFF7DCFF9B
:103130000146054B9B685B0B03F00703034AD35C16
:1031400021FA03F3184680BD0038024014B7020884
:1031500080B483B000AF786039607B680F221A605A
:10316000124B9B6803F003027B685A600F4B9B680D
:1031700003F0F0027B689A600C4B9B6803F4E0520A
:103180007B68DA60094B9B68DB0803F4E0527B68DC
:103190001A61074B1B6803F00F023B681A6000BFFF
:1031A0000C37BD465DF8047B704700BF0038024015
:1031B000003C024080B582B000AF78607B68002B95
:1031C00001D101231DE07B6893F83930DBB2002B7D
:1031D00006D17B68002283F83820786812F0B2FCB0
:1031E0007B68022283F839207B681A687B68043385
:1031F0001946104600F05AFA7B68012283F83920FC
:10320000002318460837BD4680BD80B483B000AFA8
:1032100078607B681B687A681268D26842F00102A5
:10322000DA607B681B687A681268126842F00102F3
:103230001A60002318460C37BD465DF8047B7047C2
:1032400080B483B000AF78607B681B687A681268CE
:10325000D26822F00102DA607B681B681A6A41F2C8
:1032600011131340002B0FD17B681B681A6A40F2C0
:1032700044431340002B07D17B681B687A681268AF
:10328000126822F001021A60002318460C37BD466E
:103290005DF8047B704780B582B000AF78607B68D2
:1032A0001B681B6903F00203022B22D17B681B6899
:1032B000DB6803F00203022B1BD17B681B686FF0F5
:1032C00002021A617B6801221A767B681B689B697F
:1032D00003F00303002B03D0786800F0C9F905E080
:1032E000786800F0BBF9786800F0CCF97B680022C0
:1032F0001A767B681B681B6903F00403042B22D138
:103300007B681B68DB6803F00403042B1BD17B681C
:103310001B686FF004021A617B6802221A767B68D0
:103320001B689B6903F44073002B03D0786800F09E
:103330009FF905E0786800F091F9786800F0A2F94B
:103340007B6800221A767B681B681B6903F0080300
:10335000082B22D17B681B68DB6803F00803082B6D
:103360001BD17B681B686FF008021A617B6804221E
:103370001A767B681B68DB6903F00303002B03D01C
:10338000786800F075F905E0786800F067F978680A
:1033900000F078F97B6800221A767B681B681B694D
:1033A00003F01003102B22D17B681B68DB6803F04D
:1033B0001003102B1BD17B681B686FF010021A6181
:1033C0007B6808221A767B681B68DB6903F440730C
:1033D000002B03D0786800F04BF905E0786800F026
:1033E0003DF9786800F04EF97B6800221A767B6818
:1033F0001B681B6903F00103012B0ED17B681B685E
:10340000DB6803F00103012B07D17B681B686FF0B9
:1034100001021A61786811F055FA7B681B681B6914
:1034200003F08003802B0ED17B681B68DB6803F000
:103430008003802B07D17B681B686FF080021A61C4
:10344000786800F0D5FA7B681B681B6903F04003BD
:10345000402B0ED17B681B68DB6803F04003402BD8
:1034600007D17B681B686FF040021A61786800F032
:1034700013F97B681B681B6903F02003202B0ED116
:103480007B681B68DB6803F02003202B07D17B6877
:103490001B686FF020021A61786800F09FFA00BF85
:1034A0000837BD4680BD80B584B000AF7860396014
:1034B0000023FB607B6893F83830012B01D1022395
:1034C000C8E07B68012283F838207B68022283F8F9
:1034D00039207B681B689B68FB60FB6823F07703DF
:1034E000FB60FB6823F47F43FB607B681B68FA6822
:1034F0009A603B681B68402B77D0402B0ED8102B6E
:1035000000F08A80102B02D8002B7ED099E0202B6F
:1035100000F08980302B00F08D8092E0702B16D067
:10352000702B04D8502B40D0602B4ED089E0B3F5DF
:10353000805F03D0B3F5005F24D082E07B681B6816
:103540007A681268926822F007029A6079E07B68D4
:1035500018683B6899683B685A683B68DB6800F00C
:10356000D6F97B681B689B68FB60FB6823F07703D8
:10357000FB60FB6843F07703FB607B681B68FA68BD
:103580009A605EE07B6818683B6899683B685A6897
:103590003B68DB6800F0BBF97B681B687A681268DF
:1035A000926842F480429A604BE07B6818683B68FE
:1035B00059683B68DB681A4600F022F97B681B6893
:1035C0005021184600F083F93BE07B6818683B689F
:1035D00059683B68DB681A4600F045F97B681B6850
:1035E0006021184600F073F92BE07B6818683B688F
:1035F00059683B68DB681A4600F002F97B681B6873
:103600004021184600F063F91BE07B681B6800212D
:10361000184600F05CF914E07B681B68102118461E
:1036200000F055F90DE07B681B682021184600F07A
:103630004EF906E07B681B683021184600F047F918
:1036400000BF7B68012283F839207B68002283F861
:103650003820002318461037BD4680BD80B483B0A3
:1036600000AF786000BF0C37BD465DF8047B704743
:1036700080B483B000AF786000BF0C37BD465DF802
:10368000047B704780B483B000AF786000BF0C3714
:10369000BD465DF8047B704780B483B000AF7860AE
:1036A00000BF0C37BD465DF8047B704780B485B021
:1036B00000AF786039600023FB607B681B68FB60AB
:1036C0007B68444A934213D07B68B3F1804F0FD09C
:1036D0007B68414A93420BD07B68404A934207D0B3
:1036E0007B683F4A934203D07B683E4A934201D1B4
:1036F000012300E00023002B08D0FB6823F07003B7
:10370000FB603B685B68FA681343FB607B68314A87
:1037100093422BD07B68B3F1804F27D07B682E4A31
:10372000934223D07B682D4A93421FD07B682C4A5A
:1037300093421BD07B682B4A934217D07B682A4A5E
:10374000934213D07B68294A93420FD07B68284A62
:1037500093420BD07B68274A934207D07B68264A66
:10376000934203D07B68254A934201D1012300E0B4
:103770000023002B08D0FB6823F44073FB603B68F8
:10378000DB68FA681343FB607B68FA681A603B6881
:103790009A687B68DA623B681A687B689A627B6821
:1037A0000C4A934203D07B680E4A934201D1012315
:1037B00000E00023002B03D03B681A697B681A6382
:1037C0007B6801225A6100BF1437BD465DF8047B57
:1037D000704700BF000001400004004000080040A6
:1037E000000C004000040140004001400044014042
:1037F0000048014000180040001C0040002000402C
:1038000080B487B000AFF860B9607A6000237B6154
:1038100000233B61FB681B6A3B61FB681B6A23F06A
:103820000102FB681A62FB689B697B617B6923F07C
:10383000F0037B617B681B017A6913437B613B6901
:1038400023F00A033B613A69BB6813433B61FB68A1
:103850007A699A61FB683A691A6200BF1C37BD46F3
:103860005DF8047B704780B487B000AFF860B96042
:103870007A6000237B6100233B61FB681B6A23F0B5
:103880001002FB681A62FB689B697B61FB681B6A1C
:103890003B617B6923F470437B617B681B037A691E
:1038A00013437B613B6923F0A0033B61BB681B01B1
:1038B0003A6913433B61FB687A699A61FB683A692C
:1038C0001A6200BF1C37BD465DF8047B704780B4A8
:1038D00085B000AF78600B467B800023FB607B687F
:1038E0009B68FB60FB6823F07003FB607B8843F000
:1038F00007039BB21A46FB681343FB607B68FA68B8
:103900009A6000BF1437BD465DF8047B704780B4F1
:1039100087B000AFF860B9607A603B6000237B61DC
:10392000FB689B687B617B6923F47F437B613B6819
:103930001A027B681A43BB6813437A6913437B619D
:10394000FB687A699A6000BF1C37BD465DF8047B4E
:10395000704780B483B000AF786039607B6893F8BB
:103960003830012B01D1022332E07B68012283F839
:1039700038207B68022283F839207B681B687A68CC
:103980001268526822F070025A607B681B687A687D
:10399000126851683A6812680A435A607B681B686B
:1039A0007A681268926822F080029A607B681B68CD
:1039B0007A68126891683A6852680A439A607B682C
:1039C000012283F839207B68002283F83820002305
:1039D00018460C37BD465DF8047B704780B483B051
:1039E00000AF786000BF0C37BD465DF8047B7047C0
:1039F00080B483B000AF786000BF0C37BD465DF87F
:103A0000047B704780B582B000AF78607B68002B84
:103A100001D101233FE07B6893F83930DBB2002B02
:103A200006D17B68002283F83820786812F028FBE2
:103A30007B68242283F839207B681B687A681268C7
:103A4000D26822F40052DA60786800F0C5FB7B6827
:103A50001B687A681268126922F490421A617B68C6
:103A60001B687A681268526922F02A025A617B68E0
:103A70001B687A681268D26842F40052DA607B6888
:103A80000022DA637B68202283F839207B682022B9
:103A900083F83A20002318460837BD4680BD80B51C
:103AA00082B000AF78607B68002B01D1012316E063
:103AB0007B68242283F83920786812F0F7FB7B6852
:103AC0000022DA637B68002283F839207B680022B9
:103AD00083F83A207B68002283F8382000231846B8
:103AE0000837BD4680BD80B485B000AFF860B960CE
:103AF0001346FB80FB6893F83A30DBB2202B38D1B9
:103B0000BB68002B02D0FB88002B01D1012331E0E0
:103B1000FB6893F83830012B01D102232AE0FB68BF
:103B2000012283F83820FB68BA689A62FB68FA8839
:103B30009A85FB68FA88DA85FB680022DA63FB68FD
:103B4000222283F83A20FB68002283F83820FB68A1
:103B50001B68FA681268526942F001025A61FB68F8
:103B60001B68FA681268D26842F49072DA60002327
:103B700000E0022318461437BD465DF8047B704709
:103B800080B586B000AFF860B9601346FB80FB6873
:103B900093F83930DBB2202B53D1BB68002B02D015
:103BA000FB88002B01D101234CE0FB6893F83830EF
:103BB000012B01D1022345E0FB68012283F8382064
:103BC000BA68FB681A62FB68FA889A84FB68FA880C
:103BD000DA84FB680022DA63FB68212283F839204B
:103BE000FB681B6B194ADA63FB681B6B184A1A6483
:103BF000FB681B6B174ADA64FB681B6B00221A65B3
:103C000007F108037B61FB68186B7B691968FB6827
:103C10001B6804331A46FB88FCF70EFEFB681B6822
:103C20006FF040021A60FB68002283F83820FB68BE
:103C30001B68FA681268526942F080025A610023D8
:103C400000E0022318461837BD4680BD793E0108C2
:103C5000CB3E0108E73E010880B588B000AF786030
:103C60007B681B681B68FB617B681B68DB68BB614A
:103C70007B681B685B697B6100233B610023FB6001
:103C8000FB6903F00F033B613B69002B0DD1FB691E
:103C900003F02003002B08D0BB6903F02003002BA6
:103CA00003D0786800F01EFACCE03B69002B00F0EE
:103CB000AB807B6903F00103002B05D1BB6903F4E2
:103CC0009073002B00F0A080FB6903F00103002B30
:103CD0000AD0BB6903F48073002B05D07B68DB6BD3
:103CE00043F001027B68DA63FB6903F00403002BF5
:103CF0000AD07B6903F00103002B05D07B68DB6BE6
:103D000043F002027B68DA63FB6903F00203002BD5
:103D10000AD07B6903F00103002B05D07B68DB6BC5
:103D200043F004027B68DA63FB6903F00803002BAD
:103D30000AD07B6903F00103002B05D07B68DB6BA5
:103D400043F008027B68DA637B68DB6B002B78D07A
:103D5000FB6903F02003002B07D0BB6903F02003AD
:103D6000002B02D0786800F0BDF97B681B685B69A6
:103D700003F04003002B14BF01230023DBB2FB60E0
:103D80007B68DB6B03F00803002B02D1FB68002B80
:103D900031D0786800F007F97B681B685B6903F035
:103DA0004003002B23D07B681B687A681268526935
:103DB00022F040025A617B685B6B002B13D07B685A
:103DC0005B6B224A1A657B685B6B1846FCF794FDB7
:103DD0000346002B16D07B685B6B1B6D7A68526BB9
:103DE000104698470EE0786800F03CF80AE07868E2
:103DF00000F038F806E0786800F034F87B680022BC
:103E0000DA631EE000BF1CE0FB6903F08003002BB7
:103E100008D0BB6903F08003002B03D0786800F062
:103E2000F4F80FE0FB6903F04003002B0AD0BB69F4
:103E300003F04003002B05D0786800F03BF900BF89
:103E400000E000BF2037BD4680BD00BFE33F010852
:103E500080B483B000AF786000BF0C37BD465DF81A
:103E6000047B704780B483B000AF786000BF0C372C
:103E7000BD465DF8047B704780B584B000AF7860C4
:103E80007B689B6BFB607B681B681B6803F480731B
:103E9000002B13D1FB680022DA84FB681B68FA68E8
:103EA0001268526922F080025A61FB681B68FA6846
:103EB0001268D26842F04002DA6002E0F86811F05D
:103EC0001FF800BF1037BD4680BD80B584B000AF7D
:103ED00078607B689B6BFB60F868FFF7B9FF00BFF9
:103EE0001037BD4680BD80B584B000AF7860002338
:103EF000FB607B689B6BBB60BB681B685B6903F006
:103F00008003002B14BF01230023DBB2FB60BB68DE
:103F100093F83930DBB2212B08D1FB68002B05D098
:103F2000BB680022DA84B86800F027F8BB681B6819
:103F30005B6903F04003002B14BF01230023DBB2B5
:103F4000FB60BB6893F83A30DBB2222B08D1FB68E8
:103F5000002B05D0BB680022DA85B86800F023F892
:103F6000BB68DB6B43F01002BB68DA63B868FFF72D
:103F700079FF00BF1037BD4680BD80B483B000AF6D
:103F800078607B681B687A681268D26822F0C00289
:103F9000DA607B68202283F8392000BF0C37BD46E9
:103FA0005DF8047B704780B483B000AF78607B68B5
:103FB0001B687A681268D26822F49072DA607B68B3
:103FC0001B687A681268526922F001025A617B68A4
:103FD000202283F83A2000BF0C37BD465DF8047BF1
:103FE000704780B584B000AF78607B689B6BFB60E6
:103FF000FB680022DA85FB680022DA84F868FFF7A4
:1040000031FF00BF1037BD4680BD80B485B000AF22
:1040100078607B6893F83930DBB2212B43D17B6821
:104020009B68B3F5805F19D17B681B6AFB607B6876
:104030001B68FA681288C2F308025A607B681B6921
:10404000002B05D17B681B6A9A1C7B681A620EE004
:104050007B681B6A5A1C7B681A6208E07B681A68D6
:104060007B681B6A581C796808621B7853607B6800
:10407000DB8C9BB2013B9BB27A681946D184002B42
:104080000FD17B681B687A681268D26822F08002C0
:10409000DA607B681B687A681268D26842F0400276
:1040A000DA60002300E0022318461437BD465DF8AD
:1040B000047B704780B582B000AF78607B681B6876
:1040C0007A681268D26822F04002DA607B682022A7
:1040D00083F83920786810F013FF0023184608375A
:1040E000BD4680BD80B584B000AF78607B6893F832
:1040F0003A30DBB2222B69D17B689B68B3F5805FD5
:1041000023D17B689B6AFB607B681B69002B0ED107
:104110007B681B685B689BB2C3F308039AB2FB68B9
:104120001A807B689B6A9A1C7B689A6229E07B688C
:104130001B685B689BB2DBB29AB2FB681A807B6833
:104140009B6A5A1C7B689A621BE07B681B69002B88
:104150000AD17B689B6A591C7A6891627A681268F6
:104160005268D2B21A700CE07B689B6A591C7A685C
:1041700091627A6812685268D2B202F07F02D2B2BB
:104180001A707B68DB8D9BB2013B9BB27A68194643
:10419000D185002B18D17B681B687A681268D268B9
:1041A00022F49072DA607B681B687A681268526940
:1041B00022F001025A617B68202283F83A20786855
:1041C00010F078FE002302E0002300E002231846EE
:1041D0001037BD4680BD0000F0B585B000AF7860F7
:1041E0000023FB607B681B681B69FB60FB6823F492
:1041F0004053FB607B68DB68FA681343FB607B68B5
:104200001B68FA681A617B681B68DB68FB60FB68E7
:1042100023F4164323F00C03FB607B689A687B68E9
:104220001B691A437B685B691A437B68DB6913432C
:10423000FA681343FB607B681B68FA68DA607B6886
:104240001B685B69FB60FB6823F44073FB607B6861
:104250009B69FA681343FB607B681B68FA685A61C4
:104260007B68DB69B3F5004F40F0E4807B681B6836
:10427000AB4A934204D07B681B68AA4A93426CD134
:104280007B681C68FEF750FF024613469B001344F0
:104290009A001A447B685B685B00B2FBF3F3A24AA6
:1042A000A2FB03235B091D01FEF73EFF02461346F6
:1042B0009B0013449A001A447B685B685B00B2FB66
:1042C000F3F6FEF731FF024613469B0013449A00B3
:1042D0001A447B685B685B00B2FBF3F3924AA2FB73
:1042E00003235B09642202FB03F3F31ADB0032337E
:1042F0008D4AA2FB03235B095B0003F4F8731D44A2
:10430000FEF712FF024613469B0013449A001A441C
:104310007B685B685B00B2FBF3F6FEF705FF0246C5
:1043200013469B0013449A001A447B685B685B0049
:10433000B2FBF3F37C4AA2FB03235B09642202FB7A
:1043400003F3F31ADB003233774AA2FB03235B0942
:1043500003F007032B44A36054E17B681C68FEF75D
:10436000CFFE024613469B0013449A001A447B6812
:104370005B685B00B2FBF3F36B4AA2FB03235B09B0
:104380001D01FEF7BDFE024613469B0013449A0032
:104390001A447B685B685B00B2FBF3F6FEF7B0FE85
:1043A000024613469B0013449A001A447B685B68DC
:1043B0005B00B2FBF3F35C4AA2FB03235B096422BC
:1043C00002FB03F3F31ADB003233574AA2FB032349
:1043D0005B095B0003F4F8731D44FEF791FE02468F
:1043E00013469B0013449A001A447B685B685B0089
:1043F000B2FBF3F6FEF784FE024613469B0013441D
:104400009A001A447B685B685B00B2FBF3F3464A90
:10441000A2FB03235B09642202FB03F3F31ADB0014
:104420003233414AA2FB03235B0903F007032B4409
:10443000A360E7E07B681B68394A934204D07B683D
:104440001B68384A934271D17B681C68FEF76CFE8A
:10445000024613469B0013449A001A447B685B682B
:104460009B00B2FBF3F3304AA2FB03235B091D015F
:10447000FEF75AFE024613469B0013449A001A4464
:104480007B685B689B00B2FBF3F6FEF74DFE0246CD
:1044900013469B0013449A001A447B685B689B0098
:1044A000B2FBF3F3204AA2FB03235B09642202FB65
:1044B00003F3F31A1B0132331B4AA2FB03235B09EC
:1044C00003F0F0031D44FEF72FFE024613469B0047
:1044D00013449A001A447B685B689B00B2FBF3F6B6
:1044E000FEF722FE024613469B0013449A001A442C
:1044F0007B685B689B00B2FBF3F30B4AA2FB0323D0
:104500005B09642202FB03F3F31A1B013233064AF0
:10451000A2FB03235B0903F00F032B44A36071E0AC
:1045200000100140001401401F85EB517B681C689E
:10453000FEF7E6FD024613469B0013449A001A4418
:104540007B685B689B00B2FBF3F3304AA2FB03235A
:104550005B091D01FEF7D4FD024613469B00134480
:104560009A001A447B685B689B00B2FBF3F6FEF787
:10457000C7FD024613469B0013449A001A447B6809
:104580005B689B00B2FBF3F3204AA2FB03235B09A9
:10459000642202FB03F3F31A1B0132331B4AA2FB12
:1045A00003235B0903F0F0031D44FEF7A9FD024657
:1045B00013469B0013449A001A447B685B689B0077
:1045C000B2FBF3F6FEF79CFD024613469B00134434
:1045D0009A001A447B685B689B00B2FBF3F30B4ABA
:1045E000A2FB03235B09642202FB03F3F31A1B0102
:1045F0003233064AA2FB03235B0903F00F032B446B
:10460000A360FFE700BF1437BD46F0BD1F85EB5127
:1046100080B485B000AF0346FB800023FB60B7F990
:104620000630842B05D0B7F90620FB68134403330A
:10463000FB60FB6818461437BD465DF8047B704785
:1046400080B483B000AFEFF305837B607B68002B01
:1046500014BF01230023DBB218460C37BD465DF8BA
:10466000047B704780B500AF02F006F800231846BF
:1046700080BD80B500AFFFF7E3FF0346002B03D0FA
:1046800002F014F9034602E002F000F9034618466E
:1046900080BDF0B589B004AF786039607B685B6934
:1046A000002B20D07B689B69002B1CD07B685C684A
:1046B0007B681D687B681E697B68B3F90830184603
:1046C000FFF7A6FF01467B685B697A6892690292F0
:1046D000019300913B6832462946204601F012FEC4
:1046E0000346FB601CE07B685C687B681D687B6838
:1046F0001B699EB27B68B3F908301846FFF788FF44
:10470000024607F10C03019300923B6832462946AA
:10471000204601F041FE0346012B01D0002300E0BA
:10472000FB6818461437BD46F0BD80B584B000AFB5
:1047300078607B68FB60FB68002B01D0FB6800E0C1
:104740000123184601F064FF002318461037BD46C8
:1047500080BD80B582B000AF78607B685B68002B5D
:1047600007D07B685B681946012001F073F80346A7
:1047700003E0012001F056F8034618460837BD460D
:1047800080BD000080B584B000AF78603960002340
:10479000BB607B68002B01D180233CE00023FB60E1
:1047A0003B68B3F1FF3F03D14FF0FF33FB6009E0FB
:1047B0003B68002B06D03B68FB60FB68002B01D1F7
:1047C0000123FB60FFF73CFF0346002B17D007F1E6
:1047D00008031A460021786801F082FB0346012B8A
:1047E00001D0FF2317E0BB68002B13D00C4B4FF018
:1047F00080521A60BFF34F8FBFF36F8F0AE0002320
:10480000FA680021786801F059FA0346012B01D0BB
:10481000FF2300E0002318461037BD4680BD00BFCF
:1048200004ED00E080B584B000AF78600023FB6049
:104830000023BB60FFF704FF0346002B16D007F1EF
:1048400008031946786801F0AFF90346012B01D03F
:10485000FF2317E0BB68002B13D00C4B4FF08052A6
:104860001A60BFF34F8FBFF36F8F0AE0002300225F
:104870000021786801F00AF80346012B01D0FF23DC
:10488000FB60FB6818461037BD4680BD04ED00E0B4
:1048900080B586B002AF786039607B685B68002BBA
:1048A00010D03B68012B0BD17B685A68032300931F
:1048B000134600220021012000F0C8FE034616E046
:1048C000002314E03B68012B10D1032200210120BA
:1048D00000F02EFFF860FB68002B05D000230022BB
:1048E0000021F86800F0D2FFFB6800E000231846C2
:1048F0001037BD4680BD000080B584B000AF786041
:1049000039600023BB607B68002B01D180233CE031
:104910000023FB603B68B3F1FF3F03D14FF0FF334F
:10492000FB6009E03B68002B06D03B68FB60FB683E
:10493000002B01D10123FB60FFF782FE0346002B11
:1049400017D007F108031A460021786801F0C8FA69
:104950000346012B01D0FF2317E0BB68002B13D0C7
:104960000C4B4FF080521A60BFF34F8FBFF36F8F25
:104970000AE00023FA680021786801F09FF90346F5
:10498000012B01D0FF2300E0002318461037BD465D
:1049900080BD00BF04ED00E080B584B000AF78605A
:1049A0000023FB600023BB60FFF74AFE0346002B99
:1049B00016D007F108031946786801F0F5F80346A8
:1049C000012B01D0FF2317E0BB68002B13D00C4B49
:1049D0004FF080521A60BFF34F8FBFF36F8F0AE022
:1049E000002300220021786800F050FF0346012BCD
:1049F00001D0FF23FB60FB6818461037BD4680BD21
:104A000004ED00E080B582B000AF7860FFF718FEDB
:104A10000346002B01D0822303E0786801F015FBE8
:104A2000002318460837BD4680BD90B585B002AF5B
:104A3000786039607B689B68002B12D07B68DB68EC
:104A4000002B0ED07B6818687B6859687B689A6871
:104A50007B68DC6800230093234600F0F7FD0346E3
:104A600008E07B6818687B685B680022194600F0E4
:104A70005FFE034618460C37BD4690BD80B586B034
:104A800000AFF860B9607A6000233B617B687B61AE
:104A90007B69002B01D101237B61FFF7D1FD034628
:104AA000002B18D007F1100207F108010023F86865
:104AB00000F0E6FF0346012B01D0FF2318E03B691D
:104AC000002B14D00C4B4FF080521A60BFF34F8F65
:104AD000BFF36F8F0BE007F1080100237A69F868D4
:104AE00000F0D4FE0346012B01D0FF2300E0002399
:104AF00018461837BD4680BD04ED00E090B58BB078
:104B000000AFF860B9607A60BB68FB610023BB61ED
:104B1000BB68002B0AD180237B61FB681C4607F130
:104B2000140393E8070084E8070054E000233B6285
:104B300000237B627B68B3F1FF3F03D14FF0FF336B
:104B40007B6209E07B68002B06D07B687B627B6A16
:104B5000002B01D101237B62FFF772FD0346002B7E
:104B60001CD007F1200207F1140304331946B8687A
:104B700001F0B6F90346012B02D110237B6101E05D
:104B800000237B613B6A002B1DD0154B4FF08052F8
:104B90001A60BFF34F8FBFF36F8F14E007F1140358
:104BA000191D00237A6AB86801F088F80346012BC2
:104BB00002D110237B6106E07B6A002B01D1002328
:104BC00000E040237B61FB681C4607F1140393E877
:104BD000070084E80700F8682C37BD4690BD00BF89
:104BE00004ED00E080B582B000AF7860FFF728FDEB
:104BF0000346002B04D0786801F00CFA034603E06A
:104C0000786801F0EAF9034618460837BD4680BDCA
:104C100080B582B000AF7860FFF712FD0346002B2D
:104C200001D0822303E0786801F00FFA00231846D0
:104C30000837BD4680BD80B483B000AF78607B6824
:104C400003F108027B685A607B684FF0FF329A607C
:104C50007B6803F108027B68DA607B6803F1080275
:104C60007B681A617B6800221A6000BF0C37BD4662
:104C70005DF8047B704780B483B000AF78607B68D8
:104C800000221A6100BF0C37BD465DF8047B7047F7
:104C900080B485B000AF786039607B685B68FB608A
:104CA0003B68FA685A60FB689A683B689A60FB68E0
:104CB0009B683A685A60FB683A689A603B687A6811
:104CC0001A617B681B685A1C7B681A6000BF143726
:104CD000BD465DF8047B704780B485B000AF786056
:104CE00039603B681B68BB60BB68B3F1FF3F03D111
:104CF0007B681B69FB600CE07B680833FB6002E0AB
:104D0000FB685B68FB60FB685B681A68BB689A427B
:104D1000F6D9FB685A683B685A603B685B683A683A
:104D20009A603B68FA689A60FB683A685A603B6828
:104D30007A681A617B681B685A1C7B681A6000BF1E
:104D40001437BD465DF8047B704780B485B000AF72
:104D500078607B681B69FB607B685B687A68926837
:104D60009A607B689B687A6852685A60FB685A68E8
:104D70007B689A4203D17B689A68FB685A607B68BB
:104D800000221A61FB681B685A1EFB681A60FB68E8
:104D90001B6818461437BD465DF8047B7047000059
:104DA00080B485B000AFF860B9607A60FB68043BFE
:104DB000FB60FB684FF080721A60FB68043BFB608D
:104DC000BB6823F00102FB681A60FB68043BFB60D0
:104DD0000C4AFB681A60FB68143BFB607A68FB684E
:104DE0001A60FB68043BFB60FB686FF002021A600C
:104DF000FB68203BFB60FB6818461437BD465DF836
:104E0000047B7047094E010880B483B000AF0C4B9F
:104E10001B68B3F1FF3F09D04FF0500383F31188B3
:104E2000BFF36F8FBFF34F8F7B60FEE74FF05003F0
:104E300083F31188BFF36F8FBFF34F8F3B60FEE7A3
:104E4000040000200000000000000000000000003E
:104E5000074B19680868B0E8F04F80F30988BFF382
:104E60006F8F4FF0000080F311887047AFF3008020
:104E70005C92002000BF00BF06480068006880F315
:104E8000088862B661B6BFF34F8FBFF36F8F00DF44
:104E900000BF00BF08ED00E080B586B000AF3B4B1F
:104EA0001B683B4A934209D14FF0500383F31188AA
:104EB000BFF36F8FBFF34F8F3B61FEE7334B1B6830
:104EC000344A934209D14FF0500383F31188BFF362
:104ED0006F8FBFF34F8FFB60FEE72F4B7B617B69CA
:104EE0001B78DBB2BB607B69FF221A707B691B7881
:104EF000DBB2FB71FB79DBB203F05003DAB2274B74
:104F00001A70274B07221A6009E0254B1B68013BEA
:104F1000234A1360FB79DBB25B00DBB2FB71FB79E8
:104F2000DBB203F08003802BEFD01D4B1B681B020C
:104F30001B4A13601A4B1B6803F4E063184A1360A2
:104F4000BB68DAB27B691A70164A164B1B6843F4C9
:104F500070031360134A134B1B6843F070431360D4
:104F600000F0D2F8104B00221A6000F0E9F80F4A66
:104F70000E4B1B6843F040431360FFF77DFFFFF7C4
:104F800043FF002318461837BD4680BD00ED00E002
:104F900071C20F4170C20F4100E400E03C020020EA
:104FA0004002002020ED00E00400002034EF00E08B
:104FB00080B483B000AF4FF0500383F31188BFF388
:104FC0006F8FBFF34F8F7B600E4B1B6801330D4A11
:104FD00013600C4B1B68012B0ED10B4B1B68DBB213
:104FE000002B09D04FF0500383F31188BFF36F8F6C
:104FF000BFF34F8F3B60FEE700BF0C37BD465DF847
:10500000047B70470400002004ED00E080B483B00E
:1050100000AF114B1B68002B09D14FF0500383F3F5
:105020001188BFF36F8FBFF34F8F7B60FEE70A4B92
:105030001B68013B084A1360074B1B68002B04D117
:1050400000233B603B6883F3118800BF0C37BD46EB
:105050005DF8047B704700BF0400002000000000E2
:10506000EFF30980BFF36F8F154B1A681EF0100F16
:1050700008BF20ED108A20E9F04F10604DF8043D84
:105080004FF0500080F31188BFF34F8FBFF36F8F45
:1050900001F0DAFC4FF0000080F3118808BC1968B9
:1050A0000868B0E8F04F1EF0100F08BFB0EC108A8F
:1050B00080F30988BFF36F8F704700BFAFF30080A4
:1050C0005C92002000BF00BF80B582B000AF4FF0FF
:1050D000500383F31188BFF36F8FBFF34F8F7B6053
:1050E00001F0F6FB0346002B03D0064B4FF0805235
:1050F0001A6000233B603B6883F3118800BF0837C8
:10510000BD4680BD04ED00E080B400AF084A094B05
:105110001B680949A1FB03139B09013B1360074B63
:1051200007221A6000BFBD465DF8047B704700BFD0
:1051300014E000E04C000020D34D621010E000E0CD
:10514000DFF80C00016841F470010160704700BF96
:1051500088ED00E080B485B000AFEFF30583FB601D
:10516000FB680F2B13D9164AFB6813441B78FB729C
:10517000144B1B78FA7A9A4209D24FF0500383F30A
:105180001188BFF36F8FBFF34F8F7B60FEE70E4B2D
:105190001B6803F4E0620D4B1B689A4209D94FF07B
:1051A000500383F31188BFF36F8FBFF34F8F3B60C2
:1051B000FEE700BF1437BD465DF8047B704700BFB3
:1051C000F0E300E03C0200200CED00E04002002093
:1051D00080B58AB000AF78600023FB6101F0ACFAC3
:1051E000574B1B68002B01D100F00CF9554B1A6886
:1051F0007B681340002B40F08C807B68002B1CD018
:1052000008227B6813447B607B6803F00703002B54
:1052100013D07B6823F0070308337B607B6803F0BF
:105220000703002B09D04FF0500383F31188BFF31D
:105230006F8FBFF34F8F7B61FEE77B68002B68D0D9
:10524000414B1B687A689A4263D8404B3B623F4BA4
:105250001B687B6204E07B6A3B627B6A1B687B6243
:105260007B6A5A687B689A4203D27B6A1B68002B70
:10527000F1D1334B1B687A6A9A424AD03B6A1B6869
:1052800008221344FB617B6A1A683B6A1A607B6AD6
:105290005A687B68D21A08235B009A421ED97A6A40
:1052A0007B681344BB61BB6903F00703002B09D083
:1052B0004FF0500383F31188BFF36F8FBFF34F8F0D
:1052C0003B61FEE77B6A5A687B68D21ABB695A6009
:1052D0007B6A7A685A60B86900F0F6F81A4B1A6867
:1052E0007B6A5B68D31A184A1360174B1A68184B0D
:1052F0001B689A4203D2144B1B68154A13607B6AE1
:105300005A68104B1B681A437B6A5A607B6A0022FA
:105310001A6001F01FFAFB6903F00703002B09D0A4
:105320004FF0500383F31188BFF36F8FBFF34F8F9C
:10533000FB60FEE7FB6918462837BD4680BD00BF0D
:105340004C9200205892002050920020449200205D
:105350005492002080B586B000AF78607B687B6196
:105360007B68002B46D008235B427A6913447B613B
:105370007B693B613B695A68204B1B681340002BDB
:1053800009D14FF0500383F31188BFF36F8FBFF340
:105390004F8FFB60FEE73B691B68002B09D04FF085
:1053A000500383F31188BFF36F8FBFF34F8FBB6040
:1053B000FEE73B695A68114B1B681340002B19D05C
:1053C0003B691B68002B15D13B695A680B4B1B6866
:1053D000DB431A403B695A6001F0AEF93B695A68F9
:1053E000074B1B681344064A1360386900F06CF8D9
:1053F00001F0B0F900BF1837BD4680BD58920020BB
:105400005092002080B485B000AF4FF41043BB60D1
:10541000274BFB60FB6803F00703002B0CD0FB68F5
:105420000733FB60FB6823F00703FB60BA68FB6887
:10543000D31A1F4A1344BB60FB687B601D4A7B681C
:1054400013601C4B00225A607A68BB681344FB60EF
:105450000822FB689B1AFB60FB6823F00703FB60D4
:10546000FB68154A1360144B1B6800225A60124BEC
:105470001B6800221A607B683B603B68FA68D21A9E
:105480003B685A600C4B1A683B681A603B685B6863
:105490000A4A13603B685B68094A1360094B4FF086
:1054A00000421A6000BF1437BD465DF8047B7047A8
:1054B00044020020449200204C920020549200208C
:1054C000509200205892002080B485B000AF7860E0
:1054D000284BFB6002E0FB681B68FB60FB681A68F6
:1054E0007B689A42F7D3FB68BB60FB685B68BA686D
:1054F0001A447B689A4208D1FB685A687B685B68EB
:105500001A44FB685A60FB687B607B68BB607B6801
:105510005B68BA681A44FB681B689A4218D1FB683A
:105520001A68154B1B689A420DD07B685A68FB6855
:105530001B685B681A447B685A60FB681B681A68C2
:105540007B681A6008E00C4B1A687B681A6003E0FD
:10555000FB681A687B681A60FA687B689A4202D016
:10556000FB687A681A6000BF1437BD465DF8047B9B
:10557000704700BF449200204C92002080B584B058
:1055800000AF786039607B68FB60FB68002B09D155
:105590004FF0500383F31188BFF36F8FBFF34F8F2A
:1055A000BB60FEE7FFF704FDFB681A68FB68DB6B76
:1055B000F968096C01FB03F31A44FB685A60FB6845
:1055C00000229A63FB681A68FB689A60FB681A6895
:1055D000FB68DB6B013BF968096C01FB03F31A44C0
:1055E000FB68DA60FB68FF2283F84420FB68FF2237
:1055F00083F845203B68002B14D1FB681B69002B06
:105600001AD0FB681033184601F0B8FA0346002B95
:1056100012D00D4B4FF080521A60BFF34F8FBFF383
:105620006F8F09E0FB6810331846FFF704FBFB6837
:1056300024331846FFF7FFFAFFF7E8FC012318466A
:105640001037BD4680BD00BF04ED00E080B58EB0D0
:1056500002AFF860B9607A603B60FB68002B09D14B
:105660004FF0500383F31188BFF36F8FBFF34F8F59
:10567000BB62FEE73B68002B09D14FF0500383F378
:105680001188BFF36F8FBFF34F8F7B62FEE77B689C
:10569000002B02D0BB68002B01D0012300E00023C7
:1056A000002B09D14FF0500383F31188BFF36F8FA4
:1056B000BFF34F8F3B62FEE77B68002B02D1BB68D4
:1056C000002B01D1012300E00023002B09D14FF072
:1056D000500383F31188BFF36F8FBFF34F8FFB61CC
:1056E000FEE750237B617B69502B09D04FF05003BC
:1056F00083F31188BFF36F8FBFF34F8FBB61FEE75A
:105700003B68FB62FB6A002B0DD0FB6A012283F829
:10571000462097F83820FB6A009313467A68B968E8
:10572000F86800F042F8FB6A18463037BD4680BD85
:1057300080B58AB002AFF860B9601346FB71FB68B0
:10574000002B09D14FF0500383F31188BFF36F8F03
:10575000BFF34F8F3B61FEE7BB68002B02D10023F4
:10576000FB6104E0FB68BA6802FB03F3FB61FB69C1
:1057700050331846FFF72CFDB861BB69002B0FD0E2
:10578000BB6950337B61BB69002283F84620FA79FC
:10579000BB69009313467A69B968F86800F005F8A8
:1057A000BB6918462037BD4680BD80B584B000AFC8
:1057B000F860B9607A60FB70BB68002B03D1BB69ED
:1057C000BA691A6002E0BB697A681A60BB69FA6854
:1057D000DA63BB69BA681A640121B869FFF7CEFEC3
:1057E000BB69FA7883F84C2000BF1037BD4680BDF6
:1057F00080B582B000AF78607B68002B0ED07B68EC
:1058000000225A607B6800221A607B680022DA60FE
:10581000002300220021786800F038F800BF083724
:10582000BD4680BD80B586B000AF0346FB71012345
:105830007B6100233B61FB791A4639697869FFF780
:1058400077FFF860F868FFF7D3FFFB681846183752
:10585000BD4680BD80B588B002AF03463960FB719C
:1058600001237B6100233B61FB7900933B680022AD
:1058700039697869FFF7EAFEF860F868FFF7B8FF62
:10588000FB6818461837BD4680BD000080B58EB055
:1058900000AFF860B9607A603B6000237B63FB680F
:1058A0003B633B6B002B09D14FF0500383F311880E
:1058B000BFF36F8FBFF34F8FBB62FEE7BB68002B58
:1058C00003D13B6B1B6C002B01D1012300E00023B3
:1058D000002B09D14FF0500383F31188BFF36F8F72
:1058E000BFF34F8F7B62FEE73B68022B03D13B6B1C
:1058F000DB6B012B01D1012300E00023002B09D138
:105900004FF0500383F31188BFF36F8FBFF34F8FB6
:105910003B62FEE701F00AFB0346002B02D17B68E5
:10592000002B01D1012300E00023002B09D14FF00F
:10593000500383F31188BFF36F8FBFF34F8FFB6169
:10594000FEE7FFF735FB3B6B9A6B3B6BDB6B9A42D9
