:020000040800F2
:100000000000022079060208F1F20108F3F201086B
:10001000F5F20108F7F20108F9F20108000000000A
:100020000000000000000000000000007130010826
:10003000FBF20108000000001131010875310108D0
:10004000C9060208C9060208C9060208C90602084C
:10005000C9060208C9060208C9060208C90602083C
:10006000C9060208C9060208C9060208C90602082C
:10007000C9060208C9060208C9060208C90602081C
:10008000C9060208C9060208C9060208C90602080C
:10009000C9060208C9060208C9060208C9060208FC
:1000A000C9060208FDF20108C9060208C9060208CD
:1000B000C9060208C9060208C9060208C9060208DC
:1000C000C9060208C9060208C9060208C9060208CC
:1000D000C90602080DF30108C9060208C90602088C
:1000E000C9060208C9060208C9060208C9060208AC
:1000F0001DF30108C9060208C90602082DF301080C
:10010000C9060208C9060208C9060208C90602088B
:10011000C90602083DF30108C90602084DF30108AB
:10012000C9060208C9060208C9060208C90602086B
:10013000C90602085DF30108C9060208C9060208DB
:10014000C9060208C9060208C9060208C90602084B
:10015000C9060208C90602086DF30108C9060208AB
:10016000C9060208C9060208C9060208C90602082B
:10017000C9060208C9060208C906020800000000F4
:08018000C9060208C9060208C5
:020000040801F1
:1000000010B5054C237833B9044B13B10448AFF352
:1000100000800123237010BD1402002000000000A6
:100020009413020808B5034B1BB103490348AFF30F
:10003000008008BD00000000180200209413020890
:10004000EC46A0E8F05F4FF000007047B0E8F05FCA
:10005000E546080008BF0120704700BF10F8012BDB
:1000600011F8013B012A28BF9A42F7D0D01A7047F5
:10007000034613F8012B002AFBD1181A01387047E8
:1000800053B94AB9002908BF00281CBF4FF0FF31FF
:100090004FF0FF3000F07AB9ADF1080C6DE904CEF5
:1000A00000F006F8DDF804E0DDE9022304B0704753
:1000B0002DE9F0478C460D460446089E002B51D191
:1000C0008A4217466DD9B2FA82FEBEF1000F0BD0FC
:1000D000CEF1200C01FA0EF520FA0CFC02FA0EF714
:1000E0004CEA050C00FA0EF44FEA174A250CBCFB4B
:1000F000FAF81FFA87F90AFB18CC45EA0C4508FB09
:1001000009F3AB420AD9ED1908F1FF3280F02381DF
:10011000AB4240F22081A8F102083D44ED1AA4B29E
:10012000B5FBFAF00AFB105544EA054400FB09F957
:10013000A14509D9E41900F1FF3380F00A81A145F6
:1001400040F2078102383C44A4EB090440EA08402D
:100150000021002E61D024FA0EF400233460736075
:10016000BDE8F0878B4207D9002E54D0002186E8E5
:1001700021000846BDE8F087B3FA83F1002940F07A
:100180008E80AB4202D3824200F2FA80841A65EB81
:1001900003050120AC46002E3FD086E81010BDE8D4
:1001A000F08712B90127B7FBF2F7B7FA87FEBEF165
:1001B000000F34D1EB1B3A0C1FFA87FC0121B3FB73
:1001C000F2F8250C02FB183345EA03450CFB08F353
:1001D000AB4207D9ED1908F1FF3002D2AB4200F271
:1001E000D1808046ED1AA3B2B5FBF2F002FB1055A8
:1001F00043EA05440CFB00FCA44507D9E41900F1CF
:10020000FF3302D2A44500F2B8801846A4EB0C04D8
:1002100040EA08409DE731463046BDE8F087CEF120
:10022000200405FA0EF307FA0EF720FA04F83A0C48
:1002300025FA04F448EA0308B4FBF2F14FEA184542
:1002400002FB11441FFA87FC45EA044501FB0CF34D
:10025000AB4200FA0EF409D9ED1901F1FF3080F03C
:100260008A80AB4240F2878002393D44EB1A1FFA84
:1002700088F5B3FBF2F002FB103345EA034500FBBF
:100280000CF3AB4207D9ED1900F1FF386FD2AB4246
:100290006DD902383D44EB1A40EA01418FE7C1F1C4
:1002A000200722FA07F88B4005FA01F448EA030315
:1002B00020FA07FE4FEA134CFD404EEA040EB5FB50
:1002C000FCF94FEA1E440CFB19551FFA83F844EA67
:1002D000054509FB08F4AC4202FA01F200FA01FA02
:1002E00008D9ED1809F1FF3043D2AC4241D9A9F148
:1002F00002091D442D1B1FFA8EFEB5FBFCF00CFB02
:1003000010554EEA054400FB08F8A04507D9E4184B
:1003100000F1FF3529D2A04527D902381C4440EA14
:100320000940A4EB0804A0FB02894C45C6464D4693
:1003300015D312D056B1BAEB0E0364EB050404FAE0
:1003400007F7CB401F43CC40376074600021BDE805
:10035000F0871846F8E69046E0E6C245EAD2B8EBE8
:10036000020E69EB03050138E4E72846D7E740466B
:1003700091E78146BEE7014678E702383C4445E70D
:10038000084608E7A8F102083D442BE7704700BF84
:1003900008B50B4B1A6842F400721A601A6842F4EE
:1003A00080621A601A6842F480721A60032000F0BA
:1003B0002FF800200EF05EFF0EF03AFF002008BD7F
:1003C000003C0240034A1168034B1B780B44136046
:1003D000704700BF940F012000000020014B1868F7
:1003E000704700BF940F012038B50446FFF7F6FFB1
:1003F0000546B4F1FF3F02D0044B1B781C44FFF7C5
:10040000EDFF401B8442FAD838BD00BF0000002039
:10041000074AD36823F4E0631B041B0C000200F4BA
:10042000E060184340F0BF6040F40030D060704797
:1004300000ED00E030B4164BDB68C3F30223C3F1D8
:100440000704042C28BF04241D1D062D17D9033BC7
:10045000012505FA04F4013C2140994005FA03F313
:10046000013B1340194300280BDB0901C9B200F11D
:10047000604000F5614080F8001330BC70470023F5
:10048000E6E700F00F000901C9B2024B1954F4E786
:1004900000ED00E014ED00E0420900F01F00012330
:1004A00003FA00F0014B43F82200704700E100E03E
:1004B00030B405682C6824F480242C6004686360E0
:1004C0008368402B05D0036899600368DA6030BC0C
:1004D000704703689A600368D960F8E70268D3B28E
:1004E000103B0B49A1FB03131B090A49C95CC165F9
:1004F000032B06D822F47F7222F003028265806DFE
:10050000704722F47F7222F0030204328265F6E71C
:10051000ABAAAAAA74140208836A826992B9012B51
:100520000AD01BB1022B01D000207047C36A13F020
:10053000807F2CD100207047C36AB3F1C07F28D0E0
:1005400000207047B2F5005F05D0022B29D9032B9C
:1005500015D000207047032B03D8DFE803F01C04FC
:100560001C0A00207047C36A13F0807F15D1002059
:100570007047C36AB3F1C07F11D000207047C36ACF
:1005800013F0807F01D001207047002070470120C8
:1005900070470120704701207047012070470120FB
:1005A000704701207047000070B50446FFF716FF42
:1005B000002C5DD00546002384F83430022384F8F3
:1005C00035302268136823F00103136023681A682A
:1005D00012F0010F0AD0FFF701FF401B0528F5D9E3
:1005E00020236365032084F8350070BD1A68214913
:1005F00011406268A0680243E06802432069024338
:1006000060690243A0690243E0690243206A024331
:100610000A43616A042916D01A602668756925F0B4
:100620000705636A1D43042B12D075612046FFF74E
:1006300055FFE26D3F2393408360002060650123F6
:1006400084F8353070BDE16A206B01430A43E3E76B
:10065000A36A1D43E36A002BE7D02046FFF75CFF47
:100660000028E2D040236365012084F8350070BD86
:10067000012070BD3F8010F038B5856D90F8344092
:10068000012C31D0012480F8344090F83540E4B298
:10069000012C04D0002380F83430022038BD0446F9
:1006A000022084F83500002060652046FFF700FF37
:1006B000E26D3F239340AB602268136843F016035A
:1006C00013602268536943F080035361236C23B1A4
:1006D0002268136843F0080313602268136843F02C
:1006E00001031360002038BD022038BD90F835307A
:1006F000DBB2022B03D08023436501207047052322
:1007000080F835300268136823F00103136000207D
:1007100070470000F0B583B0044600230193724B8C
:100720001D68724BA3FB0535AD0A876D3E68C26D2F
:10073000082393401E4210D003681A6812F0040F79
:100740000BD01A6822F004021A60C26D082393408D
:10075000BB60436D43F001034365E26D01239340A9
:100760001E4209D02268526912F0800F04D0BB608B
:10077000636D43F002036365E26D042393401E4200
:1007800009D02268126812F0020F04D0BB60636DBA
:1007900043F004036365E26D102393401E4224D0AE
:1007A0002268126812F0080F1FD0BB6023681A6815
:1007B00012F4802F0DD01B6813F4002F04D1236C8A
:1007C0009BB12046984710E0A36C73B12046984730
:1007D0000BE01A6812F4807F03D11A6822F0080235
:1007E0001A60236C0BB120469847E26D202393409A
:1007F0001E4255D02268126812F0100F50D0BB6014
:1008000094F83530DBB2052B0ED023681A6812F449
:10081000802F33D01B6813F4002F2AD1636C002B78
:100820003ED0204698473BE02268136823F0160329
:1008300013602268536923F080035361236CA3B1D2
:100840002268136823F008031360E26D3F2393408E
:10085000BB60002384F83430012384F83530236DE5
:10086000002B3FD0204698473CE0A36C002BE7D1FB
:10087000EBE7E36BA3B12046984711E01A6812F446
:10088000807F09D11A6822F010021A60002384F8D0
:100890003430012384F83530E36B0BB120469847A0
:1008A000636DFBB1636D13F0010F17D0052384F85E
:1008B00035302268136823F001031360019B013374
:1008C00001939D4204D323681B6813F0010FF5D1F7
:1008D000002384F83430012384F83530E36C0BB105
:1008E0002046984703B0F0BD40000020B5814E1B64
:1008F0005079137943EA002307480B50D078937856
:100900001B0443EA0063507843EA00231278134340
:10091000024A8B50704700BF408002404480024032
:10092000016841F218028B5843F400538B50704712
:10093000016841F218028B5843F002038B50704754
:1009400082B0084B1B68084AA2FB03235B0A00FB2A
:1009500003F0019000BF019B5A1E0192002BF9D1B8
:1009600002B0704740000020D34D621010B582B035
:100970000446002301930268136843F008031360E0
:1009800003681B6801930120FFF7DAFF2368019ACF
:100990001A6002B010BD10B582B004460023019366
:1009A0000268136843F00403136003681B68019333
:1009B0000120FFF7C5FF2368019A1A6002B010BD3D
:1009C00030B583B0054600230193026841F2180454
:1009D000135943F48013135103681B5901930120E9
:1009E000FFF7AEFF2B68019A1A5103B030BD00002B
:1009F00070B59EB0044629B14FF40063C3604FF454
:100A000080438360E369002B6AD14FF480630793CE
:100A100021680B68394A1A40A368E06803430798C5
:100A2000034343F4007313430B6023681D680120E4
:100A3000FFF7DAFC23681D60236840225A602368B0
:100A40005D680120FFF7D0FC23685D602368002506
:100A50009D602368DD602268936923F0BE031B0458
:100A60001B0C43F08003936123689E690120FFF70C
:100A7000BBFC23689E612368DD612368DD6901207A
:100A8000FFF7B2FC2368DD61226841F21805515975
:100A90001B4B0B4043F0087343F00403535123688E
:100AA0005E590120FFF7A0FC23685E51236803F51F
:100AB0008053144A1A60236803F580531D6801208F
:100AC000FFF792FC236803F580531D60A369012B97
:100AD00009D0626900212046FFF70AFF1EB070BDF1
:100AE0000023079394E7216841F21C028B5843F4DA
:100AF000803343F040038B50EBE700BF0F8120FFB2
:100B0000233FDEF88020C102F0B490F84540012C6C
:100B100031D0012480F84540022480F84440C1626D
:100B2000002401E0F96001349C4217D265014F199D
:100B30004FF480164E5140F2F45606FB0426BE6078
:100B4000C6691EB94E5946F440064E515D1EAC4270
:100B5000E8D2651C01EB4515FD60E4E7026841F24F
:100B60001003D150012380F84430002380F8453031
:100B70001846F0BC70470220FBE7F0B490F84540FF
:100B8000012C2ED0012480F84540022480F84440F6
:100B90008162002401E0E96001349C4214D26601C4
:100BA0008D194FF000478F5144F2F4566E6040F2B9
:100BB000F45606FB0426AE605E1EB442EBD2661C01
:100BC00001EB4616EE60E7E7026841F20C03D150F4
:100BD000012380F84430002380F845301846F0BCEB
:100BE00070470220FBE7000090F84530012B00F031
:100BF0008780012380F84530022380F8443099B182
:100C0000C36A1A68002A17DB30B440F2F4529142EA
:100C10001AD93C4CA4FB0124A40A40F2F45202FB72
:100C2000141292B1013410E0012380F84430002204
:100C300080F8452018467047122380F8443000237E
:100C400080F84530012070470124012C01D0002399
:100C500037E01A6842F040521A60C36AC1F30C01CF
:100C60005960C26A136843F000431360C36ADB68CB
:100C7000C362036841F214029A5812F0040F08D0BC
:100C8000042141F2140299500268002141F2040348
:100C9000D150012380F84430002380F845301846B5
:100CA00030BC7047C56A2A6842F080522A6011E061
:100CB000C56A2A6842F000422A60C26AD268C262EB
:100CC00001339C42D5D9C56A2A6822F040522A6075
:100CD000002BE7D0C26A40F2F4555560621E934281
:100CE000E6D1C56A2A6842F000522A60064A02FB31
:100CF000041202F2F452C56AC2F30C026A60D7E72A
:100D0000022070470BB002AC0CFAFFFF90F84530A0
:100D1000012B45D0012380F84530022380F8443070
:100D200000210AE0036301228263DB68836204E03E
:100D3000826B01328263DB688362836A1A68002AED
:100D400026DB032924D801311A6802F44072B2F577
:100D5000007FE7D01A6812F4407FE9D04363826BCA
:100D600001328263012A11D01A68C2F30D42043A9B
:100D7000C263026B92680264DB688362012380F8BD
:100D80004430002380F84530184670470363EBE792
:100D9000012380F84430002280F84520184670472F
:100DA000022070477047704710B50446036841F24F
:100DB00014029A5812F0400F11D141F214029B58BC
:100DC00013F0010F19D1226841F214034FF480315E
:100DD000D1502268D35813F4004F1BD110BD0CF032
:100DE000CBFB2268402141F21403D150012384F847
:100DF0004430002384F84530E5E7FFF7D3FF21684E
:100E0000012341F214028B5084F84430002384F80B
:100E10004530D8E72046FFF7C6FF22684FF400416F
:100E200041F21403D150012384F84430002384F8A4
:100E30004530D3E7F8B590F84430DBB2822B01D1CE
:100E40000220F8BD16460546822380F84430026829
:100E5000146904F01C04038ADB029BB21C43890161
:100E600001F4F8610C4344F001041461FFF7B6FA91
:100E7000074614F0010F10D0FFF7B0FAC01BB0F511
:100E8000803F02D22B681C69F3E7012385F84430C8
:100E9000002385F845300320F8BD2B685B699BB2C1
:100EA0003360012385F844300020F8BD90F84430C9
:100EB000DBB2422B01D10220704770B505464223B8
:100EC00080F844300068046904F01C042B8ADB02BB
:100ED0009BB21C43890101F4F8610C4344F0030404
:100EE00092B242612B681C61FFF778FA064614F053
:100EF000010F10D0FFF772FA801BB0F5803F02D2CD
:100F00002B681C69F3E7012385F84430002385F83A
:100F10004530032070BD012385F84430002070BDAA
:100F200070B582B000230193002800F00E810446C2
:100F300090F84430002B34D000230093844B5A6C3B
:100F400042F480425A645B6C03F480430093009B3C
:100F5000804B5A6822F400025A605A68216A0A4398
:100F60005A60236803F580531A6842F001021A6040
:100F7000FFF734FA0546236803F58052126812F031
:100F8000010F13D0FFF72AFA401BB0F5FA7FF2D910
:100F9000032584F84450002384F84530284602B0E5
:100FA00070BD80F845300CF08BFAC5E71D6925F05F
:100FB0001C0500F093FE684B0344684A934255D8E1
:100FC00045F0080523681D614FF4004200212046CA
:100FD000FFF76CFF0546002860D1FF20FFF704FAF9
:100FE0006368002B00F09180FFF7F8F9064601AA2C
:100FF00001212046FFF71EFFFFF7F0F9801B41F2A9
:101000008833984252D8019B13F0040FEFD04FF46D
:10101000805200212046FFF749FF002852D1FFF7F8
:10102000DDF9064601AA01212046FFF703FFFFF77D
:10103000D5F9801B41F2883398424BD8019B13F0BD
:10104000200FEFD001AA10212046FFF7F3FE002861
:101050004CD1019B13F0040F50D04FF40062E260BA
:1010600013F0020F4DD00023A3605EE03C4B03441D
:101070003C4A934202D845F00C05A3E73A4B03449F
:101080003A4A93429ED93A4B03443A4A934202D891
:1010900045F0040596E745F0100593E70121204649
:1010A000FFF7A6FC012584F8445077E7012120468C
:1010B000FFF79EFC012384F84430002384F8453078
:1010C00003256BE701212046FFF792FC012584F8F8
:1010D000445063E701212046FFF78AFC012384F88E
:1010E0004430002384F84530032557E7012120468A
:1010F000FFF77EFC012584F844504FE70022E260B0
:10110000AEE74FF48043A3600FE0E368C3F3CF0280
:10111000A368C3F34F031A4300212046FFF7C6FE1E
:1011200058B940F6FF70FFF75FF900212046FFF73E
:101130005FFC012384F8443030E701212046FFF7AB
:1011400057FC012584F8445028E7012526E700BF15
:10115000003802400038014000D3CEFEBFE1E40079
:1011600040F1E9FD3F787D0100796CFCFF59620296
:10117000001F0AFA7FF0FA0238B590F84530012BCB
:1011800001D1022038BD0446012580F845500223D4
:1011900080F84430FFF7EAFB2046FFF7FCFB2046CF
:1011A000FFF70EFC2046FFF7BBFB2046FFF7C0FB16
:1011B00084F84450002084F8450038BD10B4094933
:1011C0000C6924F440740C610C6944F440740C61A3
:1011D0000C6944F001040C61026043605DF8044B4B
:1011E000704700BF003C0240074B1A6922F440726E
:1011F0001A611A6942F400721A611A6942F0010216
:101200001A610160704700BF003C0240074B1A6939
:1012100022F440721A611A6942F480721A611A69E2
:1012200042F001021A610180704700BF003C024099
:10123000064B1A6922F440721A611A691A611A6916
:1012400042F001021A610170704700BF003C024089
:10125000204BDB6813F0100F07D01F4AD36943F00F
:101260001003D36110221B4BDA601A4BDB6813F0BA
:10127000200F07D0184AD36943F00803D361202216
:10128000144BDA60134BDB6813F0400F07D0124A9F
:10129000D36943F00403D36140220E4BDA600D4B57
:1012A000DB6813F0800F07D00B4AD36943F00203C9
:1012B000D3618022074BDA60064BDB6813F0020F24
:1012C00007D0054AD36943F02003D3610222014BC2
:1012D000DA607047003C0240980F0120094B1B69FF
:1012E000002B01DB00207047064B074A5A6002F1D1
:1012F00088325A601B69002B01DB002070470120F7
:10130000704700BF003C02402301674538B50446E2
:101310000022154BDA61FFF761F80546134BDB68D5
:1013200013F4803F0AD0B4F1FF3FF7D0CCB1FFF700
:1013300055F8401B8442F1D2032038BD0B4BDB68CB
:1013400013F0010F02D00122084BDA60074BDB6873
:1013500013F0F20F01D1002038BDFFF779FF012013
:1013600038BD032038BD00BF980F0120003C02406B
:101370002DE9F0411D4C247E012C03D1022420468E
:10138000BDE8F081984617460E4605460122174BE8
:101390001A764CF25030FFF7B9FF044698B9B5B150
:1013A000012D19D0022D1CD03A4643463046FFF796
:1013B00005FF4CF25030FFF7A9FF04460C4A1369B1
:1013C00023F0010313610022084B1A76D7E7F9B224
:1013D0003046FFF72DFFECE7B9B23046FFF716FFB6
:1013E000E7E739463046FFF7FFFEE2E7980F0120B6
:1013F000003C0240074B1A6922F440721A611A69D4
:1014000042F004021A611A6942EA002040F4803076
:1014100018617047003C0240F9B101291FD0022930
:1014200018D04FF440710F4B1A6922F440721A61C0
:101430001A690A431A611A6922F0F8021A611A69D4
:1014400042EAC00040F0020018611A6942F480329A
:101450001A6170474FF40071E5E70021E3E74FF4AC
:101460008071E0E7003C0240164B1B6813F4007FDC
:1014700010D0144B1A6822F400721A601A6842F4F1
:1014800000621A601A6822F400621A601A6842F454
:1014900000721A600B4B1B6813F4806F10D0094B5D
:1014A0001A6822F480621A601A6842F480521A6044
:1014B0001A6822F480521A601A6842F480621A6034
:1014C000704700BF003C0240F8B5224B1B7E012B49
:1014D00002D102273846F8BD0E46044601221D4BB4
:1014E0001A764CF25030FFF711FF074670BB4FF0F1
:1014F000FF3333602368012B16D0A568E368A26828
:1015000013449D4220D2217C2846FFF785FF4CF2F0
:101510005030FFF7FBFE104A136923F0FA03136102
:10152000074680B90135E9E76168207CFFF762FF73
:101530004CF25030FFF7EAFE0746074A136923F0E2
:101540000403136100E03560FFF78EFF0022014BBA
:101550001A76BFE7980F0120003C0240F0B583B037
:1015600000244BE04FEAD40E0EF1080E50F82E2066
:1015700004F00706B6000F27B74022EA07020F69FA
:1015800007FA06F6324340F82E2046E0072600E030
:10159000002606FA0EF6324302335E4E46F823204A
:1015A0005D4B1A68EB4302EA03064F6817F4803F6D
:1015B00001D045EA0206584A1660526803EA02065C
:1015C0004F6817F4003F01D045EA0206524A5660C0
:1015D000926803EA02064F6817F4801F01D045EABB
:1015E00002064D4A9660D26813404E6816F4001FFA
:1015F00001D045EA0203484AD36001340F2C00F2BF
:1016000086800123A3400A6803EA0205AB42F4D1B5
:101610004A68022AA6D0122AA4D006684FEA440ECD
:10162000032202FA0EF2D24316404F6807F0030776
:1016300007FA0EF73E4306604E68771E012F03D966
:10164000112E01D0122E0FD186681640CF6807FAEE
:101650000EF73E438660466826EA03034E68C6F3EB
:101660000016A64033434360C3681A408B6803FAF0
:101670000EF31A43C2604B6813F0805FBDD00023A5
:101680000193264B5A6C42F480425A645B6C03F41B
:1016900080430193019BA3089E1C1E4A52F82620FA
:1016A00004F003064FEA860E0F2606FA0EF622EA2B
:1016B00006021B4FB8423FF46BAF1A4EB0421AD02D
:1016C00006F58066B04218D006F58066B04216D0A6
:1016D00006F58066B04214D006F58066B04212D09E
:1016E00006F58066B04210D006F58066B0423FF441
:1016F0004DAF08264DE701264BE7022649E70326B2
:1017000047E7042645E7052643E7062641E703B0F9
:10171000F0BD00BF00380140003C014000380240ED
:10172000000002400004024012B9090481617047C0
:1017300081617047436959404161704703684AF6C7
:10174000AA221A6000207047002800F0BB8170B503
:1017500082B00446036813F0010F3BD0A74B9B688F
:1017600003F00C03042B2CD0A44B9B6803F00C0358
:10177000082B21D06368B3F5803F4FD0B3F5A02F7D
:1017800052D09E4B1A6822F480321A601A6822F4F2
:1017900080221A606368002B50D0FEF71FFE0546BA
:1017A000964B1B6813F4003F14D1FEF717FE401B45
:1017B0006428F5D903208AE1904B5B6813F4800F0D
:1017C000D8D08E4B1B6813F4003F03D06368002B06
:1017D00000F07A81236813F0020F55D0874B9B6885
:1017E00013F00C0F3ED0854B9B6803F00C03082BC5
:1017F00033D0E368002B68D00122814B1A60FEF7DA
:10180000EDFD05467D4B1B6813F0020F54D1FEF72A
:10181000E5FD401B0228F5D9032058E1774A1368FB
:1018200043F480331360B5E7744B1A6842F48022A6
:101830001A601A6842F480321A60ABE7FEF7CEFDF8
:1018400005466E4B1B6813F4003FC3D0FEF7C6FD80
:10185000401B6428F5D9032039E1684B5B6813F419
:10186000800FC6D1654B1B6813F0020F04D0E368EC
:10187000012B01D001202AE1604A136823F0F8030C
:10188000216943EAC1031360236813F0080F40D0B5
:10189000636963B301225B4B1A60FEF79FFD054647
:1018A000564B5B6F13F0020F33D1FEF797FD401BD1
:1018B0000228F5D903200AE1504A136823F0F803FF
:1018C000216943EAC1031360DEE700224C4B1A6032
:1018D000FEF784FD0546494B1B6813F0020FD3D079
:1018E000FEF77CFD401B0228F5D90320EFE0002223
:1018F000444B1A60FEF772FD0546404B5B6F13F0D8
:10190000020F06D0FEF76AFD401B0228F5D903201E
:10191000DDE0236813F0040F79D0384B1B6C13F013
:10192000805F33D100230193344B1A6C42F0805214
:101930001A641B6C03F080530193019B0125324B09
:101940001B6813F4807F23D0A368012B34D0052BB0
:1019500038D02A4B1A6F22F001021A671A6F22F050
:1019600004021A67A368002B36D0FEF737FD06463F
:10197000224B1B6F13F0020F48D1FEF72FFD801B87
:1019800041F288339842F3D90320A0E00025D6E73E
:101990001D4A136843F480731360FEF71FFD06466B
:1019A000194B1B6813F4807FCED1FEF717FD801B07
:1019B0000228F5D903208AE0104A136F43F001038F
:1019C0001367CFE70D4B1A6F42F004021A671A6FC4
:1019D00042F001021A67C5E7FEF700FD0646074B15
:1019E0001B6F13F0020F11D0FEF7F8FC801B41F2C1
:1019F00088339842F3D9032069E000BF00380240E1
:101A000000004742800E474200700040E5B9A369DC
:101A1000002B5BD0304A926802F00C02082A58D0A2
:101A2000022B17D000222D4B1A60FEF7D7FC04467C
:101A3000294B1B6813F0007F42D0FEF7CFFC001B40
:101A40000228F5D9032042E0234A136C23F0805387
:101A50001364DCE70022214B1A60FEF7BFFC054649
:101A60001D4B1B6813F0007F06D0FEF7B7FC401B30
:101A70000228F5D903202AE0E369226A1343626A47
:101A800043EA8213A26A5208013A43EA0243E26A35
:101A900043EA0263104A53600122104B1A60FEF7BA
:101AA0009DFC04460C4B1B6813F0007F06D1FEF72B
:101AB00095FC001B0228F5D9032008E0002006E071
:101AC000002004E001207047012000E0002002B067
:101AD00070BD0120FBE700BF0038024060004742B4
:101AE000F8B5254B9B6803F00C03042B41D0082B61
:101AF00001D02248F8BD204B5A6802F03F025B68D3
:101B000013F4800F12D01C4B5968C1F388110023C5
:101B10001B48A1FB0001FEF7B3FA174B5B68C3F348
:101B2000014301335B00B0FBF3F0F8BD124B5B687F
:101B3000C3F388131E4600275C010025E41A65EBF9
:101B40000705A90141EA9461A001001B61EB0501B1
:101B5000CB0043EA5073C400A01943EB07018B028A
:101B600043EA90538402204619460023FEF788FA80
:101B7000D3E70348F8BD00BF003802400024F4005A
:101B800040787D01002800F09D8070B504464F4BE1
:101B90001B6803F00F038B4209D2CBB24B4A137080
:101BA000136803F00F03994201D0012070BD236830
:101BB00013F0020F17D013F0040F04D0444A9368B7
:101BC00043F4E0539360236813F0080F04D0404AB5
:101BD000936843F4604393603D4A936823F0F003B5
:101BE000A068034393600D46236813F0010F32D0C1
:101BF0006368012B21D09A1E012A25D9344A126824
:101C000012F0020F60D032498A6822F003021343B7
:101C10008B60FEF7E3FB06462D4B9B6803F00C033D
:101C20006268B3EB820F16D0FEF7D8FB801B41F23F
:101C300088339842F0D9032070BD254A126812F407
:101C4000003FE0D1012070BD214A126812F0007FF0
:101C5000D9D1012070BD1D4B1B6803F00F039D42BD
:101C600009D2EAB2194B1A701B6803F00F039D42A8
:101C700001D0012070BD236813F0040F06D0144A70
:101C8000936823F4E053E1680B439360236813F0F7
:101C9000080F07D00E4A936823F46043216943EA92
:101CA000C1039360FFF71CFF094B9B68C3F3031349
:101CB000084AD35CD840084B186000200DF0DAFACF
:101CC000002070BD01207047012070BD003C024023
:101CD000003802401466020840000020014B1868DA
:101CE000704700BF4000002008B5FFF7F7FF044B26
:101CF0009B68C3F38223034AD35CD84008BD00BF6E
:101D0000003802402466020808B5FFF7E7FF044BDD
:101D10009B68C3F34233034AD35CD84008BD00BF7D
:101D200000380240246602080F2303600B4B9A68B8
:101D300002F0030242609A6802F0F00282609A6840
:101D400002F4E052C2609B68DB0803F4E0530361D5
:101D5000034B1B6803F00F030B6070470038024011
:101D6000003C024010B4036A046A24F001040462D7
:101D7000846924F0F00444EA021223F00A030B43BE
:101D8000826103625DF8044B704710B4036A23F06C
:101D9000100303628469036A24F4704444EA023243
:101DA00023F0A00343EA0113826103625DF8044B50
:101DB0007047836823F0700341F007010B43836091
:101DC000704710B4846824F47F4442EA0323194323
:101DD0000C4384605DF8044B70470268D36843F09D
:101DE0000103D3600268136843F00103136000200D
:101DF00070470268D36823F00103D3600368196A4F
:101E000041F21112114208D1196A40F244421142C2
:101E100003D11A6822F001021A600020704790F87E
:101E20003830012B7DD010B50446012380F83830BE
:101E3000022380F839300268936823F47F4323F04B
:101E4000770393600B68402B57D010D9702B3ED08E
:101E50001FD8502B47D0602B32D1CA684968006820
:101E6000FFF793FF60212068FFF7A3FF28E0102B06
:101E70004DD008D9202B4FD0302B21D130210068F4
:101E8000FFF797FF1CE0DBB900210068FFF791FF27
:101E900016E0B3F5805F0ED0B3F5005F10D1CB68CC
:101EA0004A6889680068FFF78CFF2268936843F4EA
:101EB0008043936004E00268936823F00703936013
:101EC000012384F83930002084F8380010BDCB6835
:101ED0004A6889680068FFF774FF2268936843F0D6
:101EE00077039360ECE7CA6849680068FFF73AFF38
:101EF00050212068FFF75DFFE2E7CA684968006883
:101F0000FFF730FF40212068FFF753FFD8E710218B
:101F10000068FFF74EFFD3E720210068FFF749FF75
:101F2000CEE702207047704770477047704710B582
:101F3000044603681A6912F0020F11D0DA6812F031
:101F4000020F0DD06FF002021A61012303760368BD
:101F50009B6913F0030F70D0FFF7E6FF0023237691
:101F600023681A6912F0040F12D0DA6812F0040F15
:101F70000ED06FF004021A610223237623689B6956
:101F800013F4407F5FD02046FFF7CEFF0023237677
:101F900023681A6912F0080F12D0DA6812F0080FDD
:101FA0000ED06FF008021A61042323762368DB69E0
:101FB00013F0030F4ED02046FFF7B6FF0023237621
:101FC00023681A6912F0100F12D0DA6812F0100F9D
:101FD0000ED06FF010021A61082323762368DB69A4
:101FE00013F4407F3DD02046FFF79EFF0023237669
:101FF00023681A6912F0010F03D0DA6812F0010F9A
:1020000036D123681A6912F0800F03D0DA6812F013
:10201000800F34D123681A6912F0400F03D0DA68B8
:1020200012F0400F32D123681A6912F0200F03D04A
:10203000DA6812F0200F30D110BDFFF774FF204690
:10204000FFF773FF8AE72046FFF76DFF2046FFF793
:102050006CFF9BE72046FFF766FF2046FFF765FF12
:10206000ACE72046FFF75FFF2046FFF75EFFBDE7C6
:102070006FF001021A6120460CF066FBC1E76FF0B9
:1020800080021A61204600F0E0F8C3E76FF04002DA
:102090001A612046FFF74AFFC5E76FF020021A6178
:1020A000204600F0D1F8C7E70368454A90424AD07D
:1020B000B0F1804F49D0A2F57C42904247D002F562
:1020C0008062904245D002F58062904243D002F592
:1020D0007842904235D000221AB123F070034A684A
:1020E0001343374A90423AD0B0F1804F50D0A2F516
:1020F0007C4290424ED002F5806290424CD002F574
:10210000806290424AD002F57842904248D002F56F
:102110007052904246D002F58062904244D002F55F
:102120008062904242D0A2F59832904240D002F5AF
:10213000806290423ED002F5806290420DD0002233
:102140000EE00122C8E70122C6E70122C4E701220E
:10215000C2E70122C0E70122BEE7012200E001221E
:102160001AB123F44073CA68134303608B68C362D7
:102170000B688362124B984220D003F5806398422B
:102180001AD000230BB10B6903630123436170472D
:102190000122E5E70122E3E70122E1E70122DFE78F
:1021A0000122DDE70122DBE70122D9E70122D7E79F
:1021B0000122D5E70122D3E70123E3E70123E1E789
:1021C00000000140A8B110B5044690F839305BB169
:1021D000022384F83930211D2068FFF765FF0123B1
:1021E00084F83930002010BD80F838300DF082FBC3
:1021F000EEE70120704790F83830012B22D030B440
:10220000012280F83820022380F83930046863689E
:1022100023F070036360046863680D682B43636098
:102220000468A36823F08003A3600468A368496876
:102230000B43A36080F83920002380F8383018461B
:1022400030BC704702207047704770470268D368FF
:1022500023F0C003D360202380F839307047026830
:10226000D36823F49073D3600268536923F00103A9
:102270005361202380F83A30704790F83930DBB250
:10228000212B01D0022070478368B3F5805F17D0FF
:102290000268036A591C01621B785360C38C9BB2AD
:1022A000013B9BB2C384DBB90268D36823F080038F
:1022B000D3600268D36843F04003D36000207047C6
:1022C000036A02681B88C3F30803536003691BB9E0
:1022D000036A02330362E1E7036A01330362DDE765
:1022E000002070472DE9F04704460268136923F483
:1022F0004053C1680B4313610168CB6823F4164354
:1023000023F00C0382680069024360690243E069BC
:1023100002431343CB602268536923F44073A169DD
:102320000B435361E369B3F5004F62D0D4F80080EA
:10233000BB4B984500F01B8103F58063984500F086
:102340001681FFF7D1FC00EB800000EB8000656890
:10235000AD00B0FBF5F5B34FA7FB05356D092E01B8
:10236000FFF7C2FC00EB800000EB80006568AD0069
:10237000B0FBF5FAFFF7B8FC00EB800000EB800043
:102380006568AD00B0FBF5F5A7FB05356D094FF0AD
:10239000640909FB15A52D013235A7FB05356D092B
:1023A00005F0F0053544FFF79FFC00EB800000EBE3
:1023B00080006668B600B0FBF6F6FFF795FC00EB10
:1023C000800000EB800063689B00B0FBF3F0A7FB8C
:1023D0000030400909FB10694FEA091909F1320977
:1023E000A7FB0937C7F343172F44C8F80870BDE8A7
:1023F000F087D4F8008003F1804303F5104398453B
:102400005CD003F58063984558D0FFF76DFC00EB76
:10241000800000EB800065686D00B0FBF5F5814F32
:10242000A7FB05356D092E01FFF75EFC00EB800070
:1024300000EB800065686D00B0FBF5FAFFF754FC17
:1024400000EB800000EB800065686D00B0FBF5F5E7
:10245000A7FB05356D094FF0640909FB15A5ED00D3
:102460003235A7FB05356D096D0005F4F875354467
:10247000FFF73AFC00EB800000EB80006668760016
:10248000B0FBF6F6FFF730FC00EB800000EB8000BD
:1024900063685B00B0FBF3F3A7FB03235B0909FB55
:1024A00013694FEAC90909F13209A7FB0937C7F3D4
:1024B00042172F44C8F80870BDE8F087FFF724FCE6
:1024C00000EB800000EB800065686D00B0FBF5F567
:1024D000544FA7FB05356D092E01FFF715FC00EBE6
:1024E000800000EB800065686D00B0FBF5FAFFF737
:1024F0000BFC00EB800000EB800065686D00B0FB1A
:10250000F5F5A7FB05356D094FF0640909FB15A525
:10251000ED003235A7FB05356D096D0005F4F87542
:102520003544FFF7F1FB00EB800000EB80006668AC
:102530007600B0FBF6F6FFF7E7FB00EB800000EB60
:10254000800063685B00B0FBF3F3A7FB03235B0928
:1025500009FB13694FEAC90909F13209A7FB0937D9
:10256000C7F342172F44C8F80870BDE8F087FFF79B
:10257000CBFB00EB800000EB80006568AD00B0FB9A
:10258000F5F5284FA7FB05356D092E01FFF7BCFBBC
:1025900000EB800000EB80006568AD00B0FBF5FA51
:1025A000FFF7B2FB00EB800000EB80006568AD0038
:1025B000B0FBF5F5A7FB05356D094FF0640909FB84
:1025C00015A52D013235A7FB05356D0905F0F00580
:1025D0003544FFF799FB00EB800000EB8000666854
:1025E000B600B0FBF6F6FFF78FFB00EB800000EBC8
:1025F000800063689B00B0FBF3F3A7FB03235B0938
:1026000009FB13694FEA091909F13209A7FB0937D8
:10261000C7F343172F44C8F80870BDE8F08700BF20
:10262000001001401F85EB512DE9F04105460F4692
:1026300016469846069C2B681B6837EA03030CBFB6
:1026400001230023B3421ED1B4F1FF3FF3D02CB1DC
:10265000FDF7C4FEA0EB08008442ECD22A68D368E0
:1026600023F4D073D3602A68536923F001035361C4
:10267000202385F8393085F83A30002385F8383042
:102680000320BDE8F0810020BDE8F08158B310B50B
:10269000044690F839300BB3242384F8393022688B
:1026A000D36823F40053D3602046FFF71BFE226853
:1026B000136923F4904313612268536923F02A03BA
:1026C00053612268D36843F40053D3600020E06371
:1026D000202384F8393084F83A3010BD80F838303F
:1026E0000DF0B6FDD8E7012070472DE9F04182B02A
:1026F0001E4690F83930DBB2202B04D00223184656
:1027000002B0BDE8F08104460D469046002955D040
:10271000002A55D090F83830012B01D10223EEE782
:10272000012380F838300023C363212380F8393037
:10273000FDF754FE0746A4F82480A4F8268010E094
:1027400000963B46002280212046FFF76DFF0028BF
:1027500038D122682B88C3F3080353602369CBB9AF
:102760000235E38C9BB2BBB1E38C9BB2013B9BB2C5
:10277000E384A368B3F5805FE2D000963B46002275
:1027800080212046FFF750FFF0B923682A785A606D
:102790000135E6E70135E4E700963B46002240219B
:1027A0002046FFF741FF034608B10323A7E7202295
:1027B00084F83920002284F83820A0E701239EE71E
:1027C00001239CE703239AE7032398E790F83A3024
:1027D000DBB2202B01D002207047D1B1DAB190F8E2
:1027E0003830012B19D081628285C2850023C363F2
:1027F000222280F83A2080F8383001684A6942F095
:1028000001024A610168CA6842F49072CA601846BF
:102810007047012070470120704702207047000078
:1028200038B590F83940E4B2202C01D0022038BDF0
:10283000002931D0002A31D090F83830012B01D155
:10284000022038BD13460446012280F83820016278
:102850008384C3840025C563212280F83920026B5C
:102860000F48D063226B0F481064226B0E48D0646F
:10287000226B156522680432206BFDF7FDFE23688C
:102880006FF040021A6084F838502268536943F0B0
:1028900080035361284638BD012038BD012038BD72
:1028A000AD280108F92801089929010808B5836BAA
:1028B0000268126812F4807F0CD10022DA84196851
:1028C0004A6922F080024A611A68D36843F04003E3
:1028D000D36008BD18460CF0FBF908BD08B50168C7
:1028E000CB6823F04003CB60202380F839300CF014
:1028F000EFF9002008BD704708B5806BFFF7FBFFBC
:1029000008BD08B590F83A30DBB2222B01D0022086
:1029100008BD8368B3F5805F0FD003690BBB836A82
:102920005A1C8262026852681A70C38D9BB2013BC6
:102930009BB2C385F3B1002008BD826A036943B925
:1029400003685B68C3F308031380836A02338362FE
:10295000EBE703685B68DBB21380836A0133836251
:10296000E3E7826A531C836203685B6803F07F03BA
:102970001370DAE70268D36823F49073D3600268B7
:10298000536923F001035361202380F83A300CF09F
:1029900081F9002008BD704710B5846B23685A691F
:1029A00094F83930DBB2212B10D023685A6902F039
:1029B000400294F83A30DBB2222B11D0E36B43F0A3
:1029C0001003E3632046FFF7E6FF10BD02F080022C
:1029D000002AEAD00023E3842046FFF737FCE4E72F
:1029E000002AEBD00023E3852046FFF738FCE5E71B
:1029F00010B5044602681368D168526913F00F00DD
:102A000005D113F0200F02D011F0200F53D1002870
:102A100067D012F0010202D111F4907F61D013F05F
:102A2000010F06D011F4807F03D0E06B40F001006D
:102A3000E06313F0040F04D01AB1E06B40F0020021
:102A4000E06313F0020F04D01AB1E06B40F0040011
:102A5000E06313F0080F04D01AB1E26B42F00802F1
:102A6000E263E26B002A48D013F0200F02D011F08D
:102A7000200F24D123685B6903F04003E26B12F05E
:102A8000080F00D13BB32046FFF7E9FB23685A69E2
:102A900012F0400F1BD05A6922F040025A61636B5A
:102AA0008BB11A4A1A65606BFDF720FE28B3606B84
:102AB000036D984710BD2046FFF723FF10BD204649
:102AC000FFF71FFFD6E72046FFF765FF10BD204642
:102AD000FFF761FF10BD2046FFF75DFF0023E363B2
:102AE00010BD13F0800F02D011F0800F06D113F04B
:102AF000400F02D011F0400F04D110BD2046FFF767
:102B0000BCFB10BD2046FFF7E9FEF6E7112B0108DC
:102B100008B5806B0023C385C384FFF73CFF08BD65
:102B2000842801D00330704700207047EFF3058000
:102B3000003018BF0120704708B501F0E5FB002008
:102B400008BD08B5FFF7F2FF10B901F023FC08BD7E
:102B500001F026FC08BD2DE9F04387B004460F467E
:102B60004569BDB18669AEB1D0F80480D0F8009057
:102B7000B0F90800FFF7D4FF226902960195009092
:102B80003B464946404601F0F1FA0590059807B0EA
:102B9000BDE8F08365682668D4F81080B4F90800B1
:102BA000FFF7BEFF05AB019300903B461FFA88F28A
:102BB0003146284601F005FB0128E7D00020E6E772
:102BC00008B5034600B90123184601F0FFFC0020B8
:102BD00008BD08B5416819B1012000F000FF08BD2B
:102BE000012000F0F1FE08BD30B583B00023019351
:102BF00060B30C460546B1F1FF3F0DD001B91C464C
:102C0000FFF794FFB8B101AA0021284601F09CF813
:102C1000012804D0FF2017E04FF0FF34F0E7019BBC
:102C2000B3B14FF080520C4B1A60BFF34F8FBFF31C
:102C30006F8F002008E0002322461946284600F046
:102C4000ABFF012806D0FF2003B030BD8020FBE79A
:102C50000020F9E70020F7E704ED00E010B582B0AE
:102C6000044600230193FFF761FFA0B101A92046AC
:102C700000F033FF012802D0FF2002B010BD019BFD
:102C8000ABB14FF080520B4B1A60BFF34F8FBFF3C5
:102C90006F8F0020F1E700231A461946204600F006
:102CA000C3FD012801D0FF20E7E70020E5E7002071
:102CB000E3E700BF04ED00E010B582B0436863B104
:102CC00001291AD10322009200221146012000F0AE
:102CD00034FD0446204602B010BD01290FD1032265
:102CE0000021012000F079FD04460028F2D00023E5
:102CF0001A46194600F098FDECE70024EAE70024A4
:102D0000E8E7000030B583B00023019360B30C46C0
:102D10000546B1F1FF3F0DD001B91C46FFF706FF94
:102D2000B8B101AA0021284601F00EF8012804D00C
:102D3000FF2017E04FF0FF34F0E7019BB3B14FF0F5
:102D400080520C4B1A60BFF34F8FBFF36F8F002080
:102D500008E0002322461946284600F01DFF0128FE
:102D600006D0FF2003B030BD8020FBE70020F9E74C
:102D70000020F7E704ED00E010B582B00446002320
:102D80000193FFF7D3FEA0B101A9204600F0A5FEF4
:102D9000012802D0FF2002B010BD019BABB14FF063
:102DA00080520B4B1A60BFF34F8FBFF36F8F002021
:102DB000F1E700231A461946204600F035FD0128A8
:102DC00001D0FF20E7E70020E5E70020E3E700BFB0
:102DD00004ED00E010B50446FFF7A8FE08B182201C
:102DE00010BD204601F054F8002010BD10B582B08F
:102DF00082684AB1C3683BB141680068002400940E
:102E000000F09BFC02B010BD00224168006800F099
:102E1000E4FCF7E730B585B0044601910023039345
:102E2000154602B90125FFF781FEA8B1002303AAC8
:102E300001A9204600F0E2FD012801D0FF2014E0A6
:102E4000039BA3B14FF080520B4B1A60BFF34F8F1F
:102E5000BFF36F8F002008E000232A4601A9204617
:102E600000F0E2FC012804D0FF2005B030BD0020B6
:102E7000FBE70020F9E700BF04ED00E070B584B087
:102E80000446029100230193F9B10D461646002332
:102E90000393B2F1FF3F21D002B91E46FFF746FE71
:102EA00010B303AA01A9284600F04EFF012818D04C
:102EB00000230093039B13B34FF08052164B1A600C
:102EC000BFF34F8FBFF36F8F19E004AB802243F83D
:102ED000102D93E8070084E8070014E04FF0FF3658
:102EE000DCE710230093E5E70023324601A92846DA
:102EF00000F052FE012809D05EB9002300939DE83E
:102F0000070084E80700204604B070BD102300933A
:102F1000F5E74023F2E700BF04ED00E010B50446FA
:102F2000FFF704FE18B9204600F069FF10BD2046E7
:102F300000F078FF10BD10B50446FFF7F7FD08B1AB
:102F4000822010BD204600F0A3FF002010BD00F13C
:102F5000080343604FF0FF328260C36003610023C7
:102F60000360704700230361704743684B609A68B1
:102F70008A609A6851609960086103680133036050
:102F8000704730B40D68B5F1FF3F02D000F1080280
:102F900002E0026904E01A4653681C68A542FAD2AE
:102FA00053684B6099608A6051600861036801331F
:102FB000036030BC70470369426881689160826831
:102FC000416851605A68904205D000220261186839
:102FD00001381860704782685A60F6E70B4B1B682F
:102FE000B3F1FF3F08D04FF0500383F31188BFF3D4
:102FF0006F8FBFF34F8FFEE74FF0500383F31188BD
:10300000BFF36F8FBFF34F8FFEE700BF04000020B8
:1030100006480068006880F3088862B661B6BFF3AE
:103020004F8FBFF36F8F00DF00BF000008ED00E09F
:10303000DFF80C00016841F4700101607047000086
:1030400088ED00E04FF0807340F8043C21F001016E
:1030500040F8081C054B40F80C3C40F8202C6FF061
:10306000020340F8243C4438704700BFDD2F0108BC
:10307000074B19680868B0E8F04F80F30988BFF380
:103080006F8F4FF0000080F311887047AFF300801E
:10309000380001204FF0500383F31188BFF36F8F86
:1030A000BFF34F8F0A4A136801331360012B0DD110
:1030B000084B1B6813F0FF0F08D04FF0500383F349
:1030C0001188BFF36F8FBFF34F8FFEE7704700BFCC
:1030D0000400002004ED00E0094B1B6843B94FF0E9
:1030E000500383F31188BFF36F8FBFF34F8FFEE759
:1030F000013B034A13600BB983F31188704700BF8B
:10310000040000200000000000000000000000009B
:10311000EFF30980BFF36F8F154B1A681EF0100F85
:1031200008BF20ED108A20E9F04F10604DF8043DF3
:103130004FF0500080F31188BFF34F8FBFF36F8FB4
:1031400001F0AEFA4FF0000080F3118808BC196856
:103150000868B0E8F04F1EF0100F08BFB0EC108AFE
:1031600080F30988BFF36F8F704700BFAFF3008013
:103170003800012008B54FF0500383F31188BFF3E6
:103180006F8FBFF34F8F01F013F918B14FF08052DA
:10319000024B1A60002383F3118808BD04ED00E0A0
:1031A000064B1B68064AA2FB03239B09013B054A09
:1031B00013600722044B1A60704700BF40000020D4
:1031C000D34D621014E000E010E000E0314B1A68CB
:1031D000314B9A421AD02F4B1A68304B9A421ED06C
:1031E00000B583B02E4B1A78D2B20192FF221A702A
:1031F0001B78DBB28DF803309DF8033003F05003E9
:10320000284A13700722284B1A601BE04FF0500326
:1032100083F31188BFF36F8FBFF34F8FFEE74FF03B
:10322000500383F31188BFF36F8FBFF34F8FFEE717
:103230001D4A1368013B13609DF803305B00DBB24D
:103240008DF803309DF8033013F0800FF0D1164A4B
:1032500013681B0203F4E0631360019BDBB2104AA6
:103260001370124B1A6842F470021A601A6842F026
:1032700070421A60FFF794FF00220D4B1A60FFF7AF
:10328000D7FE0C4A136843F040431360FFF7C0FEBB
:10329000FFF7A4FE00ED00E071C20F4170C20F41C4
:1032A00000E400E0300200203402002020ED00E0C5
:1032B0000400002034EF00E0EFF305830F2B0FD95B
:1032C000104A9B5CDBB2104A1278934208D24FF04E
:1032D000500383F31188BFF36F8FBFF34F8FFEE767
:1032E0000A4B1B6803F4E063094A1268934208D949
:1032F0004FF0500383F31188BFF36F8FBFF34F8FED
:10330000FEE77047F0E300E0300200200CED00E043
:1033100034020020134A12F0070F1FD0D11D21F0F4
:103320000701C1F57D43E83313440A460E480260A5
:10333000002141601344083B23F007030B4803605E
:1033400059601960991A51601360094B1960094B53
:1033500019604FF00042084B1A6070474FF6E8536F
:10336000E4E700BF3C0200203000012038020020CA
:103370002C000120280001202400012010B4134B50
:103380001A6882421BD359685C18A04203D1406876
:1033900001445960184641684418A24213D10C4CAC
:1033A0002468A2420DD05268114441601A68126824
:1033B0000260984200D018605DF8044B70471346D5
:1033C000DEE70460F5E70260F3E700BF30000120AC
:1033D0003802002070B5044600F0D4FF3A4B1B6859
:1033E000BBB13A4B1B681C4263D1ACB1083414F03A
:1033F000070F11D024F00704083404F007035BB171
:103400004FF0500383F31188BFF36F8FBFF34F8FDB
:10341000FEE7FFF77FFFE4E7002C4CD02C4B1B6846
:103420009C424AD82B4B1D6801E02B4615466A6822
:10343000944202D92A68002AF7D1234A1268954299
:103440003DD01E6808362A681A606B681B1B102B5B
:1034500010D9281910F0070F08D04FF0500383F34C
:103460001188BFF36F8FBFF34F8FFEE743606C602F
:10347000FFF784FF6A6816490B689B1A0B601649B0
:1034800009688B4201D214490B60104B1B6813432F
:103490006B6000232B6001F01BF816F0070F10D0B3
:1034A0004FF0500383F31188BFF36F8FBFF34F8F3B
:1034B000FEE70026EFE70026EDE70026EBE7002613
:1034C000E9E7304670BD00BF38020020240001202B
:1034D00028000120300001202C00012080B338B5E5
:1034E0000446A0F1080550F8042C164909680A4260
:1034F00008D14FF0500383F31188BFF36F8FBFF3F0
:103500004F8FFEE750F8080C40B14FF0500383F3A3
:103510001188BFF36F8FBFF34F8FFEE722EA0102DE
:1035200044F8042C00F02EFF54F8041C064A1368DB
:103530000B4413602846FFF721FF00F0C9FF38BD98
:10354000704700BF2400012028000120014B1868AB
:10355000704700BF2800012010B50446FFF79AFD10
:10356000A26BE36B9A4204D00024FFF7B5FD20461E
:1035700010BD0124F9E710B50446FFF78BFDA36BDE
:1035800023B10024FFF7A8FD204610BD0124F9E770
:1035900070B504461646856B026C4AB9036853BB86
:1035A000406801F0F5F9002363600135A56370BD43
:1035B0006EB980680DF0BFF9226CA3681344A36054
:1035C0006268934219D32368A3600020EDE7C068C6
:1035D0000DF0B1F9236C5B42E2681A44E2602168A5
:1035E0008A4202D262681344E360022E07D145B1D9
:1035F000013D0020D9E70020D7E70020D5E70020D3
:10360000D3E70020D1E7026C72B110B50346C4685D
:103610001444C4604068844201D31868D8600846E6
:10362000D9680DF088F910BD704738B50546FFF729
:1036300031FD95F8454064B201E0013C64B2002CD4
:103640000ADD6B6A43B105F1240001F09DF8002802
:10365000F3D001F035F9F0E7FF2385F84530FFF7A7
:103660003BFDFFF717FD95F8444064B201E0013CD3
:1036700064B2002C0ADD2B6943B105F1100001F0A2
:1036800083F80028F3D001F01BF9F0E7FF2385F859
:103690004430FFF721FD38BD38B530B304460D4640
:1036A000FFF7F8FC2168E26B236C03FB02106060FB
:1036B0000020A063A160013A02FB0313E360FF2333
:1036C00084F8443084F84530C5B92369F3B104F176
:1036D000100001F059F8C8B14FF080520D4B1A603C
:1036E000BFF34F8FBFF36F8F10E04FF0500383F3A2
:1036F0001188BFF36F8FBFF34F8FFEE704F1100007
:10370000FFF725FC04F12400FFF721FCFFF7E4FCA0
:10371000012038BD04ED00E038B51D46049C0B4681
:1037200049B12260E063236401212046FFF7B4FF22
:1037300084F84C5038BD2460F4E740B94FF0500392
:1037400083F31188BFF36F8FBFF34F8FFEE710B580
:1037500084B0044663B1A2B1A9B10120A8B94FF069
:10376000500383F31188BFF36F8FBFF34F8FFEE7D2
:103770004FF0500383F31188BFF36F8FBFF34F8F68
:10378000FEE70120EAE70020E8E70AB901B10020DE
:1037900040B94FF0500383F31188BFF36F8FBFF32D
:1037A0004F8FFEE7502003900398502808D04FF029
:1037B000500383F31188BFF36F8FBFF34F8FFEE782
:1037C00020461C46012384F8463000949DF81830AA
:1037D000FFF7A2FF204604B010BD40B94FF05003E0
:1037E00083F31188BFF36F8FBFF34F8FFEE7F0B500
:1037F00083B0064611B101FB00F000E0002017463F
:103800000C465030FFF7E6FD054650B1002380F826
:10381000463000903B4600F1500221463046FFF70B
:103820007BFF284603B0F0BDF0B585B0019260B1D2
:10383000044699B10125BDB94FF0500383F31188B7
:10384000BFF36F8FBFF34F8FFEE74FF0500383F34B
:103850001188BFF36F8FBFF34F8FFEE7026C0AB979
:103860000125E8E70025E6E7022B09D06DB94FF006
:10387000500383F31188BFF36F8FBFF34F8FFEE7C1
:10388000E26B012AF2D00025F0E71E460F4601F058
:103890001DF810B9019B03B1002545B94FF0500345
:1038A00083F31188BFF36F8FBFF34F8FFEE70025BF
:1038B0002CE0324639462046FFF76AFE636A8BB138
:1038C00004F1240000F060FF38B14FF08052374B14
:1038D0001A60BFF34F8FBFF36F8FFFF7FDFB01201F
:1038E00005B0F0BD0028F8D04FF080522F4B1A6081
:1038F000BFF34F8FBFF36F8FEFE7FFF7EDFB0020B4
:10390000EEE72046FFF791FE00F0E2FDFFF7C2FB75
:10391000A26BE36B9A42CCD3022ECAD0019B002B40
:10392000EBD01DB902A800F075FF0125FFF7D4FB0D
:1039300000F028FDFFF7AEFB94F844305BB2B3F122
:10394000FF3F02D1002384F8443094F845305BB245
:10395000B3F1FF3F02D1002384F84530FFF7BCFBF1
:1039600001A902A800F06CFFC8B92046FFF7F4FDDA
:103970000028C6D0019904F1100000F0EDFE2046A9
:10398000FFF753FE00F0A4FD0028BFD14FF0805296
:10399000064B1A60BFF34F8FBFF36F8FB6E7204619
:1039A000FFF743FE00F094FD002099E704ED00E0EE
:1039B00048B108B5002141600160C1600B460A466C
:1039C000FFF732FF08BD704710B502460021012005
:1039D000FFF703FF0446FFF7EBFF204610BD10B5CD
:1039E00082B000900B46002211460120FFF7A5FE91
:1039F0000446FFF7DDFF204602B010BD2DE9F84375
:103A000060B1044699B10120B8B94FF0500383F377
:103A10001188BFF36F8FBFF34F8FFEE74FF0500356
:103A200083F31188BFF36F8FBFF34F8FFEE7006CF6
:103A300008B90120E8E70020E6E7022B09D068B9C1
:103A40004FF0500383F31188BFF36F8FBFF34F8F95
:103A5000FEE7E56B012DF2D00020F0E71F4690460F
:103A60008946FFF729FCEFF311864FF0500383F3EB
:103A70001188BFF36F8FBFF34F8FA26BE36B9A4236
:103A800001D3022F21D194F845506DB23A464946F0
:103A90002046FFF77DFDB5F1FF3F10D1636AB3B15A
:103AA00004F1240000F070FE98B1B8F1000F12D0BC
:103AB0000120C8F8000086F31188BDE8F8836B1C6C
:103AC0005BB284F845300120F5E70020F3E70120E0
:103AD000F1E70120EFE70120EDE760B170B50446A2
:103AE000036C8BB14FF0500383F31188BFF36F8FDA
:103AF000BFF34F8FFEE74FF0500383F31188BFF3FE
:103B00006F8FBFF34F8FFEE7036853B1012373B983
:103B10004FF0500383F31188BFF36F8FBFF34F8FC4
:103B2000FEE743680BB90123F1E70023EFE70E46F8
:103B3000FFF7C2FBEFF311854FF0500383F31188B9
:103B4000BFF36F8FBFF34F8FA26BE36B9A421AD212
:103B500094F845305BB20132A263B3F1FF3F0CD160
:103B6000636A93B104F1240000F00EFE78B186B1CF
:103B70000120306085F3118870BD01335BB284F899
:103B800045300120F6E70020F4E70120F2E70120AC
:103B9000F0E70120EEE700002DE9F04184B001924A
:103BA00060B1044699B10125BDB94FF0500383F3CC
:103BB0001188BFF36F8FBFF34F8FFEE74FF05003B5
:103BC00083F31188BFF36F8FBFF34F8FFEE7026C53
:103BD0000AB90125E8E70025E6E71F46884600F018
:103BE00075FE10B9019B03B1002545B94FF0500394
:103BF00083F31188BFF36F8FBFF34F8FFEE700266B
:103C00005DE0E66841462046FFF7FDFCDFB9013D77
:103C1000A563236813B900F015FF6060236963B1E1
:103C200004F1100000F0B0FD38B14FF08052454B68
:103C30001A60BFF34F8FBFF36F8FFFF74DFA01206C
:103C400004B0BDE8F081E660636A002BF5D004F1B2
:103C5000240000F099FD0028EFD04FF08052394B3E
:103C60001A60BFF34F8FBFF36F8FE6E7FFF734FAA9
:103C70000020E5E702A800F0CDFD012629E00023A1
:103C800084F8443031E0002384F8453033E0FFF716
:103C900001FA606800F02AFEFFF71EFA3BE02046BA
:103CA000FFF7C3FC00F014FC09E02046FFF7BDFC61
:103CB00000F00EFC2046FFF75EFC002840D1FFF725
:103CC000E9F9A56B002D9CD1019B002BCED0002ED5
:103CD000D0D0FFF701FA00F055FBFFF7DBF994F8BD
:103CE00044305BB2B3F1FF3FC9D094F845305BB2CA
:103CF000B3F1FF3FC7D0FFF7EFF901A902A800F029
:103D00009FFD0028D1D12046FFF735FC0028C6D002
:103D10002368002BBBD0019904F1240000F01CFDA6
:103D20002046FFF782FC00F0D3FB0028C7D14FF0FC
:103D30008052044B1A60BFF34F8FBFF36F8FBEE703
:103D400000207DE704ED00E02DE9F84360B1044672
:103D500099B10123BBB94FF0500383F31188BFF32E
:103D60006F8FBFF34F8FFEE74FF0500383F311883F
:103D7000BFF36F8FBFF34F8FFEE7036C0BB90123C7
:103D8000E8E70023E6E717468946FFF795FAEFF3E1
:103D900011864FF0500383F31188BFF36F8FBFF389
:103DA0004F8FD4F83880B8F1000F20D094F84450E9
:103DB0006DB249462046FFF726FC08F1FF33A363A6
:103DC000B5F1FF3F0DD123699BB104F1100000F064
:103DD000DBFC80B18FB10120386086F31188BDE82B
:103DE000F8836B1C5BB284F844300120F5E70020B7
:103DF000F3E70120F1E70120EFE70120EDE740B90B
:103E00004FF0500383F31188BFF36F8FBFF34F8FD1
:103E1000FEE710B50446FFF73DF9A46BFFF75CF928
:103E2000204610BD08B1806B70474FF0500383F3FC
:103E30001188BFF36F8FBFF34F8FFEE700230F2B67
:103E40000CD8074A52F833200AB10133F7E7044A85
:103E500042F8331002EBC30358607047704700BF4D
:103E6000B80F012000230F2B0FD8084A02EBC30222
:103E70005268824201D00133F5E7044A002142F83A
:103E8000331002EBC303596070477047B80F01202D
:103E900050B110B50446FFF7E5FF94F8463013B96A
:103EA0002046FFF71BFB10BD4FF0500383F3118832
:103EB000BFF36F8FBFF34F8FFEE700000A4B1B6805
:103EC0001B684BB901234BB9074B1B68DB68DB68E8
:103ED0005A68064B1A6070470023F4E74FF0FF3230
:103EE000024B1A60704700BF3C0001201401012002
:103EF0002DE9F04781460D4617469A46089EDDF8A3
:103F000024800A9C9200A521206B0CF01FFD236BDE
:103F100007F18042013A03EB820727F007070023ED
:103F20000F2B07D8E95CE21882F83410EA5C0AB17A
:103F30000133F5E7002384F84330062E00D9062626
:103F4000E662E66400252565201DFFF70BF804F105
:103F50001800FFF707F82461C6F10706A66164623E
:103F60006565A56584F85C50524649463846FFF7BA
:103F700069F82060B8F1000F01D0C8F80040BDE832
:103F8000F087000038B5002407E004EB84029300BA
:103F90000E481844FEF7DBFF0134062CF5D90C4D12
:103FA0002846FEF7D4FF0B4C2046FEF7D0FF0A4808
:103FB000FEF7CDFF0948FEF7CAFF0948FEF7C7FF25
:103FC000084B1D60084B1C6038BD00BF4400012039
:103FD000EC000120000101201C010120480101200A
:103FE000340101203C0001204000012010B50446AE
:103FF000FFF750F8214A136801331360204B1B6808
:10400000002B32D01F4B1B683BB91D4B1B68DA6A73
:10401000E36A9A4201D81A4B1C601B4A13680133A9
:1040200013606364E36A01229A40184908680243F6
:104030000A6003EB83039A00211D15481044FEF724
:1040400094FFFFF749F80F4B1B686BB10C4B1B68D3
:10405000DA6AE36A9A4207D24FF080520D4B1A6037
:10406000BFF34F8FBFF36F8F10BD054B1C601368FC
:10407000012BD2D1FFF786FFCFE700BFD40001208C
:104080003800012030010120E4000120E800012077
:104090004400012004ED00E010B5044690F85D30C6
:1040A00063B1012B11D0022B12D04FF0500383F3D8
:1040B0001188BFF36F8FBFF34F8FFEE7006BFFF7E1
:1040C0000DFA2046FFF70AFA10BDFFF707FA10BDF8
:1040D00010BD000070B504460E461D4B1D681D4BFB
:1040E00018680430FEF767FF50B91A4B1B68DA6A8C
:1040F000012303FA02F218490B6823EA02030B605A
:10410000B4F1FF3F13D02C44124B1B685C60A542F6
:1041100016D8124B18680F4B19680431FEF731FF9F
:104120000F4B1B689C4201D20D4B1C6070BD002ED2
:10413000E9D0084B196804310A48FEF716FF70BD34
:10414000094B1868034B19680431FEF71AFF70BD5C
:104150005C01012038000120E80001203C00012022
:1041600014010120340101204000012030B587B046
:104170000B9D0C9C4DB18CB94FF0500383F311880B
:10418000BFF36F8FBFF34F8FFEE74FF0500383F302
:104190001188BFF36F8FBFF34F8FFEE725630225B2
:1041A00084F85D5000250395029405AD01950A9DA4
:1041B0000095FFF79DFE2046FFF718FF059807B012
:1041C00030BD2DE9F04385B006460F4615469846AA
:1041D0009000FFF7FFF810B381466020FFF7FAF870
:1041E0000446C0B1C0F83090DCB1002384F85D30E3
:1041F000039302940D9B01930C9B009343462A4624
:1042000039463046FFF774FE2046FFF7EFFE0120E7
:1042100005B0BDE8F0834846FFF760F9E4E7002405
:10422000E2E74FF0FF30F3E738B50446FEF732FF20
:10423000002C34D0251D2846FEF7BDFE70B9E26A79
:1042400002EB82018B002649CB583BB9012303FACC
:1042500002F224490B6823EA02030B60A36A1BB134
:1042600004F11800FEF7A7FE1F4A1368013313601C
:104270001E4B1B689C4215D01D4A1368013B1360FE
:104280002046FFF709FFFFF719FEFEF725FF194B40
:104290001B681BB1154B1B689C420CD038BD134BDF
:1042A0001C68C7E729461448FEF75FFE134A1368E7
:1042B00001331360E9E7124B1B6843B14FF0500321
:1042C00083F31188BFF36F8FBFF34F8FFEE74FF07B
:1042D00080520C4B1A60BFF34F8FBFF36F8FDDE737
:1042E00044000120E8000120E40001203800012002
:1042F000D40001203001012048010120D800012014
:10430000E000012004ED00E010B588B00024059421
:10431000069407AA06A905A809F082FA059B02934C
:10432000069B019300942346079A11491148FFF711
:104330001DFF18B101231BB908B010BD0023FAE717
:104340004FF0500383F31188BFF36F8FBFF34F8F8C
:104350004FF0FF32084B1A600122084B1A6000220E
:10436000074B1A6009F044FAFEF730FFE4E700BF9C
:104370007C14020879460108140101203001012053
:104380005C010120024A136801331360704700BFCB
:10439000E0000120014B1868704700BF5C0101205C
:1043A00008B5FEF789FF014B186808BD5C010120C4
:1043B000F8B53C4B1B68002B68D13B4B1D680135A1
:1043C0001D60C5B9394B1B681B6843B14FF05003E2
:1043D00083F31188BFF36F8FBFF34F8FFEE7334A2C
:1043E0001168334B186810601960324A1368013342
:1043F0001360FFF763FD304B1B689D423AD20024E7
:104400002E4B1B68DB6A03EB83039A002C4B9B58F3
:10441000012B40D901243EE00124244B1B681B687A
:1044200053B3002353BB214B1B68DB68DE68736802
:104430009D4228D3371D3846FEF7BDFDB36A1BB138
:1044400006F11800FEF7B7FDF36A01229A401D49F4
:10445000086802430A6003EB83039A003946184850
:104460001044FEF782FDF26A144B1B68DB6A9A4225
:10447000D2D2D2E70024D0E70123D3E74FF0FF32B6
:104480000D4B1A60BCE70C4A1360B9E70E4A13687B
:104490000133136000240D4B1B6803B10124204637
:1044A000F8BD00BFE00001205C0101203C000120BC
:1044B00040000120180101201401012038000120D2
:1044C00044000120E8000120DC00012060010120FF
:1044D00038B5354B1B6843B94FF0500383F311884F
:1044E000BFF36F8FBFF34F8FFEE7FEF7D3FD2E4B69
:1044F0001A68013A1A601B68002B50D12B4B1B68BD
:1045000023B90024FEF7E8FD204638BD0024284BDF
:104510001B681BB3264BDB68DC6804F11800FEF750
:104520004AFD251D2846FEF746FDE36A01229A4012
:104530002049086802430A6003EB83039A00294676
:104540001D481044FEF711FDE26A1C4B1B68DB6A34
:104550009A42DCD301221A4B1A60D8E70CB1FFF75C
:10456000ADFC184B1C6874B9154B1B68CBB14FF0F0
:104570008052154B1A60BFF34F8FBFF36F8F01242A
:10458000C0E7013C07D0FFF713FF0028F9D0012254
:104590000B4B1A60F5E700220A4B1A60E4E700248F
:1045A000B0E70024AEE700BFE0000120D400012006
:1045B0001C010120E80001204400012038000120F6
:1045C00060010120DC00012004ED00E010B5A8B17D
:1045D0000446104B1B6843B14FF0500383F311881E
:1045E000BFF36F8FBFF34F8FFEE7FFF7CBFE0021C6
:1045F0002046FFF76FFDFFF76BFF00E0002038B9A2
:104600004FF08052044B1A60BFF34F8FBFF36F8F90
:1046100010BD00BFE000012004ED00E0134B1B685B
:1046200013B310B5FFF7AEFE114B1C68FFF750FF38
:1046300024B90E4B1B68002BF4D110BDFEF72AFDE8
:104640000B4BDB68DC68201DFEF7B5FC094A1368DC
:10465000013B1360054A1368013B1360FEF73CFD04
:104660002046FFF719FDE4E7704700BFD80001209E
:1046700048010120D400012008B5FFF7CFFF064B09
:104680001B68012BF9D94FF08052044B1A60BFF31D
:104690004F8FBFF36F8FF0E74400012004ED00E07F
:1046A000274B1B681BB10122264B1A60704710B5BF
:1046B0000022244B1A6009F0ADF8234B1B68984286
:1046C00005D9224A1168C31A4A6D13444B651E4B23
:1046D00018601F4B1B68B3FA83F3DBB2C3F11F03EF
:1046E00003EB83018A001B498A5842B94FF05003FB
:1046F00083F31188BFF36F8FBFF34F8FFEE7154829
:104700009A00D418A10001444C6864684C601A44B3
:10471000910008310844844209D003EB83039A00D6
:104720000C4B13445B68DA68084B1A6010BD606874
:1047300003EB83029100074A0A445060EDE700BF93
:10474000E000012060010120D0000120380001209C
:10475000E80001204400012040B94FF0500383F3EA
:104760001188BFF36F8FBFF34F8FFEE710B50C4674
:10477000044B19681831FEF704FC01212046FFF7AD
:10478000A9FC10BD3800012038B5C368DC6824B32B
:1047900004F118052846FEF70EFC184B1B682BBBCE
:1047A000251D2846FEF707FCE36A01229A401449BA
:1047B000086802430A6003EB83039A002946114804
:1047C0001044FEF7D2FBE26A0F4B1B68DB6A9A4289
:1047D00011D901200D4B186038BD4FF0500383F301
:1047E0001188BFF36F8FBFF34F8FFEE7294608484C
:1047F000FEF7BBFBE7E7002038BD00BFE00001206B
:10480000E80001204400012038000120600101205F
:104810001C01012030B1084A12680260074A126880
:10482000426070474FF0500383F31188BFF36F8FDE
:10483000BFF34F8FFEE700BF180101205C0101208C
:1048400038B5C0B10446F9B10D46FEF723FC1A4B4A
:1048500019682B68B3F1FF3F2AD02068174A126805
:10486000904202D06268914224D26268881A8342E0
:1048700013D8012418E04FF0500383F31188BFF3DD
:104880006F8FBFF34F8FFEE74FF0500383F3118814
:10489000BFF36F8FBFF34F8FFEE7521A13442B60A5
:1048A0002046FFF7B7FF0024FEF716FC204638BD70
:1048B0000024F9E70124F7E75C0101201801012039
:1048C0000122014B1A60704760010120054B1B68F3
:1048D00023B1054B1B681BB90220704701207047AC
:1048E0000020704730010120E0000120002847D05F
:1048F00038B50446C36A23490968C96A8B4216D28F
:104900008169002905DB1F490968C96AC1F10701EE
:104910008161606903EB830399001B4B0B44984250
:1049200006D0002333B9174B1B68DB6AE36238BD3E
:104930000123F7E7251D2846FEF73DFB68B9E36A2A
:1049400003EB83018A0010498A5832B901229A4048
:104950000E490B6823EA02030B600A4B1B68DB6AF3
:10496000E36201229A400949086802430A6003EBA6
:1049700083039A00294604481044FEF7F6FA38BD2E
:10498000704700BF3800012044000120E8000120EA
:1049900000284AD038B50446274A1268904208D009
:1049A0004FF0500383F31188BFF36F8FBFF34F8F26
:1049B000FEE7026D42B94FF0500383F31188BFF355
:1049C0006F8FBFF34F8FFEE7013A0265C06AE16C5B
:1049D00088422CD06ABB251D2846FEF7ECFA70B938
:1049E000E26A02EB82018B001449CB583BB90123E8
:1049F00003FA02F212490B6823EA02030B60E36C2C
:104A0000E362C3F10702A261012404FA03F20C4934
:104A1000086802430A6003EB83039A0029460748AB
:104A20001044FEF7A2FA204638BD0020704700204F
:104A300038BD002038BD00BF3800012044000120EF
:104A4000E8000120054B1B6823B1044B1A68136D65
:104A500001331365014B1868704700BF380001200F
:104A600010B50C460A680C3201F010FC034608B978
:104A700094F90430184610BD00B587B060B10190BC
:104A80008DF80C1029238DF80D3001A90748FFF788
:104A9000E7FF07B05DF804FB054B4FF44A72054988
:104AA00005480BF044F86FF00F00F2E7315F0108A2
:104AB000E0140208141502083015020870B586B01B
:104AC0000023059399B104460E4600230B60C0B144
:104AD00000F11005284607F08DFEE0B904F114003E
:104AE00007F088FE00285ED06FF00A001CE02F4B14
:104AF00040F2E7122E492F480BF019F86FF00F0023
:104B000012E02A4B40F2E9122B492A480BF00FF829
:104B10006FF00F0008E0284607F06CFE30B194F902
:104B2000080010F10C0F0BDA06B070BD1F4B40F2FD
:104B3000F51222491F480AF0FAFF6FF00A00F3E766
:104B4000002205A9284607F016FE0094059B8BB1AC
:104B50001B89029369461A48FFF782FF059B63B1E0
:104B60001A89A36A13B1012120469847059B336037
:104B70000020D9E701230293ECE7A36A1BB10022CE
:104B8000012120469847636833B994F9080000284A
:104B9000CAD16FF00D00C7E701212046FFF76CFF77
:104BA0006FF00E00C0E76FF00E00BDE7E0140208E2
:104BB00054160208301502087416020890160208EE
:104BC000495D010870B586B00D46114600F018FE2B
:104BD000044640B18DF80C5006A941F8140D204848
:104BE000FFF73EFF10B9204606B070BD63682BB1D9
:104BF0001C4B89221C491D480AF099FF04F110053D
:104C0000284607F0F7FDB0B104F1140007F0F2FDFB
:104C1000C0B904F10C06304607F036FEC8B1304684
:104C200007F02DFE284607F087FD2146062003F0F9
:104C30009BFA0024D7E70B4B8A220D490B480AF058
:104C400076FFE1E7074B8C220A4908480AF06FFF1C
:104C5000DFE7044B8F22084904480AF068FFDEE7CB
:104C6000CD570108E0140208D815020830150208D3
:104C7000FC150208141602083816020830B587B071
:104C800088B10446019029238DF80D3001A9074809
:104C9000FFF7E6FE054610B1284607B030BD2046B6
:104CA00000F0F2FDF8E70025F6E700BFA55A01087D
:104CB00010B586B060B1A1B1E2B101908DF81430A9
:104CC0000391049201A91048FFF7CAFE06B010BD77
:104CD0000E4BD9220E490F480AF029FF6FF00F0042
:104CE000F4E70A4BDA220C490A480AF020FF6FF079
:104CF0000F00EBE7054BDB22084906480AF017FFD7
:104D00006FF00F00E2E700BF9D5E0108E0140208AB
:104D1000581502083015020878150208981502087F
:104D200000B587B060B1034699B101930391ADF826
:104D3000102001A90848FFF793FE07B05DF804FBB7
:104D4000064BFF22064907480AF0F1FE6FF00F00FC
:104D5000F3E70549E9E700BF055C0108E014020834
:104D6000C414020830150208904D020800B587B03F
:104D700040B106A941F8140D0748FFF771FE07B0CE
:104D80005DF804FB054B4FF4B472054905480AF081
:104D9000CEFE6FF00F00F2E7595C0108E014020844
:104DA000B81502083015020870B582B059B1044632
:104DB0000D4600230B6080B190F9080010F10C0F34
:104DC00015DA02B070BD214B40F28D122049214806
:104DD0000AF0ADFE6FF00F00F3E71C4B40F28F12AC
:104DE0001D491C480AF0A3FE6FF00F00E9E704F12B
:104DF0001406304607F0FEFC08B3002201A9304635
:104E000007F0B9FC019EA36A1BB1002201212046D4
:104E10009847124B019A9A4214D016B12E60002086
:104E2000CFE707F079FD94F9083013F10C0F01DB9F
:104E3000F123237207F07CFD6FF00E00C1E76FF0E5
:104E40000E00BEE76FF00C00BBE700BFE0140208E5
:104E50008414020830150208A41402083810012036
:104E600070B582B0F9B105460E4600230B6020B341
:104E700000230193052003F05DF90446002833D098
:104E800001A92846FFF71AFE054600BB019B1BB38C
:104E9000019B2360019B63600023A381A3603460B6
:104EA000284602B070BD124B4FF41D7211491248D2
:104EB0000AF03DFE6FF00F05F2E70D4B40F276224F
:104EC0000E490D480AF033FE6FF00F05E8E7214662
:104ED000052003F049F9E3E7054B40F28A2208492F
:104EE00005480AF024FED3E74FF0FF35D8E700BFAE
:104EF000E01402085416020830150208741602085D
:104F000090180208F0B587B00C9D88B1164604468B
:104F1000027802F0F002102A14D1002E35D0027F60
:104F200012F0020F18D113F0040F29D0012214E05F
:104F3000194B40F2E622194919480AF0F8FD6FF0C2
:104F40000F0323E0144B40F2E722164914480AF0FD
:104F5000EEFD6FF0050319E0012202F0FF0702B138
:104F6000BDB1019403918DF81430049601A90E4847
:104F7000FFF776FD034648B945B11FB92E6005E03D
:104F80000022EAE7049A2A6000E00023184607B0EE
:104F9000F0BD6FF00503F9E7E0140208B01602084F
:104FA00030150208CC160208A15D010808B50321DE
:104FB000FFF762FD08BD000010B5014644682046B9
:104FC00003F0CDFF0849204603F0CCFF07492046F7
:104FD00003F0E2FF02220649204604F017F80549D3
:104FE000204603F0F1FF10BDFD5601088956010867
:104FF000055601085150010838B5044603685B683E
:1050000033B1104B4FF40B720F4910480AF08FFD6B
:1050100025682B7803F0F003102B02D0FA232371BC
:1050200038BD002004F066FD6860206843680BB15D
:10503000FFF7C2FF23685B6803B138BDFF2323710C
:10504000FBE700BFCC190208001A0208301502085D
:10505000F8B50E460446002838D000236360657812
:105060006370042D3AD007F057FC267207F060FCFD
:10507000A36A1BB10022042120469847A36A1BB1F2
:105080000022114620469847A36A1BB10022022144
:105090002046984704F11007384607F0ABFB68BB81
:1050A00004F11407384607F0A5FB60BB012D2FD093
:1050B000042D2DD0032D2BD0636A33B12E4B40F23B
:1050C000BD122E492E480AF032FDF8BD2A4B4FF48E
:1050D000C2722C492A480AF02AFDBEE764B107F0E3
:1050E0001BFC94F9083013F10C0F01DB0023237231
:1050F00007F01EFC0026BBE70026B9E70021384672
:1051000007F02FFBCCE70021384607F02AFBCDE75C
:10511000237F23F00402227713F0040FD5D1636AB2
:10512000CBB1636A1E71636A1D680C35284607F0AF
:10513000ABFBC0B1002363624CB107F0EDFB94F907
:10514000083013F10C0F00DB267207F0F1FB284644
:1051500007F090FBF8BD084B40F2B3120A4908482B
:105160000AF0E5FCDDE7044B4FF4DB720749044825
:105170000AF0DDFCDEE700BFCC1902083817020890
:1051800030150208F0160208001702081C17020862
:105190002DE9F84388460446F0B16378012B06D028
:1051A0007B4B40F2E4527B497B480AF0C0FC636AC7
:1051B000D3B1636803B3226A636ADB689A4223D27D
:1051C000626A92F81090237F13F0020F24D119F035
:1051D000040F39D0012620E06D4B40F2E3526F49B5
:1051E0006D480AF0A4FCD8E7694B40F2E5526C49DF
:1051F00069480AF09CFCDCE7654B40F2E6526949DD
:1052000065480AF094FCD6E7614B4FF4BD626649ED
:1052100061480AF08CFCD3E70126F6B29768236A4E
:105220001F44D268D51AB5F5803F0FD349F0020963
:105230004FF6FF756168B1F860108D420BD93EB131
:10524000002939D00D4606E00026E6E7ADB2F1E7C9
:1052500049F002090D462B449A4225D34B462A4673
:105260003946606806F032FA0746431CDBB2012B70
:1052700025D9002F46D1236A1D442562636ADA6866
:10528000954200D00EB1DD600126606806F0CCFDCD
:1052900010F10C0F02DB10F1040F3AD1636A002207
:1052A000DA600746012634E0394B40F213623F4989
:1052B00039480AF03CFCD1E70D466FF0060776B19D
:1052C000636ADB689D420AD2A36A1BB12A460321A6
:1052D00020469847237F43F010032377C9E763688C
:1052E000B3F8601040F2A152914203D9B3F8623092
:1052F000042BBED9A36A002BBBD02A46032120462B
:105300009847B6E7B7F1FF3F1FD0636A0022DA6023
:105310000126002E37D0636A186800F10C051F7152
:1053200000236362236263704CB107F0F5FA94F9CD
:10533000083013F10C0F00DB277207F0F9FAB8F10F
:10534000000F1AD10020BDE8F883606806F06CFDFC
:1053500010F10C0F0BDB10F1040F08D0002ED8D089
:10536000636A0022DA6001266FF00607D1E7636AFC
:105370000022DA6007460126CBE7284607F07AFAD2
:105380000020BDE8F8834FF0FF30BDE8F88300BF90
:10539000CC1902086418020830150208F016020839
:1053A00000170208841802089C180208D018020886
:1053B0002DE9F04788460446002835D0237803F0CD
:1053C000F003102B06D0834B4FF45172824983486F
:1053D0000AF0ADFB6378042B06D07E4B40F24532D9
:1053E0007F497E480AF0A3FB63682BB3636A5BB313
:1053F0006568636A1B7A03F0010A03F00209032B54
:105400002AD0BAF1000F06D02A7D531FDBB2012B40
:105410003AD9082A3AD0B9F1000F39D0AB7E13F04F
:10542000100F37D1002718E06A4B40F243326D4924
:105430006A480AF07CFBC1E7664B40F246326A4993
:1054400066480AF074FBD1E7624B40F24732674985
:1054500062480AF06CFBCBE70127EFB92B7D012BEB
:105460001FD0BAF1000F21D1B9F1000F27D15FBBD6
:10547000A7B3284604F006F90646002E42D0B6F13E
:10548000FF3F32D001233EE00127E6E70127E4E7B2
:105490000027E2E70127E0E70021284603F05FFD4F
:1054A000DCE70021284603F0A9FDE1E700212846BA
:1054B00003F058FD0021284603F0A0FDD4E70021A9
:1054C000284603F069FDD2E700221146284603F082
:1054D0009DFD0021284603F077FDC9E74A46514665
:1054E000284604F077F90646C7E7636A5B7A002B23
:1054F0003FD10FB9012306E0284604F013FA3B46DA
:10550000002600E00123002B3AD0636A1D680C35A9
:105510001E71002363626370CEB937B16360A36A02
:105520001BB10022042120469847BAF1000F05D094
:10553000A36A1BB10022114620469847B9F1000F1B
:1055400005D0A36A1BB100220221204698474CB126
:1055500007F0E2F994F9083013F10C0F00DB267222
:1055600007F0E6F9B8F1000F05D100263046BDE896
:10557000F0870023C7E7284607F07CF90026F5E707
:105580002B7D012B19D0B9F1000F1ED10122184932
:10559000284603F03BFD1749284603F015FD214638
:1055A000284603F0DCFC002EE0D10A4B40F2EF323B
:1055B00011490A480AF0BBFAD8E7064B40F2E33239
:1055C0000E4906480AF0B3FADDE70D49284603F014
:1055D000E3FCDBE7CC190208541702083015020877
:1055E00074170208C8150208981702080017020865
:1055F0000556010851500108D0170208AC170208DF
:105600008956010810B50446F8B16378012B24D0FF
:10561000042B27D0237F13F0100F14D0626892B1AF
:10562000B2F8600040F2A15188420CD9B2F8622071
:10563000042A08D823F010032377A36A1BB10022A1
:10564000022120469847002010BD0C4B4FF49C725D
:105650000B490C480AF06BFAD7E701212046FFF707
:1056600097FDD7E7636A1BB15A7A0AB1013A5A72B9
:1056700001212046FFF79CFECCE700BFCC190208B1
:10568000F01602083015020838B515460446E8B190
:10569000D4B16378012B21D0042B24D063689BB153
:1056A000B3F8601040F2A15291420DD9B3F86230C4
:1056B000042B09D8237F23F010032377A36A1BB19F
:1056C0002A46022120469847002038BD084B40F268
:1056D0006112084908480AF02AFAD9E70121204650
:1056E000FFF756FDDAE701212046FFF761FED5E717
:1056F000CC190208F0160208301502082DE9F04115
:105700000446154698460F46E9B11CB3002C4AD012
:1057100063689F4206D0284B4FF48072274928487F
:105720000AF005FA04F11006304607F063F8C0B934
:10573000002D3BD02989384603F0A4FB284602F00F
:10574000FFFE00251EE01C4BF9221E491C480AF0F2
:10575000EEF9DAE7184BFA221B4919480AF0E7F983
:10576000D4E7B8F1000F10D1DDB12F8929463046BA
:1057700006F0F7FF0546D8B9A36A1BB13A460021E7
:10578000204698472846BDE8F08107F0C5F894F90F
:10579000083013F10C0F01DB84F8088007F0C8F81B
:1057A000E2E70027E2E76FF00505EBE70025E9E710
:1057B0004FF0FF35E6E700BFCC190208641A020873
:1057C00030150208201A0208441A020810B50446CF
:1057D0000023037103685B687BB1236863B107F042
:1057E0009BF8236893F9082012F10C0F02DB94F95F
:1057F00004201A7207F09CF810BDFFF7FDFBECE7E0
:1058000070B505460E46062002F094FC044608B327
:10581000002303720570436005F0F005102D1BD1C5
:1058200000F110050621284606F072FFD8B90021C4
:1058300004F10C0006F0E7FFD8B904F1140006F0FB
:10584000DFFF002363704FF0FF32A261A662636244
:1058500023622377204670BD084B4FF42A72084913
:1058600008480AF064F92146062002F07DFC002475
:10587000F0E7284606F060FFF5E700BFCC19020804
:10588000FC1802083015020838B50446436833B1E5
:10589000164B4FF43872164916480AF048F904F1CD
:1058A000100006F0A7FF88B904F1140006F0A2FF6B
:1058B000A0B904F10C05284606F0E1FF284606F0E1
:1058C000E9FF2146062002F04FFC38BD074B40F2AD
:1058D000E222094907480AF02AF9E5E7034B40F2BA
:1058E000E522064903480AF022F9E2E7CC1902084A
:1058F00024190208301502085419020890190208E8
:1059000070B582B0054600F11004204606F072FF23
:1059100038BB1435284606F06DFF00283ED001A99B
:10592000284606F054FFB0F1FF3F31D0019C1C4BDC
:105930009C42F4D02046FFF7E3FF606818B103F003
:10594000F1FF002363602046FFF79EFFE7E7019E1B
