:020000040800F2
:1000000000000220A1CB00087DC500087FC50008C4
:1000100081C5000883C5000885C5000800000000F0
:10002000000000000000000000000000F1240008B3
:1000300087C500080000000091250008F52500088C
:10004000F1CB0008F1CB0008F1CB0008F1CB0008A0
:10005000F1CB0008F1CB0008F1CB0008F1CB000890
:10006000F1CB0008F1CB0008F1CB0008F1CB000880
:10007000F1CB0008F1CB0008F1CB0008F1CB000870
:10008000F1CB0008F1CB0008F1CB0008F1CB000860
:10009000F1CB0008F1CB0008F1CB0008F1CB000850
:1000A000F1CB000889C50008F1CB0008F1CB0008AE
:1000B000F1CB0008F1CB0008F1CB0008F1CB000830
:1000C000F1CB0008F1CB0008F1CB0008F1CB000820
:1000D000F1CB0008F1CB0008F1CB0008F1CB000810
:1000E000F1CB0008F1CB0008F1CB0008F1CB000800
:1000F000F1CB0008F1CB0008F1CB0008F1CB0008F0
:10010000F1CB0008F1CB0008F1CB0008F1CB0008DF
:10011000F1CB000899C50008F1CB0008F1CB00082D
:10012000F1CB0008F1CB0008F1CB0008F1CB0008BF
:10013000F1CB0008A9C50008F1CB0008F1CB0008FD
:10014000F1CB0008F1CB0008F1CB0008F1CB00089F
:10015000F1CB0008F1CB0008F1CB0008F1CB00088F
:10016000F1CB0008F1CB0008F1CB0008F1CB00087F
:10017000F1CB0008F1CB0008F1CB00080000000033
:08018000F1CB0008F1CB0008EF
:1001900010B5054C237833B9044B13B10448AFF3C1
:1001A00000800123237010BD140000200000000017
:1001B000A4CC000808B5034B1BB103490348AFF3B7
:1001C000008008BD0000000018000020A4CC00083A
:1001D00010F8012B11F8013B012A28BF9A42F7D0F1
:1001E000D01A7047034613F8012B002AFBD1181AC6
:1001F0000138704753B94AB9002908BF00281CBF0D
:100200004FF0FF314FF0FF3000F07AB9ADF1080C3C
:100210006DE904CE00F006F8DDF804E0DDE9022324
:1002200004B070472DE9F0478C460D460446089E01
:10023000002B51D18A4217466DD9B2FA82FEBEF127
:10024000000F0BD0CEF1200C01FA0EF520FA0CFCB9
:1002500002FA0EF74CEA050C00FA0EF44FEA174AC0
:10026000250CBCFBFAF81FFA87F90AFB18CC45EA03
:100270000C4508FB09F3AB420AD9ED1908F1FF322E
:1002800080F02381AB4240F22081A8F102083D4476
:10029000ED1AA4B2B5FBFAF00AFB105544EA054486
:1002A00000FB09F9A14509D9E41900F1FF3380F0F9
:1002B0000A81A14540F2078102383C44A4EB0904BD
:1002C00040EA08400021002E61D024FA0EF40023F9
:1002D00034607360BDE8F0878B4207D9002E54D09C
:1002E000002186E821000846BDE8F087B3FA83F1D3
:1002F000002940F08E80AB4202D3824200F2FA80A5
:10030000841A65EB03050120AC46002E3FD086E839
:100310001010BDE8F08712B90127B7FBF2F7B7FA62
:1003200087FEBEF1000F34D1EB1B3A0C1FFA87FC9D
:100330000121B3FBF2F8250C02FB183345EA034513
:100340000CFB08F3AB4207D9ED1908F1FF3002D2DC
:10035000AB4200F2D1808046ED1AA3B2B5FBF2F0B9
:1003600002FB105543EA05440CFB00FCA44507D9E9
:10037000E41900F1FF3302D2A44500F2B880184618
:10038000A4EB0C0440EA08409DE731463046BDE846
:10039000F087CEF1200405FA0EF307FA0EF720FAE3
:1003A00004F83A0C25FA04F448EA0308B4FBF2F125
:1003B0004FEA184502FB11441FFA87FC45EA044541
:1003C00001FB0CF3AB4200FA0EF409D9ED1901F16F
:1003D000FF3080F08A80AB4240F2878002393D4492
:1003E000EB1A1FFA88F5B3FBF2F002FB103345EA73
:1003F000034500FB0CF3AB4207D9ED1900F1FF38C0
:100400006FD2AB426DD902383D44EB1A40EA01414C
:100410008FE7C1F1200722FA07F88B4005FA01F4B3
:1004200048EA030320FA07FE4FEA134CFD404EEA68
:10043000040EB5FBFCF94FEA1E440CFB19551FFADC
:1004400083F844EA054509FB08F4AC4202FA01F2DC
:1004500000FA01FA08D9ED1809F1FF3043D2AC4295
:1004600041D9A9F102091D442D1B1FFA8EFEB5FBCF
:10047000FCF00CFB10554EEA054400FB08F8A045C3
:1004800007D9E41800F1FF3529D2A04527D9023851
:100490001C4440EA0940A4EB0804A0FB02894C4537
:1004A000C6464D4615D312D056B1BAEB0E0364EBD7
:1004B000050404FA07F7CB401F43CC403760746053
:1004C0000021BDE8F0871846F8E69046E0E6C24510
:1004D000EAD2B8EB020E69EB03050138E4E72846DF
:1004E000D7E7404691E78146BEE7014678E7023804
:1004F0003C4445E7084608E7A8F102083D442BE7DD
:10050000704700BF08B50B4B1A6842F400721A60BE
:100510001A6842F480621A601A6842F480721A60A3
:10052000032000F02FF800200BF0EAFF0BF0C6FFCD
:10053000002008BD003C0240034A1168034B1B78B1
:100540000B441360704700BF2842002000000020C9
:10055000014B1868704700BF2842002038B5044698
:10056000FFF7F6FF0546B4F1FF3F02D0044B1B78BE
:100570001C44FFF7EDFF401B8442FAD838BD00BF92
:1005800000000020074AD36823F4E0631B041B0C1F
:10059000000200F4E060184340F0BF6040F4003017
:1005A000D060704700ED00E030B4164BDB68C3F359
:1005B0000223C3F10704042C28BF04241D1D062DAB
:1005C00017D9033B012505FA04F4013C2140994069
:1005D00005FA03F3013B1340194300280BDB090123
:1005E000C9B200F1604000F5614080F8001330BCF2
:1005F00070470023E6E700F00F000901C9B2024B83
:100600001954F4E700ED00E014ED00E0420900F0B9
:100610001F00012303FA00F0014B43F8220070474A
:1006200000E100E090F83530DBB2022B03D08023EC
:10063000436501207047052380F835300268136850
:1006400023F00103136000207047000050791379F4
:1006500043EA002307480B50D07893781B0443EA01
:100660000063507843EA002312781343024A8B5008
:10067000704700BF4080024044800240016841F260
:1006800018028B5843F400538B507047016841F2B5
:1006900018028B5843F002038B50704782B0084B0E
:1006A0001B68084AA2FB03235B0A00FB03F00190CE
:1006B00000BF019B5A1E0192002BF9D102B0704776
:1006C00010000020D34D621010B582B00446002304
:1006D00001930268136843F00803136003681B6802
:1006E00001930120FFF7DAFF2368019A1A6002B034
:1006F00010BD10B582B00446002301930268136850
:1007000043F00403136003681B6801930120FFF7A3
:10071000C5FF2368019A1A6002B010BD30B583B0DE
:10072000054600230193026841F21804135943F46B
:100730008013135103681B5901930120FFF7AEFF8B
:100740002B68019A1A5103B030BD000070B59EB0FD
:10075000044629B14FF40063C3604FF480438360C3
:10076000E369002B6AD14FF48063079321680B681B
:10077000394A1A40A368E06803430798034343F4E7
:10078000007313430B6023681D680120FFF7E6FE2A
:1007900023681D60236840225A6023685D68012039
:1007A000FFF7DCFE23685D60236800259D602368F9
:1007B000DD602268936923F0BE031B041B0C43F029
:1007C0008003936123689E690120FFF7C7FE2368B9
:1007D0009E612368DD612368DD690120FFF7BEFEAD
:1007E0002368DD61226841F2180551591B4B0B400B
:1007F00043F0087343F00403535123685E5901200A
:10080000FFF7ACFE23685E51236803F58053144A5A
:100810001A60236803F580531D680120FFF79EFED0
:10082000236803F580531D60A369012B09D0626919
:1008300000212046FFF70AFF1EB070BD002307937A
:1008400094E7216841F21C028B5843F4803343F053
:1008500040038B50EBE700BF0F8120FF233FDEF802
:100860008020C102F0B490F84540012C31D0012421
:1008700080F84540022480F84440C162002401E031
:10088000F96001349C4217D265014F194FF480166C
:100890004E5140F2F45606FB0426BE60C6691EB9EE
:1008A0004E5946F440064E515D1EAC42E8D2651CDE
:1008B00001EB4515FD60E4E7026841F21003D150F9
:1008C000012380F84430002380F845301846F0BCFE
:1008D00070470220FBE7F0B490F84540012C2ED081
:1008E000012480F84540022480F8444081620024BD
:1008F00001E0E96001349C4214D266018D194FF089
:1009000000478F5144F2F4566E6040F2F45606FBF5
:100910000426AE605E1EB442EBD2661C01EB4616A6
:10092000EE60E7E7026841F20C03D150012380F842
:100930004430002380F845301846F0BC7047022050
:10094000FBE7000090F84530012B00F08780012381
:1009500080F84530022380F8443099B1C36A1A68A0
:10096000002A17DB30B440F2F45291421AD93C4CC1
:10097000A4FB0124A40A40F2F45202FB141292B127
:10098000013410E0012380F84430002280F8452033
:1009900018467047122380F84430002380F8453011
:1009A000012070470124012C01D0002337E01A6890
:1009B00042F040521A60C36AC1F30C015960C26A26
:1009C000136843F000431360C36ADB68C3620368C3
:1009D00041F214029A5812F0040F08D0042141F297
:1009E000140299500268002141F20403D1500123FE
:1009F00080F84430002380F84530184630BC7047FA
:100A0000C56A2A6842F080522A6011E0C56A2A68E5
:100A100042F000422A60C26AD268C26201339C423C
:100A2000D5D9C56A2A6822F040522A60002BE7D047
:100A3000C26A40F2F4555560621E9342E6D1C56A1F
:100A40002A6842F000522A60064A02FB041202F2AF
:100A5000F452C56AC2F30C026A60D7E702207047FD
:100A60000BB002AC0CFAFFFF90F84530012B45D0DB
:100A7000012380F84530022380F8443000210AE049
:100A8000036301228263DB68836204E0826B0132CC
:100A90008263DB688362836A1A68002A26DB032983
:100AA00024D801311A6802F44072B2F5007FE7D011
:100AB0001A6812F4407FE9D04363826B013282638B
:100AC000012A11D01A68C2F30D42043AC263026BC4
:100AD00092680264DB688362012380F8443000235B
:100AE00080F84530184670470363EBE7012380F830
:100AF0004430002280F84520184670470220704795
:100B00007047704710B50446036841F214029A58C2
:100B100012F0400F11D141F214029B5813F0010F53
:100B200019D1226841F214034FF48031D150226868
:100B3000D35813F4004F1BD110BD0BF0D9FA226823
:100B4000402141F21403D150012384F844300023A2
:100B500084F84530E5E7FFF7D3FF2168012341F230
:100B600014028B5084F84430002384F84530D8E7D1
:100B70002046FFF7C6FF22684FF4004141F21403FC
:100B8000D150012384F84430002384F84530D3E762
:100B9000F8B590F84430DBB2822B01D10220F8BDC9
:100BA00016460546822380F844300268146904F032
:100BB0001C04038ADB029BB21C43890101F4F86127
:100BC0000C4344F001041461FFF7C2FC074614F023
:100BD000010F10D0FFF7BCFCC01BB0F5803F02D264
:100BE0002B681C69F3E7012385F84430002385F85E
:100BF00045300320F8BD2B685B699BB2336001234D
:100C000085F844300020F8BD90F84430DBB2422B28
:100C100001D10220704770B50546422380F8443068
:100C20000068046904F01C042B8ADB029BB21C439D
:100C3000890101F4F8610C4344F0030492B242616B
:100C40002B681C61FFF784FC064614F0010F10D0DE
:100C5000FFF77EFC801BB0F5803F02D22B681C6939
:100C6000F3E7012385F84430002385F8453003205D
:100C700070BD012385F84430002070BD70B582B08E
:100C800000230193002800F00E81044690F84430C0
:100C9000002B34D000230093844B5A6C42F48042E2
:100CA0005A645B6C03F480430093009B804B5A684A
:100CB00022F400025A605A68216A0A435A60236883
:100CC00003F580531A6842F001021A60FFF740FCF6
:100CD0000546236803F58052126812F0010F13D005
:100CE000FFF736FC401BB0F5FA7FF2D9032584F8F4
:100CF0004450002384F84530284602B070BD80F887
:100D000045300BF099F9C5E71D6925F01C0500F089
:100D1000BDFC684B0344684A934255D845F008052A
:100D200023681D614FF4004200212046FFF76CFF4D
:100D30000546002860D1FF20FFF710FC6368002BF8
:100D400000F09180FFF704FC064601AA012120462D
:100D5000FFF71EFFFFF7FCFB801B41F28833984230
:100D600052D8019B13F0040FEFD04FF480520021B2
:100D70002046FFF749FF002852D1FFF7E9FB06465E
:100D800001AA01212046FFF703FFFFF7E1FB801BCB
:100D900041F2883398424BD8019B13F0200FEFD0DB
:100DA00001AA10212046FFF7F3FE00284CD1019B39
:100DB00013F0040F50D04FF40062E26013F0020F02
:100DC0004DD00023A3605EE03C4B03443C4A934279
:100DD00002D845F00C05A3E73A4B03443A4A934244
:100DE0009ED93A4B03443A4A934202D845F004054F
:100DF00096E745F0100593E701212046FFF7A6FC92
:100E0000012584F8445077E701212046FFF79EFC36
:100E1000012384F84430002384F8453003256BE730
:100E200001212046FFF792FC012584F8445063E736
:100E300001212046FFF78AFC012384F84430002377
:100E400084F84530032557E701212046FFF77EFC53
:100E5000012584F844504FE70022E260AEE74FF4EA
:100E60008043A3600FE0E368C3F3CF02A368C3F33A
:100E70004F031A4300212046FFF7C6FE58B940F63B
:100E8000FF70FFF76BFB00212046FFF75FFC01239B
:100E900084F8443030E701212046FFF757FC012554
:100EA00084F8445028E7012526E700BF00380240B7
:100EB0000038014000D3CEFEBFE1E40040F1E9FD7F
:100EC0003F787D0100796CFCFF596202001F0AFA2D
:100ED0007FF0FA0238B590F84530012B01D102209D
:100EE00038BD0446012580F84550022380F844307F
:100EF000FFF7EAFB2046FFF7FCFB2046FFF70EFC5E
:100F00002046FFF7BBFB2046FFF7C0FB84F84450A8
:100F1000002084F8450038BDF0B583B000244BE0D4
:100F20004FEAD40E0EF1080E50F82E2004F00706FA
:100F3000B6000F27B74022EA07020F6907FA06F644
:100F4000324340F82E2046E0072600E0002606FA4D
:100F50000EF6324302335E4E46F823205D4B1A688C
:100F6000EB4302EA03064F6817F4803F01D045EADD
:100F70000206584A1660526803EA02064F6817F4E0
:100F8000003F01D045EA0206524A5660926803EAE1
:100F900002064F6817F4801F01D045EA02064D4A49
:100FA0009660D26813404E6816F4001F01D045EADF
:100FB0000203484AD36001340F2C00F286800123DB
:100FC000A3400A6803EA0205AB42F4D14A68022A48
:100FD000A6D0122AA4D006684FEA440E032202FAD1
:100FE0000EF2D24316404F6807F0030707FA0EF7D8
:100FF0003E4306604E68771E012F03D9112E01D0A3
:10100000122E0FD186681640CF6807FA0EF73E43BE
:101010008660466826EA03034E68C6F30016A640BB
:1010200033434360C3681A408B6803FA0EF31A43D4
:10103000C2604B6813F0805FBDD000230193264B44
:101040005A6C42F480425A645B6C03F4804301930F
:10105000019BA3089E1C1E4A52F8262004F003069A
:101060004FEA860E0F2606FA0EF622EA06021B4FFC
:10107000B8423FF46BAF1A4EB0421AD006F5806604
:10108000B04218D006F58066B04216D006F58066EC
:10109000B04214D006F58066B04212D006F58066E4
:1010A000B04210D006F58066B0423FF44DAF08263E
:1010B0004DE701264BE7022649E7032647E70426CA
:1010C00045E7052643E7062641E703B0F0BD00BF2C
:1010D00000380140003C014000380240000002405E
:1010E0000004024012B909048161704781617047B0
:1010F0004369594041617047002800F0BB8170B5D9
:1011000082B00446036813F0010F3BD0A74B9B68E5
:1011100003F00C03042B2CD0A44B9B6803F00C03AE
:10112000082B21D06368B3F5803F4FD0B3F5A02FD3
:1011300052D09E4B1A6822F480321A601A6822F448
:1011400080221A606368002B50D0FFF701FA054631
:10115000964B1B6813F4003F14D1FFF7F9F9401BBD
:101160006428F5D903208AE1904B5B6813F4800F63
:10117000D8D08E4B1B6813F4003F03D06368002B5C
:1011800000F07A81236813F0020F55D0874B9B68DB
:1011900013F00C0F3ED0854B9B6803F00C03082B1B
:1011A00033D0E368002B68D00122814B1A60FFF72F
:1011B000CFF905467D4B1B6813F0020F54D1FFF7A2
:1011C000C7F9401B0228F5D9032058E1774A136874
:1011D00043F480331360B5E7744B1A6842F48022FD
:1011E0001A601A6842F480321A60ABE7FFF7B0F970
:1011F00005466E4B1B6813F4003FC3D0FFF7A8F9F8
:10120000401B6428F5D9032039E1684B5B6813F46F
:10121000800FC6D1654B1B6813F0020F04D0E36842
:10122000012B01D001202AE1604A136823F0F80362
:10123000216943EAC1031360236813F0080F40D00B
:10124000636963B301225B4B1A60FFF781F90546BE
:10125000564B5B6F13F0020F33D1FFF779F9401B48
:101260000228F5D903200AE1504A136823F0F80355
:10127000216943EAC1031360DEE700224C4B1A6088
:10128000FFF766F90546494B1B6813F0020FD3D0F0
:10129000FFF75EF9401B0228F5D90320EFE000229A
:1012A000444B1A60FFF754F90546404B5B6F13F04F
:1012B000020F06D0FFF74CF9401B0228F5D9032096
:1012C000DDE0236813F0040F79D0384B1B6C13F06A
:1012D000805F33D100230193344B1A6C42F080526B
:1012E0001A641B6C03F080530193019B0125324B60
:1012F0001B6813F4807F23D0A368012B34D0052B07
:1013000038D02A4B1A6F22F001021A671A6F22F0A6
:1013100004021A67A368002B36D0FFF719F90646B6
:10132000224B1B6F13F0020F48D1FFF711F9801BFE
:1013300041F288339842F3D90320A0E00025D6E794
:101340001D4A136843F480731360FFF701F90646E2
:10135000194B1B6813F4807FCED1FFF7F9F8801B7F
:101360000228F5D903208AE0104A136F43F00103E5
:101370001367CFE70D4B1A6F42F004021A671A6F1A
:1013800042F001021A67C5E7FFF7E2F80646074B8D
:101390001B6F13F0020F11D0FFF7DAF8801B41F238
:1013A00088339842F3D9032069E000BF0038024037
:1013B00000004742800E474200700040E5B9A36933
:1013C000002B5BD0304A926802F00C02082A58D0F9
:1013D000022B17D000222D4B1A60FFF7B9F80446F4
:1013E000294B1B6813F0007F42D0FFF7B1F8001BB8
:1013F0000228F5D9032042E0234A136C23F08053DE
:101400001364DCE70022214B1A60FFF7A1F80546C0
:101410001D4B1B6813F0007F06D0FFF799F8401BA7
:101420000228F5D903202AE0E369226A1343626A9D
:1014300043EA8213A26A5208013A43EA0243E26A8B
:1014400043EA0263104A53600122104B1A60FFF70F
:101450007FF804460C4B1B6813F0007F06D1FFF7A2
:1014600077F8001B0228F5D9032008E0002006E0E9
:10147000002004E001207047012000E0002002B0BD
:1014800070BD0120FBE700BF00380240600047420A
:10149000F8B5254B9B6803F00C03042B41D0082BB7
:1014A00001D02248F8BD204B5A6802F03F025B6829
:1014B00013F4800F12D01C4B5968C1F3881100231C
:1014C0001B48A1FB0001FEF795FE174B5B68C3F3B9
:1014D000014301335B00B0FBF3F0F8BD124B5B68D6
:1014E000C3F388131E4600275C010025E41A65EB50
:1014F0000705A90141EA9461A001001B61EB050108
:10150000CB0043EA5073C400A01943EB07018B02E0
:1015100043EA90538402204619460023FEF76AFEF0
:10152000D3E70348F8BD00BF003802400024F400B0
:1015300040787D01002800F09D8070B504464F4B37
:101540001B6803F00F038B4209D2CBB24B4A1370D6
:10155000136803F00F03994201D0012070BD236886
:1015600013F0020F17D013F0040F04D0444A93680D
:1015700043F4E0539360236813F0080F04D0404A0B
:10158000936843F4604393603D4A936823F0F0030B
:10159000A068034393600D46236813F0010F32D017
:1015A0006368012B21D09A1E012A25D9344A12687A
:1015B00012F0020F60D032498A6822F0030213430E
:1015C0008B60FEF7C5FF06462D4B9B6803F00C03AE
:1015D0006268B3EB820F16D0FEF7BAFF801B41F2B0
:1015E00088339842F0D9032070BD254A126812F45E
:1015F000003FE0D1012070BD214A126812F0007F47
:10160000D9D1012070BD1D4B1B6803F00F039D4213
:1016100009D2EAB2194B1A701B6803F00F039D42FE
:1016200001D0012070BD236813F0040F06D0144AC6
:10163000936823F4E053E1680B439360236813F04D
:10164000080F07D00E4A936823F46043216943EAE8
:10165000C1039360FFF71CFF094B9B68C3F303139F
:10166000084AD35CD840084B186000200AF048FFB5
:10167000002070BD01207047012070BD003C024079
:10168000003802408C0C010810000020014B186843
:10169000704700BF1000002008B5FFF7F7FF044BAC
:1016A0009B68C3F38223034AD35CD84008BD00BFC4
:1016B000003802409C0C010808B5FFF7E7FF044B17
:1016C0009B68C3F34233034AD35CD84008BD00BFD4
:1016D000003802409C0C01080F2303600B4B9A68F2
:1016E00002F0030242609A6802F0F00282609A6897
:1016F00002F4E052C2609B68DB0803F4E05303612C
:10170000034B1B6803F00F030B6070470038024067
:10171000003C024070470268D36843F00103D36085
:101720000268136843F0010313600020704770479C
:1017300070477047704710B5044603681A6912F085
:10174000020F11D0DA6812F0020F0DD06FF0020212
:101750001A610123037603689B6913F0030F70D0AD
:10176000FFF7E6FF0023237623681A6912F0040FBF
:1017700012D0DA6812F0040F0ED06FF004021A6172
:101780000223237623689B6913F4407F5FD02046B1
:10179000FFF7CEFF0023237623681A6912F0080FA3
:1017A00012D0DA6812F0080F0ED06FF008021A613A
:1017B000042323762368DB6913F0030F4ED0204601
:1017C000FFF7B6FF0023237623681A6912F0100F83
:1017D00012D0DA6812F0100F0ED06FF010021A61FA
:1017E000082323762368DB6913F4407F3DD020462D
:1017F000FFF79EFF0023237623681A6912F0010F7A
:1018000003D0DA6812F0010F36D123681A6912F09A
:10181000800F03D0DA6812F0800F34D123681A6980
:1018200012F0400F03D0DA6812F0400F32D1236873
:101830001A6912F0200F03D0DA6812F0200F30D1AD
:1018400010BDFFF774FF2046FFF773FF8AE72046BD
:10185000FFF76DFF2046FFF76CFF9BE72046FFF781
:1018600066FF2046FFF765FFACE72046FFF75FFF06
:101870002046FFF75EFFBDE76FF001021A612046C8
:101880000AF00EFEC1E76FF080021A61204600F0F8
:10189000B7F8C3E76FF040021A612046FFF74AFF2E
:1018A000C5E76FF020021A61204600F0A8F8C7E7EC
:1018B0000368454A90424AD0B0F1804F49D0A2F522
:1018C0007C42904247D002F58062904245D002F5BA
:1018D0008062904243D002F57842904235D0002297
:1018E0001AB123F070034A681343374A90423AD042
:1018F000B0F1804F50D0A2F57C4290424ED002F51C
:10190000806290424CD002F5806290424AD002F54B
:101910007842904248D002F57052904246D002F58B
:101920008062904244D002F58062904242D0A2F59B
:101930009832904240D002F5806290423ED002F54B
:10194000806290420DD000220EE00122C8E7012201
:10195000C6E70122C4E70122C2E70122C0E7012253
:10196000BEE7012200E001221AB123F44073CA68E5
:10197000134303608B68C3620B688362124B984207
:1019800020D003F5806398421AD000230BB10B6975
:1019900003630123436170470122E5E70122E3E786
:1019A0000122E1E70122DFE70122DDE70122DBE797
:1019B0000122D9E70122D7E70122D5E70122D3E7A7
:1019C0000123E3E70123E1E700000140A8B110B5DE
:1019D000044690F839305BB1022384F83930211D78
:1019E0002068FFF765FF012384F83930002010BD1F
:1019F00080F83830FFF78EFEEEE701207047704721
:101A000070470268D36823F49073D3600268536907
:101A100023F001035361202380F83A30704790F897
:101A20003930DBB2212B01D0022070478368B3F537
:101A3000805F17D00268036A591C01621B785360EB
:101A4000C38C9BB2013B9BB2C384DBB90268D368F1
:101A500023F08003D3600268D36843F04003D3606F
:101A600000207047036A02681B88C3F308035360B1
:101A700003691BB9036A02330362E1E7036A0133B6
:101A80000362DDE7002070472DE9F0470446026855
:101A9000136923F44053C1680B4313610168CB6899
:101AA00023F4164323F00C03826800690243606943
:101AB0000243E06902431343CB602268536923F475
:101AC0004073A1690B435361E369B3F5004F62D0E2
:101AD000D4F80080BB4B984500F01B8103F5806370
:101AE000984500F01681FFF7D7FD00EB800000EB72
:101AF00080006568AD00B0FBF5F5B34FA7FB053579
:101B00006D092E01FFF7C8FD00EB800000EB80009F
:101B10006568AD00B0FBF5FAFFF7BEFD00EB800095
:101B200000EB80006568AD00B0FBF5F5A7FB05355F
:101B30006D094FF0640909FB15A52D013235A7FB8E
:101B400005356D0905F0F0053544FFF7A5FD00EBFF
:101B5000800000EB80006668B600B0FBF6F6FFF789
:101B60009BFD00EB800000EB800063689B00B0FBF6
:101B7000F3F0A7FB0030400909FB10694FEA09198F
:101B800009F13209A7FB0937C7F343172F44C8F8F7
:101B90000870BDE8F087D4F8008003F1804303F5B6
:101BA000104398455CD003F58063984558D0FFF703
:101BB00073FD00EB800000EB800065686D00B0FBFA
:101BC000F5F5814FA7FB05356D092E01FFF764FD83
:101BD00000EB800000EB800065686D00B0FBF5FA5B
:101BE000FFF75AFD00EB800000EB800065686D0098
:101BF000B0FBF5F5A7FB05356D094FF0640909FB4E
:101C000015A5ED003235A7FB05356D096D0005F40E
:101C1000F8753544FFF740FD00EB800000EB8000D5
:101C200066687600B0FBF6F6FFF736FD00EB800045
:101C300000EB800063685B00B0FBF3F3A7FB0323BA
:101C40005B0909FB13694FEAC90909F13209A7FBCE
:101C50000937C7F342172F44C8F80870BDE8F0876A
:101C6000FFF72AFD00EB800000EB800065686D0047
:101C7000B0FBF5F5544FA7FB05356D092E01FFF7B5
:101C80001BFD00EB800000EB800065686D00B0FB81
:101C9000F5FAFFF711FD00EB800000EB80006568AE
:101CA0006D00B0FBF5F5A7FB05356D094FF0640934
:101CB00009FB15A5ED003235A7FB05356D096D0053
:101CC00005F4F8753544FFF7F7FC00EB800000EBF6
:101CD000800066687600B0FBF6F6FFF7EDFC00EBDF
:101CE000800000EB800063685B00B0FBF3F3A7FBB0
:101CF00003235B0909FB13694FEAC90909F132099A
:101D0000A7FB0937C7F342172F44C8F80870BDE88E
:101D1000F087FFF7D1FC00EB800000EB80006568E6
:101D2000AD00B0FBF5F5284FA7FB05356D092E0179
:101D3000FFF7C2FC00EB800000EB80006568AD009F
:101D4000B0FBF5FAFFF7B8FC00EB800000EB800079
:101D50006568AD00B0FBF5F5A7FB05356D094FF0E3
:101D6000640909FB15A52D013235A7FB05356D0961
:101D700005F0F0053544FFF79FFC00EB800000EB19
:101D800080006668B600B0FBF6F6FFF795FC00EB46
:101D9000800000EB800063689B00B0FBF3F3A7FBBF
:101DA00003235B0909FB13694FEA091909F1320999
:101DB000A7FB0937C7F343172F44C8F80870BDE8DD
:101DC000F08700BF001001401F85EB5158B310B5DC
:101DD000044690F839300BB3242384F83930226854
:101DE000D36823F40053D3602046FFF74DFE2268EA
:101DF000136923F4904313612268536923F02A0383
:101E000053612268D36843F40053D3600020E06339
:101E1000202384F8393084F83A3010BD80F8383007
:101E20000AF054FDD8E701207047704708B50168F3
:101E3000CB6823F04003CB60202380F83930FFF7D4
:101E4000F4FF002008BD704708B590F83A30DBB2C7
:101E5000222B01D0022008BD8368B3F5805F0FD02C
:101E600003690BBB836A5A1C8262026852681A704B
:101E7000C38D9BB2013B9BB2C385F3B1002008BD6B
:101E8000826A036943B903685B68C3F3080313807C
:101E9000836A02338362EBE703685B68DBB213801B
:101EA000836A01338362E3E7826A531C83620368B7
:101EB0005B6803F07F031370DAE70268D36823F4EA
:101EC0009073D3600268536923F0010353612023A8
:101ED00080F83A30FFF7B7FF002008BD70470000D8
:101EE00010B5044602681368D168526913F00F00F8
:101EF00005D113F0200F02D011F0200F53D100288C
:101F000067D012F0010202D111F4907F61D013F07A
:101F1000010F06D011F4807F03D0E06B40F0010088
:101F2000E06313F0040F04D01AB1E06B40F002003C
:101F3000E06313F0020F04D01AB1E06B40F004002C
:101F4000E06313F0080F04D01AB1E26B42F008020C
:101F5000E263E26B002A48D013F0200F02D011F0A8
:101F6000200F24D123685B6903F04003E26B12F079
:101F7000080F00D13BB32046FFF743FD23685A69A1
:101F800012F0400F1BD05A6922F040025A61636B75
:101F90008BB11A4A1A65606BFEF744FB28B3606B7D
:101FA000036D984710BD2046FFF74EFF10BD204639
:101FB000FFF74AFFD6E72046FFF790FF10BD204607
:101FC000FFF78CFF10BD2046FFF788FF0023E36377
:101FD00010BD13F0800F02D011F0800F06D113F066
:101FE000400F02D011F0400F04D110BD2046FFF782
:101FF00016FD10BD2046FFF719FFF6E70120000887
:1020000008B5806B0023C385C384FFF767FF08BD55
:10201000842801D00330704700207047EFF305801B
:10202000003018BF0120704708B501F06BFA00209E
:1020300008BD08B5FFF7F2FF10B901F0A9FA08BD15
:1020400001F0ACFA08BDF0B585B00F4644680568EC
:102050000669B0F90800FFF7DBFF03AB01930090BE
:102060003B46B2B22946204601F01AFA012802D1B5
:10207000039805B0F0BD0020FBE708B5034600B9A2
:102080000123184601F0A0FB002008BD08B501207F
:1020900000F07CFE08BD000030B583B00023019342
:1020A00060B30C460546B1F1FF3F0DD001B91C46A7
:1020B000FFF7B4FFB8B101AA0021284601F016F8D5
:1020C000012804D0FF2017E04FF0FF34F0E7019B18
:1020D000B3B14FF080520C4B1A60BFF34F8FBFF378
:1020E0006F8F002008E0002322461946284600F0A2
:1020F00025FF012806D0FF2003B030BD8020FBE77C
:102100000020F9E70020F7E704ED00E010B582B009
:10211000044600230193FFF781FFA0B101A92046E7
:1021200000F0AEFE012802D0FF2002B010BD019BDE
:10213000ABB14FF080520B4B1A60BFF34F8FBFF320
:102140006F8F0020F1E700231A461946204600F061
:102150004DFD012801D0FF20E7E70020E5E7002042
:10216000E3E700BF04ED00E010B501290DD1032223
:102170000021012000F016FD044620B100231A467C
:10218000194600F033FD204610BD0024FBE7000097
:1021900030B583B00023019360B30C460546B1F11E
:1021A000FF3F0DD001B91C46FFF738FFB8B101AAB7
:1021B0000021284600F09AFF012804D0FF2017E0F4
:1021C0004FF0FF34F0E7019BB3B14FF080520C4B5E
:1021D0001A60BFF34F8FBFF36F8F002008E000231A
:1021E00022461946284600F0A9FE012806D0FF2005
:1021F00003B030BD8020FBE70020F9E70020F7E7BF
:1022000004ED00E010B582B0044600230193FFF70F
:1022100005FFA0B101A9204600F032FE012802D03E
:10222000FF2002B010BD019BABB14FF080520B4BB1
:102230001A60BFF34F8FBFF36F8F0020F1E70023C9
:102240001A461946204600F0D1FC012801D0FF2093
:10225000E7E70020E5E70020E3E700BF04ED00E04A
:1022600010B50446FFF7DAFE08B1822010BD204603
:1022700000F0CCFF002010BD08B5002241680068C6
:1022800000F090FC08BD000030B585B00446019117
:1022900000230393154602B90125FFF7BFFEA8B13D
:1022A000002303AA01A9204600F07BFD012801D0EC
:1022B000FF2014E0039BA3B14FF080520B4B1A6038
:1022C000BFF34F8FBFF36F8F002008E000232A4633
:1022D00001A9204600F08AFC012804D0FF2005B0A7
:1022E00030BD0020FBE70020F9E700BF04ED00E06F
:1022F00070B584B00446029100230193F9B10D46F4
:10230000164600230393B2F1FF3F21D002B91E46C7
:10231000FFF784FE10B303AA01A9284600F0E6FEE9
:10232000012818D000230093039B13B34FF0805271
:10233000164B1A60BFF34F8FBFF36F8F19E004ABDA
:10234000802243F8102D93E8070084E8070014E08A
:102350004FF0FF36DCE710230093E5E70023324619
:1023600001A9284600F0EAFD012809D05EB9002342
:1023700000939DE8070084E80700204604B070BD84
:1023800010230093F5E74023F2E700BF04ED00E0DF
:1023900010B50446FFF742FE18B9204600F001FFD1
:1023A00010BD204600F010FF10BD10B50446FFF729
:1023B00035FE08B1822010BD204600F027FF002026
:1023C00010BD00F1080343604FF0FF328260C3602C
:1023D0000361002303607047002303617047436873
:1023E0004B609A688A609A685160996008610368D6
:1023F00001330360704730B40D68B5F1FF3F02D080
:1024000000F1080202E0026904E01A4653681C6801
:10241000A542FAD253684B6099608A6051600861A6
:1024200003680133036030BC704703694268816808
:1024300091608268416851605A68904205D00022DC
:102440000261186801381860704782685A60F6E7C0
:102450000B4B1B68B3F1FF3F08D04FF0500383F3E1
:102460001188BFF36F8FBFF34F8FFEE74FF050031C
:1024700083F31188BFF36F8FBFF34F8FFEE700BF69
:102480000400002006480068006880F3088862B6EF
:1024900061B6BFF34F8FBFF36F8F00DF00BF000047
:1024A00008ED00E0DFF80C00016841F47001016004
:1024B0007047000088ED00E04FF0807340F8043C66
:1024C00021F0010140F8081C054B40F80C3C40F895
:1024D000202C6FF0020340F8243C4438704700BFC2
:1024E000512400080000000000000000000000006F
:1024F000074B19680868B0E8F04F80F30988BFF30C
:102500006F8F4FF0000080F311887047AFF30080A9
:10251000503C00204FF0500383F31188BFF36F8FBE
:10252000BFF34F8F0A4A136801331360012B0DD19B
:10253000084B1B6813F0FF0F08D04FF0500383F3D4
:102540001188BFF36F8FBFF34F8FFEE7704700BF57
:102550000400002004ED00E0094B1B6843B94FF074
:10256000500383F31188BFF36F8FBFF34F8FFEE7E4
:10257000013B034A13600BB983F31188704700BF16
:102580000400002000000000000000000000000027
:10259000EFF30980BFF36F8F154B1A681EF0100F11
:1025A00008BF20ED108A20E9F04F10604DF8043D7F
:1025B0004FF0500080F31188BFF34F8FBFF36F8F40
:1025C00001F06CF94FF0000080F3118808BC196825
:1025D0000868B0E8F04F1EF0100F08BFB0EC108A8A
:1025E00080F30988BFF36F8F704700BFAFF300809F
:1025F000503C002008B54FF0500383F31188BFF31F
:102600006F8FBFF34F8F00F0D1FF18B14FF08052A2
:10261000024B1A60002383F3118808BD04ED00E02B
:10262000064B1B68064AA2FB03239B09013B054A94
:1026300013600722044B1A60704700BF100000208F
:10264000D34D621014E000E010E000E0314B1A6856
:10265000314B9A421AD02F4B1A68304B9A421ED0F7
:1026600000B583B02E4B1A78D2B20192FF221A70B5
:102670001B78DBB28DF803309DF8033003F0500374
:10268000284A13700722284B1A601BE04FF05003B2
:1026900083F31188BFF36F8FBFF34F8FFEE74FF0C7
:1026A000500383F31188BFF36F8FBFF34F8FFEE7A3
:1026B0001D4A1368013B13609DF803305B00DBB2D9
:1026C0008DF803309DF8033013F0800FF0D1164AD7
:1026D00013681B0203F4E0631360019BDBB2104A32
:1026E0001370124B1A6842F470021A601A6842F0B2
:1026F00070421A60FFF794FF00220D4B1A60FFF73B
:10270000D1FE0C4A136843F040431360FFF7BAFE52
:10271000FFF79EFE00ED00E071C20F4170C20F4155
:1027200000E400E0300000203400002020ED00E054
:102730000400002034EF00E0EFF305830F2B0FD9E6
:10274000104A9B5CDBB2104A1278934208D24FF0D9
:10275000500383F31188BFF36F8FBFF34F8FFEE7F2
:102760000A4B1B6803F4E063094A1268934208D9D4
:102770004FF0500383F31188BFF36F8FBFF34F8F78
:10278000FEE77047F0E300E0300000200CED00E0D1
:1027900034000020124A12F0070F1ED0D11D21F084
:1027A0000701C1F5705313440A460E480260002128
:1027B00041601344083B23F007030B480360596052
:1027C0001960991A51601360084B1960084B196021
:1027D0004FF00042074B1A6070474FF47053E4E724
:1027E0003C000020483C002038000020443C0020F1
:1027F000403C00203C3C002010B4134B1A6882423D
:102800001BD359685C18A04203D140680144596049
:10281000184641684418A24213D10C4C2468A242C5
:102820000DD05268114441601A68126802609842E3
:1028300000D018605DF8044B70471346DEE7046073
:10284000F5E70260F3E700BF483C002038000020B5
:1028500070B5044600F094FE3A4B1B68BBB13A4B8E
:102860001B681C4263D1ACB1083414F0070F11D0BF
:1028700024F00704083404F007035BB14FF0500361
:1028800083F31188BFF36F8FBFF34F8FFEE7FFF71E
:1028900081FFE4E7002C4CD02C4B1B689C424AD8AB
:1028A0002B4B1D6801E02B4615466A68944202D9FD
:1028B0002A68002AF7D1234A126895423DD01E6843
:1028C00008362A681A606B681B1B102B10D9281950
:1028D00010F0070F08D04FF0500383F31188BFF3B7
:1028E0006F8FBFF34F8FFEE743606C60FFF784FF8D
:1028F0006A6816490B689B1A0B60164909688B4277
:1029000001D214490B60104B1B6813436B6000230A
:102910002B6000F0DBFE16F0070F10D04FF05003D5
:1029200083F31188BFF36F8FBFF34F8FFEE700264D
:10293000EFE70026EDE70026EBE70026E9E7304663
:1029400070BD00BF380000203C3C0020403C00200F
:10295000483C0020443C002080B338B50446A0F138
:10296000080550F8042C164909680A4208D14FF0AE
:10297000500383F31188BFF36F8FBFF34F8FFEE7D0
:1029800050F8080C40B14FF0500383F31188BFF3A7
:102990006F8FBFF34F8FFEE722EA010244F8042C49
:1029A00000F0EEFD54F8041C064A13680B44136053
:1029B0002846FFF721FF00F089FE38BD704700BFB1
:1029C0003C3C0020403C002010B50446FFF7A2FD2F
:1029D000A26BE36B9A4204D00024FFF7BDFD2046B2
:1029E00010BD0124F9E710B50446FFF793FDA36B72
:1029F00023B10024FFF7B0FD204610BD0124F9E704
:102A000070B504461646856B026C4AB9036853BB21
:102A1000406801F0ADF8002363600135A56370BD27
:102A20006EB980680AF019F9226CA3681344A36098
:102A30006268934219D32368A3600020EDE7C06861
:102A40000AF00BF9236C5B42E2681A44E2602168E9
:102A50008A4202D262681344E360022E07D145B174
:102A6000013D0020D9E70020D7E70020D5E700206E
:102A7000D3E70020D1E7026C72B110B50346C468F9
:102A80001444C4604068844201D31868D860084682
:102A9000D9680AF0E2F810BD704738B50546FFF76F
:102AA00039FD95F8454064B201E0013C64B2002C68
:102AB0000ADD6B6A43B105F1240000F055FF0028E0
:102AC000F3D000F0EDFFF0E7FF2385F84530FFF786
:102AD00043FDFFF71FFD95F8444064B201E0013C5F
:102AE00064B2002C0ADD2B6943B105F1100000F03F
:102AF0003BFF0028F3D000F0D3FFF0E7FF2385F879
:102B00004430FFF729FD38BD38B530B304460D46D3
:102B1000FFF700FD2168E26B236C03FB021060608D
:102B20000020A063A160013A02FB0313E360FF23CE
:102B300084F8443084F84530C5B92369F3B104F111
:102B4000100000F011FFC8B14FF080520D4B1A6019
:102B5000BFF34F8FBFF36F8F10E04FF0500383F33D
:102B60001188BFF36F8FBFF34F8FFEE704F11000A2
:102B7000FFF727FC04F12400FFF723FCFFF7ECFC30
:102B8000012038BD04ED00E010B5029B0C4639B1C0
:102B90001A60D8631C6401211846FFF7B5FF10BD09
:102BA0001B60F6E740B94FF0500383F31188BFF381
:102BB0006F8FBFF34F8FFEE7F0B583B0054611B1BD
:102BC00001FB00F000E0002017460C464830FFF7FC
:102BD0003FFE064638B100903B4600F148022146D0
:102BE0002846FFF7D1FF304603B0F0BDF0B585B001
:102BF000019260B1044699B10125BDB94FF050036F
:102C000083F31188BFF36F8FBFF34F8FFEE74FF051
:102C1000500383F31188BFF36F8FBFF34F8FFEE72D
:102C2000026C0AB90125E8E70025E6E7022B09D086
:102C30006DB94FF0500383F31188BFF36F8FBFF36B
:102C40004F8FFEE7E26B012AF2D00025F0E71E4627
:102C50000F4600F02BFF10B9019B03B1002545B9C9
:102C60004FF0500383F31188BFF36F8FBFF34F8F83
:102C7000FEE700252CE0324639462046FFF7C0FE2D
:102C8000636A8BB104F1240000F06EFE38B14FF09E
:102C90008052374B1A60BFF34F8FBFF36F8FFFF730
:102CA0005BFC012005B0F0BD0028F8D04FF0805249
:102CB0002F4B1A60BFF34F8FBFF36F8FEFE7FFF714
:102CC0004BFC0020EEE72046FFF7E7FE00F0FEFC9D
:102CD000FFF720FCA26BE36B9A42CCD3022ECAD042
:102CE000019B002BEBD01DB902A800F083FE01254B
:102CF000FFF732FC00F044FCFFF70CFC94F8443082
:102D00005BB2B3F1FF3F02D1002384F8443094F862
:102D100045305BB2B3F1FF3F02D1002384F8453068
:102D2000FFF71AFC01A902A800F07AFEC8B92046F4
:102D3000FFF74AFE0028C6D0019904F1100000F008
:102D4000FBFD2046FFF7A9FE00F0C0FC0028BFD124
:102D50004FF08052064B1A60BFF34F8FBFF36F8F57
:102D6000B6E72046FFF799FE00F0B0FC002099E797
:102D700004ED00E048B108B5002141600160C16088
:102D80000B460A46FFF732FF08BD704710B50246F2
:102D900000210120FFF706FF0446FFF7EBFF204666
:102DA00010BD2DE9F84360B1044699B10120B8B9CE
:102DB0004FF0500383F31188BFF36F8FBFF34F8F32
:102DC000FEE74FF0500383F31188BFF36F8FBFF31B
:102DD0004F8FFEE7006C08B90120E8E70020E6E726
:102DE000022B09D068B94FF0500383F31188BFF369
:102DF0006F8FBFF34F8FFEE7E56B012DF2D0002000
:102E0000F0E71F4690468946FFF796FCEFF31186E0
:102E10004FF0500383F31188BFF36F8FBFF34F8FD1
:102E2000A26BE36B9A4201D3022F21D194F8455053
:102E30006DB23A4649462046FFF7E2FDB5F1FF3F45
:102E400010D1636AB3B104F1240000F08DFD98B194
:102E5000B8F1000F12D00120C8F8000086F31188E5
:102E6000BDE8F8836B1C5BB284F845300120F5E7C0
:102E70000020F3E70120F1E70120EFE70120EDE773
:102E800060B170B50446036C8BB14FF0500383F30F
:102E90001188BFF36F8FBFF34F8FFEE74FF05003E2
:102EA00083F31188BFF36F8FBFF34F8FFEE7036883
:102EB00053B1012373B94FF0500383F31188BFF36B
:102EC0006F8FBFF34F8FFEE743680BB90123F1E724
:102ED0000023EFE70E46FFF72FFCEFF311854FF0CD
:102EE000500383F31188BFF36F8FBFF34F8FA26B33
:102EF000E36B9A421AD294F845305BB20132A26376
:102F0000B3F1FF3F0CD1636A93B104F1240000F0E8
:102F10002BFD78B186B10120306085F3118870BD3A
:102F200001335BB284F845300120F6E70020F4E776
:102F30000120F2E70120F0E70120EEE72DE9F04162
:102F400084B0019260B1044699B10125BDB94FF03A
:102F5000500383F31188BFF36F8FBFF34F8FFEE7EA
:102F60004FF0500383F31188BFF36F8FBFF34F8F80
:102F7000FEE7026C0AB90125E8E70025E6E71F46EF
:102F8000884600F093FD10B9019B03B1002545B9B7
:102F90004FF0500383F31188BFF36F8FBFF34F8F50
:102FA000FEE700265DE0E66841462046FFF763FD48
:102FB000DFB9013DA563236813B900F033FE6060FB
:102FC000236963B104F1100000F0CEFC38B14FF07A
:102FD0008052454B1A60BFF34F8FBFF36F8FFFF7DF
:102FE000BBFA012004B0BDE8F081E660636A002B03
:102FF000F5D004F1240000F0B7FC0028EFD04FF02A
:103000008052394B1A60BFF34F8FBFF36F8FE6E7E3
:10301000FFF7A2FA0020E5E702A800F0EBFC01268A
:1030200029E0002384F8443031E0002384F845305F
:1030300033E0FFF76FFA606800F048FDFFF78CFAA5
:103040003BE02046FFF729FD00F040FB09E0204669
:10305000FFF723FD00F03AFB2046FFF7C4FC0028F1
:1030600040D1FFF757FAA56B002D9CD1019B002B97
:10307000CED0002ED0D0FFF76FFA00F081FAFFF724
:1030800049FA94F844305BB2B3F1FF3FC9D094F8E9
:1030900045305BB2B3F1FF3FC7D0FFF75DFA01A93E
:1030A00002A800F0BDFC0028D1D12046FFF79BFC10
:1030B0000028C6D02368002BBBD0019904F124005E
:1030C00000F03AFC2046FFF7E8FC00F0FFFA002889
:1030D000C7D14FF08052044B1A60BFF34F8FBFF33C
:1030E0006F8FBEE700207DE704ED00E02DE9F84397
:1030F00060B1044699B10123BBB94FF0500383F38B
:103100001188BFF36F8FBFF34F8FFEE74FF050036F
:1031100083F31188BFF36F8FBFF34F8FFEE7036C0C
:103120000BB90123E8E70023E6E717468946FFF7D6
:1031300003FBEFF311864FF0500383F31188BFF3C5
:103140006F8FBFF34F8FD4F83880B8F1000F20D0C5
:1031500094F844506DB249462046FFF78CFC08F1C4
:10316000FF33A363B5F1FF3F0DD123699BB104F198
:10317000100000F0F9FB80B18FB10120386086F3B8
:103180001188BDE8F8836B1C5BB284F844300120E1
:10319000F5E70020F3E70120F1E70120EFE7012048
:1031A000EDE740B94FF0500383F31188BFF36F8F01
:1031B000BFF34F8FFEE710B50446FFF7ABF9A46BE2
:1031C000FFF7CAF9204610BD08B1806B70474FF079
:1031D000500383F31188BFF36F8FBFF34F8FFEE768
:1031E0000023072B0FD8084A02EBC3025268824221
:1031F00001D00133F5E7044A002142F8331002EB15
:10320000C3035960704770472C42002040B94FF00B
:10321000500383F31188BFF36F8FBFF34F8FFEE727
:1032200010B50446FFF7DCFF2046FFF795FB10BD05
:103230000A4B1B681B684BB901234BB9074B1B6832
:10324000DB68DB685A68064B1A6070470023F4E7B6
:103250004FF0FF32024B1A60704700BF543C002011
:103260002C3D002010B50446006BFFF775FB20468F
:10327000FFF772FB10BD2DE9F04780469946089D87
:10328000099F0A9C266B02F18042013A06EB8206F6
:1032900026F0070600230F2B07D8C85CE21882F837
:1032A0003400CA5C0AB10133F5E7002384F84330E7
:1032B000062D00D90625E56265644FF0000AC4F8C2
:1032C00048A0201DFFF788F804F11800FFF784F8E4
:1032D0002461C5F10705A5616462C4F84CA084F8B7
:1032E00050A04A4641463046FFF7E6F8206007B155
:1032F0003C60BDE8F087000038B5002407E004EB2F
:10330000840293000E481844FFF75BF80134062C42
:10331000F5D90C4D2846FFF754F80B4C2046FFF723
:1033200050F80A48FFF74DF80948FFF74AF80948EE
:10333000FFF747F8084B1D60084B1C6038BD00BF05
:103340005C3C0020003D0020143D0020343D002066
:10335000603D00204C3D0020543C0020583C0020A3
:1033600010B50446FFF7D6F8204A136801331360FE
:103370001F4B1B68002B31D01E4B1B683BB91C4BED
:103380001B68DA6AE36A9A4201D8194B1C601A4A30
:10339000136801331360E36A01229A4017490868F1
:1033A00002430A6003EB83039A00211D1448104472
:1033B000FFF715F8FFF7D0F80E4B1B686BB10C4BFD
:1033C0001B68DA6AE36A9A4207D24FF080520D4BCB
:1033D0001A60BFF34F8FBFF36F8F10BD044B1C609B
:1033E0001368012BD3D1FFF787FFD0E7E83C00201B
:1033F000503C0020483D0020F83C0020FC3C0020D0
:103400005C3C002004ED00E070B504460E461D4B08
:103410001D681D4B18680430FFF707F850B91A4BA8
:103420001B68DA6A012303FA02F218490B6823EADF
:1034300002030B60B4F1FF3F13D02C44124B1B6806
:103440005C60A54216D8124B18680F4B19680431FE
:10345000FEF7D1FF0F4B1B689C4201D20D4B1C6045
:1034600070BD002EE9D0084B196804310A48FEF7F8
:10347000B6FF70BD094B1868034B19680431FEF79D
:10348000BAFF70BD743D0020503C0020FC3C002081
:10349000543C00202C3D00204C3D0020583C002096
:1034A0002DE9F04385B006460F4615469846900034
:1034B000FFF7CEF900B381465420FFF7C9F904465F
:1034C000B0B1C0F83090CCB10023039302940D9BAF
:1034D00001930C9B009343462A4639463046FFF73A
:1034E000CAFE2046FFF73CFF012005B0BDE8F0838F
:1034F0004846FFF731FAE6E70024E4E74FF0FF30F3
:10350000F3E7000000B583B0174B0193002300934D
:103510004FF4807215491648FFF7C2FF012805D005
:10352000B0F1FF3F17D003B05DF804FB4FF050033C
:1035300083F31188BFF36F8FBFF34F8F4FF0FF32CC
:103540000C4B1A6001220C4B1A6000220B4B1A60C4
:10355000FFF77CF8E7E74FF0500383F31188BFF3E0
:103560006F8FBFF34F8FFEE7283D0020E4CC0008AB
:10357000753800082C3D0020483D0020743D002097
:10358000024A136801331360704700BFF43C002007
:10359000014B1868704700BF743D002008B5FFF765
:1035A000CBF8014B186808BD743D0020F8B53C4BC2
:1035B0001B68002B68D13B4B1D6801351D60C5B9E8
:1035C000394B1B681B6843B14FF0500383F31188DC
:1035D000BFF36F8FBFF34F8FFEE7334A1168334B52
:1035E000186810601960324A136801331360FFF7DE
:1035F0001FFE304B1B689D423AD200242E4B1B68A5
:10360000DB6A03EB83039A002C4B9B58012B40D9B8
:1036100001243EE00124244B1B681B6853B30023A4
:1036200053BB214B1B68DB68DE6873689D4228D35F
:10363000371D3846FEF7F9FEB36A1BB106F11800D4
:10364000FEF7F3FEF36A01229A401D49086802431F
:103650000A6003EB83039A00394618481044FEF7CA
:10366000BEFEF26A144B1B68DB6A9A42D2D2D2E7E2
:103670000024D0E70123D3E74FF0FF320D4B1A604F
:10368000BCE70C4A1360B9E70E4A136801331360B4
:1036900000240D4B1B6803B101242046F8BD00BF78
:1036A000F43C0020743D0020543C0020583C002095
:1036B000303D00202C3D0020503C00205C3C002090
:1036C000FC3C0020F03C0020783D002038B5354B14
:1036D0001B6843B94FF0500383F31188BFF36F8F1A
:1036E000BFF34F8FFEE7FEF715FF2E4B1A68013A26
:1036F0001A601B68002B50D12B4B1B6823B9002488
:10370000FEF72AFF204638BD0024284B1B681BB358
:10371000264BDB68DC6804F11800FEF786FE251DE9
:103720002846FEF782FEE36A01229A402049086893
:1037300002430A6003EB83039A0029461D481044A4
:10374000FEF74DFEE26A1C4B1B68DB6A9A42DCD333
:1037500001221A4B1A60D8E70CB1FFF769FD184B2C
:103760001C6874B9154B1B68CBB14FF08052154BD8
:103770001A60BFF34F8FBFF36F8F0124C0E7013C86
:1037800007D0FFF713FF0028F9D001220B4B1A6076
:10379000F5E700220A4B1A60E4E70024B0E70024B2
:1037A000AEE700BFF43C0020E83C0020343D0020A0
:1037B000FC3C00205C3C0020503C0020783D002078
:1037C000F03C002004ED00E010B5A8B10446104B19
:1037D0001B6843B14FF0500383F31188BFF36F8F21
:1037E000BFF34F8FFEE7FFF7CBFE00212046FFF728
:1037F0000BFEFFF76BFF00E0002038B94FF080525E
:10380000044B1A60BFF34F8FBFF36F8F10BD00BF23
:10381000F43C002004ED00E0134B1B6813B310B51B
:10382000FFF7AEFE114B1C68FFF750FF24B90E4B9B
:103830001B68002BF4D110BDFEF76CFE0B4BDB6850
:10384000DC68201DFEF7F1FD094A1368013B136097
:10385000054A1368013B1360FEF77EFE2046FFF722
:1038600001FDE4E7704700BFEC3C0020603D002014
:10387000E83C002008B5FFF7CFFF064B1B68012B83
:10388000F9D94FF08052044B1A60BFF34F8FBFF34A
:103890006F8FF0E75C3C002004ED00E0214B1B68DB
:1038A000C3B90022204B1A60204B1B68B3FA83F384
:1038B000DBB2C3F11F0303EB83018A001C498A5862
:1038C00062B94FF0500383F31188BFF36F8FBFF3DA
:1038D0004F8FFEE70122144B1A60704710B4144852
:1038E0009A00D418A10001444C6864684C601A44E2
:1038F00091000831084484420BD003EB83039A0003
:103900000B4B13445B68DA680A4B1A605DF8044B92
:103910007047606803EB83029100054A0A445060D7
:10392000EBE700BFF43C0020783D0020FC3C002089
:103930005C3C0020503C002040B94FF0500383F322
:103940001188BFF36F8FBFF34F8FFEE710B50C46A2
:10395000044B19681831FEF74EFD01212046FFF790
:1039600053FD10BD503C002038B5C368DC6824B35B
:1039700004F118052846FEF758FD184B1B682BBBB1
:10398000251D2846FEF751FDE36A01229A4014499D
:10399000086802430A6003EB83039A002946114832
:1039A0001044FEF71CFDE26A0F4B1B68DB6A9A426B
:1039B00011D901200D4B186038BD4FF0500383F32F
:1039C0001188BFF36F8FBFF34F8FFEE7294608487A
:1039D000FEF705FDE7E7002038BD00BFF43C0020FE
:1039E000FC3C00205C3C0020503C0020783D002046
:1039F000343D002030B1084A12680260074A12685C
:103A0000426070474FF0500383F31188BFF36F8F0C
:103A1000BFF34F8FFEE700BF303D0020743D002014
:103A200038B5C0B10446F9B10D46FEF773FD1A4B27
:103A300019682B68B3F1FF3F2AD02068174A126833
:103A4000904202D06268914224D26268881A83420E
:103A500013D8012418E04FF0500383F31188BFF30B
:103A60006F8FBFF34F8FFEE74FF0500383F3118842
:103A7000BFF36F8FBFF34F8FFEE7521A13442B60D3
:103A80002046FFF7B7FF0024FEF766FD204638BD4D
:103A90000024F9E70124F7E7743D0020303D0020C1
:103AA0000122014B1A607047783D0020054B1B68CE
:103AB00023B1054B1B681BB90220704701207047DA
:103AC00000207047483D0020F43C0020002847D0EB
:103AD00038B50446C36A23490968C96A8B4216D2BD
:103AE0008169002905DB1F490968C96AC1F107011D
:103AF0008161606903EB830399001B4B0B4498427F
:103B000006D0002333B9174B1B68DB6AE36238BD6C
:103B10000123F7E7251D2846FEF787FC68B9E36A0D
:103B200003EB83018A0010498A5832B901229A4076
:103B30000E490B6823EA02030B600A4B1B68DB6A21
:103B4000E36201229A400949086802430A6003EBD4
:103B500083039A00294604481044FEF740FC38BD10
:103B6000704700BF503C00205C3C0020FC3C002023
:103B700000284AD038B50446274A1268904208D037
:103B80004FF0500383F31188BFF36F8FBFF34F8F54
:103B9000FEE7826C42B94FF0500383F31188BFF304
:103BA0006F8FBFF34F8FFEE7013A8264C06A616C8A
:103BB00088422CD06ABB251D2846FEF736FC70B91A
:103BC000E26A02EB82018B001449CB583BB9012316
:103BD00003FA02F212490B6823EA02030B60636CDA
:103BE000E362C3F10702A261012404FA03F20C4963
:103BF000086802430A6003EB83039A0029460748DA
:103C00001044FEF7ECFB204638BD00207047002032
:103C100038BD002038BD00BF503C00205C3C002077
:103C2000FC3C0020054B1B6823B1044B1A68936CC5
:103C300001339364014B1868704700BF503C00206B
:103C400010B50C460A680C3201F026FC034608B990
:103C500094F90430184610BD00B587B060B10190EA
:103C60008DF80C1029238DF80D3001A90748FFF7B6
:103C7000E7FF07B05DF804FB054B4FF44A720549B6
:103C8000054808F0C6FD6FF00F00F2E77951000813
:103C900048CD00087CCD000898CD000870B586B0EE
:103CA00000230593B1B104460D4600230B60D8B143
:103CB000037803F0F003102B20D004F110063046F7
:103CC00007F0AEFF40B394F9080010F10C0F2DDAA5
:103CD00006B070BD3A4B40F2E7123A493A4808F054
:103CE00098FD6FF00F00F3E7354B40F2E9123749CA
:103CF000354808F08EFD6FF00F00E9E7103007F04F
:103D00008FFF0028D9D104F1140007F089FF0028A3
:103D100053D06FF00A00DBE7294B40F2F5122C4933
:103D2000294808F076FD6FF00A00D1E7002205A9C6
:103D3000304607F036FF237803F0F003102B0ED047
:103D4000059B002B31D0059B1B681A89A36A13B110
:103D5000012120469847059B2B600020B8E700947E
:103D6000059B4BB11B89029369461A48FFF768FF10
:103D7000059B23B11A89E9E701230293F4E7A36ABB
:103D80001BB10022012120469847636833B994F99A
:103D9000080000289CD16FF00D0099E70121204612
:103DA000FFF75AFF6FF00E0092E7054B40F23E22FC
:103DB0000949054808F02DFDC5E76FF00E0087E7BB
:103DC00048CD00085CCE000898CD00087CCE0008E5
:103DD00098CE000821500008B8CE000870B586B013
:103DE0000D46114600F068FE044640B18DF80C50B7
:103DF00006A941F8140D2048FFF722FF10B920460C
:103E000006B070BD63682BB11C4B89221C491D484C
:103E100008F0FFFC04F11005284607F001FFB0B1DF
:103E200004F1140007F0FCFEC0B904F10C063046A2
:103E300007F040FFC8B1304607F037FF284607F0CB
:103E400091FE2146072003F03FFA0024D7E70B4BF1
:103E50008A220D490B4808F0DCFCE1E7074B8C2275
:103E60000A49084808F0D5FCDFE7044B8F220849CF
:103E7000044808F0CEFCDEE7854A000848CD00087B
:103E8000E0CD000898CD000804CE00081CCE000844
:103E900040CE000830B587B088B104460190292390
:103EA0008DF80D3001A90748FFF7CAFE054610B18D
:103EB000284607B030BD204600F044FEF8E7002554
:103EC000F6E700BF614D000800B587B060B103465A
:103ED00099B101930391ADF8102001A90848FFF7AB
:103EE000AFFE07B05DF804FB064BFF22064907480A
:103EF00008F08FFC6FF00F00F3E70549E9E700BF1A
:103F0000CD4E000848CD00082CCD000898CD000803
:103F100060F6000800B587B040B106A941F8140D5D
:103F20000748FFF78DFE07B05DF804FB054B4FF423
:103F3000B4720549054808F06CFC6FF00F00F2E719
:103F4000314F000848CD0008C0CD000898CD0008CA
:103F500070B582B059B104460D4600230B6080B1A4
:103F600090F9080010F10C0F15DA02B070BD214B6A
:103F700040F28D122049214808F04BFC6FF00F00F1
:103F8000F3E71C4B40F28F121D491C4808F041FC1E
:103F90006FF00F00E9E704F11406304607F040FE29
:103FA00008B3002201A9304607F0FBFD019EA36A79
:103FB0001BB10022012120469847124B019A9A42D8
:103FC00014D016B12E600020CFE707F0B9FE94F9A7
:103FD000083013F10C0F01DBF123237207F0BCFE54
:103FE0006FF00E00C1E76FF00E00BEE76FF00C003F
:103FF000BBE700BF48CD0008ECCC000898CD000816
:104000000CCD00086C42002070B582B079B1044636
:104010000D4600230B60A0B1037803F0F003102BD2
:1040200019D0FFF73BFE0446204602B070BD1E4B80
:104030004FF41D721D491E4808F0EBFB6FF00F0492
:10404000F2E7194B40F276221A49194808F0E1FBD1
:104050006FF00F04E8E700230193062003F01AF93C
:104060000646E8B101A92046FFF718FE044650B9FC
:10407000019B6BB1019B3360019B73600023B38193
:10408000B3602E60D0E73146062003F01DF9CBE780
:10409000054B40F28A220849054808F0BAFBE9E7D7
:1040A0004FF0FF34C0E700BF48CD00085CCE0008E9
:1040B00098CD00087CCE00088CD00008F0B587B001
:1040C0000C9D88B116460446027802F0F002102AD0
:1040D00014D1002E35D0027F12F0020F18D113F048
:1040E000040F29D0012214E0194B40F2E6221949AD
:1040F000194808F08EFB6FF00F0323E0144B40F2D9
:10410000E7221649144808F084FB6FF0050319E014
:10411000012202F0FF0702B1BDB1019403918DF8B5
:104120001430049601A90E48FFF78AFD034648B9EA
:1041300045B11FB92E6005E00022EAE7049A2A6023
:1041400000E00023184607B0F0BD6FF00503F9E763
:1041500048CD0008C4CE000898CD0008E0CE000885
:104160007950000808B50321FFF776FD08BD00006F
:104170002DE9F0410446164698460D46002930D0F8
:10418000002C35D0002C3AD063689D4205D0274BD7
:10419000BA222749274808F03CFB04F110073846AB
:1041A00007F03EFD80B3062003F074F8054680B3A7
:1041B00006604660B8F1000F30D0D8F80030AB6030
:1041C000BDF81830AB8136892946384607F0DFFC48
:1041D00030BBA36A1BB13246002120469847BDE898
:1041E000F081124BB1221449124808F012FBC7E7C4
:1041F0000E4BB22211490F4808F00BFBC2E73046C4
:1042000003F038FABDE8F081304603F033FABDE838
:10421000F081304603F02EFABDE8F0810023CEE7AE
:10422000284601F021F8BDE8F08100BF4CD200081B
:10423000C4D2000898CD000880D20008A4D200089B
:1042400010B501464468204603F023FF0849204684
:1042500003F022FF0749204603F038FF02220649F7
:10426000204603F06DFF0549204603F047FF10BDCF
:10427000B549000841490008BD4800080943000845
:1042800038B5044603685B6833B11B4B4FF40B72BF
:104290001A491B4808F0BDFA25682B7803F0F00393
:1042A000102B18D0202B21D1002007F09FFB686035
:1042B00023685A6842B11B78222B09D023681A461A
:1042C0001049586807F064FB23685B688BB138BD00
:1042D00001231374F2E7002004F0A4FC6860206856
:1042E0004368002BF0D0FFF7ABFFEDE7FA23237113
:1042F00038BDFF232371EAE74CD20008C8D100087B
:1043000098CD000871410008F8B50E460446002813
:1043100038D00023636065786370042D3AD007F0CD
:104320000FFD267207F018FDA36A1BB100220421BD
:1043300020469847A36A1BB10022114620469847A1
:10434000A36A1BB1002202212046984704F11007FE
:10435000384607F065FC68BB04F11407384607F0DF
:104360005FFC60BB012D2FD0042D2DD0032D2BD051
:10437000636A33B12E4B40F2BD122E492E4808F02D
:1043800048FAF8BD2A4B4FF4C2722C492A4808F06B
:1043900040FABEE764B107F0D3FC94F9083013F19A
:1043A0000C0F01DB0023237207F0D6FC0026BBE7CD
:1043B0000026B9E70021384607F0E9FBCCE70021E9
:1043C000384607F0E4FBCDE7237F23F00402227791
:1043D00013F0040FD5D1636ACBB1636A1E71636AAF
:1043E0001D680C35284607F065FCC0B100236362E8
:1043F0004CB107F0A5FC94F9083013F10C0F00DB69
:10440000267207F0A9FC284607F04AFCF8BD084BC5
:1044100040F2B3120A49084808F0FBF9DDE7044B03
:104420004FF4DB720749044808F0F3F9DEE700BFF8
:104430004CD200084CCF000898CD000804CF0008EB
:1044400014CF000830CF00082DE9F8438846044611
:10445000F0B16378012B06D07B4B40F2E4527B49EC
:104460007B4808F0D6F9636AD3B1636803B3226A64
:10447000636ADB689A4223D2626A92F81090237FC3
:1044800013F0020F24D119F0040F39D0012620E0D7
:104490006D4B40F2E3526F496D4808F0BAF9D8E726
:1044A000694B40F2E5526C49694808F0B2F9DCE723
:1044B000654B40F2E6526949654808F0AAF9D6E72B
:1044C000614B4FF4BD626649614808F0A2F9D3E739
:1044D0000126F6B29768236A1F44D268D51AB5F54B
:1044E000803F0FD349F002094FF6FF756168B1F8BC
:1044F00060108D420BD93EB1002939D00D4606E03F
:104500000026E6E7ADB2F1E749F002090D462B447B
:104510009A4225D34B462A463946606806F06EF922
:104520000746431CDBB2012B25D9002F46D1236A55
:104530001D442562636ADA68954200D00EB1DD60E1
:104540000126606806F008FD10F10C0F02DB10F187
:10455000040F3AD1636A0022DA600746012634E08C
:10456000394B40F213623F49394808F052F9D1E71C
:104570000D466FF0060776B1636ADB689D420AD28A
:10458000A36A1BB12A46032120469847237F43F0A4
:1045900010032377C9E76368B3F8601040F2A152B3
:1045A000914203D9B3F86230042BBED9A36A002B21
:1045B000BBD02A46032120469847B6E7B7F1FF3F14
:1045C0001FD0636A0022DA600126002E37D0636AAA
:1045D000186800F10C051F71002363622362637089
:1045E0004CB107F0ADFB94F9083013F10C0F00DB70
:1045F000277207F0B1FBB8F1000F1AD10020BDE817
:10460000F883606806F0A8FC10F10C0F0BDB10F1CA
:10461000040F08D0002ED8D0636A0022DA60012689
:104620006FF00607D1E7636A0022DA6007460126C9
:10463000CBE7284607F034FB0020BDE8F8834FF0B5
:10464000FF30BDE8F88300BF4CD2000860D00008FE
:1046500098CD000804CF000814CF000880D00008CF
:1046600098D00008CCD000082DE9F04788460446D1
:10467000002835D0237803F0F003102B06D0834BAD
:104680004FF451728249834808F0C3F86378042BD1
:1046900006D07E4B40F245327F497E4808F0B9F89B
:1046A00063682BB3636A5BB36568636A1B7A03F064
:1046B000010A03F00209032B2AD0BAF1000F06D039
:1046C0002A7D531FDBB2012B3AD9082A3AD0B9F11F
:1046D000000F39D0AB7E13F0100F37D1002718E050
:1046E0006A4B40F243326D496A4808F092F8C1E7DC
:1046F000664B40F246326A49664808F08AF8D1E7CC
:10470000624B40F247326749624808F082F8CBE7D3
:104710000127EFB92B7D012B1FD0BAF1000F21D15A
:10472000B9F1000F27D15FBBA7B3284604F042F8C8
:104730000646002E42D0B6F1FF3F32D001233EE0C4
:104740000127E6E70127E4E70027E2E70127E0E7A2
:104750000021284603F09DFCDCE70021284603F0F9
:10476000E7FCE1E70021284603F096FC00212846FB
:1047700003F0DEFCD4E70021284603F0A7FCD2E7D3
:1047800000221146284603F0DBFC0021284603F0F6
:10479000B5FCC9E74A465146284604F0B3F8064638
:1047A000C7E7636A5B7A002B3FD10FB9012306E0AC
:1047B000284604F04FF93B46002600E00123002B79
:1047C0003AD0636A1D680C351E7100236362637002
:1047D000CEB937B16360A36A1BB100220421204621
:1047E0009847BAF1000F05D0A36A1BB10022114609
:1047F00020469847B9F1000F05D0A36A1BB10022EB
:104800000221204698474CB107F09AFA94F90830F3
:1048100013F10C0F00DB267207F09EFAB8F1000FBF
:1048200005D100263046BDE8F0870023C7E72846BB
:1048300007F036FA0026F5E72B7D012B19D0B9F1E8
:10484000000F1ED101221849284603F079FC1749B0
:10485000284603F053FC2146284603F01AFC002E9C
:10486000E0D10A4B40F2EF3211490A4807F0D1FF7C
:10487000D8E7064B40F2E3320E49064807F0C9FF7D
:10488000DDE70D49284603F021FCDBE74CD20008A8
:1048900068CF000898CD000888CF0008D0CD000868
:1048A000ACCF000814CF0008BD4800080943000839
:1048B000E4CF0008C0CF00084149000810B5044605
:1048C000F8B16378012B24D0042B27D0237F13F079
:1048D000100F14D0626892B1B2F8600040F2A1519A
:1048E00088420CD9B2F86220042A08D823F01003B9
:1048F0002377A36A1BB1002202212046984700209B
:1049000010BD0C4B4FF49C720B490C4807F081FF13
:10491000D7E701212046FFF797FDD7E7636A1BB170
:104920005A7A0AB1013A5A7201212046FFF79CFED9
:10493000CCE700BF4CD2000804CF000898CD000897
:1049400038B515460446E8B1D4B16378012B21D0BF
:10495000042B24D063689BB1B3F8601040F2A152DD
:1049600091420DD9B3F86230042B09D8237F23F08C
:1049700010032377A36A1BB12A46022120469847D9
:10498000002038BD084B40F261120849084807F082
:1049900040FFD9E701212046FFF756FDDAE7012164
:1049A0002046FFF761FED5E74CD2000804CF00088F
:1049B00098CD00082DE9F0410446154698460F466B
:1049C000E9B11CB3002C4AD063689F4206D0284B43
:1049D0004FF480722749284807F01BFF04F11006A6
:1049E000304607F01DF9C0B9002D3BD02989384663
:1049F00003F0E2FA284602F03DFE00251EE01C4BC3
:104A0000F9221E491C4807F004FFDAE7184BFA2286
:104A10001B49194807F0FDFED4E7B8F1000F10D18B
:104A2000DDB12F892946304607F0B1F80546D8B9DF
:104A3000A36A1BB13A460021204698472846BDE8A4
:104A4000F08107F07DF994F9083013F10C0F01DBC8
:104A500084F8088007F080F9E2E70027E2E76FF0CA
:104A60000505EBE70025E9E74FF0FF35E6E700BF76
:104A70004CD200082CD2000898CD0008E8D10008DC
:104A80000CD2000810B504460023037103685B686C
:104A90007BB1236863B107F053F9236893F90820C9
:104AA00012F10C0F02DB94F904201A7207F054F98A
:104AB00010BDFFF7E5FBECE770B505460E46072095
:104AC00002F0E8FB044618B300230372057043604C
:104AD00005F0F005102D01D0202D1BD104F110059B
:104AE0000621284607F02CF8D8B9002104F10C0063
:104AF00007F09FF8D8B904F1140007F097F80023E5
:104B000063704FF0FF32A261A66263622362237773
:104B1000204670BD084B4FF42A720849084807F038
:104B200078FE2146072002F0CFFB0024F0E728465C
:104B300007F018F8F5E700BF4CD20008F8D00008DD
:104B400098CD000838B50446436833B1164B4FF48E
:104B500038721649164807F05CFE04F1100007F0A1
:104B60005FF888B904F1140007F05AF8A0B904F10D
:104B70000C05284607F099F8284607F0A1F82146C9
:104B8000072002F0A1FB38BD074B40F2E2220949A1
:104B9000074807F03EFEE5E7034B40F2E5220649F1
:104BA000034807F036FEE2E74CD2000820D10008A7
:104BB00098CD000850D100088CD1000870B582B0A3
:104BC000054600F11004204607F02AF838BB1435DA
:104BD000284607F025F800283ED001A9284607F00E
:104BE0000CF8B0F1FF3F31D0019C1C4B9C42F4D03B
:104BF0002046FFF7E3FF606818B103F02BFF0023A6
:104C000063602046FFF79EFFE7E7019E3EB16868BC
:104C100010B1318903F0D0F9304602F02BFD01A923
:104C2000204606F0EAFFB0F1FF3F08D02B7803F0F2
:104C3000F003102BE9D0019800F016FBEFE72046B7
:104C400006F090FF204606F0F1FFC0E7284606F088
:104C500089FF284606F0EAFF02B070BD6C420020D2
:104C60002DE9F041002867D0044616460D4600F1B4
:104C70001408404606F0D4FF002860D0C5B1A16AF0
:104C80002078FFF719FF074610B34560FFF7D8FA01
:104C90003E723946404606F07AFF054630BBA36AAD
:104CA0001BB100221146204698472846BDE8F081F6
:104CB0002A49404606F06BFF002843D1A36A002B27
:104CC00043D000221146204698476FF00505ECE7D7
:104CD0002249404606F05BFFD0BBA36ADBB300224B
:104CE0001146204698474FF0FF35DEE77C680021EB
:104CF000204603F0CEF90021204603F0CDF9002133
:104D0000204603F0E3F900221146204603F018FA8A
:104D10000021204603F0F2F900237B6007F1100424
:104D2000204606F01FFF204606F080FF3846FFF7BA
:104D300009FF4FF0FF35B8E76FF00505B5E76FF0F5
:104D40000505B2E76FF00505AFE76FF00505ACE7C5
:104D50004FF0FF35A9E74FF0FF35A6E76C42002082
:104D600038B5044603685D785DB11B7803F0F00345
:104D7000102B06D04E4B40F201424E494E4807F0F0
:104D800048FDD5B1022D18D0032D16D0FB23237179
:104D900020680C3006F08EFF70B1236863B106F016
:104DA000CFFF236893F9082012F10C0F02DB94F96E
:104DB00004201A7206F0D0FF38BD032D27D0032D32
:104DC0002BD0002323712068FFF7F8FE226851687A
:104DD00079B1137803F0F003102B2BD0202B05D1E1
:104DE0000023CB612368586806F0D6FD23680022B3
:104DF0005A602068836A13B10022114698472068E0
:104E0000836A002BC4D0002202219847C0E72368A0
:104E10001B7F13F0040FD2D1B8E723681B7F13F078
:104E2000040FCED1224B40F21F422449224807F002
:104E3000F0FCC6E7536A002B36D01D4B40F23542DA
:104E40001F491D4807F0E5FC236804225A7003231C
:104E5000237223685C6200212068FFF705FC0028AC
:104E6000AAD023685B78042B06D0114B40F23B425A
:104E70001449114807F0CDFC134D284606F048FFB1
:104E8000206800210C3006F0EDFE284606F039FFC0
:104E900023685B78002B8FD0054B40F23F420949D5
:104EA000054807F0B6FC38BD136A002BCCD0C4E728
:104EB0004CD20008F4CF000898CD000808D00008B4
:104EC00028D0000844D000087042002010B50446E5
:104ED000036893F9082012F10C0F10DA02712368AD
:104EE00063B106F02DFF236893F9082012F10C0F2F
:104EF00002DB94F904201A7206F02EFF10BDFA228C
:104F0000027158680028EAD01B7803F0F003102BD8
:104F100007D0202BE3D1A289A16806F0F7FC20710D
:104F2000DDE7A289A16802F059FF2071D7E70000F0
:104F300030B583B00446036893F9082012F10C0FD2
:104F400011DA0271236863B106F0FAFE236893F95F
:104F5000082012F10C0F02DB94F904201A7206F0FB
:104F6000FBFE03B030BDF522027158680028E9D07D
:104F70001A7802F0F002102A02D0F0232371E1E740
:104F80005B78002B45D1037D13B1FA232371D9E758
:104F90000DF10702FF2102F07FFF0546F0B1206806
:104FA000103006F03DFEE8B900232371206814306C
:104FB00006F036FEF8B194F904301BBB23680222D8
:104FC0005A7023685D6023681946586803F061F8D9
:104FD00023681249586803F0ABF8B3E79DF807302F
:104FE0002371AFE72068103006F0BCFD2068103058
:104FF00006F01CFED8E720680621143006F0A0FD5C
:105000002071D8E7284603F0D5FB236800225A60B8
:1050100098E7022B96D10023237193E7614C000897
:1050200070B506460023037103685A6822B11B78E5
:1050300003F0F003102B0FD0336863B106F080FE4D
:10504000336893F9082012F10C0F02DB96F9042063
:105050001A7206F081FE70BD846808E04FF6FF7595
:1050600033682946586802F0A7FF641BE4D0B4F502
:10507000803FF3D2A5B2F3E738B50446036893F94D
:10508000082012F10C0F0FDA027163B106F058FE1E
:10509000236893F9082012F10C0F02DB94F9042025
:1050A0001A7206F059FE38BD1A7802F0F002102A82
:1050B00002D0FA220271E8E75A7812B1FB2202719B
:1050C000E3E75A68002A48D001225A7003685A6AF6
:1050D000002A36D0224B40F283622249224807F050
:1050E00098FBE368002B30D023685C6223680021C2
:1050F00019622068FFF7A8F90028D4D023685B78EC
:10510000012B06D0164B40F289621849164807F069
:1051100080FB174D284606F0FBFD206800210C306F
:1051200006F0A0FD284606F0ECFD23685B78012B15
:10513000B9D10B4B40F28D620C490B4807F069FB6B
:1051400038BD1B6A002BCCD0C4E7054B40F284620B
:105150000849054807F05DFBC6E7F522027194E7B0
:105160004CD2000828D0000898CD000844D0000890
:10517000704200204CD0000838B5044600684278E0
:10518000436823B1037803F0F003102B10D0F5230C
:10519000237160B106F0D4FD236893F9082012F161
:1051A0000C0F02DB94F904201A7206F0D5FD38BD0D
:1051B000237A032B01D0022AE9D0032A3DD0012A09
:1051C0003ED013F0010F3ED123685A6A002A3DD029
:1051D000204B40F21C722049204807F01AFB23683C
:1051E00004225A7023685C6200212068FFF73CFAB1
:1051F0000028DCD023685B78042B06D0154B40F2E6
:1052000021721749154807F004FB164D284606F091
:105210007FFD206800210C3006F024FD284606F0B2
:1052200070FD23685B78002BC1D00A4B40F22572D9
:105230000B490A4807F0EDFA38BDF5232371A8E7BA
:10524000FB232371A5E7FFF7B9FCBDE71B6A002B21
:10525000C5D0BDE74CD2000828D0000898CD000882
:1052600044D000087042002068B110B504460068C0
:1052700020B102F0FFF9002363602360214606207D
:1052800002F022F810BD704708B558B1034691B13D
:10529000D2B1406808B3406808605B685B891380DE
:1052A000002008BD0E4BC2220E490F4807F0B1FA8C
:1052B0006FF00F0008BD0A4BC3220C490A4807F0E3
:1052C000A8FA6FF00F0008BD054BC4220849064834
:1052D00007F09FFA6FF00F0008BD6FF0010008BDE6
:1052E000E4D2000858D3000898CD000874D3000811
:1052F00094D3000800B583B0204B1B6813B1204A3B
:10530000106898471F4806F0FCFC0EE01E4B69220F
:105310001E491F4807F07DFA07E0DA689968586867
:1053200090470199092001F0CFFF164C204606F066
:10533000EFFC01A9174806F0D7F9204606F0E1FC7A
:10534000019B002BE2D01A78032A0AD0042A10D03D
:10535000022AE2D00C4B9B220C490D4807F059FA67
:10536000E3E75A68986890470199082001F0ACFF7C
:10537000DBE75A6898689047D7E700BF803D002078
:10538000843D00207042002018D4000848D4000852
:1053900098CD00087C3D0020F8B507460E4615461E
:1053A000134806F03DFC88B1092001F073FF044664
:1053B000D0B10223037047608660C56001460C4887
:1053C00006F0E5FB034640B91846F8BD094BB52287
:1053D00009490A4807F01DFAE6E72146092001F0CD
:1053E00073FF4FF0FF33EFE74FF0FF33ECE700BF01
:1053F0007C3D002018D4000808D4000898CD00088F
:1054000008B591F82B3013F0180F03D1034AFFF7BA
:10541000C3FF08BD024AFFF7BFFF08BD796100085E
:1054200029BA0008F8B507460E461546164806F094
:10543000F7FB88B1082001F02DFF044600B30323D9
:1054400003704760866075B901460F4806F09FFB00
:10545000034670B91846F8BD0C4BEE220C490D48B6
:1054600007F0D7F9E6E70146074806F084FB00237A
:10547000F0E72146082001F027FF4FF0FF33E9E76E
:105480004FF0FF33E6E700BF7C3D002018D4000852
:1054900008D4000898CD000870B505460E46054CA6
:1054A000204606F02EFC3046A847204606F030FC89
:1054B000002070BD7042002030B583B005460C4618
:1054C00000F070F8134B1D60134B1C60062113484D
:1054D00006F036FB70B9124806F002FC90B90323BF
:1054E00000934FF4006300220E490F4806F015FCAC
:1054F00003B030BD0D4B40F2D5120D490D4807F0F9
:1055000088F9E8E7094B40F2D9120B49094807F03E
:1055100080F9E4E7803D0020843D00207C3D0020B0
:1055200070420020F5520008F8D3000818D4000893
:10553000B0D3000898CD0008D4D30008C8B170B526
:105540000646C9B10D460E4C84B161682846FAF78B
:105550003FFE08B12468F7E7A3683360E36873602F
:10556000E368B360F060237C337470BD6FF00500B6
:1055700070BD6FF00F0070476FF00F0070BD00BF7F
:1055800030F30008704740BA80B27047030203F45A
:105590007F0343EA0063020A02F47F42134343EAB3
:1055A0001060704708B506F08FFB01F035FC01F084
:1055B00061FE01F0B4FE06F005F902F00DFC06F004
:1055C0006DF808BD10B5044600EB4002D300094A4F
:1055D000D05838B102F04EF804EB4402D300002159
:1055E000044AD15004EB4404E200024B134400226D
:1055F0001A7510BD883D00202DE9F84F4FF0000EC0
:10560000F346F1464FF00A0C73466746E046E24621
:1056100003E06CB95FB20133DBB2092B45D81A46FF
:1056200003EB4304E500594C2C44247D0A2FF0D0B1
:10563000002CF0D040B102EB4205EE00534D354452
:105640006D680668AE420FD0012C10D0012CE2D953
:1056500002EB4202D4004D4A2244528A9645DAD8DF
:105660004FFA83F89646D6E758B2BDE8F88F02EBBA
:105670004205EC00454D2C595CB102EB4202D400CE
:105680002A462244528A9145C5D84FFA83FC914656
:10569000C1E702EB4202D4003C4A2244528A9345BD
:1056A000B9D84FFA83FA9346B5E711F0020F65D1E6
:1056B0000A2F20D00546092F24DCFFB2092F4DD830
:1056C0003C4607EB4703DA00304B13441B7D002BAD
:1056D0004CD135B1296804EB4403DA002B4B134459
:1056E000596004EB4404E200284B134400225A8220
:1056F00078B2BDE8F88F11F0010FDBD14FF0FF3029
:10570000BDE8F88FB8F1090F14DC5FFA88F707EBF2
:105710004702D3001D4AD35833B11D4B40F26F12DC
:105720001C491D4807F075F8092F0FD83846FFF7B8
:1057300049FFC3E7BAF1090F02DC5FFA8AF7F3E722
:10574000BCF1090F1EDC5FFA8CF7EDE7104B40F25D
:1057500081121249104807F05CF8E7E70C4B40F261
:1057600085120E490C4807F054F8A9E7084B40F29F
:1057700087120B49084807F04CF8AAE74FF0FF30B2
:10578000BDE8F88F4FF0FF30BDE8F88F883D00206E
:1057900044F300087CF3000898CD000894F3000857
:1057A000A8F30008F0B583B004460D4616461F4620
:1057B00090F82430062B06D0284B40F2AB12284933
:1057C000284807F026F8002D39D02868002839D05D
:1057D000214600F03CFE002837D12B6803F0F0038F
:1057E000E02B35D0224639462846FFF705FF002832
:1057F00023DB1D4D42001318D9006F1802233B759F
:10580000BC600B4608332B4432685A60B2881A8158
:1058100000237B826D58F5B10027134A57504FF48F
:1058200000630093334604F125022946204606F022
:105830004FF9284601F01EFF384603B0F0BD6FF067
:105840000F00FAE76FF00F00F7E76FF00F00F4E7D3
:105850006FF00F00F1E70020EFE700BF44F300080E
:10586000FCF4000898CD0008883D00202DE9F047A1
:1058700082B08946924698460B9D0746002848D03C
:1058800000221C21022001F061FF0646002850D0B2
:1058900043891B2B45D97468BDF83400FFF773FEAC
:1058A000E08097F82430062B06D0234B40F26B4261
:1058B0002249234806F0ADFFD8F80030A360B8F8BD
:1058C0000430A3812B68C4F81230AB88E3820A9BB2
:1058D0001B68C4F80E300C9B1B68A3610025257063
:1058E000012363700823A370E5700623237104234A
:1058F000637140F60603009353464A4631463846E4
:1059000006F0E6F8304601F0B5FE284602B0BDE8E4
:10591000F087094B4FF48B620A49094806F079FF7A
:10592000AEE7054B40F264420749054806F071FFB7
:10593000B1E74FF0FF30E9E744F30008B8F400089E
:1059400098CD000874F4000884F4000830B585B0E0
:10595000034600F12504043301250395029104490F
:105960000191009323462146FFF780FF05B030BD2B
:105970000C0C010838B50546002401E00134E4B2FE
:10598000092C10D8204604EB4403DA00064B1344DC
:105990001B7D002BF2D0044B13449B68AB42EDD12E
:1059A000FFF710FEEAE738BD883D00202DE9F04101
:1059B00086B061B104460E4645682B88B3F5807FFA
:1059C0000DD0204601F056FE06B0BDE8F081204B18
:1059D0004FF422721F49204806F01BFFF4E72B7991
:1059E000062BEED16B79042BEBD16B88082BE8D119
:1059F000D5F80E300593AF694B68ABB19F4214BF29
:105A00000027012705F1080887B10123424605A9AF
:105A10003046FFF7C7FEEB88B3F5807F00D13FB972
:105A2000204601F027FECFE70027EBE70223EDE752
:105A300006F12501331D0222039205AA0292CDF838
:105A4000048000930B4642463046FFF70FFFE7E71E
:105A500044F3000874F4000898CD000808B5024A21
:105A6000FFF774FF08BD00BF980B010838B500248C
:105A700005E0042B1DD9FFF7A5FD0134E4B2092C84
:105A800038D8204604EB4403DA001B4B13441B7D3B
:105A9000002BF2D01146184A0A44538A01339BB2B4
:105AA0005382B3F5967FE6D2134A0A44127D012A47
:105AB000DFD0032A0ED0042A14D0012ADDD10E4AE9
:105AC00043001D18E90011440A4604319068FFF7AD
:105AD000C5FFD2E700EB4000C200074B134404228D
