:020000040800F2
:100000000000022079E4000885DD000889DD000891
:100010008DDD000891DD000895DD0008000000007E
:10002000000000000000000000000000F1230008B4
:1000300099DD00080000000081240008E524000884
:10004000C9E40008C9E40008C9E40008C9E40008DC
:10005000C9E40008C9E40008C9E40008C9E40008CC
:10006000C9E40008C9E40008C9E40008C9E40008BC
:10007000C9E40008C9E40008C9E40008C9E40008AC
:10008000C9E40008C9E40008C9E40008C9E400089C
:10009000C9E40008C9E40008C9E40008C9E400088C
:1000A000C9E400089DDD0008C9E40008C9E40008AF
:1000B000C9E40008C9E40008C9E40008C9E400086C
:1000C000C9E40008C9E40008C9E40008C9E400085C
:1000D000C9E40008C9E40008C9E40008C9E400084C
:1000E000C9E40008C9E40008C9E40008C9E400083C
:1000F000C9E40008C9E40008C9E40008C9E400082C
:10010000C9E40008C9E40008C9E40008C9E400081B
:10011000C9E40008A9DD0008C9E40008C9E4000832
:10012000C9E40008C9E40008C9E40008C9E40008FB
:10013000C9E40008B5DD0008C9E40008C9E4000806
:10014000C9E40008C9E40008C9E40008C9E40008DB
:10015000C9E40008C9E40008C9E40008C9E40008CB
:10016000C9E40008C9E40008C9E40008C9E40008BB
:10017000C9E40008C9E40008C9E400080000000060
:08018000C9E40008C9E400080D
:1001900010B5054C237833B9044B13B10448AFF3C1
:1001A00000800123237010BD140000200000000017
:1001B0007CE5000808B5034B1BB103490348AFF3C6
:1001C000008008BD00000000180000207CE5000849
:1001D00010F8012B11F8013B012A28BF9A42F7D0F1
:1001E000D01A7047034613F8012B002AFBD1181AC6
:1001F0000138704753B94AB9002908BF00281CBF0D
:100200004FF0FF314FF0FF3000F07AB9ADF1080C3C
:100210006DE904CE00F006F8DDF804E0DDE9022324
:1002200004B070472DE9F0478C460D460446089E01
:10023000002B51D18A4217466DD9B2FA82FEBEF127
:10024000000F0BD0CEF1200C01FA0EF520FA0CFCB9
:1002500002FA0EF74CEA050C00FA0EF44FEA174AC0
:10026000250CBCFBFAF81FFA87F90AFB18CC45EA03
:100270000C4508FB09F3AB420AD9ED1908F1FF322E
:1002800080F02381AB4240F22081A8F102083D4476
:10029000ED1AA4B2B5FBFAF00AFB105544EA054486
:1002A00000FB09F9A14509D9E41900F1FF3380F0F9
:1002B0000A81A14540F2078102383C44A4EB0904BD
:1002C00040EA08400021002E61D024FA0EF40023F9
:1002D00034607360BDE8F0878B4207D9002E54D09C
:1002E000002186E821000846BDE8F087B3FA83F1D3
:1002F000002940F08E80AB4202D3824200F2FA80A5
:10030000841A65EB03050120AC46002E3FD086E839
:100310001010BDE8F08712B90127B7FBF2F7B7FA62
:1003200087FEBEF1000F34D1EB1B3A0C1FFA87FC9D
:100330000121B3FBF2F8250C02FB183345EA034513
:100340000CFB08F3AB4207D9ED1908F1FF3002D2DC
:10035000AB4200F2D1808046ED1AA3B2B5FBF2F0B9
:1003600002FB105543EA05440CFB00FCA44507D9E9
:10037000E41900F1FF3302D2A44500F2B880184618
:10038000A4EB0C0440EA08409DE731463046BDE846
:10039000F087CEF1200405FA0EF307FA0EF720FAE3
:1003A00004F83A0C25FA04F448EA0308B4FBF2F125
:1003B0004FEA184502FB11441FFA87FC45EA044541
:1003C00001FB0CF3AB4200FA0EF409D9ED1901F16F
:1003D000FF3080F08A80AB4240F2878002393D4492
:1003E000EB1A1FFA88F5B3FBF2F002FB103345EA73
:1003F000034500FB0CF3AB4207D9ED1900F1FF38C0
:100400006FD2AB426DD902383D44EB1A40EA01414C
:100410008FE7C1F1200722FA07F88B4005FA01F4B3
:1004200048EA030320FA07FE4FEA134CFD404EEA68
:10043000040EB5FBFCF94FEA1E440CFB19551FFADC
:1004400083F844EA054509FB08F4AC4202FA01F2DC
:1004500000FA01FA08D9ED1809F1FF3043D2AC4295
:1004600041D9A9F102091D442D1B1FFA8EFEB5FBCF
:10047000FCF00CFB10554EEA054400FB08F8A045C3
:1004800007D9E41800F1FF3529D2A04527D9023851
:100490001C4440EA0940A4EB0804A0FB02894C4537
:1004A000C6464D4615D312D056B1BAEB0E0364EBD7
:1004B000050404FA07F7CB401F43CC403760746053
:1004C0000021BDE8F0871846F8E69046E0E6C24510
:1004D000EAD2B8EB020E69EB03050138E4E72846DF
:1004E000D7E7404691E78146BEE7014678E7023804
:1004F0003C4445E7084608E7A8F102083D442BE7DD
:10050000704700BF08B50B4B1A6842F400721A60BE
:100510001A6842F480621A601A6842F480721A60A3
:10052000032000F02DF800200DF0EEFB0DF0CAFBCB
:10053000002008BD003C0240034A044B11681B78B0
:100540000B441360704700BF2842002000000020C9
:10055000014B1868704700BF2842002038B5044698
:10056000FFF7F6FF631C054602D0044B1B781C44C2
:10057000FFF7EEFF401B8442FAD838BD0000002090
:10058000074AD3684FF6FF010B40000243F0BF63F8
:1005900000F4E06043F400330343D360704700BFCE
:1005A00000ED00E0184B70B4DC68C4F30224C4F121
:1005B0000706042E04F1040328BF0426062B17D9CE
:1005C000033C0125A540013D2A400123B340013BE6
:1005D0001940A140002841EA02010CDB00F1604013
:1005E00000F561400901C9B280F8001370BC704782
:1005F00000221446E9E7054B00F00F00090103440F
:10060000C9B2197670BC704700ED00E0FCEC00E068
:1006100000F01F0101234009024A8B4042F82030BC
:10062000704700BF00E100E090F83530022B03D0A6
:1006300080234365012070470268052380F8353028
:10064000136823F0010313600020704770B504465F
:10065000002966D1C16883680B4343F400712268A6
:10066000E0691568334B002803EA050343EA0103F8
:1006700014BF00214FF480610B4313600120156803
:10068000FFF76CFF236840221D6001205A605E68FE
:10069000FFF764FF236800255E609D60DD609A6956
:1006A0004FF641710A4042F080029A6101209E6932
:1006B000FFF754FF236801209E61DD61DD69FFF7CC
:1006C0004DFF22681C4BD56141F21805012051599C
:1006D0000B4043F0087343F0040353515659FFF79E
:1006E0003DFF2368154A5E5103F5805301201A60CF
:1006F0001D68FFF733FF2368A26903F58051012AC3
:100700000D6007D141F21C015A5842F4803242F088
:1007100040025A5063690A4A998811601B68536005
:1007200070BD4FF400624FF48043C26083604FF4A9
:10073000944194E70F8120FF233FDEF88020C1021F
:1007400040800240F0B590F84540012C43D001258F
:100750000224C16280F8455080F84440BBB1C669AC
:1007600003F1FF3E0C46FEB100254FF4801C04F15E
:100770002006AE4594BF0F4637460135AB42A26016
:10078000C4F800C0E76002F2F4523446EFD10568C5
:1007900041F210030022E9500124134680F844403E
:1007A00080F845201846F0BD4FF4801CC4F800C006
:1007B0002768A260254647F4400745F8207B764528
:1007C0002CBF0F462F460136B342E76002F2F452C7
:1007D0002C46EBD1DBE702231846F0BD844690F8A7
:1007E0004500012831D02DE9F04102200124CCF848
:1007F00028108CF845408CF84400C3B103F1FF3851
:100800000C4600254FF0004E44F2F45004F120064F
:10081000A8458CBF37460F460135AB42A260C4F8ED
:1008200000E06060E76002F2F4523446EED1DCF89A
:10083000004041F20C0000230122215018468CF8A0
:1008400044208CF84530BDE8F0810220704700BF9D
:10085000002800F0E0802DE9F04790F8443082B0A5
:10086000044603F0FF02002B00F0A780BD49BE4AFA
:1008700000230193486C236840F480404864496C2D
:1008800001F4804101910199516821F40001516006
:100890005168206A03F58053014351601A6842F0A1
:1008A00001021A60FFF754FE054605E0FFF750FE0F
:1008B000401BB0F5FA7F46D8236803F580521268D2
:1008C000D107F3D41D6900F0F3FEA84BA84A0344F6
:1008D000934225F01C0575D845F00805226815617E
:1008E00094F84430422B24D0422384F844301169D8
:1008F000238A01F01C01DB0241F003019BB20B4390
:100900004FF4004151611361FFF722FE064604E0F7
:1009100023681D6915F001051ED0FFF719FE801B25
:10092000B0F5803FF4D30122002384F8442084F8FA
:10093000453020460121FFF789FE012084F844005C
:1009400002B0BDE8F0870320002384F8440084F857
:10095000453002B0BDE8F087012784F84470FF20DD
:10096000FFF7FCFD6368002B57D194F84430422B0D
:10097000DFD02568A268E068422384F84430296902
:10098000238A01F01C01DB02520841F0030142EA14
:10099000D0029BB20B4392B26A612B61FFF7D8FD84
:1009A000054603E023681B69DB0722D5FFF7D0FD6E
:1009B000401BB0F5803FF5D3B5E780F845200CF03B
:1009C000E7FE53E76B4B6C4A034493420ED96B4BE3
:1009D0006B4A0344934281D96A4B6B4A0344934266
:1009E00094BF45F0040545F0100577E745F00C0588
:1009F00074E7012384F8443040F6FF70FFF7AEFD42
:100A000020460021FFF722FE0123002084F8443015
:100A100002B0BDE8F08701207047FFF799FDAA46B4
:100A200080464FF0820909E0FFF792FD41F28833DA
:100A3000A0EB080098422AD86E0734D494F84430CA
:100A4000822BF1D0216884F84490238A0A69DB0262
:100A500002F01C029BB2134343F041030B61FFF70A
:100A600077FD064603E023681A69D2070AD5FFF727
:100A70006FFD801BB0F5803FF5D384F8447084F897
:100A800045A0D1E75D6984F84470ADB2CCE720465B
:100A90000121FFF7DBFD0122002384F8442084F8C4
:100AA000453003204CE794F84430422B3FF441AFEB
:100AB0002168422384F844300A69238A02F01C0228
:100AC000DB0242F003029BB213434FF480524A61AF
:100AD0000B61FFF73DFD064604E023681F6917F030
:100AE000010706D0FFF734FD801BB0F5803FF4D33B
:100AF00019E74FF0010984F84490FFF729FD4FF002
:100B0000820A804609E0FFF723FD41F28833A0EB1B
:100B100008009842BBD8A9063DD494F84430822BF3
:100B2000F1D0216884F844A0238A0A69DB0202F02C
:100B30001C029BB2134343F041030B61FFF708FD16
:100B4000064603E023681A69D0071FD5FFF700FDAA
:100B5000801BB0F5803FF5D384F8449084F845704D
:100B6000D1E700BF003802400038014000D3CEFE7C
:100B7000BFE1E40040F1E9FD3F787D0100796CFCC4
:100B8000FF596202001F0AFA7FF0FA025D6984F8D9
:100B90004490ADB2B7E794F84430822B3FF4C9AE2D
:100BA0002168822384F84430238A0A69DB0202F038
:100BB0001C029BB2134343F4806343F001030B61B7
:100BC000FFF7C6FC054604E02268136913F0010331
:100BD00006D0FFF7BDFC401BB0F5803FF4D3A2E682
:100BE000526912F0040F14BF4FF400600020920706
:100BF0004FF0010158BF4FF48043E06084F8441087
:100C0000A360FDE690F84530012B42D0F0B50446D4
:100C10000223012084F8450084F84430002933D0B1
:100C2000E36A1A68002A5ADB40F2F452914234D93E
:100C30003148A0FB0150800A02FB10125AB3013068
:100C40002E4A01F2F45E02FB00EECEF30C0E0022FF
:100C500040F2F456471E07E01968013241F00041A6
:100C600082421960DB6838D0196821F04051196060
:100C7000002A3BD097425E60EED11D68C3F804E0C5
:100C800045F000551D60E7E784F8440084F84510FE
:100C9000F0BD022070470128D2D11A68D86842F00E
:100CA00040521A601A68C1F30C0142F000425960C8
:100CB0001A60E062236841F214029958490705D589
:100CC00041F20401042500209D50585001230020CA
:100CD00084F8443084F84500F0BDE362EAE712226C
:100CE000002384F8442084F84530F0BD19685E6024
:100CF00041F080511960AFE70BB002AC0CFAFFFF76
:100D000090F84530012B58D0836A022180F84410B6
:100D10001968024600294FF0010082F8450045DBC2
:100D2000196801F44071B1F5007F48D0196811F4D9
:100D3000407F5BD1916BDB689362014491631968DA
:100D4000002933DB196801F44071B1F5007F3BD015
:100D5000196811F4407F49D1916BDB6893620131CE
:100D600091631968002921DB196801F44071B1F51C
:100D7000007F2FD0196811F4407F37D1916BDB6869
:100D8000936201319163196800290FDB196801F43E
:100D90004071B1F5007F23D0196811F4407F25D14F
:100DA000906BD9689162013090630B680120002339
:100DB00082F8440082F84530704702207047136380
:100DC000DB6893629063BAE713630121DB68936287
:100DD0009163C6E713630121DB6893629163D2E7F5
:100DE000D9681363012391629363DEE7916B01314C
:100DF000012910B408BF1846916318BF106B196819
:100E0000DC688068536308BF1363C1F30D4310644B
:100E1000043B002001219462D36382F8441082F8DD
:100E200045005DF8044B7047704700BF704700BF36
:100E300070B5036841F2140604469D5915F040054B
:100E400018D19A59D20721D441F214054FF48032B7
:100E50005A515B591B040CD52046FFF7E7FF216868
:100E60004FF4004001220023485184F8442084F8C4
:100E7000453070BD0CF0E8FC2368402001210022C1
:100E8000985184F8441084F84520DDE7FFF7CCFF43
:100E9000236801229A5184F8442084F84550D3E70E
:100EA00090F84530012B02D102221046704730B431
:100EB00086B001680222002380F844200493254A6A
:100EC0000B681468244A43F008030B60A2FB043447
:100ED000640A0B680493059400BF059B5A1E059293
:100EE000002BF9D1049A0A6002930B6843F00403C3
:100EF0000B600B680293039400BF039B5A1E03927E
:100F0000002BF9D1029A0A6041F2180200938B5823
:100F100043F480138B508B580093019400BF019BC6
:100F20005A1E0192002BF9D141F21802009C8C50FC
:100F30008C5844F400548C508C58012544F0020421
:100F40008C5080F8453080F84450184606B030BCCC
:100F5000704700BF10000020D34D62102DE9F04F04
:100F6000D1F800C0DFF81482DFF814E283B0002566
:100F700003E00135102D00F09B800123AB4003EA14
:100F80000C029342F5D14E6826F0100ABAF1020F16
:100F900000F091804FEA45090324D0F800B004FA2C
:100FA00009F4E44306F003070BEA040B07FA09F718
:100FB0000AF1FF3A47EA0B07BAF1010F076040F266
:100FC000A080C7688B683C4003FA09F32343C360E1
:100FD000F300CED54FF00009CDF80490D8F8443096
:100FE00043F48043C8F84430D8F8444025F0030364
:100FF00003F1804304F4804403F59C33019405F02D
:101000000304019FD3F808A0A4000F27A7402AEAF1
:10101000070A544FB84222D007F58067B84200F063
:101020008380514FB84200F08480504FB84200F0A6
:1010300085804F4FB84200F086804E4FB84200F096
:1010400087804D4FB84200F08880DFF838914845DE
:101050000CBF4FF007094FF0080909FA04F94AEAF2
:1010600009079F60DEF80030D443F70354BF2340E4
:101070001343CEF80030DEF80430B70354BF2340EA
:101080001343CEF80430DEF80830F70254BF234093
:101090001343CEF80830DEF80C30B60205F1010536
:1010A00054BF23401343102DCEF80C307FF465AFAE
:1010B00003B0BDE8F08F4FEAD50900EB890905F0D0
:1010C0000707D9F82040BF004FF00F0B0BFA07FBC2
:1010D00024EA0B0A0C69BC4044EA0A04C9F820401F
:1010E0004FEA45090324D0F800A004FA09F4E443C8
:1010F00006F0030704EA0A0A07FA09F747EA0A07AB
:101100000760876807EA040ACF6807FA09F747EA21
:101110000A078760D0F804A0C6F300172AEA030381
:10112000AF401F4347604CE74FF0010909FA04F94B
:1011300095E74FF0020909FA04F990E74FF0030927
:1011400009FA04F98BE74FF0040909FA04F986E774
:101150004FF0050909FA04F981E74FF0060909FA89
:1011600004F97CE70000024000080240000C024045
:1011700000100240001402400018024000380240F3
:10118000003C0140001C024002B909048161704723
:101190004369594041617047002800F0B2812DE950
:1011A000F0410368DD0782B004462FD5AB498A6859
:1011B00002F00C02042A00F023818A6802F00C027B
:1011C000082A00F019816368B3F5803F00F05A8166
:1011D000B3F5A02F00F0E580A04D2A6822F48032FC
:1011E0002A602A6822F480222A60002B40F0E280E4
:1011F000FFF7AEF9064605E0FFF7AAF9801B642861
:1012000000F2F6802B689B03F6D423689F0728D54D
:10121000924A916811F00C0F00F09080916801F0F3
:101220000C01082900F08680E368002B00F00F8194
:101230008B4B8A4D01221A60FFF78AF9064605E0BA
:10124000FFF786F9801B022800F2D2802B689807EE
:10125000F6D52B68226923F0F80343EAC2032B601A
:1012600023681A0752D4580730D57C4A136C13F000
:1012700080537ED000267B4D2B68D90540F1A88095
:10128000A368012B00F00481052B00F0C380734D8F
:101290002A6F22F001022A672A6F22F004022A67CD
:1012A000002B40F0C080FFF753F941F288378046A9
:1012B00006E0FFF74DF9A0EB0800B84200F2988075
:1012C0002B6F9807F5D4002E40F0E880A369CBB1CE
:1012D000624DAA6802F00C02082A36D0022B624B3B
:1012E0004FF000021A6000F0DF80FFF731F92C4662
:1012F000054604E0FFF72CF9401B022878D8236844
:101300009B01F7D4002002B0BDE8F081636903B30C
:10131000564B524D01221A60FFF71AF9064604E0B7
:10132000FFF716F9801B022862D86B6F9B07F7D571
:10133000236898E7526856023FF576AF474A12682D
:10134000950722D5E268012A1FD0012002B0BDE82E
:10135000F081464A414D1360FFF7FAF8064604E073
:10136000FFF7F6F8801B022842D86B6F9F07F7D46F
:10137000DEE70193136C43F080531364136C03F0A6
:1013800080530193019B012675E7344920690A685F
:1013900022F0F80242EAC0020A601A077FF563AF42
:1013A000B4E72E4B1A6842F480221A601A6842F49D
:1013B00080321A60FFF7CCF8284D064604E0FFF7AC
:1013C000C7F8801B642813D82B689A03F7D51CE74D
:1013D0002B6843F480732B60FFF7BAF807462B683D
:1013E000DA053FF54DAFFFF7B3F8C01B0228F6D979
:1013F000032002B0BDE8F0814A6850027FF5E3AEF9
:10140000164A126891037FF501AF6268002A7FF4E3
:10141000FDAE9AE7114B1A6F42F004021A671A6F79
:1014200042F001021A67FFF793F80C4D804641F233
:10143000883705E0FFF78CF8A0EB0800B842D7D852
:101440002B6F9B07F6D5002E3FF440AF26E0044AF1
:10145000024D1360FFF77CF806460EE000380240AC
:10146000000047420070004060004742800E474243
:10147000FFF76EF8801B0228BAD82B689907F7D4BB
:101480002368EEE6204A136843F48033136091E743
:101490001D4A136F43F001031367C4E71A4A136C24
:1014A00023F08053136411E7FFF752F8064604E077
:1014B000FFF74EF8801B02289AD82B689901F7D4C1
:1014C000E369276A666AA26AE06A10490E4C3B43E8
:1014D00043EA8613520843EA0063013A43EA0243AF
:1014E00001226B600A60FFF733F8054605E0FFF75D
:1014F0002FF8401B02283FF67BAF23689A01F6D5F0
:1015000000E70120704700BF0038024060004742FA
:10151000174908B58B6803F00C03042B1BD0082B6C
:1015200017D14A684B6813F4800302F03F0214D1CC
:1015300049681048C1F38811A1FB0001FEF75AFE6B
:101540000B4B5B68C3F3014301335B00B0FBF3F06B
:1015500008BD084808BD084808BD4B680648C3F3E5
:101560008813A3FB00010023FEF744FEE8E700BF59
:10157000003802400024F40040787D0160B1484A00
:10158000136803F00F038B4208D2CBB213701368B9
:1015900003F00F03994201D00120704703682DE941
:1015A000F0419D0714D55C0704D53E4CA26842F477
:1015B000E052A2601A0704D53A4CA26842F4604295
:1015C000A260384C8568A26822F0F0022A43A2602B
:1015D000DF0704460D4622D54268012A5BD0931EE0
:1015E000012B304B1B6850D9990725D52D4EB36878
:1015F00023F003031343B360FEF7AAFF41F28837D9
:10160000804605E0FEF7A4FFA0EB0800B8423FD8F3
:10161000B368626803F00C03B3EB820FF2D1204A87
:10162000136803F00F039D4209D2EBB213701368E5
:1016300003F00F039D4202D00120BDE8F081236832
:101640005A0706D51749E0688A6822F4E052024337
:101650008A601B0707D5134A2169936823F4604306
:1016600043EAC1039360FFF753FF0E4B0E499B689B
:101670000E4AC3F30313CB5C20FA03F3002013607C
:101680000CF042FB0020BDE8F0819801AED4D3E716
:101690000320BDE8F081034B1B689E03A6D4CBE773
:1016A000003C024000380240E427010810000020FE
:1016B000014B1868704700BF10000020044B054A1A
:1016C0009B680549C3F382230868D35CD840704700
:1016D00000380240F427010810000020044B054A9E
:1016E0009B680549C3F342330868D35CD840704710
:1016F00000380240F4270108100000200E4B0F2292
:1017000002609A6802F0030242609A6802F0F002F6
:1017100082609A6802F4E052C2609B68DB0810B4F1
:1017200003F4E053054C036123685DF8044B03F0B8
:101730000F030B60704700BF00380240003C0240BE
:10174000704700BF002875D090F8393070B503F0AD
:10175000FF020446002B68D023683749022284F830
:1017600039208B421A6850D0B3F1804F2DD0A1F5AB
:101770007C418B4229D001F580618B4225D001F557
:1017800080618B4221D001F578418B421DD001F55B
:1017900070518B422FD001F580618B422BD001F527
:1017A00080618B4227D0A1F598318B4223D001F57F
:1017B00080618B421FD001F580618B421BD0E068B5
:1017C00061681A60D86299620FE0A1682669E568CD
:1017D000606822F070020A43184922F440723243D2
:1017E0008B421A60DD6298621CD001225A6100208F
:1017F00084F8392070BD2569E068616822F4407280
:101800002A431A60D8629962EFE7A6682069E56802
:10181000616822F07002324322F4407202431A607F
:10182000DD62996262691A63DFE780F83820FFF7AA
:1018300087FF91E70120704700000140000401404C
:101840000368DA6842F00102DA601A6842F00102C5
:101850001A600020704700BF704700BF704700BF8C
:10186000704700BF704700BF03681A69910710B541
:10187000044602D5DA68920762D41A69500702D585
:10188000DA68510749D41A69120702D5DA681007D5
:1018900031D41A69D20602D5DA68D00618D41A698A
:1018A000D10702D5DA68D2076BD41A69100602D5BF
:1018B000DA6811066DD41A69520602D5DA68500644
:1018C00057D41A69910602D5DA68920649D410BD38
:1018D0006FF010021A61DB69082213F4407F227650
:1018E000204661D1FFF7B8FF2046FFF7B9FF00227D
:1018F00023682276D3E76FF008021A61DB690422BD
:1019000099072276204655D1FFF7A6FF2046FFF71C
:10191000A7FF002223682276BBE76FF004021A615A
:101920009B69022213F4407F227620463FD1FFF7C5
:1019300093FF2046FFF794FF002223682276A2E758
:101940006FF002021A619B6901229B07027628D17F
:10195000FFF782FF2046FFF783FF002223682276ED
:101960008BE76FF0200220461A61BDE8104000F0BE
:1019700025B86FF040021A612046FFF773FF236815
:101980009FE76FF001021A6120460CF08FF923687F
:101990008BE76FF080021A61204600F011F823688F
:1019A00089E7FFF75BFFD8E7FFF758FF9FE7FFF7EF
:1019B00055FFC1E7FFF752FFABE700BF704700BF1D
:1019C000704700BF2DE9F047046822698246C0686D
:1019D000DAF81C10DAF80830DAF81060DAF8145087
:1019E00022F4405202432261E268DAF818003343DD
:1019F00022F416422B4322F00C020B431343E36004
:101A0000636923F440730343B1F5004F6361AB4B4B
:101A100061D09C4200F0018103F580639C4200F09C
:101A2000FC80FFF74BFEA64FDAF8043000EB800095
:101A300000EB80009B00B0FBF3F3A7FB03235B09E3
:101A40001D01FFF73BFEDAF8043000EB80009B003D
:101A500000EB8000B0FBF3F6FFF730FEDAF804206D
:101A600000EB8000930000EB8000B0FBF3F3A7FBDA
:101A700003234FF064095B0909FB13631B01323335
:101A8000A7FB03235B0903F0F006FFF717FEDAF864
:101A9000042000EB8000930000EB8000B0FBF3F823
:101AA000FFF70CFEDAF8043000EB80009B0000EB3F
:101AB0008000B0FBF3F0A7FB0030400909FB108366
:101AC0001B013233A7FB0323C3F3431333432B44DC
:101AD000A360BDE8F0879C425DD003F580639C4223
:101AE00059D0FFF7EBFD764FDAF8043000EB8000B9
:101AF00000EB80005B00B0FBF3F3A7FB03235B0963
:101B00001E01FFF7DBFDDAF8043000EB80005B001C
:101B100000EB8000B0FBF3F5FFF7D0FDDAF804200E
:101B200000EB8000530000EB8000B0FBF3F3A7FB59
:101B300003235B094FF0640909FB1353DB003233C5
:101B4000A7FB03231B0903F4F875FFF7B7FDDAF8C9
:101B5000042000EB800000EB80005300B0FBF3F8A2
:101B6000FFF7ACFDDAF8043000EB800000EB8000FA
:101B70005B00B0FBF3F3A7FB03235B0909FB1383B3
:101B8000DB003233A7FB0323C3F3421333442B445C
:101B9000A360BDE8F087FFF7A1FD494FDAF80430F4
:101BA00000EB800000EB80005B00B0FBF3F3A7FBD1
:101BB00003235B091E01FFF791FDDAF8043000EB07
:101BC00080005B0000EB8000B0FBF3F5FFF786FDC3
:101BD000DAF8042000EB8000530000EB8000B0FB3B
:101BE000F3F3A7FB03234FF064095B0909FB1353CD
:101BF000DB003233A7FB03231B0903F4F875FFF75F
:101C00006DFDDAF8042000EB8000530000EB80004B
:101C1000B0FBF3F8FFF762FDA4E7FFF75FFD284F85
:101C2000DAF8043000EB800000EB80009B00B0FB92
:101C3000F3F3A7FB03235B091D01FFF74FFDDAF860
:101C4000043000EB80009B0000EB8000B0FBF3F65B
:101C5000FFF744FDDAF8042000EB8000930000EB6E
:101C60008000B0FBF3F3A7FB03234FF064095B098B
:101C700009FB13631B013233A7FB03235B0903F04A
:101C8000F006FFF72BFDDAF8042000EB800093004C
:101C900000EB8000B0FBF3F8FFF720FDDAF804302A
:101CA00000EB800000EB80009B00B0FBF3F3A7FB90
:101CB00003235B0909FB138302E700BF0010014007
:101CC0001F85EB5160B338B590F83930044603F006
:101CD000FF0203B32268242384F83930D36823F445
:101CE0000053D3602046FFF76DFE23681A6922F483
:101CF00090421A615A6922F02A025A61DA68002574
:101D0000202142F40052DA602846E56384F8391055
:101D100084F83A1038BD80F838200CF02FFAD9E753
:101D200001207047704700BF704700BF704700BF79
:101D300003681A6870B515070446D86859694FD00A
:101D400011F0010178D0D50705D5C60503D5E56B9F
:101D500045F00105E563550740F1A080002900F03A
:101D6000AB80E16B41F00201E163910740F19C809F
:101D7000E16B160741F00401E16300F19880E16B2B
:101D800000292CD0950606D5810604D594F83A2072
:101D9000222A00F0A4805D69E16B0A0703D415F0E4
:101DA000400500F0C080DA6822F49072DA605A6967
:101DB000202122F001025A6184F83A105A6956062D
:101DC00040F184805A69606B22F040025A61002819
:101DD0007CD0774B0365FEF727FC00287AD170BDD5
:101DE00091062CD586062AD594F83A20222AF6D1D7
:101DF000A268B2F5805F00F0A3802269002A40F05B
:101E00009780A26A5B68511CA1621370E38D013B4D
:101E10009BB2E385002BE2D12368DA6822F490724A
:101E2000DA605A69202122F001025A61204684F8C2
:101E30003A10FFF779FF70BD10F4907F83D115063B
:101E40000ED45206CBD54606C9D5DA68202122F039
:101E50004002DA60204684F83910FFF763FF70BD56
:101E60000106EED594F83920212AB8D1A268B2F53E
:101E7000805F226A6FD0511C216212785A60E28C16
:101E8000013A92B2E284002AA9D1DA6822F08002F3
:101E9000DA60DA6842F04002DA6070BD95070ED56C
:101EA00000297FF465AF6AE711077FF568AFE16B42
:101EB00041F00801E16362E795073FF560AF16075F
:101EC0007FF55DAF00293FF45AAFF0E72046FFF7FA
:101ED0002DFF70BD606BBDE87040036D1847A268B0
:101EE000B2F5805F50D02269002A3DD1A26A5B68BA
:101EF000511CA16213702368E28D013A92B2E2850F
:101F0000002A7FF448AFDA6822F49072DA605A69E6
:101F1000202122F001025A61204684F83A10FFF78E
:101F200003FF236837E72046FFF700FFE56370BD36
:101F30005B68A26A03F07F03511CA162137065E71E
:101F40002169A26AC9B959681346C1F3080223F886
:101F5000022BA3625AE711882069C1F30801596076
:101F6000E0B9023222628AE75B68A26A03F07F036B
:101F7000511CA16213702368BEE759681346CAB2A8
:101F800023F8012BA36241E72169A26A49B9596884
:101F9000C1F3080122F8021BA262ADE701322262FE
:101FA0006DE75968C9B222F8011BA262A4E700BF1D
:101FB000B51F000808B5836B0022DA851846DA845D
:101FC000FFF7B4FE08BD00BF08B501F0E7FA002036
:101FD00008BD00BFEFF305830BB901F025BB01F08D
:101FE00029BB00BF30B5B0F9084085B0842C02464B
:101FF00014BF0334002403AD0B4640681168128AF5
:102000008DE8300001F09EF901280CBF03980020F4
:1020100005B030BD08B5002808BF012001F04CFC18
:10202000002008BD012000F045BE00BF10B582B001
:1020300000240194E8B10A46EFF305833BB9194641
:1020400000F026FF012817D0FF2002B010BD01AA22
:10205000214601F07FF80128F6D1019B63B1074BBF
:102060004FF080521A60BFF34F8FBFF36F8F20463F
:10207000EBE7802002B010BD0020E6E704ED00E0B1
:1020800010B582B000240194EFF305833BB101A9A0
:1020900000F0A8FE01280BD0FF2002B010BD1A46A8
:1020A000194600F0B1FC0128F6D1002002B010BDA5
:1020B000019B002BF9D0054B4FF080521A60BFF303
:1020C0004F8FBFF36F8F2046E7E700BF04ED00E0BE
:1020D000012910B50DD108460322002100F058FC5B
:1020E000044620B100231A46194600F08DFC204614
:1020F00010BD0024204610BD10B582B0002401940C
:10210000E8B10A46EFF305833BB9194600F0C0FE7B
:10211000012817D0FF2002B010BD01AA214601F00E
:1021200019F80128F6D1019B63B1074B4FF080529B
:102130001A60BFF34F8FBFF36F8F2046EBE780200D
:1021400002B010BD0020E6E704ED00E010B582B05B
:1021500000240194EFF305833BB101A900F042FE96
:1021600001280BD0FF2002B010BD1A46194600F01E
:102170004BFC0128F6D1002002B010BD019B002BC2
:10218000F9D0054B4FF080521A60BFF34F8FBFF369
:102190006F8F2046E7E700BF04ED00E010B5EFF3D6
:1021A00005840CB1822010BD01F044F8204610BD1A
:1021B000002203C800F0ECBB10B584B000240191EC
:1021C000A24208BF01220394EFF305834BB12346DB
:1021D00003AA01A900F0A2FD01280AD0FF2004B043
:1021E00010BD01A900F010FC0128F7D1002004B0B7
:1021F00010BD039B002BF9D0044B4FF080521A60A6
:10220000BFF34F8FBFF36F8F2046E8E704ED00E088
:1022100030B585B00023039104460293002930D0E5
:102220000093EFF305839BB9084602A9154600F019
:102230002FFE012822D0002D0CBF00234023019344
:1022400004AB13E9070084E80700204605B030BD61
:102250006A46084602A900F07DFF009B01280CBFDA
:10226000102200220192002BEAD00B4B4FF080523B
:102270001A60BFF34F8FBFF36F8FE1E71023019315
:10228000DEE704AB802243F80C2D93E8070084E8D6
:102290000700204605B030BD04ED00E0EFF30583F4
:1022A0000BB900F0A7BF00F0B9BF00BF10B5EFF346
:1022B00005840CB1822010BD00F0BCFF204610BD8B
:1022C00000F108034FF0FF310022816080E80C002C
:1022D000C3600361704700BF00230361704700BF04
:1022E00090E80C0010B49C688C609C684B600132D4
:1022F000616099605DF8044B08610260704700BF3F
:1023000030B40D686B1C11D000F1080200E01A46D1
:1023100053681C68A542FAD204684B600134996086
:102320008A6051600861046030BC7047026953687C
:10233000F2E700BF43688168026910B49960816860
:1023400054684B601368A04208BF5160013B0021F4
:1023500001615DF8044B1360184670470A4B1B6817
:10236000013308D04FF0500383F31188BFF36F8F10
:10237000BFF34F8FFEE74FF0500383F31188BFF395
:102380006F8FBFF34F8FFEE7040000200648006800
:10239000006880F3088862B661B6BFF34F8FBFF361
:1023A0006F8F00DF00BF000008ED00E0DFF80C00D9
:1023B000016841F4700101607047000088ED00E0A1
:1023C00030B421F001014FF08075074C40F80C4CFF
:1023D0006FF0020340F8202C00E9220040F8243C72
:1023E00030BC4438704700BF5D2300080000000087
:1023F000074B19680868B0E8F04F80F30988BFF30D
:102400006F8F4FF0000080F311887047AFF30080AA
:10241000503C00204FF0500383F31188BFF36F8FBF
:10242000BFF34F8F0A4A13680133012B136000D0AA
:102430007047084B1B6813F0FF0FF9D04FF05003A3
:1024400083F31188BFF36F8FBFF34F8FFEE700BF99
:102450000400002004ED00E0084A136843B94FF07F
:10246000500383F31188BFF36F8FBFF34F8FFEE7E5
:10247000013B13600BB983F31188704704000020FF
:10248000EFF30980BFF36F8F154B1A681EF0100F22
:1024900008BF20ED108A20E9F04F10604DF8043D90
:1024A0004FF0500080F31188BFF34F8FBFF36F8F51
:1024B00001F070FA4FF0000080F3118808BC196831
:1024C0000868B0E8F04F1EF0100F08BFB0EC108A9B
:1024D00080F30988BFF36F8F704700BFAFF30080B0
:1024E000503C002008B54FF0500383F31188BFF330
:1024F0006F8FBFF34F8F01F0A5F818B1034B4FF06A
:1025000080521A60002383F3118808BD04ED00E0B7
:10251000064B07491B680748074AA1FB03139B09A1
:10252000013B072103601160704700BF10000020CD
:10253000D34D621014E000E010E000E0314B324A6D
:10254000196891424CD01A68304B9A4251D010B55C
:102550002F4B304C1A78304882B0D2B2FF21019212
:1025600019701B78DBB28DF803309DF803209DF8BD
:10257000031002F0500207230906227003600ED5F3
:10258000062300E00B469DF803205200D2B28DF8DE
:1025900003209DF80320120603F1FF31F2D40199C4
:1025A0001B4C1E4A1B02C9B203F4E0630360217096
:1025B000136843F470031360136843F070431360AF
:1025C000FFF7A6FF164B00221A60FFF7EFFE154A31
:1025D000136843F040431360FFF7D8FEFFF7BEFED9
:1025E0004FF0500383F31188BFF36F8FBFF34F8F0A
:1025F000FEE74FF0500383F31188BFF36F8FBFF3F3
:102600004F8FFEE700ED00E071C20F4170C20F4135
:1026100000E400E0300000203400002020ED00E065
:102620000400002034EF00E0EFF305830F2B0ED9F8
:102630001049114A5B5C12789A4208D94FF0500356
:1026400083F31188BFF36F8FBFF34F8FFEE70B4B00
:102650000B4A1B68126803F4E063934208D94FF0F9
:10266000500383F31188BFF36F8FBFF34F8FFEE7E3
:10267000704700BFF0E300E0300000200CED00E008
:102680003400002010B4114B1A68824201D2134664
:10269000FAE75C681919884203D1416821445960FE
:1026A0001846446801198A4209D1094909688A42D1
:1026B00005D05168126802602144416000E0026068
:1026C000984218BF18605DF8044B7047483C0020E2
:1026D00038000020F8B5044600F09EFF404803682B
:1026E000002B56D03F4A15682C424DD1002C4BD0C0
:1026F00004F1080250071CBF22F007020832002A2A
:1027000042D0394F3E68B2423ED83848046806E0AD
:10271000D4F800E0BEF1000F04D020467446616892
:102720008A42F5D89C422FD0236803608B1A102B65
:1027300010D9A018410708D04FF0500383F3118837
:10274000BFF36F8FBFF34F8FFEE743606260FFF709
:1027500099FF6168264A1068761A00232943864249
:102760006160236004F1080438BF16603E6001F028
:1027700017F863070BD04FF0500383F31188BFF3B2
:102780006F8FBFF34F8FFEE701F00AF80024204659
:10279000F8BD18494D071FD0CA1D22F0070201F5E8
:1027A00070539B1A11460B44083B23F007030E4D50
:1027B0000E4EDFF83CE00B4F03605A1A00202A60EF
:1027C0004FF000457060316058601860CEF800200E
:1027D0003D604A600B6087E74FF47053E3E700BF4A
:1027E000380000203C3C0020403C0020483C0020B9
:1027F000443C00203C000020D0B1194A50F8043C71
:102800001268134208D14FF0500383F31188BFF3CD
:102810006F8FBFF34F8FFEE750F8081C49B14FF0A0
:10282000500383F31188BFF36F8FBFF34F8FFEE721
:10283000704723EA020310B540F8043C044600F058
:10284000EBFE084A54F8043C1168A4F108000B445C
:102850001360FFF717FFBDE8104000F0A1BF00BFF5
:102860003C3C0020403C002070B51546026C866B55
:10287000044632B905683DBB406801F015FA656051
:1028800025E06DB980680BF054FEA368216C626886
:102890000B449342A36017D32368A360284616E035
:1028A000C0680BF046FE236CE26821685B421A4464
:1028B0008A42E26002D262681344E360022D03D1CF
:1028C00026B1013E002002E0002000E03046013643
:1028D000A66370BD026C034672B110B40846D96895
:1028E0005C681144A142D96024BF1968D960D968D5
:1028F0005DF8044B0BF01DBE7047000070B5054637
:10290000FFF788FD95F8454064B2002C16DD6B6A30
:10291000A3B105F1240605E0013CE3B25CB26BB162
:102920006B6A5BB1304601F0BFF80028F4D0013C7F
:1029300001F058F9E3B25CB2002BF1D1FF2385F826
:102940004530FFF789FDFFF765FD95F8444064B217
:10295000002C16DD2B69A3B105F1100605E0013C42
:10296000E3B25CB26BB12B695BB1304601F09CF80D
:102970000028F4D0013C01F035F9E3B25CB2002B41
:10298000F1D1FF2385F84430BDE87040FFF764BD06
:1029900040B94FF0500383F31188BFF36F8FBFF33B
:1029A0004F8FFEE770B5064601FB00F048300D463C
:1029B000FFF790FE044618B325B300F148032360E7
:1029C000E6632564FFF726FD236CE16B2268A260B5
:1029D00001FB03F1CB1A134400200A44FF21A0633A
:1029E000E36084F84410626004F1100084F845103C
:1029F000FFF766FC04F12400FFF762FCFFF72CFDF3
:102A0000204670BD0346DAE72DE9F04F85B001920C
:102A1000002800F00781002900F03C81022B00F023
:102A20002C8104461E460F4601F0E2F828B9019BAE
:102A3000002B40F01981994601E04FF00009FFF7A3
:102A4000E9FCA26BE36BDFF868A29A424FF0000842
:102A50007CD3022E7AD0019D002D00F0F980B9F1CF
:102A6000000F00F0F180FFF7F7FC00F0D5FDFFF755
:102A7000D1FC94F84430FF2B08BF84F8448094F8CC
:102A80004530FF2B08BF84F84580FFF7E5FC01A91E
:102A900002A801F063F8002840F0CD80FFF7BAFCEF
:102AA000A26BE36B9A4266D0FFF7D6FCFFF7B2FC4D
:102AB00094F845506DB2002D16DD636AA3B104F1A0
:102AC000240905E0013DEBB25DB26BB1636A5BB115
:102AD000484600F0E9FF0028F4D0013D01F082F8FB
:102AE000EBB25DB2002BF1D1FF2384F84530FFF744
:102AF000B3FCFFF78FFC94F844506DB2002D16DD47
:102B00002369A3B104F1100905E0013DEBB25DB208
:102B10006BB123695BB1484600F0C6FF0028F4D0D2
:102B2000013D01F05FF8EBB25DB2002BF1D1FF2364
:102B300084F84430FFF790FC00F032FEFFF76AFCA7
:102B4000A26BE36B9A424FF0010982D232463946BA
:102B50002046FFF789FE636A002B7DD138B1544BC4
:102B60004FF080521A60BFF34F8FBFF36F8FFFF7A4
:102B700073FC012065E004F11009FFF76DFC484685
:102B8000019900F03FFFFFF745FC94F845506DB206
:102B9000002D16DD636AA3B104F1240B05E0013DAD
:102BA000EBB25DB26BB1636A5BB1584600F07CFF7B
:102BB0000028F4D0013D01F015F8EBB25DB2002B16
:102BC000F1D1FF2384F84530FFF746FCFFF722FCE4
:102BD00094F844506DB2002D04DC11E0013DEBB2DD
:102BE0005DB26BB123695BB1484600F05DFF002820
:102BF000F4D0013D00F0F6FFEBB25DB2002BF1D155
:102C0000FF2384F84430FFF727FC00F0C9FD0028BB
:102C100094D14FF08053CAF80030BFF34F8FBFF309
:102C20006F8F8BE74FF0500383F31188BFF36F8FE3
:102C3000BFF34F8FFEE72046FFF760FE00F0B0FDC8
:102C4000002005B0BDE8F08F02A800F071FF0AE790
:102C5000FFF702FC2846F4E704F1240000F024FF0B
:102C600000287FF47CAF82E74FF0500383F3118894
:102C7000BFF36F8FBFF34F8FFEE7C26B012A3FF4A4
:102C8000D0AE4FF0500383F31188BFF36F8FBFF3C3
:102C90004F8FFEE7026C002A3FF4C0AE4FF05003A6
:102CA00083F31188BFF36F8FBFF34F8FFEE700BF31
:102CB00004ED00E070B54820FFF70CFD044650B36A
:102CC000002501232060C3630564FFF7A3FB226C8A
:102CD000E36B2168A16003FB02F39A1A0A440B44D8
:102CE000FF26E2606360A56304F1100084F844608D
:102CF00084F84560FFF7E4FA04F12400FFF7E0FAF6
:102D0000FFF7AAFB65602560E5602B462A46294649
:102D10002046FFF779FE204670BD00BF2DE9F8433D
:102D2000F0B1002941D0022B33D004461F46904613
:102D30008946FFF779FCEFF311864FF0500383F3D8
:102D40001188BFF36F8FBFF34F8FA26BE36B9A4273
:102D50000FD3022F0DD0002086F31188BDE8F88331
:102D60004FF0500383F31188BFF36F8FBFF34F8F82
:102D7000FEE794F845503A4649466DB22046FFF7C3
:102D800073FD6B1C1DD06B1C5BB284F845300120B9
:102D9000E2E7C46B012CC8D04FF0500383F31188D5
:102DA000BFF36F8FBFF34F8FFEE7046C002CBAD0D8
:102DB0004FF0500383F31188BFF36F8FBFF34F8F32
:102DC000FEE7636A002BE2D004F1240000F06CFE01
:102DD0000028DCD0B8F1000FD9D00120C8F80000DD
:102DE000BAE700BF78B3036C43B14FF0500383F3ED
:102DF0001188BFF36F8FBFF34F8FFEE70368002B7F
:102E00003AD070B504460D46FFF70EFCEFF311867D
:102E10004FF0500383F31188BFF36F8FBFF34F8FD1
:102E2000A26BE36B9A4225D294F8453001325BB233
:102E3000A2635A1C10D001335BB284F845300120E4
:102E400086F3118870BD4FF0500383F31188BFF3F0
:102E50006F8FBFF34F8FFEE7636A002BEFD004F153
:102E6000240000F021FE0028E9D0002DE7D0012049
:102E70002860E5E70020E3E74368002BC1D04FF06E
:102E8000500383F31188BFF36F8FBFF34F8FFEE7BB
:102E90002DE9F04784B00192002800F01B81002941
:102EA00000F0498104461F460E4600F0A1FE50B9CD
:102EB000019D4DB14FF0500383F31188BFF36F8F25
:102EC000BFF34F8FFEE70025FFF7A4FAD4F838A030
:102ED000DFF87C924FF00008BAF1000F40F08A80D2
:102EE000019B002B00F0078115B902A800F020FE1D
:102EF000FFF7B2FA00F090FBFFF78CFA94F8443039
:102F0000FF2B08BF84F8448094F84530FF2B08BF9E
:102F100084F84580FFF7A0FA01A902A800F01EFE80
:102F2000002840F08780FFF775FAA36B002B78D15B
:102F3000FFF792FA2368002B00F0D58004F1240AF1
:102F40005046019900F05EFDFFF764FA94F8455091
:102F50006DB2002D04DC11E0013DEBB25DB26BB14E
:102F6000636A5BB1504600F09FFD0028F4D0013D3C
:102F700000F038FEEBB25DB2002BF1D1FF2384F8F4
:102F80004530FFF769FAFFF745FA94F844506DB2FF
:102F9000002D16DD2369A3B104F1100A05E0013DFF
:102FA000EBB25DB26BB123695BB1504600F07CFDC2
:102FB0000028F4D0013D00F015FEEBB25DB2002B0D
:102FC000F1D1FF2384F84430FFF746FA00F0E8FB24
:102FD00038B94FF08053C9F80030BFF34F8FBFF3BB
:102FE0006F8F0125FFF716FAD4F838A0BAF1000F59
:102FF0003FF476AF31462046E568FFF76BFC002FC3
:103000007FD122680AF1FF33A36312B900F0A6FE54
:1030100060602369002B40F08780FFF71DFA0120D4
:103020006CE0FFF719FA2046FFF768FC012500F075
:10303000B7FBD7E7FFF7EEF994F845506DB2002DD6
:1030400016DD636AA3B104F1240A05E0013DEBB289
:103050005DB26BB1636A5BB1504600F025FD00289C
:10306000F4D0013D00F0BEFDEBB25DB2002BF1D11A
:10307000FF2384F84530FFF7EFF9FFF7CBF994F819
:1030800044506DB2002D16DD2369A3B104F1100A7E
:1030900005E0013DEBB25DB26BB123695BB1504617
:1030A00000F002FD0028F4D0013D00F09BFDEBB2E2
:1030B0005DB2002BF1D1FF2384F84430FFF7CCF947
:1030C00000F06EFBFFF7A6F9A36BA3B1FFF7C4F9FD
:1030D000012587E74FF0500383F31188BFF36F8F0B
:1030E000BFF34F8FFEE7FFF795F9606800F090FDA2
:1030F000FFF7B2F922E7FFF7AFF9002004B0BDE80F
:10310000F087636AE560002B87D004F1240000F0AB
:10311000CBFC002881D00E4B4FF080521A60BFF3D9
:103120004F8FBFF36F8F78E704F1100000F0BCFC05
:103130000028F0D171E7026C002A3FF4B3AE4FF0E3
:10314000500383F31188BFF36F8FBFF34F8FFEE7F8
:1031500004ED00E02DE9F843B0B179B3054690469F
:103160008946FFF761FAEFF311874FF0500383F3BD
:103170001188BFF36F8FBFF34F8FAC6B6CB92046D4
:1031800087F31188BDE8F8834FF0500383F311886B
:10319000BFF36F8FBFF34F8FFEE795F8446049464A
:1031A000284676B2FFF796FB013C731CAC6311D046
:1031B000731C5BB285F844300120E1E7036C002BFF
:1031C000CCD04FF0500383F31188BFF36F8FBFF360
:1031D0004F8FFEE72B69002BEED005F1100000F0B9
:1031E00063FC0028E8D0B8F1000FE5D00120C8F852
:1031F0000000C5E740B110B50446FFF70BF9A46B1A
:10320000FFF72AF9204610BD4FF0500383F31188D1
:10321000BFF36F8FBFF34F8FFEE700BF08B1806B26
:1032200070474FF0500383F31188BFF36F8FBFF3E4
:103230004F8FFEE740B31F4B5A6890422DD0DA689B
:10324000904232D05A69904231D0DA69904226D009
:103250005A6A904225D0DA6A904224D05A6B904242
:1032600006D0DA6B904208BF072202D0FFF7C4BA3B
:10327000062210B403EBC2040021616043F832104F
:103280005DF8044BFFF7B8BA4FF0500383F3118891
:10329000BFF36F8FBFF34F8FFEE70022E9E70322F2
:1032A000E7E70422E5E70522E3E70122E1E702225E
:1032B000DFE700BF2C420020F8B51B4B1B4D1E68FA
:1032C0002B680446181D0F46FFF734F840B92B68E9
:1032D0001749D86A0B680122824023EA02030B6077
:1032E000631C18D034442B68A6425C600BD8114B89
:1032F000186829680431FFF703F80F4B1A689442E5
:1033000038BF1C60F8BD0D4B18682968BDE8F8404F
:103310000431FEF7F5BF002FE4D0296808480431D6
:10332000BDE8F840FEF7DCBF743D0020503C0020B3
:10333000FC3C0020543C00202C3D0020583C002048
:103340004C3D00202DE9F84F4FEA820A8046504656
:103350000D4699460B9FFFF7BDF9002800F0C88085
:1033600006465420FFF7B6F90446002800F0CD8049
:1033700006632B7880F83430AAF1040A2B7856447F
:1033800026F00706002B47D06B7880F835306B7835
:10339000002B41D0AB7880F83630AB78002B3BD097
:1033A000EB7880F83730EB78002B35D02B7980F82C
:1033B00038302B79002B2FD06B7980F839306B792E
:1033C00053B3AB7980F83A30AB792BB3EB7980F813
:1033D0003B30EB7903B32B7A80F83C302B7ADBB1AE
:1033E0006B7A80F83D306B7AB3B1AB7A80F83E30BF
:1033F000AB7A8BB1EB7A80F83F30EB7A63B12B7B01
:1034000080F840302B7B3BB16B7B80F841306B7B8D
:1034100013B1AB7B80F842300A9D062D28BF0625EC
:103420004FF0000B04F1040AE5626564504684F82D
:1034300043B0C4F848B0FEF74FFFC5F1070504F1EB
:103440001800FEF749FFC4F84CB0A561246184F868
:1034500050B064624A4641463046FEF7B1FF2060F4
:1034600007B13C60FEF7D6FF3E4A3F4E136801337A
:1034700013603368002B3FD03C4F3B6863B3E36A73
:10348000DFF80C813A4ADFF80CE11068DEF800C082
:1034900001252844106005FA03F203EB830342EA96
:1034A0000C0208EB83005146CEF80020FEF718FF0F
:1034B000FEF7D2FF3B68C3B13268E36AD26A9A4230
:1034C00013D22C4B4FF080521A60BFF34F8FBFF3D3
:1034D0006F8F2846BDE8F88F3268E36AD26ADFF85A
:1034E000B0809A4298BF3460CCE72846BDE8F88F98
:1034F0004FF0FF30BDE8F88F34601368012B0BD01C
:10350000E36ADFF88C80194FBCE73046FFF774F9A7
:103510004FF0FF30BDE8F88FDFF87480454608F1C2
:103520008C0728461435FEF7CBFEBD42F9D1DFF8F3
:103530006890114D0D4F4846FEF7C2FE2846FEF733
:10354000BFFE0E48FEF7BCFE0D48FEF7B9FE0D4863
:10355000FEF7B6FE0C4B0D4AC2F800901D60E36A00
:1035600090E700BFE83C0020503C0020483D002090
:10357000F83C002004ED00E0143D0020343D002024
:10358000603D00204C3D0020583C0020543C002071
:103590005C3C0020FC3C0020003D002030B583B0A6
:1035A000174B01930024009423464FF48072154971
:1035B0001548FFF7C7FE01280CD0013001D003B039
:1035C00030BD4FF0500383F31188BFF36F8FBFF30B
:1035D0004F8FFEE74FF0500383F31188BFF36F8FD7
:1035E000BFF34F8F09490A4A0A4B4FF0FF350D6070
:1035F00010601C6003B0BDE83040FEF79FBF00BF05
:10360000283D0020BCE50008053900082C3D0020BD
:10361000483D0020743D0020024A136801331360C6
:10362000704700BFF43C0020014B1868704700BF92
:10363000743D002008B5FEF7F7FF014B186808BD80
:10364000743D00202DE9F84F4A4B1B68002B53D1E5
:10365000494B1E6801361E60002E5AD0DFF838B183
:10366000DBF80020964261D3444D454FDFF82C81B2
:1036700000242EE02A68D268D2F80C90D9F8041001
:1036800009F1040A8E4250466AD3FEF753FED9F878
:10369000281009F1180009B1FEF74CFE394BD9F892
:1036A0002C001B68012202FA00FE4EEA030E00EB1A
:1036B0008000344B514607EB8000C3F800E0FEF772
:1036C0000FFED8F80000D9F82C10C26A914228BF2A
:1036D00001242A681268002ACCD14FF0FF32CBF8BF
:1036E0000020D8F80030DB6A03EB830357F823305F
:1036F000022B28BF012404E0234A1368013313601E
:103700000024224B1B68002B18BF01242046BDE873
:10371000F88F1A4D2B681B686BB14FF0500383F381
:103720001188BFF36F8FBFF34F8FFEE7144FDFF8A1
:103730006C800024D5E7164B2968164A1868286063
:1037400019601368013313602B681B685BB12A682A
:10375000DFF844B0D268D2685268CBF800207FE727
:10376000CBF80010BDE7DFF830B04FF0FF32CBF8F8
:10377000002075E7F43C0020743D0020543C0020FC
:103780005C3C0020FC3C0020F03C0020783D002008
:10379000583C0020303D00202C3D0020503C0020B3
:1037A0002DE9F84F394C236843B94FF0500383F3A8
:1037B0001188BFF36F8FBFF34F8FFEE7FEF72AFE2E
:1037C0002368013B23602468002C51D1304B1B68D7
:1037D000002B4DD02F4DDFF8D4A02F4EDFF8D09026
:1037E000DFF8D0B01FE0DAF80C30DC6804F1040830
:1037F00004F11800FEF79EFD4046FEF79BFDE06ACF
:10380000326807FA00F300EB80001343414609EBEE
:1038100080003360FEF764FDDBF80030E26ADB6AAB
:103820009A4228BF2F60DAF800300127002BDAD146
:103830003CB11A4B1A68126802BB194B4FF0FF32A9
:103840001A60184E34683CB10127FFF7FBFE00B147
:103850002F60013CF9D134602B684BB1124B4FF013
:1038600080521A60BFF34F8FBFF36F8F012400E0C7
:103870000024FEF7F1FD2046BDE8F88F1A68084BDA
:10388000D268D26852681A60DBE700BFF43C0020BF
:10389000E83C0020783D0020FC3C0020543C002007
:1038A0002C3D0020F03C002004ED00E0343D0020E1
:1038B0005C3C0020503C002008B558B10F4B196803
:1038C00089B14FF0500383F31188BFF36F8FBFF3BB
:1038D0004F8FFEE70A4B4FF080521A60BFF34F8FB5
:1038E000BFF36F8F08BD1A6801321A60FFF7E4FC5E
:1038F000FFF756FF0028EDD008BD00BFF43C0020C4
:1039000004ED00E02DE988481C4C1D4E1D4DDFF8EC
:103910007C80DFF87CA04FF0805906E02368376890
:1039200001332360FFF73CFF6FB92B68002BF5D103
:10393000D8F80030012BF8D9CAF80090BFF34F8FA8
:10394000BFF36F8FF1E7FEF765FDF368D3F80CB0B6
:103950000BF10400FEF7EEFC0B4B0B4A1B68013B1E
:1039600013602B68013B2B60FEF776FDDBF830001F
:10397000FEF742FF5846FEF73FFFD6E7F43C002033
:10398000603D0020EC3C0020E83C00205C3C002036
:1039900004ED00E0164B1B6833BB1649164A0B605A
:1039A0001368B3FA83F3DBB2C3F11F0303EB8303A2
:1039B0009B001249CA58C81842B94FF0500383F30C
:1039C0001188BFF36F8FBFF34F8FFEE74268083354
:1039D000526842600B449A4208BF5268084B08BFC5
:1039E0004260D2681A607047024B01221A60704729
:1039F000F43C0020783D0020FC3C00205C3C002092
:103A0000503C002048B370B5204D0C462968183151
:103A1000FEF776FC1E4B1E6828680430FEF78AFC11
:103A200040B92B681B49D86A0B680122824023EAFF
:103A300002030B60631C19D034442B68A6425C60FF
:103A40001BD8154B186829680431FEF759FC134B35
:103A50001A68944238BF1C6070BD4FF0500383F366
:103A60001188BFF36F8FBFF34F8FFEE729680C48B3
:103A70000431BDE87040FEF733BC0A4B1868296872
:103A8000BDE870400431FEF73BBC00BF503C002055
:103A9000743D0020FC3C0020543C00202C3D0020C4
:103AA0004C3D0020583C0020F8B5C368DC682CB3BE
:103AB00004F118052846FEF73DFC174B1B6833BB85
:103AC000261D164D3046FEF735FCE26A2F68144875
:103AD0000123934002EB82023B43314600EB82001C
:103AE0002B60FEF7FDFB0F4BE26A1B68DB6A9A4214
:103AF00083BF0D4B012018600020F8BD4FF050032C
:103B000083F31188BFF36F8FBFF34F8FFEE7294612
:103B10000648FEF7E5FBE6E7F43C0020FC3C00200D
:103B20005C3C0020503C0020783D0020343D0020CB
:103B300030B1084A084B12681B6880E80C007047D7
:103B40004FF0500383F31188BFF36F8FBFF34F8F94
:103B5000FEE700BF303D0020743D0020F8B570B393
:103B600021B30D460446FEF755FC2B681B485A1C32
:103B700001682DD01A4E276832689742626806D0D5
:103B8000914204D30125FEF767FC2846F8BD8F1A41
:103B9000BB42F7D95B1A1344316802682B600025D9
:103BA00084E80600FEF758FC2846F8BD4FF05003A5
:103BB00083F31188BFF36F8FBFF34F8FFEE74FF092
:103BC000500383F31188BFF36F8FBFF34F8FFEE76E
:103BD0000025FEF741FC2846F8BD00BF743D0020DB
:103BE000303D0020014B01221A607047783D0020D3
:103BF000054B1B6833B1054B1B68002B0CBF022023
:103C00000020704701207047483D0020F43C002010
:103C1000002841D0F8B5214CC36A2268D26A934289
:103C200012D28269002A04DB2268D26AC2F107023A
:103C300082611B4D426903EB830305EB83039A42C8
:103C400003D02368DB6AC362F8BD071D0646384609
:103C5000FEF770FBF0B9F36A03EB830255F82220FC
:103C6000C2B9104A0120116800FA03F321EA0303E4
:103C7000136023681468D86AF062012383402343E9
:103C800000EB8000394605EB80001360BDE8F8408A
:103C9000FEF726BB034AECE7704700BF503C00200C
:103CA0005C3C0020FC3C002008B3F8B5284B1B68A6
:103CB000984208D04FF0500383F31188BFF36F8F01
:103CC000BFF34F8FFEE7836C43B94FF0500383F38C
:103CD0001188BFF36F8FBFF34F8FFEE7C16A426C4D
:103CE000013B9142836400D01BB10020F8BD00204D
:103CF0007047071D04463846FEF71CFBC0B1154847
:103D0000154A636CD2F800C0E3620125C3F1070EC7
:103D100005FA03F603EB830346EA0C0600EB830087
:103D20003946C4F818E01660FEF7DAFA2846F8BDFE
:103D3000E16A0848084A01EB810350F82330002B60
:103D4000DFD1136801258D4023EA05031360D8E70E
:103D5000503C00205C3C0020FC3C0020044B1A68D6
:103D60001AB119688A6C01328A641868704700BFFA
:103D7000503C002030B587B090B10C46034600F1AE
:103D80000C02292501A90B4801938DF80C408DF8F0
:103D90000D5001F015FD08B99DF9080007B030BDC0
:103DA000054B064906484FF44A720AF017F96FF0BE
:103DB0000F00F3E7A954000820E6000854E60008C5
:103DC00070E6000870B50D4686B0114601F02EF879
:103DD000044668B306A900F10C0641F8140D3246FA
:103DE00023488DF80C5001F0EBFC20B363682BB135
:103DF000204B2149214889220AF0F0F804F11005EE
:103E0000284609F043FBE8B104F1140009F03EFB39
:103E100030BB304609F084FBD8B1304609F07CFB5A
:103E2000284609F0DDFA2146072004F073F8002443
:103E3000204606B070BD9DF90830002BD6D1204633
:103E400006B070BD0B4B0E490C488A220AF0C6F82A
:103E5000DAE7084B0B4909488F220AF0BFF8DCE784
:103E6000044B094905488C220AF0B8F8D1E700BF95
:103E7000794D000820E60008B8E6000870E6000862
:103E8000DCE6000818E70008F4E6000830B587B063
:103E9000A8B10446292300F10C0201A90A480194A3
:103EA0008DF80D3001F08CFC054628B99DF90850BD
:103EB00015B9204601F0C0F8284607B030BD0546C8
:103EC000284607B030BD00BFB150000810B586B01D
:103ED000A0B10B460E4914460246002B08BF0B4604
:103EE00001920C48ADF810400C3201A9039301F087
:103EF00067FC08B99DF9080006B010BD064B0749DC
:103F00000748FF220AF06AF86FF00F00F4E700BFDD
:103F1000901201080152000820E6000804E600089B
:103F200070E6000800B587B068B106A900F10C0280
:103F300041F8140D094801F043FC08B99DF9080047
:103F400007B05DF804FB064B064907484FF4B4720E
:103F50000AF044F86FF00F00F2E700BF6552000866
:103F600020E6000898E6000870E60008F0B583B087
:103F7000002935D0002604460D460E6030B390F976
:103F8000080010F10C0F01DA03B0F0BD04F11407C2
:103F9000384609F07BFAB0B13846324601A909F03B
:103FA0003FFAA36A019F63B1324601212046984738
:103FB000019A184B9A421DD0FFB100202F6003B028
:103FC000F0BD3A46F5E76FF00E00DDE7124B1349FE
:103FD000134840F28F120AF001F86FF00F00D3E798
:103FE0000D4B10490E4840F28D1209F0F7FF6FF0AB
:103FF0000F00C9E76FF00C00C6E709F0D3FA94F997
:1040000008300C33A4BFF123237209F0D7FA6FF004
:104010000E00B9E76C42002020E60008E4E5000845
:1040200070E60008C4E500082DE9F04186B00029DB
:1040300000F00981002704460E460F60002800F0BA
:104040000C81037803F0F003102B2DD000F1100841
:104050004046009709F01AFA002800F0BC8094F955
:10406000085015F10C0F03DA284606B0BDE8F081C0
:104070003A464046694609F0D3F9237803F0F00345
:10408000102B009B30D0002B00F09C801A68128906
:10409000A56A1DB120460121A847009B3360002579
:1040A000284606B0BDE8F081062003F0FFFE8046FA
:1040B000002866D02378009703F0F003102B04F15A
:1040C000100722D0384609F0E1F900285CD094F9B5
:1040D000085015F10C0F28DA4146062003F01AFFAC
:1040E000284606B0BDE8F0810194002B00F08D80D9
:1040F0001B896648039304F10C0201A901F060FBDF
:10410000009B002B71D01A89C2E7384609F0BEF92E
:104110000028D7D104F1140009F0B8F9002814BF21
:104120006FF00A056FF00E05D6E7384600226946A3
:1041300009F076F9237803F0F003102B2ED0009FBE
:10414000002F64D0A36A6BB13A681289204601211E
:104150009847009F37B94E4B4E494F4840F28A224C
:1041600009F03CFF00252846C8F80070C8F8047024
:10417000A8F80C50C8F80850C6F8008006B0BDE892
:10418000F0814FF0FF356FE7414B4449424840F220
:10419000F51209F023FF6FF00A059DE7009B0194DB
:1041A000002B4ED01B893948039304F10C0201A95E
:1041B00001F006FB009FA36A002F34D0002BD1D062
:1041C0003A89C3E7324B3649334840F23E2209F080
:1041D00005FF009B5AE72E4B30492F4840F2F5125D
:1041E00009F0FCFE6FF00A053EE7A56A1DB11A460C
:1041F00001212046A8476368002B38D194F9085064
:10420000002D08BF6FF00D052EE7012371E7204B4D
:104210002349214840F23E2209F0E0FEA36A009FB4
:10422000002B91D196E71BB13A46012120469847D1
:1042300063681BBB94F90850002D08BF6FF00D0593
:104240004AE70123AFE7124B164913484FF41D729A
:1042500009F0C4FE6FF00F0506E70D4B12490E483A
:1042600040F2762209F0BAFE6FF00F05FCE6204618
:104270000121FFF77FFD6FF00E05F5E620460121D5
:10428000FFF778FD6FF00E0526E700BF59530008D1
:1042900020E6000864E9000870E6000870E70008FE
:1042A00090E7000850E7000834E70008F0B587B051
:1042B0000C9C002838D01546027802F0F002102A33
:1042C00025D1EDB1027F92070E4615D54CB30127DB
:1042D00000F10C02019001A9184803968DF81430E2
:1042E000049501F06DFA28B99DF9080010B93CB1A8
:1042F0004FB9256007B0F0BD13F00407E6D1E7E73A
:10430000002007B0F0BD049B236007B0F0BD0C4B4C
:104310000C490D4840F2E72209F060FE6FF00500FD
:10432000E8E76FF00500E5E7054B0849064840F26D
:10433000E62209F053FE6FF00F00DBE7B1530008EF
:1043400020E60008B8E7000870E600089CE70008CF
:1043500030B587B090B1034600F10C020325292443
:1043600001A90B4801938DF80C508DF80D4001F018
:1043700027FA08B99DF9080007B030BD054B06497A
:1043800006484FF44A7209F029FE6FF00F00F3E778
:10439000A954000820E6000854E6000870E600086A
:1043A0002DE9F047044617461E46BDF820900D46FD
:1043B000002934D0002C3BD063689D4205D0224BAD
:1043C00022492348BA2209F009FE04F110084046A8
:1043D00009F05CF8C8B1062003F068FD0546A0B1FD
:1043E0000760476006B13668AE60A5F80C9040469D
:1043F00029463E8909F00AF860B9A36AB3B132468A
:1044000001462046BDE8F04718473846BDE8F0476A
:1044100003F060BF2846BDE8F04701F0B5B80A4B8D
:104420000C490B48B12209F0D9FDC3E7BDE8F0877C
:10443000054B09490648B22209F0D0FD3846BDE8CF
:10444000F04703F047BF00BFD4EA00084CEB000878
:1044500070E6000808EB00082CEB00082DE9F0419D
:104460000F460446002800F0828065780026042D5F
:104470006660667057D009F095F8277209F09EF8CB
:10448000A36A7BB10022042120469847A36A4BB15E
:104490000022114620469847A36A1BB10022022140
:1044A0002046984704F11006304608F0EFFF002838
:1044B00044D104F11406304608F0E8FF002848D142
:1044C000012D0DD0033D012D0AD9636A4BB3304B4A
:1044D0003049314840F2BD12BDE8F04109F07EBDDF
:1044E000237F23F004025B0722771AD4636A002B30
:1044F00045D01D681F710C35284609F011F8064695
:1045000060B30023636209F04DF894F908300C336E
:10451000A8BF277209F052F82846BDE8F04108F01C
:10452000F7BFBDE8F08109F03DF894F908300C338D
:10453000A8BF267209F042F80027A1E73046002103
:1045400004F1140608F062FF304608F09FFF0028CF
:10455000B6D03046002108F059FFB1E70C4B0F49A7
:104560000D484FF4DB7209F039FD6662CBE7084B6A
:104570000B4909484FF4C27209F030FD75E7044B4E
:104580000849054840F2B31209F028FD636AB0E714
:10459000D4EA000854E8000870E6000838E800088B
:1045A0000CE800081CE800082DE9F84F0F46044607
:1045B000002800F0D6806378012B06D0884B89490B
:1045C000894840F2E45209F009FD636A002B00F0CB
:1045D000D0806368002B00F0D480636A266AD968B3
:1045E0008E4280F08380227F93F8109090079A6823
:1045F0006068A1EB060554BFC9F3800A4FF0010AB9
:1046000002EB0608B5F5803FB0F860202ABF4FF6F0
:10461000FF75ADB249F0020995423BD9BAF1000FDE
:1046200035D0002A35D1002900F0B3806FF006069E
:104630009346A36A13B1032120469847237F43F092
:1046400010032377002E40F0B280236A626A5B4435
:104650002362D1688B427FD0BAF1000F7CD15546DE
:10466000606807F0E9FE10F10C0F064670DB011DD3
:104670006ED0002D00F09780626A106800231371DD
:1046800000F10C051E466362236263701BE049F073
:10469000020915462E448E42AB4632D84B462A4676
:1046A000414607F0C1F9431CDBB2012B0646024626
:1046B00030D9636A0022DA601D681E7100230C3550
:1046C00063622362637008F06DFF94F908300C3365
:1046D000A8BF267208F072FF17B90020BDE8F88F56
:1046E000284608F015FF0020BDE8F88F3C4B3F49F5
:1046F0003D484FF4BD6209F071FC636A266AD968CF
:1047000071E7374B3A49384840F2136209F066FCCA
:104710006068C3E7BAF1000F14D16368B3F86000B2
:1047200040F2A151884203D9B3F86230042B16D964
:10473000D4F82880B8F1000F11D02A460321204672
:10474000C0477FE7636ADB689D42E6D22A4670E78E
:10475000636A0022DA60AFE7D360012580E716467E
:1047600070E71F4B2349204840F2E35209F036FC22
:1047700021E71B4B20491C4840F2E55209F02EFC72
:1047800027E7174B1D49184840F2E65209F026FC6E
:1047900023E7D4F82880B8F1000F1DD00D468B46D2
:1047A0006FF00606C9E74FF0FF30BDE8F88F721CC6
:1047B0007FF47FAF606807F03FFE10F10C0F0646F4
:1047C000C6DB031DC4D0BAF1000FECD0636A00222F
:1047D000DA606FF006066FE76FF006066AE700BF63
:1047E000D4EA000838E9000870E6000870E900081B
:1047F000A4E900080CE800081CE8000858E90008D3
:104800002DE9F04788460446002800F00681237809
:1048100003F0F003102B06D0924B934993484FF4CA
:10482000517209F0DBFB6378042B06D08D4B904965
:104830008E4840F2453209F0D1FB6368002B00F04E
:10484000F480636A002B00F0F8801B7A6568032B04
:1048500003F0010903F0020779D0B9F1000F05D088
:104860002B7D5A1F012A72D9082B70D08FBB2B7D4C
:10487000012B00F0F2800026B9F1000F6FD1002F5C
:1048800037D1002E3BD13A464946284605F0F4FA86
:10489000064600286ED0711C4FF00002636A42D0B9
:1048A0001D681E7100230C356362637008F07AFE88
:1048B00094F908300C33A8BF267208F07FFEB8F1D7
:1048C000000F02D0284608F023FE00263046BDE83F
:1048D000F087AB7ED806CAD50021284604F0A8FC94
:1048E0002B7D012B00F094800126B9F1000FC6D07A
:1048F00035E00021284604F0BBFC002EC3D0002286
:104900001146284604F0F0FC0021284604F0CAFCB9
:10491000284605F0D5F90646002845D0711C4FF011
:104920000102636ABCD193F809A0BAF1000F4DD11E
:10493000002AB5D0284605F043F8636A1D6883F85D
:1049400004A00C35C4F824A084F801A032E00021B2
:10495000284604F06DFC2B7D012B59D00126002147
:10496000284604F069FC0021284604F0B7FC002F1B
:1049700087D0BEE7636A1D6818710C35606260708D
:10498000B9F1000F06D0A66A002E8FD00022114682
:104990002046B04737B1A66A002E87D000220221F8
:1049A0002046B047002681E7636A1D6818710C3500
:1049B00060626070A66A00226260002E46D0042108
:1049C0002046B047B9F1000FE4D0DCE72B7D012B86
:1049D00010D0C7B901222846264904F085FC284694
:1049E000254904F05FFC2846214604F021FC3046AE
:1049F000BDE8F0871B4B21491C4840F2E33209F027
:104A0000EDFA002FE6D01E49284604F031FCE1E71C
:104A10000021284604F062FC7AE7124B194913483A
:104A200040F2433209F0DAFAF1E60E4B16490F482C
:104A300040F2463209F0D2FA03E70A4B13490B4819
:104A400040F2473209F0CAFA636AFEE6B9F1000F94
:104A50007FF42CAF002F9ED1A4E70021284604F05C
:104A60003DFC10E7D4EA000870E8000870E6000892
:104A700090E80008914A00085D440008C8E8000872
:104A8000E14B0008A8E60008B4E800081CE80008AC
:104A900038B5044668B36178012926D0042919D0B5
:104AA000237FDA0614D5626892B1B2F8600040F252
:104AB000A15188420CD9B2F86220042A08D8A56A0C
:104AC00023F0100323771DB1204600220221A847BE
:104AD000002038BD636A1BB15A7A0AB1013A5A7292
:104AE00001212046FFF78CFEDAE72046FFF75CFD48
:104AF000D6E7044B044905484FF49C7209F06EFA5E
:104B0000C9E700BFD4EA00080CE8000870E6000816
:104B10002DE9F8430546164699460F46002940D030
:104B2000002D47D06B689F4206D0284B2849294862
:104B30004FF4807209F052FA05F11008404608F06F
:104B4000A5FC044650B9EEB13846318904F080F82E
:104B5000304603F0BFFB2046BDE8F883B9F1000FF3
:104B600014D12EB337893146404608F04FFC044635
:104B700048BBAB6A33B128463A462146984720469F
:104B8000BDE8F88300242046BDE8F88308F00AFD5C
:104B900095F908300C33A8BF85F8089008F00EFD91
:104BA000DFE70A4B0C490B48F92209F017FAB7E77F
:104BB0003746D8E7054B09490648FA2209F00EFAAC
:104BC0006FF00504C7E74FF0FF34C4E7D4EA0008EC
:104BD000B4EA000870E6000870EA000894EA0008E9
:104BE00030B583B040B341780129044619D0042977
:104BF0001CD0636893B1B3F8600040F2A1518842C1
:104C00000CD9B3F86230042B08D8237FA56A23F0AF
:104C10001003237715B120460221A847002003B0D6
:104C200030BD0192FFF7C0FC019AE2E70121019239
:104C3000FFF7E6FD019ADCE7034B0449044840F224
:104C4000611209F0CBF9E9E7D4EA00080CE80008A2
:104C500070E600082DE9F04300F1100483B005462A
:104C6000204608F013FC18B301AE3146204608F088
:104C7000FBFB013016D02B7803F0F003102B33D15F
:104C8000019F002FF1D06B68184613B1398903F0EA
:104C9000DFFF384603F01EFB3146204608F0E4FBF8
:104CA0000130E8D1204608F09BFB204608F0F4FBD9
:104CB0001435284608F0EAFB98B101AE294FDFF819
:104CC000B49002E0019CBC4212D13146284608F063
:104CD000CBFB0130F6D1284608F082FB284608F0CD
:104CE000DBFB03B0BDE8F083019800F04DFCBCE7AE
:104CF0002046FFF7AFFF636818461BB104F060FE63
:104D00000023636004F1100008F0C0FBC8B904F18F
:104D1000140004F10C0808F0B9FB50B9404608F043
:104D2000FBFB404608F002FC2146072003F0F2F8A6
:104D3000CBE74B4640F2E5220B490C4809F04EF90F
:104D4000ECE740F2E2220A4908484B4609F046F9EE
:104D500004F1140004F10C0808F098FB0028DDD0E1
:104D6000E7E700BF6C42002034EA000870E6000864
:104D7000F8E90008D4EA000838B500230568037193
:104D80000446686860B108F00DFC236893F90820B8
:104D90000C32A4BF22791A72BDE8384008F00EBC6C
:104DA0002B7803F0F003102B16D0202B30D108F015
:104DB00057FA68602268506858B113781649222B58
:104DC00004BF0123037408F025FA23685B68002BF5
:104DD000D9D1FF232371D6E704F0D6FE686021689D
:104DE0004D68002DF5D0284604F022FA28460B49DC
:104DF00004F022FA28460A4904F03AFA2846022228
:104E0000084904F071FA2846074904F04BFADCE738
:104E1000FA232371B7E700BFA1430008114B000834
:104E2000E14B0008914A00085D440008F8B50546CA
:104E300007200F4603F03AF8044618B305F0F002D5
:104E40000023102A05700372436001D0202A1BD171
:104E500004F110063046062108F0B0FAD8B9014630
:104E600004F10C0008F01CFB0546D8B904F114004D
:104E700008F012FB4FF0FF336570A7626562256290
:104E80002577A3612046F8BD084B094909484FF42E
:104E90002A7209F0A3F821460720002403F03AF80B
:104EA0002046F8BD304608F09BFAF4E7D4EA000843
:104EB000D0E9000870E600082DE9F041002841D053
:104EC00000F114080446404617460D4608F0DEFA85
:104ED000002837D05DB3A16A2078FFF7A7FF064608
:104EE000A8B345600146284604F0A2F9284648497F
:104EF00004F0A2F92846474904F0BAF902222846EC
:104F0000454904F0F1F92846444904F0CBF93772D9
:104F10004046314608F07AFA054648BBA36A1BB101
:104F200020462A46294698472846BDE8F081404653
:104F30003B4908F06BFA024620B9A36A13B1204638
:104F4000114698476FF005052846BDE8F0814046B8
:104F5000334908F05BFA024638B9A36A2BB1204600
:104F6000114698474FF0FF35DEE74FF0FF35DBE79E
:104F700074680021204604F05BF92046002104F00B
:104F80005BF92046002104F073F900221146204607
:104F900004F0AAF92046002104F084F906F1100477
:104FA00000237360204608F01BFA204608F074FACC
:104FB000736833B11B4B1C491C484FF4387209F01D
:104FC0000DF8204608F062FAD0B906F1140008F096
:104FD0005DFA30B1134B1649144840F2E52208F04F
:104FE000FDFF06F10C04204608F096FA204608F072
:104FF0009DFA3146072002F08DFF4FF0FF3593E711
:10500000084B0C49094840F2E22208F0E7FFDCE7D0
:10501000114B0008E14B0008914A00085D4400086C
:105020006C420020D4EA0008DCE7000870E60008C3
:1050300034EA0008F8E9000838B54368044633B19B
:10504000164B174917484FF4387208F0C7FF04F1A0
:10505000100008F01BFAC8B904F1140008F016FAA1
:1050600030B10E4B10490F4840F2E52208F0B6FF70
:1050700004F10C05284608F04FFA284608F056FAC5
:1050800021460720BDE8384002F044BF034B0749E2
:10509000044840F2E22208F0A1FFDDE7D4EA00086C
:1050A000DCE7000870E6000834EA0008F8E90008C8
:1050B000036870B55D7804465DB31A7802F0F002BB
:1050C000102A07D0484B4949494840F2014208F0AC
:1050D00085FF2368022D1CD0032D17D0FB222271DF
:1050E00003F10C0008F01CFA002839D02368002BCB
:1050F00036D008F057FA236893F908200C32A4BF81
:1051000022791A72BDE8704008F058BA1A7F520727
:10511000E4D5002518462571FFF79CFD23685868E3
:1051200040B11A7802F0F002102A1FD0202A18D0BD
:1051300000225A609D6A002DD2D0002218461146E6
:10514000A84723689D6A002DCAD018460022022174
:10515000A847236803F10C0008F0E2F90028C5D144
:1051600070BDC56108F05AF82368E1E75A6A002A61
:1051700035D01D4B1F491E4840F2354208F02EFF26
:1051800023680421032259701846227200215C62B0
:10519000FFF736FB0028E3D023685B78042B06D0AA
:1051A000114B1549124840F23B4208F017FF1348D3
:1051B00008F0E4F9206800210C3008F08DF90F4860
:1051C00008F0D6F923685B78002BC9D0064B0A4952
:1051D000074840F23F42BDE8704008F0FFBE1A6A3F
:1051E000002ACED0C5E700BFD4EA0008ECE80008EA
:1051F00070E6000800E900081CE900087042002081
:1052000010B5036893F9082012F10C0F04460DDA6B
:10521000027108F0C7F9236893F908200C32A4BF83
:1052200022791A72BDE8104008F0C8B9FA2202715A
:1052300058680028EDD01B7803F0F003102B0AD03B
:10524000202BE6D1A289A16807F078FF236820719E
:10525000002BDED110BDA289A16803F0F7FB236803
:105260002071F5E730B5036893F9082012F10C0FAF
:1052700083B004460DDA027108F094F9236893F9BB
:1052800008200C32A4BF22791A7208F097F903B0F3
:1052900030BDF522027158680028EDD01A7802F06E
:1052A000F002102A02D0F0232371E5E75B7823B9DE
:1052B000037D3BB1FA232371DEE7022BDCD100230F
:1052C0002371D9E70DF10702FF2103F035FC0546F4
:1052D00040B32068103008F0D9F8002830D1206899
:1052E00000231430237108F0D1F810B394F90400AE
:1052F00078B9216802234B704D60284603F098FF6F
:1053000023681449586803F0E9FF2368002BBED0D6
:10531000B2E7284604F0D4FC236800225A60002B30
:10532000B5D0A9E79DF8073023712368002BAED0D4
:10533000A2E720680621143008F040F82071D7E772
:105340002068103008F04CF82068103008F0A4F8FD
:10535000C5E700BFB94E0008F8B500220368027126
:105360000646586820B11B7803F0F003102B0CD0D0
:1053700008F018F9336893F908200C32A4BF327989
:105380001A72BDE8F84008F019B9B4684FF6FF7713
:1053900000E05868BC42254628BF3D46A9B203F04C
:1053A00057FC641B3368F4D1002BE1D1F8BD00BF7A
:1053B00010B5036893F9082012F10C0F04460DDABA
:1053C000027108F0EFF8236893F908200C32A4BFAB
:1053D00022791A72BDE8104008F0F0B81A7802F08D
:1053E000F002102A02D0FA230371EAE75A7812B1C8
:1053F000FB230371E5E75A68002A45D05A6A012168
:105400005970002A34D0224B2249234840F283624B
:1054100008F0E4FDE368002B2ED0206800214462F0
:105420000162FFF7C1F810B323685B78012B06D047
:10543000174B1A49184840F2896208F0CFFD184806
:1054400008F09CF8206800210C3008F045F814485A
:1054500008F08EF823685B78012B08D10C4B0F49BC
:105460000D4840F28D62BDE8104008F0B7BD10BD98
:105470001B6A002BCED0C6E7054B0A49064840F20E
:10548000846208F0ABFDC8E7F523037199E700BF1C
:10549000D4EA000800E9000870E600081CE90008EA
:1054A0007042002024E9000810B5044600684368F3
:1054B00023B1037803F0F003102B0ED0F5232371F2
:1054C00008F070F8236893F908200C32A4BF227901
:1054D0001A72BDE8104008F071B8227A4378032AA6
:1054E00001D0022BEAD0032BE8D0012B36D0D30712
:1054F0003BD4436A002B34D01E4B1F491F4840F257
:105500001C7208F06BFD2068446204234370002184
:10551000FFF776F9C0B123685B78042B06D0154BF2
:105520001749164840F2217208F058FD154808F056
:1055300025F8206800210C3007F0CEFF114808F054
:1055400017F823685B7803B910BD0A4B0C490B4868
:1055500040F22572BDE8104008F040BDFB232371E6
:10556000AEE7036A002BCFD0C6E7FFF773FB2068D6
:10557000BFE700BFD4EA000800E9000870E60008B1
:105580001CE900087042002070B110B504460068A4
:1055900020B102F09FFE00236360236021460620B5
:1055A000BDE8104002F0B6BC704700BF08B5F8B1C6
:1055B000A9B15AB1436833B15B680B6043685B893A
:1055C0001380002008BD6FF0010008BD0D4B0E498F
:1055D0000E48C42208F002FD6FF00F0008BD094B11
:1055E0000B490A48C32208F0F9FC6FF00F0008BD10
:1055F000044B08490548C22208F0F0FC6FF00F0088
:1056000008BD00BF6CEB00081CEC000870E6000849
:10561000FCEB0008E0EB000880B5224B1B6882B071
:1056200013B1214A106898472048214FDFF88C8039
:10563000064607F09DFF304607F0A0FF01A9384657
:1056400007F040FC304607F093FF019C14B3257827
:10565000032D0BD0042D43464FF09B0215491648ED
:1056600014D0022D0AD008F0B9FCE4E7A068636802
:1056700098470199082002F04DFCDCE7201D0BC87B
:1056800098470199092002F045FCD4E76368A068B7
:105690009847D0E7434669220649074808F09EFC30
:1056A000C9E700BF803D0020843D002070420020FB
:1056B0007C3D0020D0EC000870E60008A0EC00085B
:1056C00070B591F82B3013F0180F06460D461B48A5
:1056D00014D107F0DBFEE0B1092002F0E7FB04463D
:1056E00048B3174B02226660A5602270E360214632
:1056F000124807F08BFED0B9002070BD07F0C6FE3F
:1057000070B1092002F0D2FB0446A0B102220D4B79
:10571000E9E70D4B0D490E48B52208F05FFCDBE7C9
:10572000094B0A490A48B52208F058FCE9E7214626
:10573000092002F0EFFB4FF0FF3070BD7C3D0020F0
:10574000A16D0008B1D20008A0EC000890EC0008A0
:1057500070E60008F8B5074615480E46154607F0EE
:1057600095FE98B1082002F0A1FB0446E0B10323A6
:1057700047608660037001460D481DB907F046FE7C
:1057800058B9F8BD07F036FE0020F8BD094B0A49AC
:105790000A48EE2208F022FCE4E72146082002F045
:1057A000B9FB4FF0FF30F8BD4FF0FF30E9E700BF25
:1057B0007C3D0020A0EC000890EC000870E600089A
:1057C00070B5064C0E460546204607F0D1FE304621
:1057D000A847204607F0D2FE002070BD704200208E
:1057E00030B583B005460C4600F068F8134A144BF8
:1057F0001448156006211C6007F0E0FDA8B91248A6
:1058000007F0A4FE30B1114B1149124840F2D912F1
:1058100008F0E4FB0323009300224FF400630E49D9
:105820000E4807F0AFFE03B030BD084B0C490948E5
:1058300040F2D51208F0D2FBE1E700BF803D002026
:10584000843D00207C3D002070420020A0EC000838
:105850005CEC000870E600081956000880EC0008AF
:1058600038EC0008D0B1C9B170B50D4606460D49F7
:105870000D4C00E061682846FAF7AAFC28B12468BC
:10588000002CF7D16FF0050070BDE368A268B3602B
:1058900086E80C00F060237C337470BD6FF00F005D
:1058A000704700BF4C0D01089C0F0108704700BFF6
:1058B00040BA80B2704700BF00BA704708B507F021
:1058C00039FE02F081F802F0C3FA02F051FB07F052
:1058D00053FB03F0B9F8BDE8084007F083BA00BFF6
:1058E0002DE9F04782B08946924698460B9FBDF855
:1058F0003440064600284ED000221C21022002F02F
:1059000057FD054600284ED043891B2B3BD9204626
:105910006C68FFF7CDFFE08096F82430062B06D0A8
:10592000224B2349234840F26B4208F057FBD8F83A
:105930000030A360B8F80430A3813B68C4F812308B
:10594000BB88E3820A9BDFF878C01B68C4F80E307E
:105950000C9B4FF0060E1B68A361042140F606075E
:10596000C4F800C084F804E0617153464A462946F1
:105970003046009707F0EAFC284602F0ABFC002016
:1059800002B0BDE8F087094B0B490A4840F2644277
:1059900008F024FBBBE7054B084906484FF48B622F
:1059A00008F01CFBA8E74FF0FF30E9E79010010872
:1059B0000C11010870E60008D8100108C810010891
:1059C000000108002DE9F0435700DFF8FC8007EBE9
:1059D000020908EBC90985B099F81430012B144667
:1059E00005460E463AD9022B10D0182303FB048338
:1059F0000C3305F125094FF400644A463146284628
:105A0000009407F0A3FC05B0BDE8F083274408EB41
:105A1000C7077B8AB3F58E7F2AD8B3F5877FE4D397
:105A200004EB4403DA0002F10C0301200432DFF836
:105A300090E0039008EB0304424405F12509281D7A
:105A400002928DE8014022464B4649462846FFF720
:105A500047FF60BB032223463A75CCE7154B164936
:105A6000164840F2ED2208F0B9FA99F81430BAE776
:105A700004EB4403DC00231D434405F125094FF0EA
:105A8000010E0F4802932A1D4B4601900092494691
:105A9000CDF80CE00B4A2846FFF722FF04F10C0377
:105AA00008B14344A7E7032243443A75A3E72346DA
:105AB000A1E700BF901001084410010870E600083B
:105AC00064270108F0260108883D00202DE9F84FE1
:105AD0008E46C74C002800F00582227D002A61D046
