:020000040800F2
:100000000000022069C30108E1BA0108E3BA01084F
:10001000E5BA0108E7BA0108E9BA010800000000E2
:100020000000000000000000000000006124010842
:10003000EBBA010800000000F12401085525010871
:10004000B9C30108B9C30108B9C30108B9C301089C
:10005000B9C30108B9C30108B9C30108B9C301088C
:10006000B9C30108B9C30108B9C30108B9C301087C
:10007000B9C30108B9C30108B9C30108B9C301086C
:10008000B9C30108B9C30108B9C30108B9C301085C
:10009000B9C30108B9C30108B9C30108B9C301084C
:1000A000B9C30108EDBA0108B9C30108B9C3010811
:1000B000B9C30108B9C30108B9C30108B9C301082C
:1000C000B9C30108B9C30108B9C30108B9C301081C
:1000D000B9C30108B9C30108B9C30108B9C301080C
:1000E000B9C30108B9C30108B9C30108B9C30108FC
:1000F000F9BA0108B9C30108B9C30108B9C30108B5
:10010000B9C30108B9C30108B9C30108B9C30108DB
:10011000B9C3010805BB0108B9C3010811BB010837
:10012000B9C30108B9C30108B9C30108B9C30108BB
:10013000B9C301081DBB0108B9C30108B9C301084F
:10014000B9C30108B9C30108B9C30108B9C301089B
:10015000B9C30108B9C30108B9C30108B9C301088B
:10016000B9C30108B9C30108B9C30108B9C301087B
:10017000B9C30108B9C30108B9C3010800000000F0
:08018000B9C30108B9C301086D
:020000040801F1
:1000000010B5054C237833B9044B13B10448AFF352
:1000100000800123237010BDF801002000000000C3
:10002000E4C5010808B5034B1BB103490348AFF30E
:10003000008008BD00000000FC010020E4C50108AC
:1000400010F8012B11F8013B012A28BF9A42F7D082
:10005000D01A7047034613F8012B002AFBD1181A57
:100060000138704753B94AB9002908BF00281CBF9E
:100070004FF0FF314FF0FF3000F07AB9ADF1080CCE
:100080006DE904CE00F006F8DDF804E0DDE90223B6
:1000900004B070472DE9F0478C460D460446089E93
:1000A000002B51D18A4217466DD9B2FA82FEBEF1B9
:1000B000000F0BD0CEF1200C01FA0EF520FA0CFC4B
:1000C00002FA0EF74CEA050C00FA0EF44FEA174A52
:1000D000250CBCFBFAF81FFA87F90AFB18CC45EA95
:1000E0000C4508FB09F3AB420AD9ED1908F1FF32C0
:1000F00080F02381AB4240F22081A8F102083D4408
:10010000ED1AA4B2B5FBFAF00AFB105544EA054417
:1001100000FB09F9A14509D9E41900F1FF3380F08A
:100120000A81A14540F2078102383C44A4EB09044E
:1001300040EA08400021002E61D024FA0EF400238A
:1001400034607360BDE8F0878B4207D9002E54D02D
:10015000002186E821000846BDE8F087B3FA83F164
:10016000002940F08E80AB4202D3824200F2FA8036
:10017000841A65EB03050120AC46002E3FD086E8CB
:100180001010BDE8F08712B90127B7FBF2F7B7FAF4
:1001900087FEBEF1000F34D1EB1B3A0C1FFA87FC2F
:1001A0000121B3FBF2F8250C02FB183345EA0345A5
:1001B0000CFB08F3AB4207D9ED1908F1FF3002D26E
:1001C000AB4200F2D1808046ED1AA3B2B5FBF2F04B
:1001D00002FB105543EA05440CFB00FCA44507D97B
:1001E000E41900F1FF3302D2A44500F2B8801846AA
:1001F000A4EB0C0440EA08409DE731463046BDE8D8
:10020000F087CEF1200405FA0EF307FA0EF720FA74
:1002100004F83A0C25FA04F448EA0308B4FBF2F1B6
:100220004FEA184502FB11441FFA87FC45EA0445D2
:1002300001FB0CF3AB4200FA0EF409D9ED1901F100
:10024000FF3080F08A80AB4240F2878002393D4423
:10025000EB1A1FFA88F5B3FBF2F002FB103345EA04
:10026000034500FB0CF3AB4207D9ED1900F1FF3851
:100270006FD2AB426DD902383D44EB1A40EA0141DE
:100280008FE7C1F1200722FA07F88B4005FA01F445
:1002900048EA030320FA07FE4FEA134CFD404EEAFA
:1002A000040EB5FBFCF94FEA1E440CFB19551FFA6E
:1002B00083F844EA054509FB08F4AC4202FA01F26E
:1002C00000FA01FA08D9ED1809F1FF3043D2AC4227
:1002D00041D9A9F102091D442D1B1FFA8EFEB5FB61
:1002E000FCF00CFB10554EEA054400FB08F8A04555
:1002F00007D9E41800F1FF3529D2A04527D90238E3
:100300001C4440EA0940A4EB0804A0FB02894C45C8
:10031000C6464D4615D312D056B1BAEB0E0364EB68
:10032000050404FA07F7CB401F43CC4037607460E4
:100330000021BDE8F0871846F8E69046E0E6C245A1
:10034000EAD2B8EB020E69EB03050138E4E7284670
:10035000D7E7404691E78146BEE7014678E7023895
:100360003C4445E7084608E7A8F102083D442BE76E
:10037000704700BF08B50B4B1A6842F400721A6050
:100380001A6842F480621A601A6842F480721A6035
:10039000032000F02FF800200BF064FB0BF040FB73
:1003A000002008BD003C0240034A044B11681B7842
:1003B0000B441360704700BF14440020000000206D
:1003C000014B1868704700BF1444002038B504463C
:1003D000FFF7F6FF631C1CBF054B1B78054618BFD3
:1003E000E418FFF7EDFF401B8442FAD838BD00BF88
:1003F00000000020074AD36823F4E0631B041B0CB1
:1004000043F0BF63000243F4003300F4E0600343B1
:10041000D360704700ED00E0174B30B5DC68C4F3E3
:100420000224C4F10703251D042B28BF0423062D35
:100430004FF0010505FA03F303F1FF338CBF033CD2
:1004400000241940A14005FA04F4013C2240002890
:1004500042EA01024FEA0212AFBF00F1604000F031
:100460000F00064BD2B2A5BF00F56140D2B21A54BC
:1004700080F8002330BD00BF00ED00E014ED00E087
:100480004209012300F01F0003FA00F0014B43F87A
:100490002200704700E100E04309012200F01F0044
:1004A00002FA00F02033024A42F82300704700BFEE
:1004B00000E100E090F83530022B03D08023436543
:1004C000012070470268052380F83530136823F057
:1004D000010313600020704782B0074B4FF4FA52BB
:1004E0001B68B3FBF2F3019300BF019B5A1E0192FC
:1004F000002BF9D102B070472400002007B500237B
:10050000019341F2180103685A5842F480125A507C
:100510005B580193FFF7E0FF019A03685A5003B05C
:100520005DF804FB70B5044629B14FF40063C36065
:100530004FF480438360E3692268E0681568002B0C
:10054000A36843EA0003304843F4007300EA05005F
:100550000CBF4FF48061002103430B431360012063
:100560001568FFF733FF236840221D6001205A60A1
:100570005D68FFF72BFF23685D6000259D60DD60EF
:100580009A6922F0BE021204120C42F080029A61B3
:1005900001209E69FFF71AFF236801209E61DD613B
:1005A000DD69FFF713FF2268184BD56141F218058A
:1005B000012051590B4043F0087343F00403535199
:1005C0005659FFF703FF2368114A5E5103F5805324
:1005D00001201A601D68FFF7F9FE226802F58053BA
:1005E0001D60A369012B07D141F21C01535843F44C
:1005F000803343F0400353506369064A9988116081
:100600001A68054B1A6070BD0F8120FF233FDEF88A
:100610008020C1024080024044800240F0B590F842
:100620004540012C4FF0020433D0012580F845509D
:1006300080F84440C16201F1200400254FF4801786
:1006400040F2F45E03F1FF3C9D420BD1026841F29F
:100650001003D150012380F84430002380F8453046
:100660001846F0BD0EFB052644F8186CC66944F820
:10067000207C2EB954F8206C46F4400644F8206CD7
:1006800065452CBF0E46264644F8146C01352034CF
:10069000DAE72046F0BD2DE9F04190F84540012C05
:1006A0004FF0020430D0012580F8455080F84440D6
:1006B000816201F1200400254FF0004644F2F45716
:1006C00040F2F45E03F1FF3C9D420CD1026841F21E
:1006D0000C03D150012380F84430002380F84530CA
:1006E0001846BDE8F0810EFB052844F8188C6545D6
:1006F0002CBF8846A04644F8206C44F81C7C44F883
:10070000148C01352034DFE72046BDE8F08100007D
:1007100090F84530012BF0B54FF0020368D001226C
:1007200080F8452080F8443029B980F8442080F8CA
:1007300045101046F0BDC36A1C68002C06DA12236F
:1007400080F84430002380F84530F2E740F2F4545A
:10075000A1422ED9B1FBF4F204FB12143CB30132D6
:10076000244C01F2F45104FB0211C1F30C010024EA
:1007700040F2F456571E1D6825F040551D601CB907
:100780001D6845F080551D60A74208BF1D685E606A
:1007900004BF45F000551D601D6808BF5960013455
:1007A00045F0004594421D60DB68E4D10DE0012A6C
:1007B000D6D11A6842F040521A601A68C1F30C018F
:1007C00042F0004259601A60DB68C36241F21402D1
:1007D00003689958490705D50421995041F204024C
:1007E00000219950012380F84430002380F84530DF
:1007F0001846F0BD0CFAFFFF90F84530012B30B5DC
:100800004FF002033BD0012280F8452080F84430AD
:1008100005241146836A1A68002A01DB013C06D1CF
:100820000123002280F8443080F8452027E01A6830
:10083000DD6802F44072B2F5007F03D10363816387
:100840008562E7E71A6812F4407F826B02D10132B9
:100850008263F5E70132012A08BF036343631B6823
:100860008263C3F30D43043BC363036B9B68036460
:10087000012380F844300023856280F84530184613
:1008800030BD7047704770B5026841F214060446E7
:10089000955915F0400521D00AF092FD23684022B9
:1008A0009A51012384F84430002384F845302368AA
:1008B00041F214054FF480325A515B591B040CD598
:1008C0002046FFF7DFFF23684FF400425A5101230F
:1008D00084F84430002384F8453070BD9359DA071A
:1008E000E5D5FFF7CEFF22680123935184F8443009
:1008F00084F84550DBE7F8B590F84430822B054684
:10090000164630D00268822380F84430136989018A
:1009100001F4F86403F01C012143048AE402A4B248
:100920000C4344F001041461FFF74AFD074614F03C
:10093000010007D12B685B699BB23360012385F806
:100940004430F8BDFFF73CFDC01BB0F5803F07D336
:10095000012385F84430002385F845300320F8BD95
:100960002B681C69E3E70220F8BD90F84430422B65
:1009700070B505462ED0422380F8443003688C01C0
:10098000186904F4F86444F0030400F01C002043E8
:100990002C8AE402A4B2044392B25A611C61FFF7AC
:1009A0000FFD064614F0010003D1012385F8443001
:1009B00070BDFFF705FD801BB0F5803F07D3012315
:1009C00085F84430002385F84530032070BD2B683E
:1009D0001C69E7E7022070BDF7B5002300930446C9
:1009E000002800F0DE8090F8443003F0FF021BB9CD
:1009F00080F845200AF088FC002301936A4B5A6C6A
:100A000042F480425A645B6C03F480430193019B7F
:100A1000664B5A6822F400025A605A68216A0A43F7
:100A20005A60236803F580531A6842F001021A6085
:100A3000FFF7C6FC0546236803F580521268D0070D
:100A40001DD41D6900F074FE594B5A4A0344934269
:100A500025F01C0522D845F0080523684FF4004214
:100A60001D6100212046FFF780FF054668B3012184
:100A700020460125FFF756FD84F844500BE0FFF7B0
:100A80009FFC401BB0F5FA7FD5D90325002384F8DD
:100A9000445084F84530284603B0F0BD464B474AE1
:100AA0000344934202D845F00C05D6E7444B454A2F
:100AB00003449342D1D9444B444A0344934294BFE4
:100AC00045F0040545F01005C7E7FF20FFF77EFC61
:100AD0006368002B53D0FFF773FC41F2883706465A
:100AE0006A4601212046FFF706FFFFF769FC801BDD
:100AF000B8420BD901212046FFF714FD012384F8E9
:100B00004430002384F845300325C4E7009B59078F
:100B1000E6D54FF4805200212046FFF726FF00283B
:100B2000A5D1FFF74DFC41F2883706466A46012100
:100B30002046FFF7E0FEFFF743FC801BB842D9D800
:100B4000009B9A06F2D56A4610212046FFF7D3FE95
:100B500000288CD1009B13F0040218BF4FF40062F0
:100B60009B074CBF00234FF48043E260A360002149
:100B70002046FFF7D7FC012384F844308BE7A368B5
:100B8000E2685B0843EAD20292B229462046FFF7A8
:100B9000ECFE00287FF46BAF40F6FF70FFF716FC09
:100BA000E5E7012577E700BF003802400038014043
:100BB00000D3CEFEBFE1E40040F1E9FD3F787D01C6
:100BC00000796CFCFF596202001F0AFA7FF0FA02FA
:100BD00090F84530012B73B505464FF0020031D037
:100BE00000242B6885F8440001941A68012642F01D
:100BF000080285F845601A601B680193FFF76CFCDA
:100C00002B68019A1A6000941A6842F004021A6074
:100C10001B680093FFF760FC2B68009A1A60284657
:100C2000FFF76CFC2A6841F218032046D15841F4C2
:100C30000051D150D15841F00201D15085F84460A3
:100C400085F8454002B070BD084910B50C6924F420
:100C500040740C610C6944F440740C610C6944F0FC
:100C600001040C610260436010BD00BF003C024003
:100C7000074B1A6922F440721A611A6942F4007231
:100C80001A611A6942F001021A610160704700BFDF
:100C9000003C0240074B1A6922F440721A611A693B
:100CA00042F480721A611A6942F001021A610180ED
:100CB000704700BF003C02401A4BDA68D20606D5E6
:100CC0001949CA6942F01002CA611022DA60DA6872
:100CD000900606D51449CA6942F00802CA6120226A
:100CE000DA60104BDA68510606D50F49CA6942F03E
:100CF0000402CA614022DA60DA68120606D50A499F
:100D0000CA6942F00202CA618022DA60054AD368E9
:100D10009B0706D50449CB6943F02003CB6102232E
:100D2000D3607047003C024018440020064B1A690B
:100D3000002ABFBF054A5A6002F188325A60BABF22
:100D40001869C00F00207047003C0240230167452E
:100D5000F8B5124B124C00220546DA61FFF730FB62
:100D600026460746E368DA030CD4E368DB0744BF92
:100D70000123E360F06810F0F20002D0FFF79CFF5F
:100D80000120F8BD691CEDD00DB90320F8BDFFF7B7
:100D900017FBC01B8542E5D2F7E700BF18440020CF
:100DA000003C02402DE9F041204D98462B7E012B5E
:100DB00007460E46144635D001234CF250302B76B0
:100DC000FFF7C6FFB0B9CFB9194B1A6922F44072C8
:100DD0001A611A691A611A69E4B242F001021A61D1
:100DE00034704CF25030FFF7B3FF114A136923F00F
:100DF0000103136100232B76BDE8F081012F04D19C
:100E0000A1B23046FFF746FFEBE7022F04D121469F
:100E10003046FFF72DFFE4E7224643463046FFF712
:100E200013FFDEE70220BDE8F08100BF1844002078
:100E3000003C0240074B1A6922F440721A611A6999
:100E400042F004021A611A6942F4803242EA002038
:100E500018617047003C024039B101291CD00229B9
:100E60000CBF4FF400714FF440710D4B1A6922F41E
:100E700040721A611A69114319611A6922F0F80265
:100E80001A611A6942F0020242EAC00018611A6946
:100E900042F480321A6170474FF48071E5E700BF79
:100EA000003C0240144B1A6891050FD51A6822F4D1
:100EB00000721A601A6842F400621A601A6822F41A
:100EC00000621A601A6842F400721A600A4B1A68CB
:100ED00052050FD51A6822F480621A601A6842F42B
:100EE00080521A601A6822F480521A601A6842F41A
:100EF00080621A60704700BF003C02402DE9F84351
:100F0000234E337E012B044688463FD001234CF20A
:100F100050303376FFF71CFF0546A8B94FF0FF337A
:100F2000C8F800302368012B13D1207CFFF782FF23
:100F30004CF25030FFF70CFF164A136923F00403FC
:100F400005461361FFF7AEFF002333762846BDE860
:100F5000F883A768DFF83C90E368A26813449F42D7
:100F6000F0D2217C3846FFF777FF4CF25030FFF784
:100F7000EFFED9F8103023F0FA03C9F8103018B199
:100F8000C8F800700546DDE70137E5E70225DDE733
:100F900018440020003C02402DE9F04F85B00B685A
:100FA000DFF8AC81684ADFF8AC91019300234FF081
:100FB000010E019C0EFA03FE0EEA0406B64540F04F
:100FC000AE804C6824F01007022F16D14FEAD30AE6
:100FD00000EB8A0A03F0070BDAF820504FEA8B0B7C
:100FE0004FF00F0C0CFA0BFC25EA0C0C0D6905FAFE
:100FF0000BF545EA0C05CAF820504FEA430A0325D1
:10100000D0F800B005FA0AF5ED4304F0030C0BEA42
:10101000050B0CFA0AFC013F4CEA0B0C012FC0F83F
:1010200000C011D8876807EA050BCF6807FA0AFCE9
:101030004CEA0B078760476827EA0E0EC4F30017D7
:101040009F4047EA0E074760C7683D408F6807FA30
:101050000AF73D43C560E50061D54FF0000BCDF8C0
:101060000CB0D8F84470394D47F48047C8F8447044
:10107000D8F8447007F480470397039F23F00307D1
:1010800007F1804707F59C3703F0030CD7F808A059
:101090004FEA8C0C4FF00F0E0EFA0CFEA8422AEA13
:1010A0000E0E43D005F58065A84241D005F5806558
:1010B000A8423FD005F58065A8423DD005F5806582
:1010C000A8423BD048453BD005F50065A84239D041
:1010D00005F58065A84214BF0825072505FA0CF51B
:1010E00045EA0E05BD601568F74314F4803F0CBF58
:1010F0003D4035431560556814F4003F0CBF3D403A
:1011000035435560956814F4801F0CBF3D4035434E
:101110009560D568A40254BF3D403543D560013386
:10112000102B7FF444AF05B0BDE8F08F5D46D5E7E6
:101130000125D3E70225D1E70325CFE70425CDE735
:101140000525CBE70625C9E7003C01400000024029
:1011500000380240001402402DE9F04F464EDFF8FF
:1011600020A1DFF820B100244FF0010909FA04F2B0
:1011700032EA01036CD1032304FA09F5076803FA84
:1011800005F5ED4324FA03FC2F4000EB8C0C0760BF
:1011900004F0070EDCF820800F274FEA8E0E07FAC6
:1011A0000EFE28EA0E0ECCF820E0D0F808E005EAA2
:1011B0000E0EC0F808E0D0F804E0D24302EA0E0EAA
:1011C000C0F804E0D0F80CE005EA0E05C56024F094
:1011D000030505F1804505F59C3504EA030E274B10
:1011E000D5F808C04FEA8E0E07FA0EF798420CEABF
:1011F000070C32D003F58063984230D003F580634A
:1012000098422ED003F5806398422CD003F580637A
:1012100098422AD003F58063984228D0504528D0C0
:1012200058450CBF0723082303FA0EF39C450FD142
:10123000AB6823EA0707AF60336813403360736815
:1012400013407360B3681340B360F3681A40F260F0
:101250000134102C88D1BDE8F08F0023E4E74B4621
:10126000E2E70223E0E70323DEE70423DCE70523CC
:10127000DAE70623D8E700BF003C01400000024047
:1012800000180240001C02400AB181617047090445
:10129000FBE7436959404161704700002DE9F34184
:1012A000044618B9012002B0BDE8F0810368DD07EB
:1012B00010D42368980758D423681A0700F19A803D
:1012C00023685B0700F1B880A269002A40F0198109
:1012D0000020E8E7A64B9A6802F00C02042A07D027
:1012E0009A6802F00C02082A0AD15B68590207D5F5
:1012F0009F4B1B689A03DCD56368002BD9D1D1E7DB
:1013000063689B4DB3F5803F11D12B6843F4803364
:101310002B60FFF755F8964D06462B689B03C8D403
:10132000FFF74EF8801B6428F7D90320BBE7B3F51D
:10133000A02F04D12B6843F480232B60E5E72A68B3
:1013400022F480322A602A6822F480222A60002B4C
:10135000DFD1FFF735F806462B689F03A9D5FFF7C5
:101360002FF8801B6428F7D9DFE7814B9A6812F0C9
:101370000C0F07D09A6802F00C02082A11D15B68A2
:101380005E020ED47A4B1A68950702D5E268012AEC
:1013900088D11A68216922F0F80242EAC1021A6073
:1013A0008AE7E268734BB2B101221A60FFF708F8CE
:1013B0006F4D06462B68980707D52B68226923F0E6
:1013C000F80343EAC2032B6076E7FEF7F9FF801BC0
:1013D0000228EFD9A9E71A60FEF7F2FF644D06462E
:1013E0002B6899077FF568AFFEF7EAFF801B02289C
:1013F000F6D99AE76269604B7AB101221A60FEF76A
:10140000DFFF5B4D06466B6F9F073FF559AFFEF759
:10141000D7FF801B0228F6D987E71A60FEF7D0FFB6
:10142000534D06466B6F98077FF54AAFFEF7C8FF2E
:10143000801B0228F6D978E74D4B1A6C12F08052C7
:1014400028D101921A6C42F080521A641B6C03F08E
:1014500080530193019B0126484D2B68D9051BD56C
:10146000A368434D012B27D12B6F43F001032B675A
:10147000FEF7A6FF3E4D074641F288382B6F9B07CB
:1014800039D5002E3FF420AF394A136C23F0805336
:10149000136419E70026DFE72B6843F480732B60A1
:1014A000FEF78EFF07462B68DA05D9D4FEF788FFD2
:1014B000C01B0228F7D938E7052B04D12B6F43F066
:1014C00004032B67D0E72A6F22F001022A672A6FF4
:1014D00022F004022A67002BCAD1FEF771FF41F205
:1014E000883807462B6F9807CBD5FEF769FFC01BDE
:1014F0004045F7D919E7FEF763FFC01B4045BDD94A
:1015000013E71B4DAB6803F00C03082B3FF4CAAE86
:101510001B4E0023022A336034D1FEF751FF0746E9
:101520002B6899011ED4226AE3691343626A43EA75
:101530008213E26A43EA0263A26A0D4C5208013A3E
:1015400043EA02436B6001233360FEF739FF05462F
:1015500023689A013FF5BCAEFEF732FF401B02281C
:10156000F6D9E2E6FEF72CFFC01B0228D8D9DCE64C
:101570000038024000004742800E474200700040A1
:1015800060004742FEF71CFF04462B689B017FF575
:101590009FAEFEF715FF001B0228F6D9C5E600BF77
:1015A000134908B58B6803F00C03042B03D0082BF8
:1015B00003D0104808BD104808BD4A684B68496808
:1015C00013F4800314BF0C480A48C1F3881118BFF4
:1015D000002302F03F02A1FB0001FEF743FD044B94
:1015E0005B68C3F3014301335B00B0FBF3F008BD5C
:1015F000003802400024F40040787D012DE9F041DC
:101600000D46044610B90120BDE8F081444B1A682C
:1016100002F00F028A4228D321688F072DD4C80711
:1016200040D43F4B1A6802F00F02954266D32268FD
:1016300051076CD4130707D53A4A2169936823F4FC
:10164000604343EAC1039360FFF7AAFF354B364A74
:101650009B68C3F30313D35CD840344B186000205D
:101660000AF000FA0020BDE8F081CAB21A701B68C7
:1016700003F00F039942C6D1CEE72A4B11F0040FB5
:101680001EBF9A6842F4E0529A600E0742BF9A6801
:1016900042F460429A609A68A06822F0F002024325
:1016A0009A60BCE762681F4B012A1DD11B6813F4C6
:1016B000003FA8D01B4EB36823F003031343B3606D
:1016C000FEF77EFE41F288380746B368626803F091
:1016D0000C03B3EB820FA4D0FEF772FEC01B404593
:1016E000F3D90320BDE8F081911E01291B6802D8BF
:1016F00013F0007FDDE713F0020FDAE7EAB21A70A9
:101700001B6803F00F039D427FF47DAF8FE705490F
:10171000E0688B6823F4E05303438B608AE700BFE3
:10172000003C024000380240650802082400002006
:10173000014B1868704700BF24000020044B054A85
:101740009B68C3F38223D35C034A1068D840704778
:10175000003802407508020824000020044B054AA6
:101760009B68C3F34233D35C034A1068D840704788
:101770000038024075080208240000200F2303608F
:101780000B4B9A6802F0030242609A6802F0F00282
:1017900082609A6802F4E052C2609B68DB0803F43E
:1017A000E0530361034B1B6803F00F030B607047AA
:1017B00000380240003C02400368DA6842F001024F
:1017C000DA601A6842F001021A600020704703686C
:1017D000DA6822F00102DA60196A41F2111211424C
:1017E00008D1196A40F24442114202BF1A6822F03D
:1017F00001021A600020704790F83830012B70B554
:101800004FF002031CD080F839300368012280F8C1
:1018100038209A6822F47F4222F077029A600A68A0
:10182000402A79D019D8102A00F093800AD8002ACB
:1018300000F08980012380F83930002380F83830A7
:10184000184670BD202A00F08A80302AF2D19A68AA
:1018500022F0700242F0370236E0702A36D01BD8F0
:10186000502A42D0602AE5D11C6A4D68CE6824F027
:1018700010041C6299691A6A21F4704122F0A002D6
:1018800042EA051241EA063199611A629A6822F029
:10189000700242F0670217E0B2F5805F11D0B2F536
:1018A000005FC7D18A684D689C68C9682A4324F4E0
:1018B0007F4442EA012222439A609A6842F48042BD
:1018C00002E09A6822F007029A60B3E78A684D68DE
:1018D0009C68C9682A4324F47F4442EA01222243D7
:1018E0009A609A6842F07702EEE74C68CE68196A0F
:1018F0001D6A25F001051D629A6921F00A0122F096
:10190000F00242EA061221439A6119629A6822F0B3
:10191000700242F05702D7E74C68CE68196A1D6A18
:1019200025F001051D629A6921F00A0122F0F002FA
:1019300042EA061221439A6119629A6822F0700203
:1019400042F04702C0E79A6822F0700242F00702B4
:10195000BAE79A6822F0700242F01702B4E79A6878
:1019600022F0700242F02702AEE7704770477047DE
:10197000704703681A69910710B504460ED5DA68F6
:1019800092070BD56FF002021A619B6901229B0737
:10199000027677D0FFF7EAFF0023237623681A69DF
:1019A000500710D5DA6851070DD56FF004021A619F
:1019B0009B69022213F4407F2276204668D0FFF70D
:1019C000D5FF0023237623681A6912070FD5DA683A
:1019D00010070CD56FF008021A61DB690422990721
:1019E000227620465AD0FFF7C1FF002323762368D2
:1019F0001A69D20610D5DA68D0060DD56FF010023C
:101A00001A61DB69082213F4407F227620464BD00E
:101A1000FFF7ACFF0023237623681A69D10708D5A6
:101A2000DA68D20705D56FF001021A61204609F085
:101A30004FFF23681A69100608D5DA68110605D524
:101A40006FF080021A61204600F0D7F823681A6907
:101A5000520608D5DA68500605D56FF040021A61C3
:101A60002046FFF785FF23681A69910622D5DA68B8
:101A700092061FD56FF0200220461A61BDE8104083
:101A800000F0BAB8FFF771FF2046FFF770FF83E759
:101A9000FFF76BFF2046FFF76AFF92E7FFF765FF4E
:101AA0002046FFF764FFA0E7FFF75FFF2046FFF740
:101AB0005EFFAFE710BD00002E4A0368904212D0CF
:101AC000B0F1804F0FD0A2F57C4290420BD002F5CE
:101AD0008062904207D002F58062904203D002F506
:101AE000784290421DD14A6823F070031343214A83
:101AF000904204D1CA6823F44073134328E0B0F144
:101B0000804FF7D01C4A9042F4D002F58062904298
:101B1000F0D002F580629042ECD002F5784290421B
:101B2000E8D0164A9042E5D002F580629042E1D0BA
:101B300002F580629042DDD0A2F598329042D9D071
:101B400002F580629042D5D002F580629042D1D0F9
:101B500003608B68C3620B688362064B984206D0B1
:101B600003F58063984202D00123436170470B69FB
:101B70000363F9E700000140000400400040014019
:101B800010B50446A0B190F8393003F0FF021BB93C
:101B900080F838200AF05CF8022384F83930206895
:101BA000211DFFF789FF012384F83930002010BD83
:101BB000012010BD90F83830012B10B54FF0020312
:101BC00018D080F8393003680C685A68496822F0E8
:101BD00070025A605A6822435A609A6822F0800262
:101BE0009A609A680A439A60012380F8393000238A
:101BF00080F83830184610BD704770470368DA68BF
:101C000022F49072DA605A6922F001025A612023AC
:101C100080F83A30704700002DE9F0470668C26846
:101C20003369C16923F44053134333610446836825
:101C30000069F2680343606922F41642034322F00C
:101C40000C020B431343F3607369A26923F44073DE
:101C50001343B1F5004F73617A4B7CD19E4203D0A0
:101C600003F580639E4244D1FFF778FD192505FBFB
:101C700000F360684FF064094000B3FBF0F3B3FB7E
:101C8000F9F34FEA0318FFF769FD636868435B00E7
:101C9000B0FBF3F7FFF762FD636868435B00B0FBDE
:101CA000F3F3B3FBF9F309FB1373DB003233B3FB3C
:101CB000F9F35B0003F4F877FFF750FD62686843BF
:101CC0005200B0FBF2FAFFF749FD636868435B001E
:101CD000B0FBF3F3B3FBF9F309FB13A3DB003233DF
:101CE000B3FBF9F303F0070343443B44B360BDE89F
:101CF000F087FFF723FD192505FB00F360684FF01F
:101D000064094000B3FBF0F3B3FBF9F34FEA0318A7
:101D1000FFF714FD636868435B00B0FBF3F7FFF760
:101D20000DFD636868435B00B0FBF3F3B3FBF9F3AD
:101D300009FB1373DB003233B3FBF9F35B0003F4ED
:101D4000F877FFF7FBFC626868435200B0FBF2FAD9
:101D5000FFF7F4FCB9E79E4202D03B4B9E4240D1D4
:101D6000FFF7FCFC676819254FF0640905FB00F3D9
:101D7000BF00B3FBF7F3B3FBF9F31F01FFF7EEFC72
:101D8000636868439B00B0FBF3F8FFF7E7FC636808
:101D900068439B00B0FBF3F3B3FBF9F309FB138338
:101DA0001B013233B3FBF9F303F0F008FFF7D6FC65
:101DB000626868439200B0FBF2FAFFF7CFFC6368F9
:101DC00068439B00B0FBF3F3B3FBF9F309FB13A3E8
:101DD0001B013233B3FBF9F303F00F0343EA0803AB
:101DE00083E7FFF7ABFC676819254FF0640905FB33
:101DF00000F3BF00B3FBF7F3B3FBF9F31F01FFF7E9
:101E00009DFC636868439B00B0FBF3F8FFF796FC0A
:101E1000636868439B00B0FBF3F3B3FBF9F309FB82
:101E200013831B013233B3FBF9F303F0F008FFF720
:101E300085FC626868439200B0FBF2FAFFF77EFC13
:101E4000BDE700BF001001400014014010B504467A
:101E500040B390F8393003F0FF021BB980F8382006
:101E60000AF062F82268242384F83930D36823F416
:101E70000053D3602046FFF7CFFE23681A6922F48F
:101E800090421A615A6922F02A025A61DA6842F4D1
:101E90000052DA6000202023E06384F8393084F8AF
:101EA0003A3010BD012010BD10B5044668B124239E
:101EB00080F839300AF0C2F80020E06384F8380076
:101EC00084F8390084F83A0010BD012010BD90F864
:101ED0003A30202B1CD1C9B1C2B190F83830012B57
:101EE00016D0C285828500232222C36380F83A205F
:101EF00002688162516980F8383041F00101516116
:101F0000D16841F49071D160184670470120704744
:101F100002207047704790F83A30222B10B532D12A
:101F2000836801690268B3F5805F836A1FD15268D4
:101F3000C9B9C2F3080223F8022B8362C48D013CA5
:101F4000A4B2C4856CB90368DA6822F49072DA60CE
:101F50005A6922F001025A61202380F83A3009F0D0
:101F6000F9FC002010BDD2B223F8012BE5E721B91E
:101F7000591C526881621A70E0E75268591C8162EC
:101F800002F07F02F7E7022010BD704703681A686D
:101F9000D96870B5160704465D6907D196065AD50B
:101FA0008D0658D5BDE87040FFF7B5BF15F00105A7
:101FB00002D111F4907F4ED0D30705D5CE0542BF94
:101FC000E36B43F00103E363500704D51DB1E36BFA
:101FD00043F00203E363930704D51DB1E36B43F0C1
:101FE0000403E363160704D51DB1E36B43F0080354
:101FF000E363E36B002B66D0950604D5880602D513
:102000002046FFF788FF23685D69E26B11072046D1
:1020100002D415F040051AD0FFF7F0FD23685A6985
:10202000520610D55A69606B22F040025A6150B1D5
:10203000254B0365FEF73EFA002844D0606BBDE8EF
:102040007040036D18472046FFF79FFF70BDFFF7F4
:102050009CFFE56370BD160627D50D0625D594F8BF
:102060003920212A2FD1A268B2F5805F226A17D1C8
:102070001188C1F308015960216979B902322262DD
:10208000E28C013A92B2E284EAB9DA6822F0800284
:10209000DA60DA6842F04002DA6070BD0132EEE7E1
:1020A000511C216212785A60EAE750060BD54A06A5
:1020B00009D5DA6822F04002DA60202384F839304A
:1020C0002046FFF727FF70BDCD20010808B5806BC3
:1020D0000023C385C384FFF758FF08BD08B501F08E
:1020E000DFF8002008BDEFF305830BB101F022B942
:1020F00001F01AB930B5B0F90840028A0B4690E8F1
:10210000220085B0842C14BF0334002403A801905E
:102110000094284600F0F4FF01280CBF039800202B
:1021200005B030BD08B5002808BF012001F014FA41
:10213000002008BD012000F05DBD000013B50024A3
:102140000A460194E8B1EFF30583A3B101AA214641
:1021500000F0DCFE012802D0FF2002B010BD019B80
:102160003BB1094B4FF080521A60BFF34F8FBFF362
:102170006F8F0020F1E7194600F004FE0128EBD133
:10218000F7E78020E9E700BF04ED00E0012910B582
:1021900008460CD10322002100F054FC044620B173
:1021A00000231A46194600F06FFC204610BD00249B
:1021B000FBE7000013B500240A460194E8B1EFF3F1
:1021C0000583A3B101AA214600F0A0FE012802D098
:1021D000FF2002B010BD019B3BB1094B4FF0805274
:1021E0001A60BFF34F8FBFF36F8F0020F1E71946DE
:1021F00000F0C8FD0128EBD1F7E78020E9E700BF38
:1022000004ED00E013B500240194EFF3058393B1CE
:1022100001A900F063FD012813D1019B13B900202F
:1022200002B010BD084B4FF080521A60BFF34F8FC1
:10223000BFF36F8FF3E71A46194600F025FC01281B
:10224000EDD0FF20ECE700BF04ED00E0FFF7DABFC0
:10225000002203C800F0F6BB1FB5002401910394CF
:10226000A24208BF0122EFF30583ABB1234603AAC4
:1022700001A900F0D1FC012802D0FF2004B010BD5C
:10228000039B3BB1074B4FF080521A60BFF34F8F57
:10229000BFF36F8F0020F1E701A900F0F5FB0128E3
:1022A000EBD1F7E704ED00E0F0B585B00026044679
:1022B000174608460391029601AD11B98023019398
:1022C00017E00096EFF30583D3B16A4602A900F048
:1022D0001DFE012804BF10230193009B18BF019627
:1022E0003BB10D4B4FF080521A60BFF34F8FBFF3DD
:1022F0006F8F95E8070084E80700204605B0F0BD21
:1023000002A900F03FFD012801D11023D7E7002FDB
:102310000CBF00234023D2E704ED00E0EFF3058378
:102320000BB100F056BE00F041BE10B5EFF30584CE
:102330001CB900F06FFE204610BD822010BDFFF7D3
:10234000F4BF00F1080343604FF0FF32C360036144
:102350000023826003607047002303617047436875
:102360004B609A688A609A68516099600368086156
:102370000133036070470A68531C30B50AD1036902
:102380005A684A6091608B60596003680861013344
:10239000036030BD00F108035C682568AA42EFD3F2
:1023A0002346F9E74168826803698A608268516060
:1023B0005968884208BF5A600022026118680138D3
:1023C000186070470A4B1B68013308D04FF0500368
:1023D00083F31188BFF36F8FBFF34F8FFEE74FF08A
:1023E000500383F31188BFF36F8FBFF34F8FFEE766
:1023F0000400002006480068006880F3088862B680
:1024000061B6BFF34F8FBFF36F8F00DF00BF0000D7
:1024100008ED00E0DFF80C00016841F47001016094
:102420007047000088ED00E04FF0807340F8043CF6
:10243000074B40F80C3C21F001016FF0020340F81B
:10244000081C40F8202C40F8243C4438704700BF5A
:10245000C52301080000000000000000000000008B
:10246000074B19680868B0E8F04F80F30988BFF39C
:102470006F8F4FF0000080F311887047AFF300803A
:10248000343E00204FF0500383F31188BFF36F8F69
:10249000BFF34F8F0A4A13680133012B13600DD12C
:1024A000084B1B6813F0FF0F08D04FF0500383F365
:1024B0001188BFF36F8FBFF34F8FFEE7704700BFE8
:1024C0000400002004ED00E0084A136843B94FF00F
:1024D000500383F31188BFF36F8FBFF34F8FFEE775
:1024E000013B13600BB983F311887047040000208F
:1024F000EFF30980BFF36F8F154B1A681EF0100FB2
:1025000008BF20ED108A20E9F04F10604DF8043D1F
:102510004FF0500080F31188BFF34F8FBFF36F8FE0
:1025200001F078F84FF0000080F3118808BC1968BA
:102530000868B0E8F04F1EF0100F08BFB0EC108A2A
:1025400080F30988BFF36F8F704700BFAFF300803F
:10255000343E002008B54FF0500383F31188BFF3D9
:102560006F8FBFF34F8F00F0EDFE18B1034B4FF0AC
:1025700080521A60002383F3118808BD04ED00E047
:10258000064B4FF47A721B68B3FBF2F3044A013B2B
:102590001360044B07221A60704700BF240000201C
:1025A00014E000E010E000E0314B324A13B5196846
:1025B000914208D14FF0500383F31188BFF36F8F1E
:1025C000BFF34F8FFEE71A682B4B9A4208D14FF0AA
:1025D000500383F31188BFF36F8FBFF34F8FFEE774
:1025E000264B1A78D2B20192FF221A701B78244A25
:1025F000DBB28DF803309DF8033003F05003137005
:10260000204B07221A6000219DF80300000602F10A
:10261000FF3423D401B11A601A68120202F4E06296
:102620001A60019B154ADBB21370174B1A6842F40B
:1026300070021A601A6842F070421A60FFF7A0FF39
:10264000124B00221A60FFF7E5FE114A136843F0AF
:1026500040431360FFF7CEFEFFF7B4FE9DF8032062
:102660005200D2B28DF8032001212246CCE700BFF0
:1026700000ED00E071C20F4170C20F4100E400E0C4
:10268000140200201802002020ED00E004000020C9
:1026900034EF00E0EFF305830F2B0ED9104A9B5C5B
:1026A000104A12789A4208D94FF0500383F31188E8
:1026B000BFF36F8FBFF34F8FFEE70B4B0B4A1B68C7
:1026C000126803F4E063934208D94FF0500383F398
:1026D0001188BFF36F8FBFF34F8FFEE7704700BFC6
:1026E000F0E300E0140200200CED00E018020020EE
:1026F00010B50F4B1A68824218D35C6819198842CA
:1027000001BF4168184609195960446801198A4295
:1027100007D1084909688A421FBF51681268091920
:1027200041609842026018BF186010BD1346E1E78F
:102730002C3E00201C0200202DE9F041044600F050
:10274000EBFD3E493E4D0B680BBB3E4A56071FBF93
:10275000D01D20F0070002F570531B1A14BF02466B
:102760004FF470531344083B23F00703364E0B60BD
:1027700000207060326058601860981A1360334B04
:1027800050601860324B18604FF000432B602F6888
:10279000274216D1002C41D004F1080358071CBF72
:1027A00023F00703083363B1294A1668B342904601
:1027B00007D8254A15686868834204D809688D429D
:1027C00007D100242AE02C68002CF7D02A462546A1
:1027D000F1E7296814681160C21A102A0FD9E818A5
:1027E000410708D04FF0500383F31188BFF36F8F78
:1027F000BFF34F8FFEE742606B60FFF779FF13492D
:102800006B680868F61A1F4386424FF00003C8F849
:10281000006038BF0E6008346F602B6000F024FE4B
:10282000630708D04FF0500383F31188BFF36F8F15
:10283000BFF34F8FFEE72046BDE8F0811C02002069
:10284000203E0020200200202C3E0020283E0020B8
:10285000243E002010B5044670B3184A50F8043CDA
:102860001268134208D14FF0500383F31188BFF36D
:102870006F8FBFF34F8FFEE750F8081C41B14FF048
:10288000500383F31188BFF36F8FBFF34F8FFEE7C1
:1028900023EA020340F8043C00F03EFD084A54F8E5
:1028A000043C1168A4F108000B441360FFF720FFFB
:1028B000BDE8104000F0D8BD10BD00BF203E002094
:1028C000243E002070B51546026C866B044642B962
:1028D00005689DB9406800F0D9FF65600136A663C0
:1028E00070BD6DB9806809F0A0FDA368226C134427
:1028F0006268A360934201D32368A3600020EDE7E0
:10290000C06809F092FD236CE26821685B421A44BA
:102910008A42E2603EBF62689B18E360022DEDD1FF
:102920000EB1013EEAE73046D8E7034610B41A6C10
:10293000084662B1D9685C681144A142D96024BFDD
:102940001968D960D9685DF8044B09F06EBD5DF86F
:10295000044B704770B50446FFF794FD94F845505A
:1029600004F124066DB2002D14DCFF2384F84530F9
:10297000FFF7AAFDFFF786FD94F8445004F1100616
:102980006DB2002D12DCFF2384F84430BDE87040A6
:10299000FFF79ABD636A002BE7D0304600F08EFE49
:1029A00008B100F017FF013D6DB2DCE72369002B91
:1029B000E9D0304600F082FE08B100F00BFF013D87
:1029C0006DB2DEE738B50D46044640B94FF050030E
:1029D00083F31188BFF36F8FBFF34F8FFEE7FFF7CD
:1029E00051FD206CE36B2268A2604343D1181B1A8F
:1029F00013446160E3600021FF23A16384F8443045
:102A000084F8453095B9236963B104F1100000F0F2
:102A100055FE38B10A4B4FF080521A60BFF34F8F0A
:102A2000BFF36F8FFFF750FD012038BD04F1100098
:102A3000FFF787FC04F12400FFF783FCF2E700BFF7
:102A400004ED00E070B50D46064640B94FF0500366
:102A500083F31188BFF36F8FBFF34F8FFEE74843B7
:102A60004830FFF769FE044638B145B92060E66397
:102A7000256401212046FFF7A5FF204670BD00F127
:102A800048030360F3E700002DE9FF478946019200
:102A90001F46044640B94FF0500383F31188BFF33B
:102AA0006F8FBFF34F8FFEE7002940F08880036CE3
:102AB000002B00F084804FF0500383F31188BFF3A4
:102AC0006F8FBFF34F8FFEE7019E002E00F08280D4
:102AD0004FF0500383F31188BFF36F8FBFF34F8F15
:102AE000FEE7019D1DB9FFF7EFFC002058E016B985
:102AF00002A800F025FEFFF7E7FC00F00DFCFFF751
:102B0000C1FC94F84430FF2B08BF84F8448094F84B
:102B10004530FF2B08BF84F84580FFF7D5FC01A99D
:102B200002A800F01DFE002843D1FFF7ABFCA66B06
:102B3000E56BFFF7C9FCAE4235D1019904F11000F5
:102B400000F0A2FD2046FFF705FF00F08DFC38B92C
:102B50004FF08053CAF80030BFF34F8FBFF36F8F31
:102B60000126FFF78FFCA26BE36B9A4201D3022F81
:102B7000B7D13A4649462046FFF7A4FE636A1BB127
:102B800004F1240000F09AFD38B1194B4FF0805247
:102B90001A60BFF34F8FBFF36F8FFFF795FC0120D3
:102BA00004B0BDE8F0872046FFF7D4FE00F05CFCDF
:102BB000D6E72046FFF7CEFE00F056FC95E7022F41
:102BC00002D1E36B012B0AD100F00AFE00283FF48A
:102BD0007BAF00264FF00008DFF814A0C1E74FF0EC
:102BE000500383F31188BFF36F8FBFF34F8FFEE75E
:102BF00004ED00E010B5024600210120FFF722FF9E
:102C0000044638B1002343600360C3601A46194686
:102C1000FFF73AFF204610BD2DE9F843884691465C
:102C20001F46044640B94FF0500383F31188BFF3A9
:102C30006F8FBFF34F8FFEE709BB036CFBB14FF003
:102C4000500383F31188BFF36F8FBFF34F8FFEE7FD
:102C500004F1240000F032FD002834D0B9F1000F57
:102C600031D00120C9F8000086F31188BDE8F8834F
:102C700001356DB284F8455025E00020F4E7022FBD
:102C800002D1E36B012B20D1FFF704FDEFF3118696
:102C90004FF0500383F31188BFF36F8FBFF34F8F53
:102CA000A26BE36B9A4201D3022FE6D194F8455010
:102CB0003A466DB241462046FFF704FE6B1CD7D161
:102CC000636A002BC4D10120CEE74FF0500383F399
:102CD0001188BFF36F8FBFF34F8FFEE770B50D46BE
:102CE000044640B94FF0500383F31188BFF36F8F50
:102CF000BFF34F8FFEE7036C43B14FF0500383F3F4
:102D00001188BFF36F8FBFF34F8FFEE703680BB9D6
:102D1000436873BBFFF7BEFCEFF311864FF050031F
:102D200083F31188BFF36F8FBFF34F8FA26BE36BF9
:102D30009A4201D3002014E094F8453001325BB28E
:102D4000A2635A1C10D1636A0BB9012009E004F197
:102D5000240000F0B3FC0028F7D0002DF5D00120AE
:102D6000286086F3118870BD01335BB284F845306A
:102D7000EBE74FF0500383F31188BFF36F8FBFF37E
:102D80004F8FFEE72DE9FF4788460192994604469A
:102D900040B94FF0500383F31188BFF36F8FBFF337
:102DA0004F8FFEE7002940F0A580036C002B00F058
:102DB000A1804FF0500383F31188BFF36F8FBFF3EF
:102DC0004F8FFEE7019E002E00F09A804FF05003D7
:102DD00083F31188BFF36F8FBFF34F8FFEE7636AF2
:102DE000E660002B6DD004F124005FE0019D1DB969
:102DF000FFF76AFB284667E016B902A800F0A0FCBE
:102E0000FFF762FB00F088FAFFF73CFB94F84430D0
:102E1000FF2B08BF84F8447094F84530FF2B08BF9F
:102E200084F84570FFF750FB01A902A800F098FC58
:102E3000002852D1FFF726FBA56BFFF745FB002DBD
:102E400045D1236833B9FFF71DFB606800F0D8FC5B
:102E5000FFF73AFB019904F1240000F015FC20462D
:102E6000FFF778FD00F000FB38B94FF08053CAF847
:102E70000030BFF34F8FBFF36F8F0126FFF702FBC8
:102E8000A56B002DB2D041462046E668FFF74DFD08
:102E9000B9F1000FA3D12368013DA56313B900F078
:102EA00045FD6060236963B104F1100000F006FC89
:102EB00038B1154B4FF080521A60BFF34F8FBFF3FC
:102EC0006F8FFFF701FB012004B0BDE8F0872046BB
:102ED000FFF740FD00F0C8FACFE72046FFF73AFDC4
:102EE00000F0C2FAFFF7CEFAA56BFFF7EDFA002D5E
:102EF000C3D17FE700F074FC00283FF463AF0026E5
:102F00000027DFF804A0B9E704ED00E02DE9F8435D
:102F100089469046054640B94FF0500383F3118827
:102F2000BFF36F8FBFF34F8FFEE771BB036C63B3CB
:102F30004FF0500383F31188BFF36F8FBFF34F8FB0
:102F4000FEE795F84460494676B22846FFF7EDFC67
:102F5000013C731CAC6313D12B690BB901200BE04E
:102F600005F1100000F0AAFB0028F7D0B8F1000F1F
:102F7000F4D00120C8F8000087F31188BDE8F88379
:102F8000013676B285F84460E8E7FFF783FBEFF39C
:102F900011874FF0500383F31188BFF36F8FBFF396
:102FA0004F8FAC6B002CCCD12046E5E710B5044622
:102FB00040B94FF0500383F31188BFF36F8FBFF315
:102FC0004F8FFEE7FFF75EFAA46BFFF77DFA20460E
:102FD00010BD40B94FF0500383F31188BFF36F8FDA
:102FE000BFF34F8FFEE7806B7047000010B5084AB3
:102FF000002302EBC3014C68844204D1002042F854
:103000003300486010BD0133102BF2D110BD00BF5A
:103010003844002010B5044640B94FF0500383F304
:103020001188BFF36F8FBFF34F8FFEE7FFF7DEFF0F
:103030002046BDE81040FFF70DBC0000064A1368AB
:103040001968064B19B94FF0FF321A6070471268C1
:10305000D268D2685268F8E7383E0020103F00205E
:10306000F8B51B4B1B4E1D680446306804300F46F4
:10307000FFF798F9334640B93168174EC96A32688C
:103080000120884022EA00023260621C07D137B179
:10309000196812480431BDE8F840FFF760B92C44C4
:1030A0001A68A542546007D90D4A10681968BDE82E
:1030B000F8400431FFF75FB90A4A10681968043113
:1030C000FFF759F9084B1A68944238BF1C60F8BDE5
:1030D000583F0020343E0020E03E0020303F0020DA
:1030E0003C3E0020383E0020103F00204FF05003AF
:1030F00083F31188BFF36F8FBFF34F8FFEE700009C
:103100002DE9F84F4FEA820A804650460F4699460D
:103110000B9EFFF711FB0546002800F09680542017
:10312000FFF70AFB0446002800F08C80AAF1040A8D
:10313000056355447B1E25F0070A00F134020F3762
:10314000597802F8011B13F8011F09B1BB42F7D1EE
:103150000A9D062D28BF06254FF0000B271DE562AE
:103160006564384684F843B0C4F848B0FFF7F4F813
:10317000C5F1070504F11800FFF7EEF8C4F84CB0EC
:103180002461A561646284F850B04A4641465046C5
:10319000FFF74AF9206006B13460FFF773F9324B4C
:1031A000324E1A68DFF8F08001321A603568002D5F
:1031B0004ED134601B68012B1DD108EB050014357E
:1031C000FFF7BFF88C2DF8D1DFF8D090284D484696
:1031D000FFF7B7F82846FFF7B4F82648FFF7B1F82D
:1031E0002548FFF7AEF82548FFF7ABF8244BC3F8A6
:1031F0000090244B1D60244A244913680868013359
:103200001360E26A012505FA02F3034314200B6000
:1032100000FB02803946FFF7A2F8FFF755F91C4B77
:103220001B6863B13368DA6AE36A9A4207D2194BC2
:103230004FF080521A60BFF34F8FBFF36F8F284655
:10324000BDE8F88F2846FFF705FB4FF0FF35F6E79E
:103250000F4B1B68002BCED13368DA6AE36A9A42BF
:1032600098BF3460C7E700BFCC3E0020343E00204A
:10327000F83E0020183F0020443F0020303F00204F
:10328000383E00203C3E0020DC3E0020E03E002096
:103290002C3F002004ED00E0403E0020E43E0020F2
:1032A00013B5174B01930024009423464FF400728A
:1032B00014491548FFF724FF012814D14FF050039B
:1032C00083F31188BFF36F8FBFF34F8F0F4B4FF016
:1032D000FF321A600E4B18600E4B1C6002B0BDE846
:1032E0001040FFF761B9013008D14FF0500383F36C
:1032F0001188BFF36F8FBFF34F8FFEE702B010BD91
:103300000C3F002038C60108A1350108103F0020FD
:103310002C3F0020583F0020024A136801331360FD
:10332000704700BFD83E0020014B1868704700BFAF
:10333000583F002008B5FFF7ADF9014B186808BDEC
:10334000583F00202DE9F84F3C4B1B68002B53D110
:103350003B4B1C6801341C60BCB93A4B1A681268BC
:1033600042B14FF0500383F31188BFF36F8FBFF367
:103370004F8FFEE7344A1968106818601160334AAD
:10338000136801331360FFF759FE314D314F2B683D
:103390009C424FF0000B3ED3DFF8A880DFF8C490CA
:1033A000D8F80020126872BB4FF0FF322A6032E07A
:1033B00006F1040A5046FEF7F5FFB16A19B106F1AD
:1033C0001800FEF7EFFFF06AD9F80030012202FA88
:1033D00000F11943204BC9F800104FF0140E51466C
:1033E0000EFB0030FEF7BBFF3868F16AC26A9142FB
:1033F00028BF4FF0010BD3E7184A1368013313605D
:103400004FF0000B11E0D8F80020D268D668716840
:103410008C42CDD229603A680F4BD16A14224A43BC
:103420009A58022A28BF4FF0010B0D4A1268002A51
:1034300018BF4FF0010B5846BDE8F88FD83E00206A
:10344000583F0020383E00203C3E0020143F002022
:10345000103F0020343E0020403E0020D43E00209B
:103460005C3F0020E03E00202DE9F843314C23680A
:1034700043B94FF0500383F31188BFF36F8FBFF34D
:103480004F8FFEE7FEF7FEFF2368013B23602468B1
:103490002CB10024FFF718F82046BDE8F883264B2E
:1034A0001B68002BF5D0DFF8A890244FDFF8A4802C
:1034B000D9F80030E3B90CB1FFF7C0FD204D2C68FE
:1034C00044B1204E0127FFF73DFF00B13760013CBA
:1034D000F9D12C601B4B1B68002BDAD01A4B4FF034
:1034E00080521A60BFF34F8FBFF36F8F0124D1E773
:1034F000D9F80C30DC68261D04F11800FEF752FFE5
:103500003046FEF74FFFE26A3968012505FA02F3FB
:1035100014200B4300FB028031463B60FEF71FFF87
:103520000A4BE26A1B68DB6A9A4224BF054B1D60A6
:10353000BEE700BFD83E0020CC3E0020E03E002089
:10354000D43E00205C3F002004ED00E0343E00202B
:10355000183F0020403E002008B540B90E4B4FF008
:1035600080521A60BFF34F8FBFF36F8F08BD0B4BB4
:10357000196841B14FF0500383F31188BFF36F8F87
:10358000BFF34F8FFEE7FFF7C7FEFFF769FDFFF7B9
:103590006BFF0028E2D008BD04ED00E0D83E00201B
:1035A00008B5174E174C236863B9174B1B68012BDE
:1035B000F8D9164B4FF080521A60BFF34F8FBFF30C
:1035C0006F8FEFE7FFF7A8FE3568FFF74DFF002D7F
:1035D000E9D0FEF757FFF368DD68281DFEF7E2FE2D
:1035E0000B4A1368013B13602368013B2360FEF71D
:1035F0006BFF286BFFF72EF92846FFF72BF9D2E770
:10360000443F0020D03E0020403E002004ED00E07A
:10361000CC3E0020174B1A68174B10B512B101228F
:103620001A6010BD1A60154B1B68B3FA83F3DBB246
:10363000C3F11F03142212495A4388188C5844B905
:103640004FF0500383F31188BFF36F8FBFF34F8F99
:10365000FEE744680832646844600A44944204BF48
:1036600062684260142202FB03135B68DA68054B50
:10367000D6E700BFD83E00205C3F0020E03E00209F
:10368000403E0020343E002010B50C4640B94FF0BB
:10369000500383F31188BFF36F8FBFF34F8FFEE7A3
:1036A000054B19681831FEF766FE20460121BDE87A
:1036B0001040FFF7D5BC00BF343E002038B5C368CA
:1036C000DC6844B94FF0500383F31188BFF36F8F68
:1036D000BFF34F8FFEE704F118052846FEF762FEA0
:1036E000114B1B68E3B9251D2846FEF75BFE0F4909
:1036F000E26A08680123934003430B600C4B1420DB
:10370000294600FB0230FEF72AFE0A4BE26A1B68DC
:10371000DB6A9A4283BF084B01201860002038BD45
:1037200029460648EFE700BFD83E0020E03E0020D3
:10373000403E0020343E00205C3F0020183F002027
:1037400008B508B9FFF7D2FC034B1B680360034BB5
:103750001B68436008BD00BF143F0020583F002095
:1037600038B50D46044640B94FF0500383F3118835
:10377000BFF36F8FBFF34F8FFEE741B94FF0500398
:1037800083F31188BFF36F8FBFF34F8FFEE7FEF710
:1037900079FE0E4B19682B685A1C10D00C4A206811
:1037A00012689042626801D091420DD2881A834219
:1037B0000AD95B1A13442B602046FFF7C1FF00248F
:1037C000FEF782FE204638BD0124F9E7583F00206D
:1037D000143F0020014B01221A6070475C3F00201B
:1037E000054B1B6833B1054B1B68002B0CBF022037
:1037F00000207047012070472C3F0020D83E002059
:103800002DE9F0410446002838D01D4DC36A2A68CE
:10381000D26A934232D282691A4E002AA1BF2A6824
:10382000D26AC2F1070282611427426907FB03636F
:103830009A4220D100F104084046FEF7B3FD124A37
:1038400048B9E06A4743F3592BB913680121814015
:1038500023EA010313602B681168D86AE062012330
:1038600083400B4313601423414603FB0060BDE813
:10387000F041FEF774BD2B68DB6AC362BDE8F081DE
:10388000343E0020403E0020E03E0020F8B50446D3
:1038900008B90020F8BD224B1B68984208D04FF0B1
:1038A000500383F31188BFF36F8FBFF34F8FFEE791
:1038B000836C43B94FF0500383F31188BFF36F8FCC
:1038C000BFF34F8FFEE7C16A426C013B91428364B4
:1038D000DFD0002BDDD1051D2846FEF763FD114E1C
:1038E000114A50B9E76A1421794373582BB9136808
:1038F0000120B84023EA00031360636CE362C3F164
:103900000701A1611168012404FA03F00843106063
:10391000142000FB03602946FEF721FD2046F8BD78
:10392000343E0020403E0020E03E0020044B1A6858
:103930001AB119688A6C01328A641868704700BF2E
:10394000343E00200A6810B50C320C4601F0F0FA43
:1039500008B994F9040010BD7FB558B90B4B0C4958
:103960000C484FF44A7208F065FA6FF00F0007B088
:103970005DF804FB01908DF80C10292301A906487D
:103980008DF80D30FFF7DEFFF1E700BF95C60108A7
:10399000C7C60108E3C60108794C010870B586B0B6
:1039A0000023044600930E4651B93E4B3E4940F277
:1039B000E7123E4808F03EFA6FF00F0006B070BD07
:1039C0000B6020B9374B3A4940F2E912F1E705465E
:1039D00015F8103B03F0F003102B0ED1284607F02A
:1039E000D8F850B904F1140007F0D3F8002814BF38
:1039F0006FF00A006FF00E00E0E7284607F0C9F804
:103A000048B9284B2B49294840F2F51208F012FA20
:103A10006FF00A00D2E794F9080010F10C0FCDDB2B
:103A200000226946284607F081F8237803F0F00366
:103A3000102B009B2AD10194ABB11B891E48039324
:103A400001A9FFF77FFF009AB2B9A36A13B1012160
:103A500020469847636843B994F90800002808BFD6
:103A60006FF00D00AAE70123E8E701212046FFF7E8
:103A700073FF6FF00E00A1E71289A36A13B1012151
:103A800020469847009B3360002097E733B9054BE9
:103A90000A49064840F23E2208F0CCF9009B1B6818
:103AA0001A89EAE795C6010898C70108E3C6010824
:103AB000B6C70108D1C70108394B0108F0C7010892
:103AC00070B50D4686B0114600F0C0FD04460028D2
:103AD0003FD006A98DF80C5041F8140D1E48FFF791
:103AE00031FF002835D063682BB11C4B1C491D48A1
:103AF000892208F09FF904F11005284607F049F8DB
:103B000028B9164B184917488A2208F093F904F18E
:103B1000140007F03EF828B1104B144911488C22CC
:103B200008F088F904F10C06304607F073F828B95C
:103B30000A4B0F490B488F2208F07CF9304607F0FA
:103B400066F8284606F0D2FF2146072002F09EFFC5
:103B50000024204606B070BDCD45010895C6010879
:103B600028C70108E3C6010849C701085EC7010864
:103B70007FC7010830B5044687B078B1019029238A
:103B800001A907488DF80D30FFF7DCFE054610B996
:103B9000204600F0A1FD284607B030BD0546FAE7F3
:103BA000CD4801087FB550B90B4B0C490C48FF229A
:103BB00008F040F96FF00F0007B05DF804FB094B07
:103BC0000190002908BF194603910748ADF810205D
:103BD00001A9FFF7B7FEEFE795C601087AC601080D
:103BE000E3C60108E4F20108FD4901087FB558B9B0
:103BF000094B0A490A484FF4B47208F01BF96FF0F8
:103C00000F0007B05DF804FB06A941F8140D054844
:103C1000FFF798FEF5E700BF95C601080BC701083E
:103C2000E3C601085D4A0108F7B504460D4651B9DF
:103C3000204B214940F28D12204808F0FBF86FF02C
:103C40000F0003B0F0BD00260E6020B9194B1C49CF
:103C500040F28F12F0E790F9080010F10C0FF0DB42
:103C600004F11407384606F094FFD0B138463246C6
:103C700001A906F05BFFA36A019F1BB13246012137
:103C800020469847019A0F4B9A4210D067B906F028
:103C9000FDFF94F908300C33A4BFF123237207F021
:103CA00001F86FF00E00CCE72F600020C9E76FF03D
:103CB0000C00C6E795C601083DC60108E3C6010829
:103CC0005DC60108B844002073B505460E4659B9D3
:103CD000204B21494FF41D72204808F0ABF86FF0DB
:103CE0000F05284602B070BD00220A6020B9194BAA
:103CF0001B4940F27622EFE7037803F0F003102B24
:103D000024D10620019202F0A5FE0446D8B128462F
:103D100001A9FFF743FE054620B12146062002F027
:103D2000B5FEDEE7019B33B90A4B0E490B4840F262
:103D30008A2208F07FF8019B236063600023A3813F
:103D4000A3603460CDE74FF0FF35CAE7FFF726FEEA
:103D50000546C6E795C6010898C70108E3C60108ED
:103D6000B6C70108F3FA010870B586B015460A9C7B
:103D700050B91D4B1D491E4840F2E62208F05AF882
:103D80006FF00F0006B070BD027802F0F002102A4A
:103D900009D0154B1749164840F2E72208F04AF8B7
:103DA0006FF00500EEE70DB90020EBE7027F920708
:103DB00013D4C3F380068EB9019003910E488DF899
:103DC000143001A90495FFF7BDFD0028DAD1002CBD
:103DD000EAD036B1049B2360D4E70126002CEBD156
:103DE000DEE72560CEE700BF95C60108FCC70108E5
:103DF000E3C6010818C80108914B01080321FFF729
:103E0000ABBD00002DE9F047064617461D46BDF83C
:103E100020900C4629B9224B22492348B12208F0B0
:103E200009F88EB91E4B21491F48B22208F002F84A
:103E30003846BDE8F04702F0AFBFB36A73B32A4615
:103E40003046BDE8F047184773689C4205D0144BD4
:103E500017491548BA2207F0EDFF06F11008404651
:103E600006F097FE0028E3D0062002F0F3FD04469A
:103E70000028DDD00760476005B12D68A5602146A8
:103E8000A4F80C9040463D8906F046FE0146002805
:103E9000D3D02046BDE8F04700F058BFBDE8F0871A
:103EA0000FCB010841CB0108E3C6010863CB010831
:103EB00082CB010810B544680146204603F0E2FBBE
:103EC0002046094903F0E2FB2046084903F0F6FBCF
:103ED00020460749022203F025FC20460549BDE89B
:103EE000104003F001BC00BF994401085D45010882
:103EF0001D440108F93E01082DE9F0410E46044633
:103F000030B9414B414942484FF4C27207F092FF29
:103F100065780027042D6760677062D106F0B6FEF1
:103F200094F908300C33A8BF277206F0BBFE0026B8
:103F3000A36A1BB10022042120469847A36A1BB143
:103F40000022114620469847A36A1BB10022022195
:103F50002046984704F11007384606F01AFE18B1BB
:103F60000021384606F0D8FD04F11407384606F063
:103F700010FE18B10021384606F0CEFD012D02D00A
:103F8000033D012D33D8237F23F004025B07227702
:103F900038D4636A33B91C4B1E491D4840F2B31232
:103FA00007F048FF636A1D681E710C35284606F04D
:103FB00031FE30B9144B184915484FF4DB7207F045
:103FC00039FF0023636206F061FE94F908300C3378
:103FD000A8BF267206F066FE2846BDE8F04106F04E
:103FE00013BE06F053FE267206F05CFEA0E7636A7D
:103FF00043B1054B0949064840F2BD12BDE8F04106
:1040000007F018BFBDE8F0810FCB01083AC80108DE
:10401000E3C6010847C8010861C801087AC8010859
:104020002DE9F8430F46044630B9754B754976487B
:1040300040F2E35207F0FEFE6378012B06D0704B8E
:104040007249714840F2E45207F0F4FE636A33B9F2
:104050006B4B6F496C4840F2E55207F0EBFE63682A
:1040600033B9674B6B49684840F2E65207F0E2FE0D
:10407000636A226ADB689A4206D3614B66496248EA
:104080004FF4BD6207F0D6FE636A227F99681E7CFA
:104090009007226A606801EB0209D968B0F86050A5
:1040A000A1EB020354BFC6F380084FF00108B3F53B
:1040B000803F2ABF4FF6FF739BB246F00206AB4229
:1040C0005FD9B8F1000F59D0002D5CD02A4491423D
:1040D00006D24B4B51494C4840F2136207F0AAFEFE
:1040E00033462A464946606805F0E6FB431CDBB2CE
:1040F000012B06466AD8B8F1000F47D0636ADB6827
:104100009D4243D2A36A1BB12A4603212046984709
:10411000237F43F010032377002E4CD1236A1D44E4
:10412000636A2562DA68954202D0B8F1000F40D088
:10413000DD600125606805F045FF10F10C0F01DB23
:10414000011D54D1636A0022DA600646636A1D6865
:104150001E710C35002363622362637006F096FDC6
:1041600094F908300C33A8BF267206F09BFD17B1F6
:10417000284606F049FD0020BDE8F88346F0020617
:10418000A4E71D46A2E76FF00606B7E76368B3F839
:10419000601040F2A152914203D9B3F86230042B6F
:1041A000BAD9A36A002BB7D02A46032120469847E4
:1041B000B2E73546BEE7721C08D1606805F002FF21
:1041C00010F10C0F064601DB031D03D1636A0022C8
:1041D000DA60BBE7B8F1000F03D14FF0FF30BDE864
:1041E000F883636A0022DA606FF00606AEE7002DFE
:1041F000F3D0626A156800230C351371ABE700BF7A
:104200000FCB01083AC80108E3C6010856C90108E6
:1042100047C8010873C9010889C90108BBC9010859
:104220002DE9F84F8A46044630B9714B71497248FE
:1042300040F2433207F0FEFD237803F0F003102B29
:1042400006D06B4B6D496C484FF4517207F0F2FD8C
:104250006378042B06D0664B6949674840F24532C3
:1042600007F0E8FD636833B9614B6649624840F284
:10427000463207F0DFFD636A33B95D4B62495E4841
:1042800040F2473207F0D6FD636A65681B7A032B5C
:1042900003F0010903F0020800F08480B9F1000F77
:1042A00005D02B7D5A1F012A7CD9082B7AD0B8F172
:1042B000000F11D0AF7E17F0100773D12B7D012BAB
:1042C0000CD10021284603F027FA27BB4246494675
:1042D000284603F0D9FD21E04746EFE7B9F1000F8A
:1042E00007D00021284603F0D1F90021284603F029
:1042F00013FAB8F1000F03D00021284603F0DEF9CD
:10430000002FE3D000221146284603F00BFA0021CB
:10431000284603F0E9F9284603F014FD064660B18B
:10432000431C0AD1636A93F809B0BBF1000F3FD177
:104330001FB1284603F044FE5E46636A1D681E7185
:10434000002363626370CEB937B1A36A66601BB1A4
:104350003246042120469847B9F1000F05D0A36AE0
:1043600063B10022114620469847B8F1000F05D0EE
:10437000A36A1BB1002202212046984706F086FC62
:1043800094F908300C33A8BF267206F08BFCBAF102
:10439000000F03D005F10C0006F036FC0026304675
:1043A000BDE8F88F0021284603F06CF9012785E766
:1043B0002B7D012B06D10E4B14490F4840F2E332FE
:1043C00007F038FDB8F1000F03D01149284603F07B
:1043D00075F9012228460F4903F0A4F928460E4931
:1043E00003F082F92146284603F04CF9D7E700BFD5
:1043F0000FCB010888C60108E3C6010894C801086C
:10440000B2C80108D6C8010847C80108E9C80108B0
:104410005D4501081D440108F93E010810B5044638
:1044200030B91A4B1A491B484FF49C7207F002FD31
:10443000617801291CD12046FFF7F2FD237FDA06BF
:1044400014D5626892B1B2F8600040F2A15188427E
:104450000CD9B2F86220042A08D823F0100323777D
:10446000A36A1BB10022022120469847002010BDFC
:104470000429E3D1626A1AB1537A0BB1013B53723A
:1044800001212046FFF7CCFED8E700BF0FCB010883
:104490003AC80108E3C601082DE9F8430546164667
:1044A00098460F4629B9284B28492948F92207F090
:1044B000C1FC9DBB244B27492548FA2207F0BAFCD2
:1044C0006FF005042046BDE8F8833846318903F0D3
:1044D0006FF8304602F060FCF4E7B8F1000F09D045
:1044E00006F0D4FB95F908300C33A8BF85F8088096
:1044F00006F0D8FB6EB137893146484606F00CFB12
:10450000044640B9AB6AEBB101463A4628469847A3
:10451000D8E73746F0E74FF0FF34D3E76B689F42A8
:1045200006D0094B0C490A484FF4807207F082FC10
:1045300005F11009484606F02CFB04460028CCD1B2
:10454000002EC2D10024BDE70FCB0108B0CA01087C
:10455000E3C60108D2CA0108F1CA010838B51546F8
:10456000044670B9164B1749174840F2611207F01C
:1045700061FC002038BD042908D10121FFF750FE5D
:1045800004E041780129F6D1FFF74AFD6368002B6A
:10459000EFD0B3F8601040F2A1529142E9D9B3F8DC
:1045A0006230042BE5D8237F23F010032377A36A1E
:1045B000002BDED02A46022120469847D9E700BFCB
:1045C0000FCB01083AC80108E3C6010838B500233B
:1045D000056803710446686828BB2B7803F0F00374
:1045E000102B14D0202B1CD106F0D4F9686022685F
:1045F000506850B113781449222B04BF012303746F
:1046000006F09EF923685B686BB9FF230AE003F0AC
:10461000A7FD686020684368002BF6D0FFF74AFCCE
:10462000F0E7FA232371236863B106F02FFB2368B8
:1046300093F908200C32A4BF22791A72BDE83840E1
:1046400006F030BB38BD00BF053E0108F8B5054691
:1046500007200F4602F0FEF90446A8B3057005F0E6
:10466000F0050023102D037243600ED0202D0CD0D6
:10467000164B174917484FF42A7207F0DBFB214607
:10468000072002F003FA00241EE004F110060621C0
:10469000304606F01BFA01460028F0D104F10C0068
:1046A00006F07FFA054618B1304606F01FFAE6E735
:1046B00004F1140006F072FA4FF0FF336570A36145
:1046C000A7626562256225772046F8BD0FCB0108F9
:1046D000E6C90108E3C6010838B54368044633B1AA
:1046E000164B174917484FF4387207F0A3FB04F133
:1046F000100006F04EFA30B1104B1349114840F249
:10470000E22207F097FB04F1140006F042FA30B100
:104710000A4B0E490B4840F2E52207F08BFB04F1EF
:104720000C05284606F073FA284606F078FA21466A
:104730000720BDE8384002F0A9B900BF0FCB01083F
:104740000CCA0108E3C601083ACA010874CA010884
:1047500073B500F110050446284606F01AFAB0B900
:104760001434204606F015FA00283DD102B070BD81
:10477000237803F0F003102B16D1019E3EB1606840
:1047800010B1318902F014FF304602F005FB01A997
:10479000284606F0EDF90130EAD1284606F0A6F9E0
:1047A000284606F0FBF9DBE7019800F0CFFAEEE7C8
:1047B000019DB5420BD02846FFF7CAFF686818B1C3
:1047C00003F0FEFB00236B602846FFF785FF01A97D
:1047D000204606F0CDF90130EAD1204606F086F9F0
:1047E000204606F0DBF9C1E7004EF0E7B8440020B0
:1047F0002DE9F0410F469046054620B96FF00504BB
:104800002046BDE8F08100F11404204606F0C1F90D
:104810000028F3D06FB92C49204606F07DF90246F6
:104820000028EBD1AB6A002BE8D001462846984718
:10483000E4E7A96A2878FFF709FF064668B9224924
:10484000204606F069F9024620B9AB6A13B1014669
:10485000284698474FF0FF34D2E74760FFF72AFB1E
:10486000204686F80880314606F056F9044618B30B
:1048700074680021204602F005FF2046002102F066
:1048800005FF2046002102F019FF002211462046B4
:1048900002F048FF0021204602F026FF06F1100436
:1048A00000237360204606F021F9204606F076F9D1
:1048B0003046FFF711FFCDE7AB6A002BA0D00246D0
:1048C0000146284698479BE7B8440020036870B526
:1048D0005D7804466DB11B7803F0F003102B06D011
:1048E000404B4149414840F2014207F0A3FA022DF2
:1048F00021D1002520682571FFF72AFF2368586819
:1049000060B11A7802F0F002102A32D0202A02D1C7
:10491000C56106F019F8236800225A602068836A8E
:1049200013B10022114698472068836A5BB10022C8
:104930000221984707E0032D03D123681B7F5B0703
:10494000D7D4FB23237120680C3006F063F90028CC
:1049500046D02368002B43D006F098F9236893F9DA
:1049600008200C32A4BF22791A72BDE8704006F00C
:1049700099B95A6A0AB91B6A33B11A4B1C491B48C8
:1049800040F2354207F056FA2068042343700323AF
:10499000237200214462FFF743FC08B323685B786D
:1049A000042B06D00F4B1349104840F23B4207F04E
:1049B00041FA114806F056F9206800210C3006F043
:1049C00008F90D4806F049F923685B7843B1054BB7
:1049D0000849064840F23F42BDE8704007F02ABA55
:1049E00070BD00BF0FCB01080CC90108E3C6010868
:1049F00020C901083BC90108BC44002010B5036868
:104A000093F9082012F10C0F04460FDA02712368A3
:104A10001BB306F03BF9236893F908200C32A4BFBE
:104A200022791A72BDE8104006F03CB9FA220271F0
:104A300058680028EBD01B7803F0F003102B07D048
:104A4000202BE4D1A289A16805F026FF2071DEE7C2
:104A5000A289A16802F0DEFCF8E710BD37B5036853
:104A600093F9082012F10C0F04460FDA0271236843
:104A700053B106F00BF9236893F908200C32A4BF58
:104A800022791A7206F00EF903B030BDF5220271D8
:104A900058680028EBD01A7802F0F002102A46D1AC
:104AA0005B78002B3FD1037D13B1FA232371DEE73E
:104AB0000DF10702FF2102F0F7FC054610B99DF841
:104AC0000730F3E72068103006F063F838B120684B
:104AD000103006F00BF82068103006F05FF8206800
:104AE00000232371143006F054F828B920680621F9
:104AF000143005F0EBFF207194F9043063B921689C
:104B000002234B704D60284602F0BCFD2368094922
:104B1000586802F001FEAAE7284603F013F923685B
:104B200000225A60A3E7022BA1D10023BEE7F023A5
:104B3000BCE700BFF1470108F8B500230371036823
:104B40005A68044612B92368A3B9F8BD1B7803F06C
:104B5000F003102BF7D185684FF6FF77BD4223682D
:104B60002E4628BF3E46B1B2586802F021FDAD1B6B
:104B7000F4D1E8E706F08AF8236893F908200C32AC
:104B8000A4BF22791A72BDE8F84006F08BB8000085
:104B900010B5036893F9082012F10C0F04460DDAE2
:104BA000027106F073F8236893F908200C32A4BF51
:104BB00022791A72BDE8104006F074B81A7802F033
:104BC000F002102A49D15A7812B1FB232371E8E789
:104BD0005A68002A3FD001225A705A6A0AB91B6AE1
:104BE00033B11F4B1F49204840F2836207F022F97E
:104BF000E36833B91A4B1D491B4840F2846207F041
:104C000019F92068002144620162FFF709FA30B304
:104C100023685B78012B06D0114B1549124840F2EE
:104C2000896207F007F9134806F01CF82068002194
:104C30000C3005F0CEFF0F4806F00FF823685B78C4
:104C4000012B0CD1064B0A49074840F28D62BDE8A2
:104C5000104007F0EFB8F523B8E7FA23B6E710BD28
:104C60000FCB010820C90108E3C6010842C90108A9
:104C70003BC90108BC44002010B5044600684368E5
:104C800063B1037803F0F003102B07D1227A437845
:104C9000032A01D0022B01D0032B0ED1F52323715F
:104CA00005F0F4FF236893F908200C32A4BF2279A1
:104CB0001A72BDE8104005F0F5BF012B01D1FB23AE
:104CC000EDE7D30701D5FFF743FD23685A6A0AB918
:104CD0001B6A33B1184B1949194840F21C7207F08E
:104CE000A9F820680423437044620021FFF798FA72
:104CF00008B323685B78042B06D00F4B114910488A
:104D000040F2217207F096F80F4805F0ABFF2068DB
:104D100000210C3005F05DFF0B4805F09EFF236875
:104D20005B7843B1044B0749054840F22572BDE862
:104D3000104007F07FB810BD0FCB010820C9010853
:104D4000E3C601083BC90108BC44002010B5044675
:104D500060B1006820B102F01FF800236360236097
:104D600021460620BDE8104001F090BE10BD0000B5
:104D700008B540B90F4B1049C222104807F05AF845
:104D80006FF00F0008BD19B90A4B0D49C322F4E7B3
:104D90001AB9084B0B49C422EFE7436833B15B688B
:104DA0000B6043685B891380002008BD6FF0010031
:104DB00008BD00BFA0CB01080FCC0108E3C6010865
:104DC00028CC010845CC01081D4B1B6807B513B161
:104DD0001C4A106898471C481B4D1C4E1C4C05F083
:104DE0003CFF284605F03EFF01A9304605F068FC6F
:104DF000284605F032FF019B33B923466922154945
:104E0000154807F017F8ECE71A78032A0BD0042AA4
:104E10000FD0022A11D1181D07C890470199092007
:104E200001F034FEDDE798685A6890470199082040
:104E3000F6E75A6898689047D3E723469B22DEE757
:104E4000643F0020683F0020BC440020603F0020F9
:104E5000BCCC0108ECCC0108E3C60108F8B5074654
:104E600010480E46154605F094FE28B90E4B0F4922
:104E70000F48B52206F0DEFF092001F0EBFD0446E5
:104E800068B10223037047608660C560014605482B
:104E900005F042FE28B12146092001F0F7FD4FF050
:104EA000FF30F8BD603F0020BCCC0108AFCC01084A
:104EB000E3C6010891F82B3013F0180F14BF024A13
:104EC000024AFFF7CBBF00BFC5A9010899590108E5
:104ED000F8B5074612480E46154605F05AFE28B9A1
:104EE000104B11491148EE2206F0A4FF082001F0F2
:104EF000B1FD044688B10323037047608660014614
:104F000007481DB105F0FCFD0020F8BD05F004FECA
:104F100028B12146082001F0B9FD4FF0FF30F8BD5F
:104F2000603F0020BCCC0108AFCC0108E3C60108FB
:104F300070B5064C0E460546204605F08EFE3046FE
:104F4000A847204605F08EFE002070BDBC4400201E
:104F500037B505460C4600F061F8134B13481D6049
:104F6000134B06211C6005F0B1FD30B1114B124905
:104F7000124840F2D51206F05DFF114805F05EFEC2
:104F800030B10C4B0F490D4840F2D91206F052FFD8
:104F90000323009300224FF400630B490B4805F0F4
:104FA00064FE03B030BD00BF643F0020603F0020BE
:104FB000683F0020BCCC01085ECC0108E3C60108B4
:104FC000BC44002081CC0108C94D0108A2CC0108D5
:104FD00070B50E460546A8B1A1B10C4C61683046CB
:104FE000FBF72EF840B9A3682B60E3686B60AB60F9
:104FF000E860237C2B7470BD2468002CEED16FF028
:10500000050070BD6FF00F0070BD00BFACEF010870
:10501000704740BA80B2704700BA704708B505F0D3
:1050200001FE01F0A3FA01F007FD01F052FD05F0C9
:1050300099FB02F0EDF9BDE8084005F017BB000050
:1050400070B51826074C46430546A05918B101F023
:10505000A3FE0023A351182303FB0544002323755B
:1050600070BD00BF6C3F00202DE9F3470B9D8946C2
:1050700092469846074630B92C4B2D492D484FF49F
:105080008B6206F0D7FE00221C21022001F0EEFE0A
:105090000646002847D043891B2B06D8234B2649B8
:1050A000244840F2644206F0C5FEBDF8340074683E
:1050B000FFF7AFFFE08097F82430062B06D01B4B9C
:1050C0001E491C4840F26B4206F0B4FED8F800308E
:1050D000A360B8F80430A3812B68C4F81230AB8801
:1050E000E3820A9B1B68C4F80E300C9B1B68A3610B
:1050F000012363700823A370062323710423002572
:10510000637140F606032570E5704A460093314608
:105110005346384605F0A2FC304601F03DFE2846D5
:1051200002B0BDE8F0874FF0FF30F9E7B5F00108B5
:10513000ECF00108E3C60108FAF001082BF10108C0
:105140002DE9F74F3E4B01910A2205460020944677
:10515000144681468046834696461E46BEF10A0F97
:105160001F7D12D19FB94FFA80FE01300A2803F14A
:105170001803F3D1019B990704D4BEF10A0F1CD187
:10518000DB0735D44FF0FF3009E0002FEDD0002DC4
:105190004AD029688A4659688A4545D140B203B049
:1051A000BDE8F08FC245E0D34FFA80FCD046DCE783
:1051B000CA4524BF44B2D146D7E75FFA8EF7182319
:1051C00003FB07631B7D33B11E4B1F491F4840F291
:1051D000871206F02FFE25B1182303FB07632A6808
:1051E0005A60182303FB07660023738278B2D6E760
:1051F0000A2C0FD01823E7B25C43335933B1114B5B
:105200001349124840F26F1206F014FE3846FFF7B9
:1052100017FFD4E7BCF10A0F02D05FFA8CF7F5E76D
:105220000A2AAFD0D7B2F1E7012FB3F812A0BFD14D
:105230001F68002FB6D0DA4597D342B2D34694E721
:105240006C3F0020B5F00108D7EF0108E3C6010864
:10525000C0EF010870B5084D064600242B7D2BB128
:10526000AB68B34202D12046FFF7EAFE01340A2CB4
:1052700005F11805F2D170BD6C3F00202DE9F04713
:10528000804686B00C4649B9464B474947484FF4DB
:10529000227206F0CFFD06B0BDE8F08745682B8886
:1052A000B3F5807F08D12B79062B05D16B79042BC0
:1052B00002D16B88082B03D0404601F06DFDEAE770
:1052C0004E68D5F80E300593AB6916B19B1B5E4254
:1052D0005E4194F82430002E14BF4FF001094FF0C6
:1052E0000209062B05F1080706D02E4B30492F483E
:1052F00040F2AB1206F09EFD059800283CD02146F6
:1053000000F095FC8246B8BB059B03F0F003E02B50
:1053100032D0494605A8FFF713FF00282CDB254BA8
:10532000182202FB00F103EB010E4FF0020C8EF885
:1053300014C04FF00C0CCEF8084012FB00C23868C5
:10534000985003EB020CBA88ACF8042053F8019093
:10535000AEF812A0B9F1000F0ED043F801A04FF43F
:105360000063009304F125023B464946204605F0C0
:1053700075FB484601F010FDEB88B3F5807F9BD1AB
:10538000002E99D00222039205AA04F1250302926D
:10539000221D009201973A4619462046FFF764FE07
:1053A0008AE700BFB5F00108ECF00108E3C6010888
:1053B0001FF001086C3F00201FB5024600F12503D5
:1053C0000291012405490191043200920394044A98
:1053D0001946FFF749FE04B010BD00BF6807020878
:1053E000FC060208F8B5134C002502260427227C8F
:1053F0006AB1E38901339BB2B3F5967FE38103D2AF
:10540000012A0AD1042B0CD92846FFF719FE0135D1
:105410000A2D04F11804EAD1F8BD032A06D1277435
:10542000F5E721466068FFF7C7FFF0E7042AEED1F1
:105430002674ECE7703F00202DE9F043274D144619
:10544000182202FB045285B0127D012A06468846C6
:1054500006D8234B2349244840F2ED2206F0EAFC0B
:10546000182101FB045906F1250799F81430022B85
:105470000DD1B9F81230B3F58E7F17D949460431F2
:105480003046FFF799FF10B9032389F81430182329
:1054900003FB04534FF4006200920C333A4641463A
:1054A000304605F0DBFA05B0BDE8F083B3F5877F41
:1054B000EDD304EB4403DB0003F10C0204332B4473
:1054C00002930A4B01930121331D039100932A4457
:1054D0003B4639463046FFF7C7FDD4E76C3F002016
:1054E000B5F0010843F00108E3C6010868070208A7
:1054F0002DE9F347894680460146D9F80000164653
:1055000000F095FB044600285ED1D9F8003003F086
:10551000F002E02A58D0002B56D001214846FFF770
:105520000FFE051E53DB404F182303FB05731A7D46
:105530001AB901241C75C3F80880182303FB0573EE
:105540001B7D33B9394B3A493A4840F2C93206F02B
:1055500071FC0CB9002E3CD149464046FFF72CFFA8
:10556000002E38D102B0BDE8F087FBD1DFF8BC8057
:10557000DFF8C890DFF8BCA034469CB9304601F093
:10558000C9FD002E4CD0B046182303FB05F21C4683
:10559000B85808B101F000FC04FB05F3002047F8FF
:1055A0000380DFE7628923899A4208D1236833B1F7
:1055B00043464FF47B724946504606F03BFC237B42
:1055C000012B1ED12468D8E76FF00F00CAE72846E8
:1055D000C8E74FF0FF30182303FB0572127D012A44
:1055E000C3D9154A15700C2213FB05234FF4006232
:1055F00000923B4408F125023146404605F02EFA60
:10560000B0E700222189022001F030FC804638B149
:10561000314601F0D5FD0028B6D0404601F0BCFB74
:105620004FF0FF309EE700BF6C3F0020B5F001084F
:1056300073F00108E3C601085C4000209BF00108FC
:10564000F0B50E4685B01546044630B93E4B3F498D
:105650003F4840F21B3206F0EDFB36B93A4B3D496C
:105660003B484FF4477206F0E5FB35B9364B3A49F3
:10567000374840F21D3206F0DDFB2146286800F075
:10568000D6FA00285BD12B6803F0F002E02A1DD186
:1056900001238DF808305E238DF80A306B788DF881
:1056A000090003F07F038DF80B30AB788DF80C30D8
:1056B000EB788DF80D3002AB4FF40062009231466A
:1056C00004F12502204605F0C9F91FE06268A168CF
:1056D0005A400A4208D09BB24FF6A962934203D0C7
:1056E000E36873B304F10C051C4B1D491A781820AC
:1056F00000FB0210017D0129194609D92F68436872
:105700009F4205D131462046FFF796FE05B0F0BD19
:10571000134B0022187D012806D92F68586887424C
:1057200002D1D2B20A70EDE701320A2A03F118035E
:10573000F0D1324629462046FFF7DAFEE6E7094B6C
:10574000BAE76FF00300E1E7B5F00108ECF00108FB
:10575000E3C6010837FB010800F001085C400020A7
:105760006C3F0020FC060208F0B5044687B00F46E7
:10577000164624210022012001F078FB0546A0B343
:105780004389232B06D81A4B1A491B484FF4B17290
:1057900006F050FB22686C68002323716371A371CB
:1057A000E37127706670134604F1080102F11C00D2
:1057B00053F8046B41F8046B8342F9D106AED36809
:1057C00046F8043D304600F0BBF858B100210123F3
:1057D000A170E170324602908DE80A002846FF234E
:1057E00000F014FA284601F0D7FA07B0F0BD00BF68
:1057F000D3F1010808F20108E3C601082DE9F043DE
:10580000444BD3F8089099F8005005F00F05AD000F
:10581000132D85B0044688461F462AD94289032A9B
:1058200027D942681278082A23D1586900F0F0027B
:10583000E02A1ED0196800F0FAF90646C8B9238993
:10584000072B16D905F10E01204601F09FFA00281A
:105850004FD021892944324689B2022001F006FB4B
:10586000064630B1428905F108039A4207D201F099
:1058700093FA204605B0BDE8F04301F08DBA4946E1
:105880002A46406806F0D1FD6942304601F07EFAB2
:1058900038B1214B21492248AF2206F0CBFA3046DD
:1058A000E5E72146304601F08BFC0028F7D1204681
:1058B00001F072FA344629462046666801F066FA1D
:1058C00002460028D5D161687B69CB603B690B61DA
:1058D000FF233070B070F0700B728872C8720121B3
:1058E00001910090CDF808800E49204600F08EF915
:1058F000BFE7C5F57F41F23109B2204601F046FA13
:105900000028D8D0044B08490548C02206F092FA76
:10591000AFE700BFC0440020D3F101086CF10108DB
:10592000E3C60108D4440020A1F101080A4604306E
:105930000321FFF719BF0A4604300B21FFF714BFFC
:1059400030B5134B1B686BB9124A1268EAB192F872
